:020000040800F2
:1000000028170020D1010008A1110008A91000083C
:100010009D110008250A0008753500080000000041
:100020000000000000000000000000009D2E0008FD
:10003000290A000800000000A5110008A12E0008F0
:10004000EB010008EB010008EB010008EB010008E0
:10005000EB010008EB010008EB010008EB010008D0
:10006000EB010008EB010008EB010008EB010008C0
:10007000EB010008EB010008EB010008EB010008B0
:10008000EB010008EB01000879090008EB0100080A
:10009000EB010008EB010008EB010008EB01000890
:1000A00071310008FD31000895330008AD310008BA
:1000B0000000000075340008EB010008EB010008A7
:1000C000EB010008EB010008EB010008EB01000860
:1000D000EB010008DD340008EB010008000000001F
:1000E000EB010008EB010008000000000000000028
:1000F0000000000000000000000000000000000000
:1001000000000000000000000000000000000000EF
:100110000000000000000000EB010008EB010008F7
:1001200000000000000000000000000000000000CF
:1001300000000000000000000000000000000000BF
:10014000EB010008000000000000000000000000BB
:10015000000000000000000000000000000000009F
:10016000000000000000000000000000000000008F
:10017000000000000000000000000000000000007F
:1001800000000000EB01000800000000000000007B
:10019000000000000000000000000000000000005F
:1001A000000000000000000000000000000000004F
:1001B0000000000000000000EB010008DFF80CD098
:1001C00000F09CFB00480047015A00082817002057
:1001D0000648804706488047FEE7FEE7FEE7FEE761
:1001E000FEE7FEE7FEE7FEE7FEE7FEE7DD2F00089D
:1001F000BD0100082DE9F05F0546002092469B46B0
:1002000088460646814640241BE02846414647462C
:10021000224600F048FA53465A46C01A914110D37C
:1002200011461846224600F02FFA2D1A67EB0108F6
:100230004F4622460120002100F026FA17EB000964
:100240004E41201EA4F10104DFDC484631462A4617
:100250004346BDE8F09F40EA01039B0703D009E055
:1002600008C9121F08C0042AFAD203E011F8013BA2
:1002700000F8013B521EF9D27047D2B201E000F8FB
:10028000012B491EFBD270470022F6E710B513463A
:100290000A4604461946FFF7F0FF204610BD10B588
:1002A0004843044608F02AFA002805D00021002C13
:1002B00002D0641E0155FAE710BD2DE9FE4F8046BD
:1002C00081EA0300C00F0C46009021F0004123F0AA
:1002D0000045B8EB0200A94105D2404621469046B0
:1002E0001C460B46024623F00040104347D0270D22
:1002F000C7F30A00C3F30A510290401A0190402844
:100300006BDAC3F3130040F4801B0098924620B1CF
:100310000023D2EB030A63EB0B0B01985946C0F1A3
:100320004002504600F0B0F906460D465046594688
:10033000019A00F0C8F910EB08006141002487EA37
:10034000115284EAE7731A4340D0009A62B3019ACB
:10035000012A4FEA075215DC001B61EB02014FF046
:10036000004202EA0752CDE90042001C41F580112B
:1003700032462B4600F0FFF903B0BDE8F08F40464F
:100380002146F9E7001B61EB0201001C41F58013D7
:1003900000185B412018A2F5001747EB030140EA63
:1003A000D570B6196D4111E06D084FEA360645EA81
:1003B000C0754FEA0752001B61EB0201001C41F5BA
:1003C000801149084FEA30000019514132462B464E
:1003D00003B0BDE8F04F00F0BFB900980122400023
:1003E0000023D0EB020263EBE073009821464FEA52
:1003F000E074B8EB000061EB0401E9E783F000432F
:100400005BE781F0004158E72DE9FE4F81EA0304E4
:1004100004F0004421F0004100944FF0000B23F061
:10042000004350EA01045ED052EA03045BD0C3F3F8
:100430000A54C1F30A552C44A4F2F3340194A0FBEE
:100440000254C1F3130141F48011C3F3130343F4C5
:10045000801301FB024400FB034E840A970A44EA1E
:10046000815447EA8357A4FB076802958D0A05FB70
:1004700007854FEA932C04FB0C542705029D4FEA95
:10048000065847EA1637B5EB08056EEB070C870EE2
:10049000920E47EA811742EA8312A7FB0201B6EBEC
:1004A0000B0164EB00042B0D43EA0C335E1844EBA4
:1004B0001C50DA465146E7FB0201C5F313044FEA2C
:1004C0000B3343EA14534FEA0432019C43EA060318
:1004D000A4F10C040294009CCDE900B400F04BF9A7
:1004E00003B0BDE8F08F00200146F9E72DE9F04D9B
:1004F00081EA030404F0004B21F0004514464FF05C
:10050000000A23F0004150EA050220D054EA01021B
:100510001DD0C5F30A570246C5F31303C1F31300F8
:10052000C1F30A5640F4801543F48013A7EB060884
:10053000101BD64608F2FD3873EB050002D308F114
:10054000010801E092185B41B8F1000F03DA0020C6
:100550000146BDE8F08D00204FF480110646844628
:100560000EE0171B73EB050705D3121B63EB0503A6
:1005700006434CEA010C49084FEA300092185B41EF
:1005800050EA0107EDD152EA030012D082EA0400DA
:1005900083EA0501084305D0101BAB4106D20122B6
:1005A000002306E000224FF0004302E06FF001025A
:1005B00053101AEB06004CEB085110EB0A0041EB0C
:1005C0000B01BDE8F04D00F0C7B80EB5C10F80EAD1
:1005D000E0700844CA07002140F233438DE80E0062
:1005E0000A460B4600F0C7F803B000BD70B5C1F372
:1005F0000A5201F000450024C1F3130140F2FF3319
:1006000041F480119A4201DA002070BD40F2334378
:100610009A42A2F2334203DC524200F044F800E076
:1006200090402C43F1D0404270BD00F0004230F0C9
:1006300000400AD0C10D01F56071C0F3160042EA16
:100640000151C2084007114370470020014670471E
:1006500001F0004330B421F0004150EA010206D01D
:100660000A0DA2F56072C1F31301002A02DC30BC4E
:1006700000207047440F44EAC104C100E01830BCB8
:1006800000EBC25000F031B8202A04DB203A00FA17
:1006900002F1002070479140C2F1200320FA03F3D9
:1006A000194390407047202A04DB203A21FA02F0D7
:1006B0000021704721FA02F3D040C2F1200291409C
:1006C000084319467047202A06DBCB17203A41FA27
:1006D00002F043EAE07306E041FA02F3D040C2F1CF
:1006E000200291400843194670470029A8BF70476F
:1006F000401C490008BF20F00100704710B4B0FA58
:1007000080FC00FA0CF050EA010404BF10BC7047F2
:1007100049B1CCF1200421FA04F411FA0CF118BF0C
:10072000012121430843A3EB0C01CB1D4FEA0061DB
:100730004FEA102042BF002010BC704700EBC350AE
:1007400010440029A4BF10BC7047401C490008BFDA
:1007500020F0010010BC704710B5141E73F10004A6
:1007600008DA401C41F1000192185B411A4301D1A3
:1007700020F0010010BD2DE9F04D92469B4611B1CD
:10078000B1FA81F202E0B0FA80F220329046FFF72F
:100790007BFF04460F4640EA0A0041EA0B0153463C
:1007A0005A46084313D0114653EA010019D0C8F144
:1007B00040025046FFF777FF05460E465046594621
:1007C0004246FFF761FF084305D0012004E02046C0
:1007D0003946BDE8F08D0020054346EAE0762C431B
:1007E00037430A986305E40AA0EB08000022FD0ADB
:1007F00044EA47540A3002D500200146E9E70105E2
:1008000010196941DDE9084500196941BDE8F04D5D
:10081000A2E700002DE9F041054621F000400C461A
:10082000284309D0C4F30A5040F23341884205DD21
:1008300028462146BDE8F0812846FBE740F2FE311C
:10084000884210DC0CDB4FEA043040EA155050EAD5
:10085000053105D0104804F0004101430020E9E7CC
:1008600000200146E6E7A0F233404642C6F14002CE
:1008700028462146FFF708FF0746884628462146B6
:100880003246FFF710FF43463A46FFF765FF324610
:10089000BDE8F041FFF7F8BE0000F03F30B5041EA0
:1008A00071F1000404DB4FF00044404264EB0101AD
:1008B000141E73F1000405DB1C464FF00043524246
:1008C00063EB04038B4208BF824230BD30B5041E87
:1008D00071F1000404DB4FF00044404264EB01017D
:1008E000141E73F1000405DB1C464FF00043524216
:1008F00063EB0403994208BF904230BD064C074D9C
:1009000006E0E06840F0010394E8070098471034DF
:10091000AC42F6D3FFF756FC188800083888000868
:1009200070B58C1810F8015B15F0070301D110F8B1
:10093000013B2A1106D110F8012B03E010F8016BDE
:1009400001F8016B5B1EF9D12B0705D40023521E61
:100950000DD401F8013BFAE710F8013BCB1A921CC9
:1009600003E013F8015B01F8015B521EF9D5A142C7
:10097000D8D3002070BD0000B0B540F25804C2F2D8
:100980000004E068042102F093FE002841D0E068F2
:10099000042102F089FE40F24A30C2F200000078E1
:1009A000012837D1E068002103F0CEFA40F240354B
:1009B000E168C2F2000528800846012103F0C4FA6C
:1009C000E16868800846022103F0BEFA2988A88001
:1009D00059291ED8698859291BD8592888BFB0BD04
:1009E00040F68040C2F2000040F21D11C0E9031140
:1009F0000021416040F2947040F24022C2F20000B7
:100A0000C2F200020068C2E90411BDE8B04005F07E
:100A1000BDBEB0BD40F2B000C2F20000BDE8B040C3
:100A200004F058BAFEE700007047000070B50928CE
:100A300088BF70BDDFE810F00A0025005200610099
:100A40008400A300E600FF00A20021010020C4F200
:100A5000010004F0A3FA40F21030C2F200000022BC
:100A6000027040F2133342F20010C2F20003C4F2EB
:100A7000010000F55F4008211A70BDE8704004F0E5
:100A800051BF0020C4F2010004F088FA05F0CCFC4C
:100A900041F2C800C2F200000022028040F2402071
:100AA000C2F20000C0E9042240F21030C2F200009D
:100AB000027040F21330C2F20000027040F21A30AD
:100AC00040F21233C2F20000C2F2000302700220B0
:100AD00010211A70BDE8704003F096BD41F2C800C5
:100AE000C2F200000021018040F21330C2F2000087
:100AF0000170BDE8704005F01BBF41F2C800C2F2B2
:100B000000000021018005F057FE05F085FE40F24F
:100B10005804C2F20004204603F0A0FA204603F075
:100B200015FC40F21030C2F200000121017040F2C9
:100B30001330C2F200000170BDE8704005F084BEC1
:100B400040F2103040F22C32C2F200000121C2F219
:100B500000021278017040F21330C2F20000002A45
:100B600018BF0122027040F21A30C2F200000021C8
:100B7000017041F2C800C2F20000018070BD002483
:100B8000C4F20104204604F009FA022000210026E4
:100B900003F03AFD42F20015C4F201052846042193
:100BA0000122012302F0F0FF284605210222012341
:100BB00002F0EAFF284606210322012302F0E4FFA7
:100BC000A4F57C40002106F0DFF946F25800C4F29B
:100BD0000200002104F0FAF940F21030C2F20000E5
:100BE000067040F21330C2F20000067040F2B0000E
:100BF000C2F20000066041F2B400C2F20000C0E997
:100C0000006670BD0020C4F2010004F0C7F940F294
:100C10001030C2F200000021017040F21330C2F225
:100C20000000017041F2C500C2F200000170BDE891
:100C3000704005F0F9BB0020C4F2010004F0AEF9E9
:100C400040F21030C2F200000021017040F2133077
:100C5000C2F20000017041F2C500C2F20000017052
:100C600005F0E2FB42F20010C4F2010000F55F4023
:100C70000821BDE8704004F057BE40F21030C2F2C7
:100C800000000121017040F21330C2F20000017037
:100C900040F22F30C2F20000017040F21A30C2F26E
:100CA00000000022027040F2123040F25804C2F2FA
:100CB0000000C2F200040170204603F0CFF9204684
:100CC00003F044FB05F000F940F21C10C2F20000F2
:100CD00004210170042003F085FA0024C4F2010409
:100CE0002046202106F066F92046002106F052F940
:100CF0002046002106F04EF92046012106F044F975
:100D00002046012106F040F920460121BDE870404F
:100D100006F00CBCB0B540F21A10C2F20000007828
:100D2000092800F2D780DFE800F0051E323559852A
:100D3000D59ED59341F2AA00C2F20000B0F900009E
:100D4000002800F3988040F61840C2F200000078B6
:100D5000002800F0908040F22E30C2F200000078AF
:100D600000286ED187E040F22C30C2F200000078FB
:100D700000F0FE01022940F0858041F2C500C2F278
:100D800000000078012840F0778109206FE103F02E
:100D900045F9BBE040F22C30C2F200000078002898
:100DA00000F0998041F2A800C2F20000B0F9000002
:100DB000072800F3978041F2C800C2F200000188C2
:100DC00001310AB2B2F57A7F0180C0F29F8040F211
:100DD0004A30C2F200000121017097E040F22C304D
:100DE000C2F200000078002800F09E80042800F085
:100DF000B08005286ED141F2C500C2F20000007833
:100E000041F2B4040028C2F2000400F0E18020683E
:100E1000002848BF4042632800F2E08040F680404E
:100E2000C2F20000007A002814BF6FF06300642053
:100E30002060D3E040F68040C2F200004068002805
:100E40006BD140F24A30C2F2000001210170B0BD06
:100E500041F2C500C2F20000007801282ED1BDE8A1
:100E6000B04000F043B940F24830C2F200000088C0
:100E7000002818BFB0BD40F24A30C2F20000002185
:100E80000170B0BD002878D0042800F08A800528C1
:100E900040F0F28041F2B400C2F20000006841F27A
:100EA000C5010028C2F2000100F08E800A78012AF4
:100EB00040F08A80012880F28480D5E040F2B000C2
:100EC000C2F200000021418040F24A30C2F200002C
:100ED00005210170B0BD40F24A30C2F20000042189
:100EE000017013E040F24A30C2F2000004210170A8
:100EF00041F2C400C2F200000321017041F2C800B7
:100F0000C2F200000021018005F0C6FB41F2C500DD
:100F1000C2F2000000780028DCD140F24A30C2F270
:100F2000000005210170B0BD41F2C500C2F2000011
:100F300000780028F1D040F21331C2F20001002203
:100F400040F60240C2F200000A70BDE8B04005F071
:100F500039BA41F2C50140F22F30C2F20001C2F2AB
:100F6000000009780122027040F24A300029C2F2E2
:100F70000000D6D004210170B0BD41F2C500C2F21C
:100F80000000007801285CD140F60244C2F200045F
:100F90006189B4F90600A18003F062FA6080032041
:100FA00065E040F2B000C2F20000B0F9020041F288
:100FB000C501C2F2000138B10A78012A04D1012822
:100FC0004FDB04F081FF51E00020087001204EE06B
:100FD00040F24A30C2F2000005210170204603F0C1
:100FE000BFFB40F68041C2F2000160684968451AC3
:100FF00040F64C40C2F20000294605F0E5FA40F206
:10100000B001C2F20001488040F20420C2F20000A8
:10101000294605F0D9FA40F22F31C2F200010A78D0
:1010200041F21813C2F20003012A18800ED0606842
:10103000002848BF4042B0F5487F04D30120087023
:10104000B0BD012013E0002A3FF444AF60680028DF
:1010500048BF4042B0F5167F3FF63CAF0020087015
:10106000B0BDB0F1FF3F01DC04F0CEFE022040F243
:101070004A31C2F20001087040F21004C2F20004CA
:1010800094F8400001287FF425AF204603F030FD9E
:1010900040F61C41C2F20001204605F07DFB032012
:1010A00084F84000B0BD0000FEE7000010B542F239
:1010B0000014C4F20104A4F5045003F075FE40F2DC
:1010C000B000C2F20000012103F0FAFD40F22E311F
:1010D000C2F2000108702046042102F0E5FA204621
:1010E00080210122BDE8104002F0E8BA40F2023C43
:1010F000C2F2000CBCF8001040F23C32C2F2000216
:10110000013112888BB2B3FBF2F000FB12300028E1
:1011100018BF084640F23831C2F20001098882B295
:101120008A42ACF8000017D240F23A30C2F2000016
:10113000B0F9001040F2B000C2F200000129418075
:101140001BDB0121A0F8461040F61C40C2F2000053
:1011500047F6FF710161704740F2B000C2F2000033
:101160000021418040F61C40C2F20000416141F282
:101170001810C2F2000001807047B1F1FF3FC8BFF4
:1011800070474FF6FF71A0F8461040F61C40002152
:10119000C2F20000C8F2010101617047FEE70000E1
:1011A000704700007047000010B5013807283CD890
:1011B000DFE810F00800AD003B00DD000B013A0154
:1011C0007200660140F2C422C2F2000241F2C50080
:1011D0001278C2F20000012141F2CA0C40F24B3EEB
:1011E0000170A2F11001C2F2000C0022C2F2000E46
:1011F0008CF80010ACF801208CF8271007E000BF35
:1012000000200EF802000132042A00F0658193B23A
:10121000002B0846F5D0022BF2D0012BF0D0084667
:10122000022A98BF1CF80200EBE740F2C420C2F289
:101230000000007841F2CA0CA0F12002C2F2000CBA
:101240000120ACF8010006208CF80300072050FABA
:1012500082F040F24B3100EB102E0023C2F200016D
:101260008CF800208CF827E00AE000BF7046032BC2
:1012700098BF1CF80300C8540133052B00F02C81E3
:101280009CB2002C1046F6D0022C03D0012CEDD1DC
:101290000120F0E70020EEE740F24A30C2F2000001
:1012A0000078012806D140F21000C2F200000121AE
:1012B00080F8401040F2C420C2F20000007841F2F1
:1012C000CA0C40F24B3EA0F11001C2F2000C002209
:1012D000C2F2000E8CF80010ACF801208CF8271038
:1012E00007E000BF00200EF802000132042A00F0DF
:1012F000F38093B2002B0846F5D0022BF2D0012BDD
:10130000F0D00846022A98BF1CF80200EBE740F232
:10131000C422C2F20002127841F2C50141F2CA0CA5
:1013200040F24B3EC2F200010020103AC2F2000C23
:10133000C2F2000E08708CF80020ACF801008CF8A6
:10134000272006E000210EF800100130042800F0EC
:10135000C38083B2002B1146F5D0022BF2D0012BB3
:10136000F0D01146022898BF1CF80010EBE706F0F9
:10137000D7FC40F2C420C2F20000007841F2CA0C4F
:1013800040F24B3EA0F11001C2F2000C0022C2F26A
:10139000000E8CF80010ACF801208CF8271006E045
:1013A00000200EF802000132042A00F0958093B26A
:1013B000002B0846F5D0022BF2D0012BF0D00846C6
:1013C000022A98BF1CF80200EBE740F2C422C2F2E6
:1013D0000002127840F2483141F2CA0C40F24B3E12
:1013E000C2F200010020103AC2F2000CC2F2000E5C
:1013F00008808CF80020ACF801008CF8272005E06C
:1014000000210EF800100130042865D083B2002BB3
:101410001146F6D0022BF3D0012BF1D01146022851
:1014200098BF1CF80010ECE740F2C420C2F20000A4
:10143000007841F2CA0C40F24B3EA0F11001C2F21A
:10144000000C0022C2F2000E8CF80010ACF8012053
:101450008CF8271006E000BF00200EF802000132D1
:10146000042A39D093B2002B0846F6D0022BF3D0D1
:10147000012BF1D00846022A98BF1CF80200ECE7C5
:1014800040F2C420C2F20000007841F2CA0C40F2DF
:101490004B3EA0F11001C2F2000C0022C2F2000E7D
:1014A0008CF80010ACF801208CF8271006E000BF83
:1014B00000200EF802000132042A0DD093B2002B56
:1014C0000846F6D0022BF3D0012BF1D00846022AB1
:1014D00098BF1CF80200ECE740F21430C2F20000A2
:1014E0000121017010BD00000138C82800F25D81A3
:1014F000DFE810F0C900CE00D500DC00E500EE000A
:10150000F7000001090112011B0124012A01310128
:1015100038013E0147014D0154015B015B015B0154
:101520005B015B016C0172015B015B0177017D0175
:101530005B0186018D0194019B01A201AB01B40105
:10154000BD01C601CF015B015B015B015B015B017A
:101550005B015B015B015B015B015B015B015B01AB
:101560005B01D8015B015B015B015B015B015B011E
:101570005B015B015B015B015B015B015B015B018B
:101580005B015B015B015B015B015B015B015B017B
:101590005B015B015B015B015B015B015B01E101E5
:1015A000E8015B015B015B015B015B015B015B01CE
:1015B0005B015B015B015B015B015B015B015B014B
:1015C0005B015B015B015B015B015B01EF01F5010D
:1015D000FC01030208020F021802210227022D0259
:1015E00033023A0241024A0250025B015702600292
:1015F00066026D025B015B0174025B015B018202AA
:101600005B015B015B015B015B015B015B015B01FA
:101610005B015B015B015B015B015B015B015B01EA
:101620005B015B015B015B015B015B015B015B01DA
:101630005B015B015B015B015B015B015B015B01CA
:101640005B015B015B015B015B015B015B015B01BA
:101650005B015B015B015B015B015B015B015B01AA
:101660005B015B015B015B015B015B015B015B019A
:101670005B015B015B015B015B015B015B015B018A
:101680005B018F0296024FF60040C0F601005CE15C
:101690004FF60040C0F6010000F10802A4E14FF649
:1016A0000040C0F6010000F10C02AAE141F2CA00BC
:1016B00040F23A32C2F20000C2F2000298E141F276
:1016C000CA0040F23C32C2F20000C2F200028FE1D6
:1016D00041F2CA0040F23832C2F20000C2F2000207
:1016E00086E141F2CA0040F24A32C2F20000C2F280
:1016F00000028AE141F2CA0040F22C32C2F200003C
:10170000C2F2000281E141F2CA0040F22D32C2F27F
:101710000000C2F2000278E141F2CA0041F2B402D4
:10172000C2F20000C2F2000284E141F2CA0040F6B7
:101730004C42C2F20000C2F2000259E140F64C40B5
:10174000C2F20000821C4FE140F64C40C2F20000A1
:1017500000F1200248E140F64C40C2F2000000F1E6
:10176000220241E140F2B000C2F20000821C3BE1E3
:1017700041F2CA0040F61C42C2F20000C2F200026E
:1017800036E140F61C40C2F20000821C2CE140F61B
:101790001C40C2F2000000F1200225E140F61C408E
:1017A000C2F2000000F122021EE180B582B00320E7
:1017B0008DF8070041F2CA00C2F200000DF10702E5
:1017C000E021082301F042FC02B080BD41F2F200AA
:1017D000C2F20000821D07E141F2F200C2F20000F5
:1017E000B3E040F68040C2F20000021D1EE141F26B
:1017F000CA0040F2B002C2F20000C2F20002F7E0FA
:101800004FF60040C0F6010000F180020EE14FF6F5
:101810000040C0F6010000F1840207E141F2B4008B
:10182000C2F2000000F10802DEE041F2B400C2F2B0
:10183000000000F10A02D7E041F2CA0040F29872BB
:10184000C2F20000C2F20002D2E041F2CA0040F24D
:101850009A72C2F20000C2F20002C9E041F2CA006C
:1018600041F2C002C2F20000C2F20002C0E041F246
:10187000CA0041F2C202C2F20000C2F20002B7E0A6
:1018800041F2CA0041F22012C2F20000C2F200028C
:10189000AEE041F2CA0041F21E12C2F20000C2F2F2
:1018A0000002A5E041F2CA0040F24832C2F2000054
:1018B000C2F200029CE040F25800C2F2000000F1C7
:1018C000320291E040F25800C2F2000000F134020E
:1018D0008AE040F60240C2F20000821D84E040F639
:1018E0000240C2F2000000F108027DE040F6024032
:1018F000C2F2000000F10C0276E040F60240C2F2B3
:1019000000006FE040F60240C2F2000000F1100259
:101910006AE041F2CA0041F2C602C2F20000C2F21D
:10192000000265E041F2CA0040F27C72C2F200009F
:10193000C2F200025CE040F27C70C2F20000821C45
:1019400052E040F27C70C2F20000021D4CE040F216
:101950007C70C2F20000821D46E040F27C70C2F250
:10196000000000F108023FE040F27C70C2F200008B
:1019700000F10A0238E041F2CA0040F25412C2F209
:101980000000C2F2000240E040F25410C2F2000037
:10199000C21C36E040F2A010C2F2000000F13D028D
:1019A0002FE041F2CA0040F20422C2F20000C2F26B
:1019B00000021DE040F20420C2F20000821C13E08D
:1019C00040F20420C2F2000000F120020CE040F2DC
:1019D0000420C2F2000000F1220205E041F2F20010
:1019E000C2F2000000F1120241F2CA00C2F200008D
:1019F000F021102301F02ABB40F20420C2F20000C3
:101A0000821C41F2CA00C2F20000F021082301F05A
:101A10001DBB40F2A010C2F2000000F1140205E06C
:101A200040F2A010C2F2000000F1180241F2CA0018
:101A3000C2F20000F021202301F008BB70B501467E
:101A400000780138052854D8DFE800F003868B9031
:101A50000F9541F2CA00C2F20000F02100224FF4BB
:101A60008073BDE8704001F0F1BA8878C97840F21F
:101A7000053440F20432C2F20004C2F200022170C6
:101A800000211070002500F0EDF82178044608468A
:101A90000121012600F0E6F800EA040140F2C4202A
:101AA000C2F200000078012940F0A88041F2CA018A
:101AB00040F24B321038C2F20001C2F2000208704C
:101AC000A1F8015081F8270006E000BF002353551C
:101AD0000135042D00F0BF80AEB2002E0346F6D0D3
:101AE000022EF3D0012EF1D00346022D98BF4B5D9C
:101AF000EDE740F2C420C2F20000007841F2CA01D2
:101B0000A0F12004C2F200010120A1F80100C87078
:101B1000022050FA84F040F24B3500EB10220023F3
:101B2000C2F200050C7081F8272008E01046032B54
:101B300098BFC85CE8540133052B00F08C809EB23E
:101B4000002E2046F6D0022E04D0012EEED1012028
:101B5000F0E700BF0020EDE78878BDE87040FFF7B0
:101B600023BB8878BDE87040FFF7BEBC8878BDE82D
:101B7000704000F05BB940F2C42240F20531C2F27D
:101B8000000240F20430C2F200011278C2F20000FA
:101B90000E7841F2CA010078A2F11004C2F20001ED
:101BA00002228B1C52FA84F50C70A1F80120C87037
:101BB0000E7100BF13F8010F013A10FA85F5F9D143
:101BC00005EB152240F24B350023C2F2000581F8E7
:101BD000272007E01046042B98BFC85CE854013367
:101BE000062B38D09EB2002E2046F7D0022E03D00E
:101BF000012EEFD10220F1E70020EFE741F2CA0108
:101C0000A0F12004C2F200010320C870042050FAA1
:101C100084F040F24B3500EB10220023C2F20005A5
:101C20000C70A1F8016081F8272004E00020E8543E
:101C30000133052B0FD09EB2002E2046F7D0022E86
:101C4000F4D0012E02D10120F1E700BF1046032B92
:101C500098BFC85CEBE740F21430C2F200000121EB
:101C6000017070BD10B50F384D2800F25980DFE8C3
:101C700010F04E005700570057005700570057000C
:101C80005700570057008D00970057005700570026
:101C9000A100570057005700570057005700570042
:101CA000570057005700570057005700570057007C
:101CB000570057005700570057005700570057006C
:101CC000570057005700570057005700570057005C
:101CD000570057005700570057005700570057004C
:101CE000570057005700570057005700570057003C
:101CF000570057005700570057005700570057002C
:101D0000570057005700AA00B400BD00C70040F2BA
:101D10009C7040F2B002C2F20000C2F200025AE02F
:101D200040F2C420C2F20000007841F2CA0CA0F1D7
:101D30002002C2F2000C0120ACF8010003208CF854
:101D40000300042050FA82F040F24B3100EB102ED9
:101D50000023C2F200018CF800208CF827E008E094
:101D60007046032B98BF1CF80300C8540133052BA1
:101D700053D09CB2002C1046F7D0022C04D0012C7A
:101D8000EED10120F1E700BF0020EEE741F2F202C0
:101D900040F29C70C2F20002C2F20000063238E04B
:101DA00041F2F20240F29C70C2F20002C2F2000064
:101DB00004322EE040F29C7040F2B002C2F2000009
:101DC000C2F2000225E040F29C7041F2F202C2F23F
:101DD0000000C2F2000202321BE040F29C7041F2AD
:101DE000F202C2F20000C2F2000212E041F2F2027C
:101DF00040F29C70C2F20002C2F200000C3208E015
:101E000041F2F20240F29C70C2F20002C2F2000003
:101E10000E3240F82120012010BD40F21430C2F2F1
:101E2000000001210170002010BD000010B582B03B
:101E300004387C2800F21B81DFE810F07D00B1003F
:101E4000E500190152018501B701EB011F025302A0
:101E50008702C302DD021103450379031901190149
:101E60001901190119011901190119018F07190126
:101E70001901190119011901B503E9031D045304DE
:101E80008904BD04F104250519011901190119017D
:101E90001901190119011901190119011901190172
:101EA0001901190119011901190119011901190162
:101EB0001901190119011901190119011901190152
:101EC0001901190119011901190119011901190142
:101ED0001901190119011901190119011901190132
:101EE00059058D0519011901190119011901190166
:101EF0001901190119011901190119011901190112
:101F00001901190119011901190119011901C10555
:101F1000F50519064D067106850619011901190105
:101F20001901190119011901190119011901B9063C
:101F3000ED062107550740F2C422C2F20002B1F8B3
:101F4000030040F23A311278C2F2000141F2CA0CA9
:101F500040F24B3E0880A2F11001C2F2000C0022B8
:101F6000C2F2000E8CF80010ACF801208CF827109B
:101F700007E000BF00200EF802000132042A00F042
:101F8000858793B2002B0846F5D0022BF2D0012BA7
:101F9000F0D00846022A98BF1CF80200EBE740F296
:101FA000C422C2F20002B1F8030040F23C311278C0
:101FB000C2F2000141F2CA0C40F24B3E0880A2F18D
:101FC0001001C2F2000C0022C2F2000E8CF80010C8
:101FD000ACF801208CF8271007E000BF00200EF8B5
:101FE00002000132042A00F0518793B2002B084608
:101FF000F5D0022BF2D0012BF0D00846022A98BF70
:102000001CF80200EBE740F2C422C2F20002B1F871
:10201000030040F238311278C2F2000141F2CA0CDA
:1020200040F24B3E0880A2F11001C2F2000C0022E7
:10203000C2F2000E8CF80010ACF801208CF82710CA
:1020400007E000BF00200EF802000132042A00F071
:102050001D8793B2002B0846F5D0022BF2D0012B3E
:10206000F0D00846022A98BF1CF80200EBE740F2C5
:10207000C421C2F20001097841F2CA0C0320C2F265
:10208000000C8DF80700A1F1200201218CF803005B
:102090000420ACF8011050FA82F040F24B3100EB12
:1020A000102E0023C2F200018CF800208CF827E0EB
:1020B0000AE000BF7046032B98BF1CF80300C85409
:1020C0000133052B00F043869CB2002C1046F6D05D
:1020D000022C03D0012CEDD10120F0E70020EEE727
:1020E00040F2C422C2F20002C87840F22C311278C9
:1020F000C2F2000141F2CA0C40F24B3E0870A2F15C
:102100001001C2F2000C0022C2F2000E8CF8001086
:10211000ACF801208CF8271007E000BF00200EF873
:1021200002000132042A00F0B18693B2002B084667
:10213000F5D0022BF2D0012BF0D00846022A98BF2E
:102140001CF80200EBE740F2C422C2F20002C87899
:1021500040F22D311278C2F2000141F2CA0C40F275
:102160004B3E0870A2F11001C2F2000C0022C2F234
:10217000000E8CF80010ACF801208CF8271006E057
:1021800000200EF802000132042A00F07F8693B28C
:10219000002B0846F5D0022BF2D0012BF0D00846D8
:1021A000022A98BF1CF80200EBE740F2C422C2F2F8
:1021B0000002D1F8030041F2B4011278C2F200012A
:1021C00041F2CA0C40F24B3E0860A2F11001C2F28B
:1021D000000C0022C2F2000E8CF80010ACF80120B6
:1021E0008CF8271007E000BF00200EF80200013233
:1021F000042A00F04B8693B2002B0846F5D0022B40
:10220000F2D0012BF0D00846022A98BF1CF8020039
:10221000EBE740F2C422C2F20002B1F8030040F63C
:102220004C411278C2F2000141F2CA0C40F24B3E1E
:102230000880A2F11001C2F2000C0022C2F2000ECE
:102240008CF80010ACF801208CF8271007E000BFD4
:1022500000200EF802000132042A00F0178693B223
:10226000002B0846F5D0022BF2D0012BF0D0084607
:10227000022A98BF1CF80200EBE740F2C422C2F227
:102280000002B1F8030040F64C411278C2F200019E
:1022900041F2CA0C40F24B3E4880A2F11001C2F25A
:1022A000000C0022C2F2000E8CF80010ACF80120E5
:1022B0008CF8271007E000BF00200EF80200013262
:1022C000042A00F0E38593B2002B0846F5D0022BD8
:1022D000F2D0012BF0D00846022A98BF1CF8020069
:1022E000EBE740F2C422C2F20002B1F8030040F66C
:1022F0004C411278C2F2000141F2CA0C40F24B3E4E
:102300000884A2F11001C2F2000C0022C2F2000EF9
:102310008CF80010ACF801208CF8271007E000BF03
:1023200000200EF802000132042A00F0AF8593B2BB
:10233000002B0846F5D0022BF2D0012BF0D0084636
:10234000022A98BF1CF80200EBE7B1F8030040F640
:102350004C41C2F20001B1F91020B1F912308240B3
:102360008A6040F2C422C2F200021278488403FA62
:1023700000F041F2CA0C40F24B3EC860A2F11001DD
:10238000C2F2000C0022C2F2000E8CF80010ACF871
:1023900001208CF8271006E000200EF80200013220
:1023A000042A00F0738593B2002B0846F5D0022B67
:1023B000F2D0012BF0D00846022A98BF1CF8020088
:1023C000EBE7B1F803C047F6C650ACEB000040F2B3
:1023D0007441884200F2C38405208DF8070041F261
:1023E000CA00C2F200000DF10702E021082300F04C
:1023F0002DFE02B010BDB1F9031040F61C40C2F230
:10240000000004F017F940F2C420C2F20000007886
:1024100041F2CA0C40F24B3EA0F11001C2F2000C96
:102420000022C2F2000E8CF80010ACF801208CF8EB
:10243000271006E000200EF802000132042A00F006
:10244000258593B2002B0846F5D0022BF2D0012B44
:10245000F0D00846022A98BF1CF80200EBE7B1F959
:10246000031040F61C40C2F2000004F0E1F840F214
:10247000C420C2F20000007841F2CA0C40F24B3E88
:10248000A0F11001C2F2000C0022C2F2000E8CF882
:102490000010ACF801208CF8271006E000200EF8A0
:1024A00002000132042A00F0F18493B2002B0846A6
:1024B000F5D0022BF2D0012BF0D00846022A98BFAB
:1024C0001CF80200EBE740F2C422C2F20002B1F8AD
:1024D000030040F61C411278C2F2000141F2CA0C1E
:1024E00040F24B3E0884A2F11001C2F2000C00221F
:1024F000C2F2000E8CF80010ACF801208CF8271006
:1025000007E000BF00200EF802000132042A00F0AC
:10251000BD8493B2002B0846F5D0022BF2D0012BDC
:10252000F0D00846022A98BF1CF80200EBE7B1F889
:10253000030040F61C41C2F20001B1F91020B1F9CC
:10254000123082408A6040F2C422C2F20002127845
:10255000488403FA00F041F2CA0C40F24B3EC860D6
:10256000A2F11001C2F2000C0022C2F2000E8CF89F
:102570000010ACF801208CF8271006E000200EF8BF
:1025800002000132042A00F0818493B2002B084635
:10259000F5D0022BF2D0012BF0D00846022A98BFCA
:1025A0001CF80200EBE740F2C422C2F20002B1F8CC
:1025B000030041F2B4011278C2F2000141F2CA0CE8
:1025C00040F24B3E0881A2F11001C2F2000C002241
:1025D000C2F2000E8CF80010ACF801208CF8271025
:1025E00007E000BF00200EF802000132042A00F0CC
:1025F0004D8493B2002B0846F5D0022BF2D0012B6C
:10260000F0D00846022A98BF1CF80200EBE740F21F
:10261000C422C2F20002B1F8030041F2B401127800
:10262000C2F2000141F2CA0C40F24B3E4881A2F1D5
:102630001001C2F2000C0022C2F2000E8CF8001051
:10264000ACF801208CF8271007E000BF00200EF83E
:1026500002000132042A00F0198493B2002B0846CC
:10266000F5D0022BF2D0012BF0D00846022A98BFF9
:102670001CF80200EBE7B1F8030040F64C41C2F24F
:1026800000014A8C0882904040F2C422C2F200024B
:10269000127841F2CA0C40F24B3E8860A2F1100160
:1026A000C2F2000C0022C2F2000E8CF80010ACF84E
:1026B00001208CF8271006E000200EF802000132FD
:1026C000042A00F0E38393B2002B0846F5D0022BD6
:1026D000F2D0012BF0D00846022A98BF1CF8020065
:1026E000EBE740F64C40C2F20000B1F90310428C17
:1026F0004182914040F2C422C2F20002127841F2BB
:10270000CA0C40F24B3EC160A2F11001C2F2000CB3
:102710000022C2F2000E8CF80010ACF801208CF8F8
:10272000271006E000200EF802000132042A00F013
:10273000AD8393B2002B0846F5D0022BF2D0012BCB
:10274000F0D00846022A98BF1CF80200EBE740F2DE
:10275000C422C2F20002B1F8030041F2C0011278B3
:10276000C2F2000141F2CA0C40F24B3E0880A2F1D5
:102770001001C2F2000C0022C2F2000E8CF8001010
:10278000ACF801208CF8271007E000BF00200EF8FD
:1027900002000132042A00F0798393B2002B08462C
:1027A000F5D0022BF2D0012BF0D00846022A98BFB8
:1027B0001CF80200EBE740F2C422C2F20002B1F8BA
:1027C000030041F2C2011278C2F2000141F2CA0CC8
:1027D00040F24B3E0880A2F11001C2F2000C002230
:1027E000C2F2000E8CF80010ACF801208CF8271013
:1027F00007E000BF00200EF802000132042A00F0BA
:10280000458393B2002B0846F5D0022BF2D0012B62
:10281000F0D00846022A98BF1CF80200EBE740F20D
:10282000C422C2F20002B1F8030041F22011127872
:10283000C2F2000141F2CA0C40F24B3E0880A2F104
:102840001001C2F2000C0022C2F2000E8CF800103F
:10285000ACF801208CF8271007E000BF00200EF82C
:1028600002000132042A00F0118393B2002B0846C3
:10287000F5D0022BF2D0012BF0D00846022A98BFE7
:102880001CF80200EBE740F2C422C2F20002B1F8E9
:10289000030041F21E111278C2F2000141F2CA0C8B
:1028A00040F24B3E0880A2F11001C2F2000C00225F
:1028B000C2F2000E8CF80010ACF801208CF8271042
:1028C00007E000BF00200EF802000132042A00F0E9
:1028D000DD8293B2002B0846F5D0022BF2D0012BFB
:1028E000F0D00846022A98BF1CF80200EBE740F23D
:1028F000C422C2F20002B1F8030040F2580112787B
:10290000C2F2000141F2CA0C40F24B3E4886A2F1ED
:102910001001C2F2000C0022C2F2000E8CF800106E
:10292000ACF801208CF8271007E000BF00200EF85B
:1029300002000132042A00F0A98293B2002B08465B
:10294000F5D0022BF2D0012BF0D00846022A98BF16
:102950001CF80200EBE740F2C422C2F20002B1F818
:10296000030040F258011278C2F2000141F2CA0C91
:1029700040F24B3E8886A2F11001C2F2000C002208
:10298000C2F2000E8CF80010ACF801208CF8271071
:1029900007E000BF00200EF802000132042A00F018
:1029A000758293B2002B0846F5D0022BF2D0012B92
:1029B000F0D00846022A98BF1CF80200EBE740F26C
:1029C000C422C2F20002B1F8030040F602411278BC
:1029D000C2F2000141F2CA0C40F24B3EC880A2F1A3
:1029E0001001C2F2000C0022C2F2000E8CF800109E
:1029F000ACF801208CF8271007E000BF00200EF88B
:102A000002000132042A00F0418293B2002B0846F2
:102A1000F5D0022BF2D0012BF0D00846022A98BF45
:102A20001CF80200EBE7B1F9030040F64051C0F298
:102A3000030191FBF0F142F2934340F60242C9F2E6
:102A40004923C2F2000253FB0111B2F91030108188
:102A5000881000EBD171002B4FF00000518100F085
:102A60009081948A091B09B291FBF3F18AE140F24B
:102A7000C422C2F20002B1F8030040F6024112780B
:102A8000C2F2000141F2CA0C40F24B3E8881A2F131
:102A90001001C2F2000C0022C2F2000E8CF80010ED
:102AA000ACF801208CF8271007E000BF00200EF8DA
:102AB00002000132042A00F0E98193B2002B08469B
:102AC000F5D0022BF2D0012BF0D00846022A98BF95
:102AD0001CF80200EBE7B1F9030040F64051C0F2E8
:102AE000030191FBF0F142F2934340F60242C9F236
:102AF0004923C2F2000253FB0111B2F91030508297
:102B0000881000EBD171002B4FF00000918200F093
:102B100065815489611A09B291FBF3F15FE1B1F863
:102B2000032040F60241C2F20001002A4FF00000EB
:102B30000A8200F07F814B898C8A12B21B1B1BB268
:102B400093FBF2F277E140F2C422C2F20002B1F844
:102B5000030041F2C6011278C2F2000141F2CA0C30
:102B600040F24B3E0880A2F11001C2F2000C00229C
:102B7000C2F2000E8CF80010ACF801208CF827107F
:102B800007E000BF00200EF802000132042A00F026
:102B90007D8193B2002B0846F5D0022BF2D0012B99
:102BA000F0D00846022A98BF1CF80200EBE740F27A
:102BB000C422C2F20002B1F8030040F204211278EC
:102BC000C2F2000141F2CA0C40F24B3E0880A2F171
:102BD0001001C2F2000C0022C2F2000E8CF80010AC
:102BE000ACF801208CF8271007E000BF00200EF899
:102BF00002000132042A00F0498193B2002B0846FA
:102C0000F5D0022BF2D0012BF0D00846022A98BF53
:102C10001CF80200EBE740F2C422C2F20002B1F855
:102C2000030040F204211278C2F2000141F2CA0C02
:102C300040F24B3E4880A2F11001C2F2000C00228B
:102C4000C2F2000E8CF80010ACF801208CF82710AE
:102C500007E000BF00200EF802000132042A00F055
:102C6000158193B2002B0846F5D0022BF2D0012B30
:102C7000F0D00846022A98BF1CF80200EBE740F2A9
:102C8000C422C2F20002B1F8030040F2042112781B
:102C9000C2F2000141F2CA0C40F24B3E0884A2F19C
:102CA0001001C2F2000C0022C2F2000E8CF80010DB
:102CB000ACF801208CF8271007E000BF00200EF8C8
:102CC00002000132042A00F0E18093B2002B084692
:102CD000F5D0022BF2D0012BF0D00846022A98BF83
:102CE0001CF80200EBE740F2C422C2F20002B1F885
:102CF000030040F204211278C2F2000141F2CA0C32
:102D000040F24B3E4884A2F11001C2F2000C0022B6
:102D1000C2F2000E8CF80010ACF801208CF82710DD
:102D200007E000BF00200EF802000132042A00F084
:102D3000AD8093B2002B0846F5D0022BF2D0012BC8
:102D4000F0D00846022A98BF1CF80200EBE740F2D8
:102D50001430C2F200000121017002B010BD40F237
:102D6000B004C2F2000441F2CA00C2F20000F02135
:102D700000220023A4F802C002B0BDE8104000F019
:102D800065B9002140F2C423C2F200031B7841F26E
:102D9000CA0C40F24B3ED181A3F11002C2F2000CEA
:102DA000C2F2000E8CF80020ACF801008CF827204D
:102DB00006E000BF00210EF800100130042865D0A5
:102DC00083B2002B1146F6D0022BF3D0012BF1D0A9
:102DD0001146022898BF1CF80010ECE7002140F2D1
:102DE000C423C2F200031B7841F2CA0C40F24B3EEE
:102DF000D181A3F11002C2F2000CC2F2000E8CF8D5
:102E00000020ACF801008CF8272005E000210EF826
:102E100000100130042839D083B2002B1146F6D0BF
:102E2000022BF3D0012BF1D01146022898BF1CF8D9
:102E30000010ECE7002240F2C423C2F200031B782A
:102E400041F2CA0C40F24B3ECA81A3F11002C2F219
:102E5000000CC2F2000E8CF80020ACF801008CF8D7
:102E6000272005E000210EF80010013004280DD0C5
:102E700083B2002B1146F6D0022BF3D0012BF1D0F8
:102E80001146022898BF1CF80010ECE740F21430FD
:102E9000C2F200000121017002B010BD70470000B5
:102EA000B0B540F22D30C2F200000078012808BF12
:102EB00002F0AEF940F21A10C2F200000078FDF7FD
:102EC00029FF40F20A34C2F20004608849F230015E
:102ED00047F68472C3F24151CFF6FC7200FB021038
:102EE00040F28C7141F2F205000CC2F20001C2F214
:102EF00000050880A880B4F9000001F0B1FA40F2A2
:102F00008871C2F20001096841F6F412C0F20102B0
:102F10005143C90B298041F2B401C2F20001496852
:102F200000EE100A9FED2C1A5143B8EEC00AC90BEF
:102F300020EE010A6980BDEEC00A40F25801E88027
:102F400010EE100AC2F200018A8EC886498E024431
:102F500041F21A13084441F21C11C2F20003C2F2FA
:102F600000011A800880208840F65921884240F2EA
:102F7000181140F24830C2F20001C2F2000001D242
:102F8000022205E0228840F6AA639A4205D3012274
:102F90000B8805881A402A430280628840F26473D5
:102FA0009A4205D80988028801F004011143018082
:102FB000008828B140F24A30C2F2000007210170B7
:102FC00040F206300021C2F20000C4F202010422E5
:102FD000BDE8B04003F008B85DA53B3E4EF6885012
:102FE000CEF20000026843F6000142F47002C4F21F
:102FF000020102600A6842F001020A600A68920750
:10300000FCD58A6822F003028A6000BF8A6812F049
:103010000C0FFBD14FF080428A600A684FF6FF73B5
:10302000CFF6F2631A400A6043F20202C0F20302D2
:103030004A604FF47122C1F8A0204FF41F02CA6009
:103040004FF0006140F8801C70470000F0B540F27E
:10305000C427C2F200073F78DC0807EB010E844664
:10306000DD0A01464FEAF3030CF8014F0A2B01F881
:10307000025F80F800E00FD8DFE803F03D06090E9C
:10308000200E0E0E0E0E29001278C27033E0137857
:10309000C370527802712EE048F2F673C21C00260B
:1030A000C0F600031F78092F25D002F8017B1C2EE3
:1030B00006F1010603F10103F4D31CE01378C37099
:1030C0005378037193784371D278827113E0137847
:1030D0004371537883719378C371D37803721379F2
:1030E000C3705379037193794372D3798372137ADE
:1030F000C372527A0273E2B242EA052255FA84F3AD
:1031000053FA8EF352B10025002600BF4719FF780D
:103110000136F5B2AA4217FA83F3F7D803EB132767
:10312000034640F24B3503F8277F02F1030E0432C9
:103130000024C2F2000504E036782E550134A24284
:103140000ED0A7B2022F0E46F6D0012F6646F3D05E
:10315000002F0646F0D01E46744538BF0619EBE72F
:1031600040F21430C2F2000001210170F0BD0000F5
:1031700080B50020C4F201000169090644BFC1689E
:103180005FEA016100D480BD802103F017FF40F2A7
:103190001810C2F2000040F248310088C2F200016B
:1031A0000A8800F008001043088080BD10B5002494
:1031B000C4F201042046022103F004FF002808BFE6
:1031C00010BD2046022103F0F9FE40F25800C2F281
:1031D000000040F2003190F83C00C2F20001097892
:1031E00080F0010041F218420843C4F202024FF499
:1031F000807008BF1032106010BD0000B0B50C2008
:10320000C4F201004168C9071CBF00685FEAC070D2
:1032100000D1B0BD40F20044C4F2000404F57C408B
:10322000012103F0CBFE42F20000C4F201000121B3
:1032300000F096FC40F21030C2F200000078012845
:1032400070D140F21330C2F20000007841F218153C
:103250000128C2F200051ED140F22F30C2F2000058
:103260000078012826D140F21A30C2F2000040F264
:10327000B0010278C2F20001B1F90000012A21D1A7
:10328000B1F90410091A40F61C40C2F2000003F024
:103290009BF9288027E040F21C1040F6024140F6DE
:1032A0008042C2F20000C2F20001C2F2000200F04D
:1032B00025FF18E040F61C41C2F20001B5F90000FC
:1032C0004A8C0EE0B1F90210091A40F61C40C2F215
:1032D000000003F079F940F20421C2F200014A8CA7
:1032E000288090404861288840F67C4501B280EAF9
:1032F000E130A0EBE13080B242F229314843C00B0B
:10330000C2F20005288003F0B5F9B5F9001040F2CB
:103310005805C2F20005284601F0ACF8B5F91400D2
:103320006968086440F68045C2F20005284601F04D
:10333000E1F840F23E30C2F20000007801280CD0E3
:1033400028682969814208D92046042103F036FE05
:1033500020460421012203F029FF40F20834C2F282
:1033600000042078411C41F2F200C2F20000027C0D
:103370004BB293422170B8BFB0BD40F2B001C2F26F
:10338000000109684FEA3141C16004F0A9FB002047
:103390002070B0BD10B544F60004C4F2010420460C
:1033A000012103F00FFE002808BF10BD20460121B7
:1033B00003F004FE2046002103F0E6FD41F2C400C4
:1033C000C2F200000178022904D0012909D10221AA
:1033D000017006E041F2A800C2F20000018801314C
:1033E000018040F21330C2F20000007858B340F27E
:1033F0005800C2F2000002214187A4F5904020212C
:1034000003F0D8FD40F21C1040F68042C2F20000EA
:10341000C2F2000281781369017003EB530010605F
:1034200048F2B07048F2B772C0F60000C0F6000271
:10343000405C525C40F21531C2F20001487002203B
:10344000CA7001F03DF940F24630C2F2000000219E
:10345000018040F21130C2F200000122027040F2FD
:103460001230C2F20000017040F23E30C2F20000A1
:10347000017010BD10B540F20044C4F200042046B3
:10348000042103F09FFD002808BF10BD2046042141
:1034900003F094FD20460421002203F087FE40F251
:1034A0001C10C2F2000040F23E3201784378C2F2B2
:1034B000000201249942147018BF417040F21C10A0
:1034C00040F2580140F68042C2F20000C2F2000110
:1034D000C2F20002BDE8104000F0AEBEB0B582B04E
:1034E00041F20005C4F201052846102104F096FBC4
:1034F000E8B346F2300428461021C4F2020404F076
:1035000077FB2046002101F061FD204601F064FDBB
:1035100041F20C12C2F20002157841F20611C0F11C
:103520000C03C2F20001412D0B8009D15278C0F189
:10353000090083B29342488004D104F04DFA0EE0B2
:103540000B2000E00C208DF8070041F2CA00C2F207
:1035500000000DF10702E0210823FFF777FD204668
:103560000C2101F03DFD2046012101F02FFD02B0AC
:10357000B0BD0000FEE700000A78436802F00102D7
:1035800023F4807343EA022242604A78836862F33C
:10359000410383608A78836802F0010223F40063A8
:1035A00043EAC2228260C978C26A013901F00F0180
:1035B00022F4700242EA0151C16270474FF08071FB
:1035C00001607047816841F0080181607047000028
:1035D0008068C0F3C0007047816841F004018160D9
:1035E000704700008068C0F38000704742F20431E9
:1035F000C4F2010102780B6862F304030B604278A5
:103600000B6802F00F0223F4702343EA02420A60BF
:1036100082780B6802F0040223F0805343EA82624E
:103620000A6082780B6802F0030223F4404343EA05
:1036300082320A60C2780B6802F0010223F4005360
:1036400043EA42320A6002790B6802F00F0223F467
:10365000706343EA02220A6040790A6800F00100C0
:1036600022F4000242EAC0500860704700218180C5
:1036700001607047826801F0010122F4807242EA21
:103680000121816070470000826801F0010122F48D
:10369000007242EA4121816070470000826861F354
:1036A0000002826070470000C9430160704700005B
:1036B0000068084018BF01207047000032B1012A9D
:1036C00018BF70474268114341607047426822EA60
:1036D000010141607047000080B51A2900F2FF80A7
:1036E000DFE811F01B0022002C00360040004A00E9
:1036F00054005E00680072007C0083008D00FD00B5
:103700009700A100AB00B500FD00BF00C900D000CC
:10371000D900E200EB00FD00F400D0F810C063F324
:10372000020CC0F810C0DAE0D0F810C003F0070EA9
:103730002CF0380343EACE030361D0E0D0F810C088
:1037400003F0070E2CF4E07343EA8E130361C6E026
:10375000D0F810C003F0070E2CF4606343EA4E2348
:103760000361BCE0D0F810C003F0070E2CF4E04376
:1037700043EA0E330361B2E0D0F810C003F0070E45
:103780002CF4603343EACE330361A8E0D0F810C0D4
:1037900003F0070E2CF4E01343EA8E4303619EE02E
:1037A000D0F810C003F0070E2CF4600343EA4E5328
:1037B000036194E0D0F810C003F0070E2CF0E06332
:1037C00043EA0E6303618AE0D0F810C003F0070EED
:1037D0002CF0605343EACE63036180E0D0F80CC064
:1037E00063F3020CC0F80CC079E0D0F80CC003F011
:1037F000070E2CF0380343EACE03C3606FE0D0F825
:103800000CC003F0070E2CF4E07343EA8E13C36080
:1038100065E0D0F80CC003F0070E2CF4E04343EA57
:103820000E33C3605BE0D0F80CC003F0070E2CF43D
:10383000603343EACE33C36051E0D0F80CC003F0EC
:10384000070E2CF4E01343EA8E43C36047E0D0F840
:103850000CC003F0070E2CF4600343EA4E53C36020
:103860003DE0D0F80CC003F0070E2CF0605343EAA3
:10387000CE63C36033E0D0F850C063F3020CC0F8ED
:1038800050C02CE0D0F850C003F0070E2CF03803E5
:1038900043EACE0322E0D0F850C003F0070E2CF428
:1038A000E07343EA8E1319E0D0F850C003F0070E1E
:1038B0002CF4606343EA4E2310E0D0F850C003F0CC
:1038C000070E2CF4E04343EA0E3307E0D0F850C073
:1038D00003F0070E2CF4E01343EA8E430365013A2C
:1038E0000F2A88BF80BDDFE802F0080D12171C21E7
:1038F000262B30353A3F44494E53426B61F3040264
:10390000426380BD426B61F34912426380BD426BEA
:1039100061F38E22426380BD426B61F3D332426316
:1039200080BD426B61F31852426380BD426B61F30C
:103930005D62426380BD026B61F30402026380BD7D
:10394000026B61F34912026380BD026B61F38E2248
:10395000026380BD026B61F3D332026380BD026BF0
:1039600061F31852026380BD026B61F35D62026312
:1039700080BDC26A61F30402C26280BDC26A61F3A3
:103980004912C26280BDC26A61F38E22C26280BDEA
:10399000C26A61F3D332C26280BD00002DE9F041FA
:1039A0008AB042F20005C4F2010546F2080800247C
:1039B00028460021C4F20208CDE90844FFF76EFE54
:1039C00006AE3046FFF752FE4FF48060ADF81800A7
:1039D00030468DF81D40FFF709FE0820C0F2440074
:1039E0000121012700F0F4FF4FF44010012100F005
:1039F000EFFF0526C0F230063046012100F0E8FF57
:103A00003046012100F0E4FF06F11100012100F031
:103A1000DFFF08AE304601F03DFE03208DF82600A2
:103A200005F560403146ADF82470089701F03AFE84
:103A30004FF4007005F5744708903846314601F0A0
:103A400031FE4FF4805008903846314601F02AFE8E
:103A5000404601F023FB6E46304601F0C3FA0320D6
:103A6000C0F20010CDF80A0040F20A30C2F20000A5
:103A7000019005F14C00009040F20110C0F20120CD
:103A8000CDF80E0040463146ADF8084001F0BEFAD0
:103A900005AE3046FFF792FD0120C0F200300590E0
:103AA00028463146FFF768FD284600210122002301
:103AB000FFF712FE2846172102220023FFF70CFE13
:103AC00028461A2103220023FFF706FE284600217C
:103AD000002200F02FF828460121FFF7CBFD2846F1
:103AE0000121FFF7D1FDA868C00714D128460121A4
:103AF000FFF7D4FD2846FFF765FD00BF2846FFF716
:103B000067FD0028FAD12846FFF766FD2846FFF733
:103B100069FD0028FAD105F5A03008F1FC01052265
:103B200001F068FA4046012101F050FA0AB0BDE800
:103B3000F081000083680F2923F0004388BF03F160
:103B400000438360836802F0030261F31B638360B8
:103B5000816821F0405141EA0271816070470000A4
:103B6000826801F0010122F0804242EA81718160A5
:103B700070470000826B013901F0030122F440120A
:103B800042EA01518163704780B51A2900F2FF8033
:103B9000DFE811F01B0022002C00360040004A0034
:103BA00054005E00680072007C0083008D00FD0000
:103BB0009700A100AB00B500FD00BF00C900D00018
:103BC000D900E200EB00FD00F400D0F810C063F370
:103BD000020CC0F810C0DAE0D0F810C003F0070EF5
:103BE0002CF0380343EACE030361D0E0D0F810C0D4
:103BF00003F0070E2CF4E07343EA8E130361C6E072
:103C0000D0F810C003F0070E2CF4606343EA4E2393
:103C10000361BCE0D0F810C003F0070E2CF4E043C1
:103C200043EA0E330361B2E0D0F810C003F0070E90
:103C30002CF4603343EACE330361A8E0D0F810C01F
:103C400003F0070E2CF4E01343EA8E4303619EE079
:103C5000D0F810C003F0070E2CF4600343EA4E5373
:103C6000036194E0D0F810C003F0070E2CF0E0637D
:103C700043EA0E6303618AE0D0F810C003F0070E38
:103C80002CF0605343EACE63036180E0D0F80CC0AF
:103C900063F3020CC0F80CC079E0D0F80CC003F05C
:103CA000070E2CF0380343EACE03C3606FE0D0F870
:103CB0000CC003F0070E2CF4E07343EA8E13C360CC
:103CC00065E0D0F80CC003F0070E2CF4E04343EAA3
:103CD0000E33C3605BE0D0F80CC003F0070E2CF489
:103CE000603343EACE33C36051E0D0F80CC003F038
:103CF000070E2CF4E01343EA8E43C36047E0D0F88C
:103D00000CC003F0070E2CF4600343EA4E53C3606B
:103D10003DE0D0F80CC003F0070E2CF0605343EAEE
:103D2000CE63C36033E0D0F850C063F3020CC0F838
:103D300050C02CE0D0F850C003F0070E2CF0380330
:103D400043EACE0322E0D0F850C003F0070E2CF473
:103D5000E07343EA8E1319E0D0F850C003F0070E69
:103D60002CF4606343EA4E2310E0D0F850C003F017
:103D7000070E2CF4E04343EA0E3307E0D0F850C0BE
:103D800003F0070E2CF4E01343EA8E430365836BC4
:103D9000C3F30153D21A03324FF0FF3313FA82F206
:103DA000032A88BF80BDDFE802F002070C11826B96
:103DB00061F30402826380BD826B61F34912826306
:103DC00080BD826B61F38E22826380BD826B61F362
:103DD000D332826380BD000070B586B042F2001419
:103DE000C4F20104002620460021CDE90466FFF755
:103DF00055FC01AD2846FFF739FC4FF48060019077
:103E000028468DF80960FFF7F1FB0920C0F2440055
:103E10000121012600F0DCFD0125C0F23005284615
:103E2000012100F0D5FD4FF44010012100F0D0FD3C
:103E30004FF44010012100F0CBFD4FF44010012160
:103E400000F0C6FD05F11500012100F0C1FD04AD33
:103E5000284601F01FFC03208DF816000220049074
:103E600004F563402946ADF8146001F01BFC1020F6
:103E700004F55F4604903046294601F013FC2020EB
:103E800004903046294601F00DFC40200490304655
:103E9000294601F007FC802004903046294601F0B5
:103EA00001FC03AD2846FFF789FB4FF040700390FB
:103EB00020462946FFF760FB2046002100F086F8E7
:103EC00020460321FFF756FE204609210122002348
:103ED000FFF75AFE2046092102220223FFF754FE73
:103EE0002046092103220023FFF74EFE2046002131
:103EF00000F054F820460021012200F039F8204655
:103F00004FF4800100F06CF820464FF481510022FC
:103F100000F076F8A068C00713D120460121FFF712
:103F2000BDFB2046FFF74EFB2046FFF751FB002864
:103F3000FAD12046FFF750FB2046FFF753FB00283D
:103F4000FAD106B070BD0000032905D8DFE801F002
:103F50000207090B3C3007E0002080B27047403078
:103F600002E0443000E04830006880B27047000052
:103F700083680F2923F4000388BF03F500038360DF
:103F8000836802F0030261F313438360816821F4C4
:103F9000401141EA0251816070470000426801F01F
:103FA000010122F4805242EA013141607047000071
:103FB000826801F0010122F4800242EA81518160AD
:103FC000816821F48001816070470000426801F03F
:103FD000030122F0407242EA016141607047000033
:103FE000426822F400024260426822F48002426089
:103FF000426822F400724260426811434160704797
:10400000D0F824C04FF6FF732CEA03031944416231
:10401000816A6FF30F0111448162704780B540F6E9
:104020000240C2F2000002F0CDF941F2C800C2F233
:104030000000B0F9001040F2DB52914202DC013185
:10404000018080BD0020C4F2010000F0A7FF40F213
:104050004A30C2F200000321017080BDF0B581B08A
:10406000044641F2C400C2F200000121017041F295
:10407000A800C2F200000025058040F20030C2F224
:104080000000057040F24630C2F20000058040F6A4
:104090008040C2F2000014260660056140F2B000C4
:1040A00040F2A407C2F20000C2F200070580C580FA
:1040B0003868B7F9062084F83D10002102F0F0FEC0
:1040C00040F29802C2F2000210681179B2F906209B
:1040D00002F0E6FE0A216068B4F91C20B9800621CE
:1040E00002F0DEFE208A618AA5840844A18DA082A8
:1040F000E18220836183668701B0F0BD70B540F234
:10410000B003C2F200030C464988B3F84630594365
:1041100041F21813C2F200031980B4F90010B4F987
:10412000043099425BDD064692F90800154640F2DC
:10413000E8123178C0EBC000C2F2000202EB40028C
:1041400032F8111040F2702CCAB2B17048F2BE7150
:10415000C0F6000101EB40001821C4F2010110F883
:1041600012000A6848F68F73C2F2000C1A403CF83D
:1041700030300CEBC00C1A430A604A684FF68F7E51
:10418000BCF8043002EA0E021A434A6040F2A82347
:104190008A68C2F200034FF2222C33F8200002EAB0
:1041A0000C0210438860A1F11800202102F002FFE8
:1041B000B07895F908103070B4F904000122A2EB30
:1041C0004101484342F228314843686140F21130CE
:1041D000C2F20000027000202080286170BD481CDF
:1041E000208070BD10B51821C4F201010A6840F2A8
:1041F000702E48F68F73C2F2000E1A403EF830302F
:10420000D1F808C01A430A600EEBC00E4A684FF698
:104210008F74BEF8043022401A4340F2A8234A604B
:10422000C2F200034FF2222233F8200002EA0C020D
:104230001043886010BD00002DE9F04140F22C339E
:10424000C2F200031B780C4640F2123141F2B00872
:104250001546C2F200010122C2F200080A70C3B181
:10426000242140F23822C4F20101C2F2000209689E
:1042700013682E69CB1A42F2283706FB073341F246
:10428000AC07C2F20007396011600021C8F80030A5
:10429000296140F21331C2F200010978C9B195F9E0
:1042A000081040F2E8130278C1EBC101C2F200032A
:1042B00003EB410333F8122048F2BE73C0F600034B
:1042C00003EB4101D3B211F8131082700846FFF7D7
:1042D00089FF40F29470C2F200000068D8F8001024
:1042E00001F058FE686140F298010646C2F20001F2
:1042F00041F28602A0680A81002102F04BFEA0680C
:10430000C16821F00101C1600121700801EB264163
:10431000B0FBF1F0A16880B2C862A068311481627C
:10432000A068416941F001014161A068016921F083
:1043300001010161A068C16841F00101C160A0688C
:104340000121BDE8F04102F01FBE0000F0B581B0D0
:1043500005460068012102F031FE6868102102F074
:104360002DFE2868002102F00FFE6868002102F08F
:104370000BFE2868002102F00DFE6868002102F0A3
:1043800009FE40F2A400C2F200000068002102F021
:1043900001FE40F29800C2F200000068002102F025
:1043A000F9FD42F20014C4F2010420460021FFF797
:1043B00075F9204604210426FFF776F96868002184
:1043C00002F064FD68684FF48051012202F0E4FDC0
:1043D00046F20805C4F202052846002100F0F6FD69
:1043E00005F13C00002100F0F1FD05F150073846D1
:1043F000022100F0F5FD20460321FFF7BBFB20461C
:10440000092101220023FFF7BFFB204609210222D8
:104410000323FFF7B9FB20460021FFF7BFFD40F261
:104420007830C2F2000000780322022808BF092673
:10443000012808BF0426204631460123FFF7A4FBCC
:104440002846012100F0C2FD3846012100F0BEFDE2
:104450002046012101B0BDE8F040FFF71FB9000080
:1044600040F25801C2F20001B1F92610484340F36E
:104470008F30704780B5B0F9102040F2003CC2F296
:10448000000C8A42B8BF4A08B0F812E09CF800302D
:10449000724482824BB1B0F92E208A4211DD818DA7
:1044A0000022C18290F83D101BE0B0F930208A4212
:1044B00011DD90F83D10828D0129C28219D10022B0
:1044C00013E0028F90F83D30891A012BC18218BF8A
:1044D00080BD012209E0028F891AC18290F83D1047
:1044E000012201298CF8002003D1806A102102F0FA
:1044F0005DFE80BDD0E9032101319142016198BF89
:104500007047B1F58E7F0ED842F22830484341F211
:10451000B001C2F20001086040F21130C2F20000A6
:1045200001210170704740F21D11C0E90311002103
:10453000416040F28870C2F20000016040F2947065
:10454000C2F2000040F240220068C2F20002C2E95A
:10455000041102F01BB9000070B584B000264FF4BE
:1045600040100121CDE9006600F032FA4FF440100E
:10457000012100F02DFA4FF44010012100F028FA3B
:104580004FF44010012100F023FA0020C0F2031084
:10459000002401901020C4F202046D4600902046D1
:1045A000294601F07FF8202000902046294601F09E
:1045B00079F8402000902046294601F073F88020C9
:1045C00000902046294601F06DF802AC204600F02C
:1045D00031F80420C0F20030CDF809000220214655
:1045E0008DF8086000F06CF802203F213F22012383
:1045F00000F038F80220012100F020F802201021FC
:1046000000F002F804B070BD43F6300201F07F0103
:10461000C4F2010201284FEAC14005D1116821F01E
:104620007E71084310607047116921F07E71084364
:1046300010617047002101710160704743F630023C
:10464000C4F20102012801F0010005D1116821F036
:104650000101084410607047116921F0010108440C
:104660001061704780B543F6340C0128C4F2010C88
:104670000DD1DCF80000002B63460CBF20F00100D8
:1046800040F0010043F8080B0CF1040E0DE0DCF8DB
:104690001000002B0CF1140E0CF118030CBF20F0CD
:1046A000010040F00100CCF81000186862F305002A
:1046B0001860DEF8000061F30500CEF8000080BD50
:1046C0000B7843F6300203F00303C4F20102012821
:1046D0004FEA032021D1136823F44073184310607C
:1046E0004878136860F3061313608878136860F3E2
:1046F00083031360C878136800F0010023F40043BB
:1047000043EAC03010600879116800F0030021F41A
:10471000403141EA004010607047136923F4407350
:10472000184310614878136960F3061313618878A1
:10473000136960F383031361C878136900F0010003
:1047400023F4004343EAC03010610879116900F096
:10475000030021F4403141EA00401061704700003D
:1047600080B5D0E9001CB0F90820A1EB0C039342FE
:104770000CDAB0F90AE0CEF10002934204DAACEBB5
:104780000E028A42C8BF1146416080BD62448A421F
:10479000B8BF1146416080BD43F6A401C4F20201D6
:1047A0000A6800F00F0042F030020A6051F89C2CB9
:1047B00022F0F00242EA001041F89C0C086820F058
:1047C000300008607047000043F60801C4F202019F
:1047D0000A6800F0070022F4E05242EA80200860F4
:1047E0007047000043F60801C4F202010A6800F0B5
:1047F000070022F4604242EA40300860704700003F
:1048000043F6A401C4F202010A6800F0070022F492
:10481000E04242EA003008607047000043F6A4011D
:10482000C4F202010A68012822F0300208BF3032C7
:104830000A607047042888BF7047DFE800F0030C67
:1048400019262F0043F60000C4F20200026861F34B
:1048500000020260704743F60000C4F202000268E2
:1048600001F0010122F4803242EA01410160704707
:1048700043F60000C4F20200026801F0010122F0D8
:10488000807242EA01610160704743F60000C4F2A1
:104890000200026F61F300020267704743F60000F6
:1048A000C4F20200426F61F30002426770470000E9
:1048B000B0B543F60405C4F2020569680446C1F3C5
:1048C000810141F200200229C0F27A0013D00129AF
:1048D0002CD0A9BBD5F89C10490446F60041C0F283
:1048E000DC2158BF01462160D5F8A000C0F302408A
:1048F00021FA00F024E029682A68490243F20061A5
:10490000D5F800C02B68C0F26E11C2F3881258BFF0
:104910000146A1FB0201C3F3024217A39A5C0CF00B
:104920000F035A430023FBF765FC09E043F20060E4
:10493000C0F26E102060D5F8A010C1F3C241C8408B
:10494000206068680EA1C0F30310085C216848F27B
:10495000A87221FA00F060606968C0F60002C1F335
:104960008221515C20FA01F1E1606968C1F34231B2
:10497000515CC840A060B0BD0102040810200000D6
:1049800000000000000000000102030406070809FF
:1049900043F60002010CC4F20202895800F01F0025
:1049A00021FA00F000F001007047000043F600011A
:1049B0000020C4F2020100BF0A68920304D4B0F5DB
:1049C000405F00F10100F7D30868C0F34040704732
:1049D00043F6000200F01F034FF0010CC4F2020284
:1049E00001290CFA03F14FEA1040835814BF23EA5F
:1049F000010119438150704710B543F6040CC4F20D
:104A0000020CDCF800E000F001042EF4800040EA23
:104A10008450CCF80000DCF8000061F38E10CCF874
:104A20000000DCF8000003F0070162F30300CCF89B
:104A30000000DCF8000020F4E02040EA0140CCF85F
:104A4000000010BD43F60000C4F20200D0F8A4102C
:104A500041F03001C0F8A410016841F0010101608B
:104A600001688907FCD5816821F00301816000BFDE
:104A7000816811F00C0FFBD101684FF6FF72CFF681
:104A8000F262114001604FF08041816043F2020107
:104A9000C0F2030141604FF47121C0F8A0104FF43F
:104AA0001F01C160D0F8A41021F03001C0F8A4109B
:104AB0007047000043F6A401C4F202010A6842F004
:104AC00030020A6051F89C2C60F3010241F89C2CE2
:104AD000086820F0300008607047000043F60800C6
:104AE000C4F202000068C0F38100704700000000BB
:104AF0002DE9F0472DED028B0446808B9FED6E1A59
:104B000000EE100AB8EE400A80EE010A10EE100A1C
:104B1000FBF78BFD94ED040B02460B4651EC100B9A
:104B2000FBF772FCFBF794FD0546D4E90001A56193
:104B300091ED000AB0EE081A90ED002A20EE011A5D
:104B400081EE021A9FED5D2AE08B82EE011A02EEE1
:104B5000100AB8EE422AB4EE421AF1EE10FAC2BFC1
:104B6000BDEEC11A11EE100AE083E18B208C814268
:104B700088BFE083E08B01EE100AB8EE411A20EE08
:104B8000010A10EE100AFBF750FD94ED020B0246ED
:104B90000B4651EC100BFBF737FC064628460F4638
:104BA000FBF743FD02460B4630463946FBF79EFCB9
:104BB00041EC100B84ED0A0B03F09AFB03F018FC98
:104BC00053EC102B9FED3A0B58EC109B4846414696
:104BD000FBF714FCFBF70AFD0F260F2828BF304611
:104BE0004FF0010AA08794ED0A8B0AFA00F0FBF758
:104BF000ECFC02460B4651EC180BFBF705FCFBF7EF
:104C0000F5FC2087E08B216800EE100A91ED001A78
:104C1000B8EE400A21EE000A10EE100AFBF705FD7F
:104C200094ED020B02460B4651EC100BFBF7ECFB2C
:104C30000746A0690D46FBF7F8FC02460B463846CE
:104C40002946FBF753FC0546606A0F46FBF7BDFC9F
:104C500002460B4628463946FBF748FC41EC100B50
:104C600084ED0C0B03F044FB03F0C2FB53EC102B60
:104C700048464146FBF7C2FBFBF7B8FC0F2838BF9C
:104C8000064694ED0C8B0AFA06F0E687FBF79DFCCE
:104C900002460B4651EC180BFBF7B6FBFBF7A6FCE4
:104CA0006087BDEC028BBDE8F08700BF00BF00BF8E
:104CB0000000000000002A4000F07F454CBE8C4000
:104CC0002DE9F04381B040F23036C2F2000632786E
:104CD0000D46102A044642D840F2343840F23639A4
:104CE00040F23237C2F20008C2F20009C2F20007F5
:104CF00003E000BF3078102831D8206B04E000BFFB
:104D00003078411C206B31700421FEF7D1FC002863
:104D1000F0D0206B0421FEF7C7FC30780028EFD0DC
:104D200035B1206B0021FFF70FF93988084438802E
:104D3000022D08D3206B0121FFF706F9B8F8001007
:104D40000844A8F80000032DDAD3206B0221FFF7F6
:104D5000FBF8B9F800100844A9F80000D0E7032DCB
:104D600009D0012D1CD140F23230C2F2000000887F
:104D70000009A08514E040F23230C2F2000040F297
:104D800034310088C2F2000109880009E084080972
:104D900040F23631C2F20001098820850809608599
:104DA000012001B0BDE8F083F0B583B00025C4F266
:104DB000020504460020A5F58036CDE90000304606
:104DC000002102F0B3FB3046002102F0DDF86E4610
:104DD000304600F05FFC01208DF806004FF4807033
:104DE00000902846314600F05DFC2846082101224B
:104DF00000F092FC4FF4007000902846314600F01D
:104E000051FC28460921012200F086FC4FF4806005
:104E100000902846314600F045FC28460A21012230
:104E200000F07AFC4FF4006000902846314600F014
:104E300039FC28460B210A2200F06EFC4FF480500A
:104E400000902846314600F02DFC28460C210A220D
:104E500000F062FC402005F580670090384631463E
:104E600000F020FC38460621012200F055FC2846BF
:104E70004FF48071002200F007FC28464FF40071C7
:104E8000002200F001FC28464FF48061002200F06F
:104E9000FBFB28464FF40061012200F0F5FB284699
:104EA0004FF48051012200F0EFFB384640210122EF
:104EB00000F0EAFB2046062140F6CA0201F0F0FFAE
:104EC0002046012102F032FB2046012102F05CF86D
:104ED00003B0F0BD10B54021C4F2010109680446D9
:104EE000A32908D3206B0021FFF72EF8A18D401ACB
:104EF000C000E08006E0B4F90600B4F908104843A9
:104F0000C00BE080608FB4F9061094F83E2048434F
:104F1000C2F10F01B4F8462008415043208010BD73
:104F200047F20841C4F200010A6860F305020A6012
:104F30007047000047F200420228C4F2000207D086
:104F4000012818BF7047106861F3000010607047B7
:104F5000106801F0010120F4803040EA0140106047
:104F60007047000047F200420228C4F200020BD052
:104F7000012818BF7047106801F0010120F00200FD
:104F800040EA410010607047106801F0010120F410
:104F9000003040EA4140106070470000B0B5002189
:104FA0000446002502F0C2FAA06947F27001884366
:104FB000A061E069202120F07000E061204601F04E
:104FC000F9FFC4E90D55E5632564B0BD026861F3DE
:104FD0000002026070470000406880B27047000025
:104FE0004160704700210182C0E90011C0E902114F
:104FF00070470000D0F8003143F00103C0F80031E1
:10500000086862F3060008607047000002684BF60B
:10501000EF731A4002600A8903681A4302604A7CEF
:10502000036802F0030223F4405343EA02320260B1
:10503000CA7B036802F0030223F4406343EA82223E
:1050400002608A7B036802F0030223F4407343EAA0
:10505000022202604A7B036802F0010223F080030F
:1050600043EAC21202600A7B036862F3861303609C
:105070000A7C036862F3451303604A89436842600F
:105080000A6882604968C16070470000002A0268AF
:105090000CBF22EA0101114301607047016800F072
:1050A000FC024CF6CD43083ACCF6CC43A2FB0323DA
:1050B00021F001010160002146F20402016041601B
:1050C0008160C1606FF00300C4F2020200EA930045
:1050D0000F21136801FA00F01843106070470000B8
:1050E0002DE9F04385B046F21C04C4F202042046C8
:1050F000FFF7D4FF6D462846FFF774FF40F22E20DD
:10510000C0F20010CDF80A001020ADF8080040F2FF
:10511000A470C2F2000041F204080190C4F2010838
:105120004FF0000920462946CDF80080CDF80E90BA
:10513000FFF76CFFA4F11C0604F1EC0130461922C4
:10514000FFF758FF204602210022FFF79FFF04F1DE
:1051500014073846FFF7A2FF2846FFF743FF0C204D
:10516000C0F20010CDF80A0041F20C10C2F20000AB
:10517000CDE9008038462946ADF80890CDF80E906C
:10518000FFF744FF04F1F00130461822FFF732FF29
:10519000384602210022FFF779FF05B0BDE8F08311
:1051A000D0F8002161F30002C0F800217047000030
:1051B0000A78036862F3040303604A78036802F024
:1051C000030223F4C02343EA42420260D1F804C040
:1051D0004FF47802036802EBCC42D20C62F3D7435F
:1051E0000360097A026801F0010122F4803242EA88
:1051F000014101607047000000210172416001809F
:1052000070470000026861F3060202607047000008
:1052100040F20A30C2F2000040F22C318088C2F223
:10522000000109787C38052900B210D0042918BF84
:1052300070477C2821DB40F6D751C0F20401484377
:1052400040F2B001C00BC2F2000148800EE07C28A1
:105250001ADB47F65A41C0F201014843642101EBD1
:10526000E03041F2B401C2F20001086041F2C50031
:10527000C2F2000001210170704740F2B000C2F29A
:105280000000002141800EE00D2806DB41F2B40051
:10529000C2F2000064210160704741F2B400C2F222
:1052A00000000021016041F2C500C2F2000001705F
:1052B0007047000043F61040C4F20200016841F05C
:1052C000800101607047000043F60C41C4F2020106
:1052D0004A6842F002024A608860486840F0400034
:1052E00048600868C0070AD1086840070AD40868FF
:1052F000C0064FF0020058BF032008BB04E00020A6
:10530000F0B901E00120D8B94FF080420868C00729
:105310000AD10868400709D40868C0064FF00200A7
:1053200058BF032003E000BF002000E00120A2F1ED
:10533000010310B9012A1A46E8D1002B08BF042046
:105340004A6822F002024A607047000043F60440B7
:1053500040F22311C4F20200C4F26751016048F622
:10536000AB11CCF6EF5101607047000043F60C42E0
:10537000C4F20202536843F00103536001601068F5
:10538000C0070AD1106840070AD41068C0064FF061
:10539000020058BF032008BB04E00020F0B901E080
:1053A0000120D8B94FF480111068C0070AD11068E5
:1053B000400709D41068C0064FF0020058BF032010
:1053C00003E000BF002000E00120A1F1010310B9BB
:1053D00001291946E8D1002B08BF0420516821F0AB
:1053E00001015160704700002DE9F04F83B09346F2
:1053F00088460446FFF7AAFFC4F38707A44604F1D2
:105400007840C7F580715C46594538BF0C4640F27C
:10541000FF31830A884340F27C3600F10065C2F216
:10542000000620040DD000BF002000BF17FA80F155
:1054300056F8211001311FD1013081B2A2B2914240
:10544000F4D31FFA84FABAF1000F37D0CDE9018303
:10545000A8F10409D0466746CDF800C059F8041FEA
:105460003846FFF783FFB8F1010807F10407F5D1CB
:10547000DDE900C821E000BF4FF0006000EB8320B1
:10548000E1460293FFF720FF1FFA84FA06EB87003C
:105490000438A8F10401524651F8043F013A40F89B
:1054A000043FF9D1002700BFF159E819FFF75EFF6B
:1054B0000437B7F5806FF7D1CC46029BA0B21FFA34
:1054C0008BF1814213D0ABEB040B1FFA8BF4013349
:1054D00008EB8A080CEB8A0CB4F5807F28BF4FF4E8
:1054E000807405F58065002720049DD1A9E703B0ED
:1054F000BDE8F04FFFF7DEBE4FF60040C0F60100FA
:10550000007B7047F0B583B0082046F2080442F2F1
:105510000005C0F244000121C4F20204C4F20105F6
:105520000127FFF755FA28460021FEF7B7F8204675
:105530000021FFF74BFD20460321FFF751FD01AE8F
:105540003046FEF793F84FF48060ADF80400304623
:105550008DF80970FEF74AF828460221FEF70AFB8B
:105560002846112101220723FEF70EFB28461121B0
:1055700002220723FEF708FB284600210022FEF73F
:10558000F7FC28460021FEF709FDA868C0071AD1DC
:1055900028460121FEF782F828464021FEF788F8C8
:1055A0000028F9D02846FEF70DF800BF2846FEF780
:1055B0000FF80028FAD12846FEF70EF82846FEF725
:1055C00011F80028FAD128460421FEF76DF8284684
:1055D0000121FEF7EDFC00BF28460421FEF768F824
:1055E0000028F9D028460121FEF7AEFC06462846E1
:1055F0000421FEF759F828460121FEF7D9FC00BF27
:1056000028460421FEF754F80028F9D02846012145
:10561000FEF79AFC074628460421FEF745F828467F
:105620000021FEF73BF8A868C0071AD128460121DF
:10563000FEF734F828464021FEF73AF80028F9D062
:105640002846FDF7BFFF00BF2846FDF7C1FF002831
:10565000FAD12846FDF7C0FF2846FDF7C3FF002812
:10566000FAD120460121BD19FFF7B0FC48F2000134
:105670006808C0F27711B1FBF0F040F25801C2F2B5
:105680000001C88403B0F0BD1823002A08BF2823F6
:10569000C15070474FF6FF714FF08072C0E90012A1
:1056A00070470000F0B50A88002A08BFF0BD00234B
:1056B0004FF0030C4FF0010E002405E0520804F1F6
:1056C000010403F1020326D0D507F7D005680CFAD0
:1056D00003F6B54305608D7907689D403D4305603D
:1056E00045680EFA04F7BD4345600D794768A5404B
:1056F0003D4345608568B5438560CD7987689D40A9
:105700003D438560C568B543C5604D79C6689D4019
:105710003543C560D2E7F0BD80B51C2303EA8103A1
:1057200002FA03FE24224FF00F0C082938BF202272
:1057300081580CFA03F3994341EA0E01815080BD70
:10574000F0B584B04AF6AB2C40F27C7000216FF0CB
:105750000102CAF6AA2CC2F20000EE46ADF80C1007
:105760000291CDE9001100BFA1FB0C3424F003032A
:10577000C3EB940300EB830313445B880EEB02043A
:1057800002320C2A01F101016380EDD140F2E810F0
:105790006FF00101C2F200000EEB01029388D7887E
:1057A0005288023100EB4306082920F81370F28179
:1057B000F2D1BDF80010BDF8022000EB410320F843
:1057C000112040F25410C2F2000090F9030048F298
:1057D000DA71C0EBC000C0F6000101EB4001BDF87A
:1057E0000A204888DA813EF8100040F27022C2F2A6
:1057F00000024FF4C04402EBC00342F830404FF0C7
:10580000500C8C88C3F804C040F2A823C2F20003F5
:105810004FF48A653EF8144043F8205046F2500594
:1058200002EBC40042F8345000254560C888542675
:105830003EF8100043F8246002EBC0046026666066
:105840000C8940F204573EF8144042F830C043F847
:10585000207002EBC400466048894FF4A0473EF830
:105860001000898942F834704FF4A86743F8247017
:1058700002EBC0043EF8111045F260076560452454
:1058800042F8307043F8204002EBC100C0F804C079
:1058900040F2054042F8316043F8210004B0F0BD09
:1058A000F0B581B018250024C4F2020508260427AB
:1058B0004FF4FA702E612F6100F058F94FF4FA702E
:1058C0002E602F6000F052F9022C04F10104EFD396
:1058D00001B0F0BDF0B583B04FF440100121FFF7E7
:1058E00077F84FF440100121FFF772F801AC204621
:1058F000FFF7D0FE00200025C0F20110C4F202051F
:1059000002900826284621460196FFF7CBFE042781
:10591000284621460197FFF7C5FEAE61AF6103B08F
:10592000F0BD00008161704781627047426951405B
:1059300041617047000000002DE9F0470446B0F9CE
:105940000400FAF742FE054620680E46FAF73DFECF
:1059500002460B4628463146FAF7C8FD9FED140B68
:10596000814653EC102B8A46FAF7A7FC9FED120BE9
:105970000746884656EC105B284631463A46434671
:10598000FAF7B4FDFAF732FEE080484651462A465F
:105990003346FAF739FD3A464346FAF7A7FDFAF7D8
:1059A00025FE20810020A061BDE8F08700BF00BF78
:1059B000000000000000F03F00000000C0FFDF40DA
:1059C000B0B50246B0F90600D2F810E0C417AEFB3D
:1059D000003C55690EFB04C4B2F908C005FB004049
:1059E0009569CCFB0130591940EBE570CD0BC31321
:1059F00045EA40406FF3DF31C2E904039161B0BD75
:105A000000F0D0FF00F0BCFE01F088F800F084FC4C
:105A100000F090F8FFF75EFF00F00EFE00F000FBD4
:105A2000FFF76AFD40F27831C2F20001087000F021
:105A3000AFF840F61841C2F20001087000F064FBB4
:105A4000FEF78AFD01F000FF01F08EFDFEF7C4F9BC
:105A5000FDF7A4FF642000F089F840F24830C2F25C
:105A6000000000210180FFF74DFD01F055FA01F023
:105A7000EFF801F07DF80024C4F201042046012172
:105A80004FF0010901F080FA40F2C820C2F2000094
:105A900001F020FFFFF724FB01F076FFFBF706FB88
:105AA00001F062FD2046012101F06EFA40F21C3047
:105AB000C2F20000FEF7FCFE00F05AFDFFF7F0FE18
:105AC00040F2113740F680454BF2490A40F2402B34
:105AD00040F2887640F24A3440F21A18C2F20007C7
