:020000040800F2
:1000000048170020D1010008C5110008CD100008D4
:10001000C1110008450A0008AD35000800000000C5
:10002000000000000000000000000000C12E0008D9
:10003000490A000800000000C9110008C52E000888
:10004000EB010008EB010008EB010008EB010008E0
:10005000EB010008EB010008EB010008EB010008D0
:10006000EB010008EB010008EB010008EB010008C0
:10007000EB010008EB010008EB010008EB010008B0
:10008000EB010008EB01000879090008EB0100080A
:10009000EB010008EB010008EB010008EB01000890
:1000A0009531000821320008CD330008D131000815
:1000B00000000000AD340008EB010008EB0100086F
:1000C000EB010008EB010008EB010008EB01000860
:1000D000EB010008EB0100081535000800000000E6
:1000E000EB010008EB010008000000000000000028
:1000F0000000000000000000000000000000000000
:1001000000000000000000000000000000000000EF
:100110000000000000000000EB010008EB010008F7
:1001200000000000000000000000000000000000CF
:1001300000000000000000000000000000000000BF
:10014000EB010008000000000000000000000000BB
:10015000000000000000000000000000000000009F
:10016000000000000000000000000000000000008F
:10017000000000000000000000000000000000007F
:1001800000000000EB01000800000000000000007B
:10019000000000000000000000000000000000005F
:1001A000000000000000000000000000000000004F
:1001B0000000000000000000EB010008DFF80CD098
:1001C00000F09CFB00480047495A000848170020EF
:1001D0000648804706488047FEE7FEE7FEE7FEE761
:1001E000FEE7FEE7FEE7FEE7FEE7FEE70130000878
:1001F000BD0100082DE9F05F0546002092469B46B0
:1002000088460646814640241BE02846414647462C
:10021000224600F048FA53465A46C01A914110D37C
:1002200011461846224600F02FFA2D1A67EB0108F6
:100230004F4622460120002100F026FA17EB000964
:100240004E41201EA4F10104DFDC484631462A4617
:100250004346BDE8F09F40EA01039B0703D009E055
:1002600008C9121F08C0042AFAD203E011F8013BA2
:1002700000F8013B521EF9D27047D2B201E000F8FB
:10028000012B491EFBD270470022F6E710B513463A
:100290000A4604461946FFF7F0FF204610BD10B588
:1002A0004843044608F056FA002805D00021002CE7
:1002B00002D0641E0155FAE710BD2DE9FE4F8046BD
:1002C00081EA0300C00F0C46009021F0004123F0AA
:1002D0000045B8EB0200A94105D2404621469046B0
:1002E0001C460B46024623F00040104347D0270D22
:1002F000C7F30A00C3F30A510290401A0190402844
:100300006BDAC3F3130040F4801B0098924620B1CF
:100310000023D2EB030A63EB0B0B01985946C0F1A3
:100320004002504600F0B0F906460D465046594688
:10033000019A00F0C8F910EB08006141002487EA37
:10034000115284EAE7731A4340D0009A62B3019ACB
:10035000012A4FEA075215DC001B61EB02014FF046
:10036000004202EA0752CDE90042001C41F580112B
:1003700032462B4600F0FFF903B0BDE8F08F40464F
:100380002146F9E7001B61EB0201001C41F58013D7
:1003900000185B412018A2F5001747EB030140EA63
:1003A000D570B6196D4111E06D084FEA360645EA81
:1003B000C0754FEA0752001B61EB0201001C41F5BA
:1003C000801149084FEA30000019514132462B464E
:1003D00003B0BDE8F04F00F0BFB900980122400023
:1003E0000023D0EB020263EBE073009821464FEA52
:1003F000E074B8EB000061EB0401E9E783F000432F
:100400005BE781F0004158E72DE9FE4F81EA0304E4
:1004100004F0004421F0004100944FF0000B23F061
:10042000004350EA01045ED052EA03045BD0C3F3F8
:100430000A54C1F30A552C44A4F2F3340194A0FBEE
:100440000254C1F3130141F48011C3F3130343F4C5
:10045000801301FB024400FB034E840A970A44EA1E
:10046000815447EA8357A4FB076802958D0A05FB70
:1004700007854FEA932C04FB0C542705029D4FEA95
:10048000065847EA1637B5EB08056EEB070C870EE2
:10049000920E47EA811742EA8312A7FB0201B6EBEC
:1004A0000B0164EB00042B0D43EA0C335E1844EBA4
:1004B0001C50DA465146E7FB0201C5F313044FEA2C
:1004C0000B3343EA14534FEA0432019C43EA060318
:1004D000A4F10C040294009CCDE900B400F04BF9A7
:1004E00003B0BDE8F08F00200146F9E72DE9F04D9B
:1004F00081EA030404F0004B21F0004514464FF05C
:10050000000A23F0004150EA050220D054EA01021B
:100510001DD0C5F30A570246C5F31303C1F31300F8
:10052000C1F30A5640F4801543F48013A7EB060884
:10053000101BD64608F2FD3873EB050002D308F114
:10054000010801E092185B41B8F1000F03DA0020C6
:100550000146BDE8F08D00204FF480110646844628
:100560000EE0171B73EB050705D3121B63EB0503A6
:1005700006434CEA010C49084FEA300092185B41EF
:1005800050EA0107EDD152EA030012D082EA0400DA
:1005900083EA0501084305D0101BAB4106D20122B6
:1005A000002306E000224FF0004302E06FF001025A
:1005B00053101AEB06004CEB085110EB0A0041EB0C
:1005C0000B01BDE8F04D00F0C7B80EB5C10F80EAD1
:1005D000E0700844CA07002140F233438DE80E0062
:1005E0000A460B4600F0C7F803B000BD70B5C1F372
:1005F0000A5201F000450024C1F3130140F2FF3319
:1006000041F480119A4201DA002070BD40F2334378
:100610009A42A2F2334203DC524200F044F800E076
:1006200090402C43F1D0404270BD00F0004230F0C9
:1006300000400AD0C10D01F56071C0F3160042EA16
:100640000151C2084007114370470020014670471E
:1006500001F0004330B421F0004150EA010206D01D
:100660000A0DA2F56072C1F31301002A02DC30BC4E
:1006700000207047440F44EAC104C100E01830BCB8
:1006800000EBC25000F031B8202A04DB203A00FA17
:1006900002F1002070479140C2F1200320FA03F3D9
:1006A000194390407047202A04DB203A21FA02F0D7
:1006B0000021704721FA02F3D040C2F1200291409C
:1006C000084319467047202A06DBCB17203A41FA27
:1006D00002F043EAE07306E041FA02F3D040C2F1CF
:1006E000200291400843194670470029A8BF70476F
:1006F000401C490008BF20F00100704710B4B0FA58
:1007000080FC00FA0CF050EA010404BF10BC7047F2
:1007100049B1CCF1200421FA04F411FA0CF118BF0C
:10072000012121430843A3EB0C01CB1D4FEA0061DB
:100730004FEA102042BF002010BC704700EBC350AE
:1007400010440029A4BF10BC7047401C490008BFDA
:1007500020F0010010BC704710B5141E73F10004A6
:1007600008DA401C41F1000192185B411A4301D1A3
:1007700020F0010010BD2DE9F04D92469B4611B1CD
:10078000B1FA81F202E0B0FA80F220329046FFF72F
:100790007BFF04460F4640EA0A0041EA0B0153463C
:1007A0005A46084313D0114653EA010019D0C8F144
:1007B00040025046FFF777FF05460E465046594621
:1007C0004246FFF761FF084305D0012004E02046C0
:1007D0003946BDE8F08D0020054346EAE0762C431B
:1007E00037430A986305E40AA0EB08000022FD0ADB
:1007F00044EA47540A3002D500200146E9E70105E2
:1008000010196941DDE9084500196941BDE8F04D5D
:10081000A2E700002DE9F041054621F000400C461A
:10082000284309D0C4F30A5040F23341884205DD21
:1008300028462146BDE8F0812846FBE740F2FE311C
:10084000884210DC0CDB4FEA043040EA155050EAD5
:10085000053105D0104804F0004101430020E9E7CC
:1008600000200146E6E7A0F233404642C6F14002CE
:1008700028462146FFF708FF0746884628462146B6
:100880003246FFF710FF43463A46FFF765FF324610
:10089000BDE8F041FFF7F8BE0000F03F30B5041EA0
:1008A00071F1000404DB4FF00044404264EB0101AD
:1008B000141E73F1000405DB1C464FF00043524246
:1008C00063EB04038B4208BF824230BD30B5041E87
:1008D00071F1000404DB4FF00044404264EB01017D
:1008E000141E73F1000405DB1C464FF00043524216
:1008F00063EB0403994208BF904230BD064C074D9C
:1009000006E0E06840F0010394E8070098471034DF
:10091000AC42F6D3FFF756FC7088000890880008B8
:1009200070B58C1810F8015B15F0070301D110F8B1
:10093000013B2A1106D110F8012B03E010F8016BDE
:1009400001F8016B5B1EF9D12B0705D40023521E61
:100950000DD401F8013BFAE710F8013BCB1A921CC9
:1009600003E013F8015B01F8015B521EF9D5A142C7
:10097000D8D3002070BD0000B0B540F25804C2F2D8
:100980000004E068042102F0AFFE002859D0E068BE
:10099000042102F0A5FE40F26A30C2F200000078A5
:1009A00001283AD1E068002103F0EAFA40F260350C
:1009B000E168C2F2000528800846012103F0E0FA50
:1009C000E16868800846022103F0DAFA2A8840F2DA
:1009D000BB718A42A88034D86A888A4231D840F2F2
:1009E000BB71884288BFB0BD40F6A040C2F2000093
:1009F00040F21D11C0E903110021416040F2B470C2
:100A000040F26022C2F20000C2F200020068C2E9B5
:100A10000411BDE8B04005F0E3BE40F2B004C2F2FC
:100A20000004204604F074FAB4F9001040F21810E3
:100A3000C2F2000004F0E8FF40F2AE71C2F2000121
:100A40000880B0BDFEE700007047000070B50928BF
:100A500088BF70BDDFE810F00A0026005300620076
:100A60008500A400E7000001A30023010020C4F2D8
:100A7000010004F0B1FA40F23030C2F2000000226E
:100A8000027040F2333342F20010C2F20003C4F2AB
:100A9000010000F563404FF480611A70BDE87040BA
:100AA00004F066BF0020C4F2010004F095FA05F0DE
:100AB000DFFC41F2E800C2F200000022028040F2B6
:100AC0006020C2F20000C0E9042240F23030C2F2DD
:100AD0000000027040F23330C2F20000027040F2B7
:100AE0003A3040F23233C2F20000C2F20003027028
:100AF000022010211A70BDE8704003F0A7BD41F23A
:100B0000E800C2F200000021018040F23330C2F25E
:100B100000000170BDE8704005F034BF41F2E8000C
:100B2000C2F200000021018005F070FE05F09EFE7B
:100B300040F25804C2F20004204603F0ABFA20460B
:100B400003F026FC40F23030C2F2000001210170B7
:100B500040F23330C2F200000170BDE8704005F091
:100B60009DBE40F2303040F24C32C2F20000012112
:100B7000C2F200021278017040F23330C2F200007B
:100B8000002A18BF0122027040F23A30C2F200007F
:100B90000021017041F2E800C2F20000018070BD46
:100BA0000024C4F20104204604F016FA02200021B9
:100BB000002603F04BFD42F20015C4F20105284661
:100BC00004210122012302F0FBFF28460521022215
:100BD000012302F0F5FF284606210322012302F03B
:100BE000EFFFA4F57C40002106F0F8F946F258002A
:100BF000C4F20200002104F007FA40F23030C2F2E1
:100C00000000067040F23330C2F20000067040F27D
:100C1000B000C2F20000066041F2D400C2F200004F
:100C2000C0E9006670BD0020C4F2010004F0D4F9F0
:100C300040F23030C2F200000021017040F2333047
:100C4000C2F20000017041F2E500C2F20000017042
:100C5000BDE8704005F00CBC0020C4F2010004F0B7
:100C6000BBF940F23030C2F200000021017040F2C6
:100C70003330C2F20000017041F2E500C2F2000020
:100C8000017005F0F5FB42F20010C4F2010000F51E
:100C900063404FF48061BDE8704004F06BBE40F2E9
:100CA0003030C2F200000121017040F23330C2F254
:100CB0000000017040F24F30C2F20000017040F2BB
:100CC0003A30C2F200000022027040F2323040F2AC
:100CD0005804C2F20000C2F200040170204603F082
:100CE000D9F9204603F054FB05F012F940F23C100C
:100CF000C2F2000004210170042003F08FFA0024E6
:100D0000C4F201042046202106F07EF9204600218D
:100D100006F06AF92046002106F066F92046012116
:100D200006F05CF92046012106F058F92046012121
:100D3000BDE8704006F024BCB0B540F23A10C2F2F3
:100D400000000078092800F2D780DFE800F0051ED7
:100D500032355985D59ED59341F2CA00C2F20000C2
:100D6000B0F90000002800F3988040F63840C2F245
:100D700000000078002800F0908040F24E30C2F26F
:100D80000000007800286ED187E040F24C30C2F2BB
:100D90000000007800F0FE01022940F0858041F259
:100DA000E500C2F200000078012840F077810920B8
:100DB0006FE103F04FF9BBE040F24C30C2F20000AB
:100DC0000078002800F0998041F2C800C2F20000CB
:100DD000B0F90000072800F3978041F2E800C2F262
:100DE0000000018801310AB2B2F57A7F0180C0F2B9
:100DF0009F8040F26A30C2F200000121017097E04A
:100E000040F24C30C2F200000078002800F09E80D2
:100E1000042800F0B08005286ED141F2E500C2F24E
:100E20000000007841F2D4040028C2F2000400F06F
:100E3000E1802068002848BF4042632800F2E0803B
:100E400040F6A040C2F20000007A002814BF6FF004
:100E5000630064202060D3E040F6A040C2F20000AE
:100E6000406800286BD140F26A30C2F200000121D4
:100E70000170B0BD41F2E500C2F200000078012827
:100E80002ED1BDE8B04000F043B940F26830C2F264
:100E900000000088002818BFB0BD40F26A30C2F2DE
:100EA000000000210170B0BD002878D0042800F0B7
:100EB0008A80052840F0F28041F2D400C2F200009E
:100EC000006841F2E5010028C2F2000100F08E80C6
:100ED0000A78012A40F08A80012880F28480D5E0D7
:100EE00040F2B000C2F200000021418040F26A30BE
:100EF000C2F2000005210170B0BD40F26A30C2F2BA
:100F000000000421017013E040F26A30C2F20000D8
:100F10000421017041F2E400C2F2000003210170DB
:100F200041F2E800C2F200000021018005F0DEFB82
:100F300041F2E500C2F2000000780028DCD140F266
:100F40006A30C2F2000005210170B0BD41F2E50037
:100F5000C2F2000000780028F1D040F23331C2F232
:100F60000001002240F62240C2F200000A70BDE8F3
:100F7000B04005F04BBA41F2E50140F24F30C2F209
:100F80000001C2F2000009780122027040F26A30CA
:100F90000029C2F20000D6D004210170B0BD41F298
:100FA000E500C2F20000007801285CD140F622443E
:100FB000C2F200046189B4F90600A18003F072FA5C
:100FC0006080032065E040F2B000C2F20000B0F99A
:100FD000020041F2E501C2F2000138B10A78012AAB
:100FE00004D101284FDB04F093FF51E0002008708A
:100FF00001204EE040F26A30C2F20000052101708B
:10100000204603F0CFFB40F6A041C2F20001606829
:101010004968451A40F66C40C2F20000294605F0C6
:10102000FDFA40F2B001C2F20001488040F22420F3
:10103000C2F20000294605F0F1FA40F24F31C2F247
:1010400000010A7841F23813C2F20003012A188025
:101050000ED06068002848BF4042B0F5487F04D3F6
:1010600001200870B0BD012013E0002A3FF444AF16
:101070006068002848BF4042B0F5167F3FF63CAF9D
:1010800000200870B0BDB0F1FF3F01DC04F0E0FECD
:10109000022040F26A31C2F20001087040F21004EE
:1010A000C2F2000494F8400001287FF425AF2046E6
:1010B00003F03EFD40F63C41C2F20001204605F03F
:1010C00095FB032084F84000B0BD0000FEE700005F
:1010D00010B542F20014C4F20104A4F5045003F068
:1010E00083FE40F2B000C2F20000012103F008FECE
:1010F00040F24E31C2F2000108702046042102F095
:10110000EFFA204680210122BDE8104002F0F2BA39
:1011100040F2223CC2F2000CBCF8001040F25C32FB
:10112000C2F20002013112888BB2B3FBF2F000FB75
:101130001230002818BF084640F25831C2F20001B0
:10114000098882B28A42ACF8000017D240F25A30C5
:10115000C2F20000B0F9001040F2B000C2F200008C
:10116000012941801BDB0121A0F8461040F63C40DC
:10117000C2F2000047F6FF710161704740F2B00013
:10118000C2F200000021418040F63C40C2F2000063
:10119000416141F23810C2F2000001807047B1F1A4
:1011A000FF3FC8BF70474FF6FF71A0F8461040F6EA
:1011B0003C400021C2F20000C8F201010161704709
:1011C000FEE70000704700007047000010B50138CE
:1011D00007283CD8DFE810F00800AD003B00DD0038
:1011E0000B013A017200660140F2E422C2F20002F1
:1011F00041F2E5001278C2F20000012141F2EA0C4E
:1012000040F26B3E0170A2F11001C2F2000C00220C
:10121000C2F2000E8CF80010ACF801208CF82710F8
:1012200007E000BF00200EF802000132042A00F09F
:10123000658193B2002B0846F5D0022BF2D0012B2A
:10124000F0D00846022A98BF1CF80200EBE740F2F3
:10125000E420C2F20000007841F2EA0CA0F1200282
:10126000C2F2000C0120ACF8010006208CF803004B
:10127000072050FA82F040F26B3100EB102E002371
:10128000C2F200018CF800208CF827E00AE000BFD1
:101290007046032B98BF1CF80300C8540133052B7C
:1012A00000F02C819CB2002C1046F6D0022C03D00A
:1012B000012CEDD10120F0E70020EEE740F26A308A
:1012C000C2F200000078012806D140F21000C2F2FC
:1012D0000000012180F8401040F2E420C2F200003A
:1012E000007841F2EA0C40F26B3EA0F11001C2F22C
:1012F000000C0022C2F2000E8CF80010ACF80120A5
:101300008CF8271007E000BF00200EF80200013221
:10131000042A00F0F38093B2002B0846F5D0022B8C
:10132000F2D0012BF0D00846022A98BF1CF8020028
:10133000EBE740F2E422C2F20002127841F2E5014A
:1013400041F2EA0C40F26B3EC2F200010020103A7A
:10135000C2F2000CC2F2000E08708CF80020ACF84B
:1013600001008CF8272006E000210EF80010013063
:10137000042800F0C38083B2002B1146F5D0022B65
:10138000F2D0012BF0D01146022898BF1CF80010B3
:10139000EBE706F0F1FC40F2E420C2F20000007836
:1013A00041F2EA0C40F26B3EA0F11001C2F2000CD7
:1013B0000022C2F2000E8CF80010ACF801208CF86C
:1013C000271006E000200EF802000132042A00F087
:1013D000958093B2002B0846F5D0022BF2D0012B5A
:1013E000F0D00846022A98BF1CF80200EBE740F252
:1013F000E422C2F20002127840F2683141F2EA0CB3
:1014000040F26B3EC2F200010020103AC2F2000C22
:10141000C2F2000E08808CF80020ACF801008CF8B5
:10142000272005E000210EF800100130042865D0C7
:1014300083B2002B1146F6D0022BF3D0012BF1D052
:101440001146022898BF1CF80010ECE740F2E42097
:10145000C2F20000007841F2EA0C40F26B3EA0F1CB
:101460001001C2F2000C0022C2F2000E8CF8001033
:10147000ACF801208CF8271006E000BF00200EF821
:1014800002000132042A39D093B2002B0846F6D06C
:10149000022BF3D0012BF1D00846022A98BF1CF88A
:1014A0000200ECE740F2E420C2F20000007841F2D2
:1014B000EA0C40F26B3EA0F11001C2F2000C0022D7
:1014C000C2F2000E8CF80010ACF801208CF8271046
:1014D00006E000BF00200EF802000132042A0DD001
:1014E00093B2002B0846F6D0022BF3D0012BF1D09B
:1014F0000846022A98BF1CF80200ECE740F234309C
:10150000C2F200000121017010BD00000138C8289E
:1015100000F25D81DFE810F0C900CE00D500DC00EC
:10152000E500EE00F7000001090112011B01240192
:101530002A01310138013E0147014D0154015B018F
:101540005B015B015B015B016C0172015B015B0193
:1015500077017D015B0186018D0194019B01A20150
:10156000AB01B401BD01C601CF015B015B015B01B1
:101570005B015B015B015B015B015B015B015B018B
:101580005B015B015B01D8015B015B015B015B01FE
:101590005B015B015B015B015B015B015B015B016B
:1015A0005B015B015B015B015B015B015B015B015B
:1015B0005B015B015B015B015B015B015B015B014B
:1015C0005B01E101E8015B015B015B015B015B0128
:1015D0005B015B015B015B015B015B015B015B012B
:1015E0005B015B015B015B015B015B015B015B011B
:1015F000EF01F501FC01030208020F0218022102AB
:1016000027022D0233023A0241024A0250025B01D4
:101610005702600266026D025B015B0174025B01AE
:101620005B0182025B015B015B015B015B015B01B2
:101630005B015B015B015B015B015B015B015B01CA
:101640005B015B015B015B015B015B015B015B01BA
:101650005B015B015B015B015B015B015B015B01AA
:101660005B015B015B015B015B015B015B015B019A
:101670005B015B015B015B015B015B015B015B018A
:101680005B015B015B015B015B015B015B015B017A
:101690005B015B015B015B015B015B015B015B016A
:1016A0005B015B015B018F0296024FF60040C0F6C2
:1016B00001005CE14FF60040C0F6010000F10802B5
:1016C000A4E14FF60040C0F6010000F10C02AAE1CF
:1016D00041F2EA0040F25A32C2F20000C2F20002C5
:1016E00098E141F2EA0040F25C32C2F20000C2F23C
:1016F00000028FE141F2EA0040F25832C2F20000EB
:10170000C2F2000286E141F2EA0040F26A32C2F21D
:101710000000C2F200028AE141F2EA0040F24C32DB
:10172000C2F20000C2F2000281E141F2EA0040F29E
:101730004D32C2F20000C2F2000278E141F2EA004A
:1017400041F2D402C2F20000C2F2000284E141F28E
:10175000EA0040F66C42C2F20000C2F2000259E117
:1017600040F66C40C2F20000821C4FE140F66C4033
:10177000C2F2000000F1200248E140F66C40C2F2E3
:10178000000000F1220241E140F2B000C2F200008C
:10179000821C3BE141F2EA0040F63C42C2F200000A
:1017A000C2F2000236E140F63C40C2F20000821C68
:1017B0002CE140F63C40C2F2000000F1200225E19D
:1017C00040F63C40C2F2000000F122021EE180B56A
:1017D00082B003208DF8070041F2EA00C2F2000057
:1017E0000DF10702E021082301F042FC02B080BDA8
:1017F00041F21210C2F20000821D07E141F2121004
:10180000C2F20000B3E040F6A040C2F20000021DA8
:101810001EE141F2EA0040F2B002C2F20000C2F260
:101820000002F7E04FF60040C0F6010000F1800230
:101830000EE14FF60040C0F6010000F1840207E11E
:1018400041F2D400C2F2000000F10802DEE041F2F1
:10185000D400C2F2000000F10A02D7E041F2EA002F
:1018600040F2B872C2F20000C2F20002D2E041F2CD
:10187000EA0040F2BA72C2F20000C2F20002C9E00D
:1018800041F2EA0041F2E002C2F20000C2F20002BC
:10189000C0E041F2EA0041F2E202C2F20000C2F20C
:1018A0000002B7E041F2EA0041F24012C2F2000049
:1018B000C2F20002AEE041F2EA0041F23E12C2F290
:1018C0000000C2F20002A5E041F2EA0040F26832F4
:1018D000C2F20000C2F200029CE040F25800C2F2E4
:1018E000000000F1320291E040F25800C2F2000024
:1018F00000F134028AE040F62240C2F20000821D6C
:1019000084E040F62240C2F2000000F108027DE0CF
:1019100040F62240C2F2000000F10C0276E040F6F0
:101920002240C2F200006FE040F62240C2F2000006
:1019300000F110026AE041F2EA0041F2E602C2F26E
:101940000000C2F2000265E041F2EA0040F29C723F
:10195000C2F20000C2F200025CE040F29C70C2F2EF
:101960000000821C52E040F29C70C2F20000021D96
:101970004CE040F29C70C2F20000821D46E040F252
:101980009C70C2F2000000F108023FE040F29C703F
:10199000C2F2000000F10A0238E041F2EA0040F22F
:1019A0007412C2F20000C2F2000240E040F2741071
:1019B000C2F20000C21C36E040F2C010C2F20000C9
:1019C00000F13D022FE041F2EA0040F22422C2F28F
:1019D0000000C2F200021DE040F22420C2F200002A
:1019E000821C13E040F22420C2F2000000F1200229
:1019F0000CE040F22420C2F2000000F1220205E0D7
:101A000041F21210C2F2000000F1120241F2EA00AB
:101A1000C2F20000F021102301F02ABB40F2242082
:101A2000C2F20000821C41F2EA00C2F20000F02182
:101A3000082301F01DBB40F2C010C2F2000000F10B
:101A4000140205E040F2C010C2F2000000F11802DA
:101A500041F2EA00C2F20000F021202301F008BBAD
:101A600070B5014600780138052854D8DFE800F049
:101A700003868B900F9541F2EA00C2F20000F0213C
:101A800000224FF48073BDE8704001F0F1BA88780D
:101A9000C97840F2253440F22432C2F20004C2F286
:101AA0000002217000211070002500F0EDF821786F
:101AB000044608460121012600F0E6F800EA040188
:101AC00040F2E420C2F200000078012940F0A88032
:101AD00041F2EA0140F26B321038C2F20001C2F268
:101AE00000020870A1F8015081F8270006E000BF4D
:101AF000002353550135042D00F0BF80AEB2002EF7
:101B00000346F6D0022EF3D0012EF1D00346022D6B
:101B100098BF4B5DEDE740F2E420C2F20000007890
:101B200041F2EA01A0F12004C2F200010120A1F873
:101B30000100C870022050FA84F040F26B3500EBCF
:101B400010220023C2F200050C7081F8272008E063
:101B50001046032B98BFC85CE8540133052B00F0F6
:101B60008C809EB2002E2046F6D0022E04D0012E8C
:101B7000EED10120F0E700BF0020EDE78878BDE856
:101B80007040FFF723BB8878BDE87040FFF7BEBC0C
:101B90008878BDE8704000F05BB940F2E42240F282
:101BA0002531C2F2000240F22430C2F20001127864
:101BB000C2F200000E7841F2EA010078A2F11004AE
:101BC000C2F2000102228B1C52FA84F50C70A1F8BB
:101BD0000120C8700E7100BF13F8010F013A10FA0E
:101BE00085F5F9D105EB152240F26B350023C2F2E1
:101BF000000581F8272007E01046042B98BFC85C39
:101C0000E8540133062B38D09EB2002E2046F7D080
:101C1000022E03D0012EEFD10220F1E70020EFE7E2
:101C200041F2EA01A0F12004C2F200010320C870D1
:101C3000042050FA84F040F26B3500EB10220023B0
:101C4000C2F200050C70A1F8016081F8272004E0C1
:101C50000020E8540133052B0FD09EB2002E204601
:101C6000F7D0022EF4D0012E02D10120F1E700BFFF
:101C70001046032B98BFC85CEBE740F23430C2F249
:101C800000000121017070BD10B50F384D2800F221
:101C90005980DFE810F04E005700570057005700FA
:101CA000570057005700570057008D009700570006
:101CB00057005700A1005700570057005700570022
:101CC000570057005700570057005700570057005C
:101CD000570057005700570057005700570057004C
:101CE000570057005700570057005700570057003C
:101CF000570057005700570057005700570057002C
:101D0000570057005700570057005700570057001B
:101D1000570057005700570057005700570057000B
:101D200057005700570057005700AA00B400BD00E5
:101D3000C70040F2BC7040F2B002C2F20000C2F232
:101D400000025AE040F2E420C2F20000007841F2C2
:101D5000EA0CA0F12002C2F2000C0120ACF8010054
:101D600003208CF80300042050FA82F040F26B311B
:101D700000EB102E0023C2F200018CF800208CF83A
:101D800027E008E07046032B98BF1CF80300C854F6
:101D90000133052B53D09CB2002C1046F7D0022CF7
:101DA00004D0012CEED10120F1E700BF0020EEE7C6
:101DB00041F2121240F2BC70C2F20002C2F2000004
:101DC000063238E041F2121240F2BC70C2F2000258
:101DD000C2F2000004322EE040F2BC7040F2B002C9
:101DE000C2F20000C2F2000225E040F2BC7041F2F3
:101DF0001212C2F20000C2F2000202321BE040F2F4
:101E0000BC7041F21212C2F20000C2F2000212E0F3
:101E100041F2121240F2BC70C2F20002C2F20000A3
:101E20000C3208E041F2121240F2BC70C2F2000221
:101E3000C2F200000E3240F82120012010BD40F215
:101E40003430C2F2000001210170002010BD0000FA
:101E500010B582B004387C2800F21B81DFE810F056
:101E60007D00B100E500190152018501B701EB01C8
:101E70001F0253028702C302DD02110345037903E7
:101E80001901190119011901190119011901190182
:101E90008F0719011901190119011901B503E90386
:101EA0001D0453048904BD04F10425051901190119
:101EB0001901190119011901190119011901190152
:101EC0001901190119011901190119011901190142
:101ED0001901190119011901190119011901190132
:101EE0001901190119011901190119011901190122
:101EF0001901190119011901190119011901190112
:101F00001901190159058D05190119011901190145
:101F100019011901190119011901190119011901F1
:101F200019011901190119011901190119011901E1
:101F30001901C105F50519064D0671068506190139
:101F400019011901190119011901190119011901C1
:101F50001901B906ED062107550740F2E422C2F245
:101F60000002B1F8030040F25A311278C2F20001C7
:101F700041F2EA0C40F26B3E0880A2F11001C2F27D
:101F8000000C0022C2F2000E8CF80010ACF8012008
:101F90008CF8271007E000BF00200EF80200013285
:101FA000042A00F0858793B2002B0846F5D0022B57
:101FB000F2D0012BF0D00846022A98BF1CF802008C
:101FC000EBE740F2E422C2F20002B1F8030040F273
:101FD0005C311278C2F2000141F2EA0C40F26B3E31
:101FE0000880A2F11001C2F2000C0022C2F2000E21
:101FF0008CF80010ACF801208CF8271007E000BF27
:1020000000200EF802000132042A00F0518793B23A
:10201000002B0846F5D0022BF2D0012BF0D0084659
:10202000022A98BF1CF80200EBE740F2E422C2F259
:102030000002B1F8030040F258311278C2F20001F8
:1020400041F2EA0C40F26B3E0880A2F11001C2F2AC
:10205000000C0022C2F2000E8CF80010ACF8012037
:102060008CF8271007E000BF00200EF802000132B4
:10207000042A00F01D8793B2002B0846F5D0022BEE
:10208000F2D0012BF0D00846022A98BF1CF80200BB
:10209000EBE740F2E421C2F20001097841F2EA0CD8
:1020A0000320C2F2000C8DF80700A1F120020121EB
:1020B0008CF803000420ACF8011050FA82F040F2D2
:1020C0006B3100EB102E0023C2F200018CF80020CF
:1020D0008CF827E00AE000BF7046032B98BF1CF87D
:1020E0000300C8540133052B00F043869CB2002C3A
:1020F0001046F6D0022C03D0012CEDD10120F0E7E0
:102100000020EEE740F2E422C2F20002C87840F27A
:102110004C311278C2F2000141F2EA0C40F26B3EFF
:102120000870A2F11001C2F2000C0022C2F2000EEF
:102130008CF80010ACF801208CF8271007E000BFE5
:1021400000200EF802000132042A00F0B18693B29A
:10215000002B0846F5D0022BF2D0012BF0D0084618
:10216000022A98BF1CF80200EBE740F2E422C2F218
:102170000002C87840F24D311278C2F2000141F2FB
:10218000EA0C40F26B3E0870A2F11001C2F2000CA2
:102190000022C2F2000E8CF80010ACF801208CF87E
:1021A000271006E000200EF802000132042A00F099
:1021B0007F8693B2002B0846F5D0022BF2D0012B7C
:1021C000F0D00846022A98BF1CF80200EBE740F264
:1021D000E422C2F20002D1F8030041F2D4011278E5
:1021E000C2F2000141F2EA0C40F26B3E0860A2F13B
:1021F0001001C2F2000C0022C2F2000E8CF8001096
:10220000ACF801208CF8271007E000BF00200EF882
:1022100002000132042A00F04B8693B2002B0846DC
:10222000F5D0022BF2D0012BF0D00846022A98BF3D
:102230001CF80200EBE740F2E422C2F20002B1F81F
:10224000030040F66C411278C2F2000141F2EA0C40
:1022500040F26B3E0880A2F11001C2F2000C002295
:10226000C2F2000E8CF80010ACF801208CF8271098
:1022700007E000BF00200EF802000132042A00F03F
:10228000178693B2002B0846F5D0022BF2D0012B13
:10229000F0D00846022A98BF1CF80200EBE740F293
:1022A000E422C2F20002B1F8030040F66C41127859
:1022B000C2F2000141F2EA0C40F26B3E4880A2F10A
:1022C0001001C2F2000C0022C2F2000E8CF80010C5
:1022D000ACF801208CF8271007E000BF00200EF8B2
:1022E00002000132042A00F0E38593B2002B084675
:1022F000F5D0022BF2D0012BF0D00846022A98BF6D
:102300001CF80200EBE740F2E422C2F20002B1F84E
:10231000030040F66C411278C2F2000141F2EA0C6F
:1023200040F26B3E0884A2F11001C2F2000C0022C0
:10233000C2F2000E8CF80010ACF801208CF82710C7
:1023400007E000BF00200EF802000132042A00F06E
:10235000AF8593B2002B0846F5D0022BF2D0012BAB
:10236000F0D00846022A98BF1CF80200EBE7B1F84B
:10237000030040F66C41C2F20001B1F91020B1F93E
:10238000123082408A6040F2E422C2F200021278E7
:10239000488403FA00F041F2EA0C40F26B3EC86058
:1023A000A2F11001C2F2000C0022C2F2000E8CF861
:1023B0000010ACF801208CF8271006E000200EF881
:1023C00002000132042A00F0738593B2002B084604
:1023D000F5D0022BF2D0012BF0D00846022A98BF8C
:1023E0001CF80200EBE7B1F803C047F6AB40ACEBDA
:1023F000000040F2AA61884200F2C38405208DF8F3
:10240000070041F2EA00C2F200000DF10702E021EC
:10241000082300F02DFE02B010BDB1F9031040F604
:102420003C40C2F2000004F02FF940F2E420C2F276
:102430000000007841F2EA0C40F26B3EA0F110017E
:10244000C2F2000C0022C2F2000E8CF80010ACF8B0
:1024500001208CF8271006E000200EF8020001325F
:10246000042A00F0258593B2002B0846F5D0022BF4
:10247000F2D0012BF0D00846022A98BF1CF80200C7
:10248000EBE7B1F9031040F63C40C2F2000004F063
:10249000F9F840F2E420C2F20000007841F2EA0CC0
:1024A00040F26B3EA0F11001C2F2000C0022C2F219
:1024B000000E8CF80010ACF801208CF8271006E014
:1024C00000200EF802000132042A00F0F18493B2D9
:1024D000002B0846F5D0022BF2D0012BF0D0084695
:1024E000022A98BF1CF80200EBE740F2E422C2F295
:1024F0000002B1F8030040F63C411278C2F200013C
:1025000041F2EA0C40F26B3E0884A2F11001C2F2E3
:10251000000C0022C2F2000E8CF80010ACF8012072
:102520008CF8271007E000BF00200EF802000132EF
:10253000042A00F0BD8493B2002B0846F5D0022B8C
:10254000F2D0012BF0D00846022A98BF1CF80200F6
:10255000EBE7B1F8030040F63C41C2F20001B1F9EB
:102560001020B1F9123082408A6040F2E422C2F2B7
:1025700000021278488403FA00F041F2EA0C40F2BB
:102580006B3EC860A2F11001C2F2000C0022C2F240
:10259000000E8CF80010ACF801208CF8271006E033
:1025A00000200EF802000132042A00F0818493B268
:1025B000002B0846F5D0022BF2D0012BF0D00846B4
:1025C000022A98BF1CF80200EBE740F2E422C2F2B4
:1025D0000002B1F8030041F2D4011278C2F2000106
:1025E00041F2EA0C40F26B3E0881A2F11001C2F206
:1025F000000C0022C2F2000E8CF80010ACF8012092
:102600008CF8271007E000BF00200EF8020001320E
:10261000042A00F04D8493B2002B0846F5D0022B1B
:10262000F2D0012BF0D00846022A98BF1CF8020015
:10263000EBE740F2E422C2F20002B1F8030041F2FB
:10264000D4011278C2F2000141F2EA0C40F26B3E72
:102650004881A2F11001C2F2000C0022C2F2000E69
:102660008CF80010ACF801208CF8271007E000BFB0
:1026700000200EF802000132042A00F0198493B2FF
:10268000002B0846F5D0022BF2D0012BF0D00846E3
:10269000022A98BF1CF80200EBE7B1F8030040F6ED
:1026A0006C41C2F200014A8C0882904040F2E42260
:1026B000C2F20002127841F2EA0C40F26B3E8860EE
:1026C000A2F11001C2F2000C0022C2F2000E8CF83E
:1026D0000010ACF801208CF8271006E000200EF85E
:1026E00002000132042A00F0E38393B2002B084673
:1026F000F5D0022BF2D0012BF0D00846022A98BF69
:102700001CF80200EBE740F66C40C2F20000B1F9A1
:102710000310428C4182914040F2E422C2F2000256
:10272000127841F2EA0C40F26B3EC160A2F1100156
:10273000C2F2000C0022C2F2000E8CF80010ACF8BD
:1027400001208CF8271006E000200EF8020001326C
:10275000042A00F0AD8393B2002B0846F5D0022B7B
:10276000F2D0012BF0D00846022A98BF1CF80200D4
:10277000EBE740F2E422C2F20002B1F8030041F2BA
:10278000E0011278C2F2000141F2EA0C40F26B3E25
:102790000880A2F11001C2F2000C0022C2F2000E69
:1027A0008CF80010ACF801208CF8271007E000BF6F
:1027B00000200EF802000132042A00F0798393B25F
:1027C000002B0846F5D0022BF2D0012BF0D00846A2
:1027D000022A98BF1CF80200EBE740F2E422C2F2A2
:1027E0000002B1F8030041F2E2011278C2F20001E6
:1027F00041F2EA0C40F26B3E0880A2F11001C2F2F5
:10280000000C0022C2F2000E8CF80010ACF801207F
:102810008CF8271007E000BF00200EF802000132FC
:10282000042A00F0458393B2002B0846F5D0022B12
:10283000F2D0012BF0D00846022A98BF1CF8020003
:10284000EBE740F2E422C2F20002B1F8030041F2E9
:1028500040111278C2F2000141F2EA0C40F26B3EE4
:102860000880A2F11001C2F2000C0022C2F2000E98
:102870008CF80010ACF801208CF8271007E000BF9E
:1028800000200EF802000132042A00F0118393B2F6
:10289000002B0846F5D0022BF2D0012BF0D00846D1
:1028A000022A98BF1CF80200EBE740F2E422C2F2D1
:1028B0000002B1F8030041F23E111278C2F20001A9
:1028C00041F2EA0C40F26B3E0880A2F11001C2F224
:1028D000000C0022C2F2000E8CF80010ACF80120AF
:1028E0008CF8271007E000BF00200EF8020001322C
:1028F000042A00F0DD8293B2002B0846F5D0022BAB
:10290000F2D0012BF0D00846022A98BF1CF8020032
:10291000EBE740F2E422C2F20002B1F8030040F219
:1029200058011278C2F2000141F2EA0C40F26B3E0B
:102930004886A2F11001C2F2000C0022C2F2000E81
:102940008CF80010ACF801208CF8271007E000BFCD
:1029500000200EF802000132042A00F0A98293B28E
:10296000002B0846F5D0022BF2D0012BF0D0084600
:10297000022A98BF1CF80200EBE740F2E422C2F200
:102980000002B1F8030040F258011278C2F20001CF
:1029900041F2EA0C40F26B3E8886A2F11001C2F2CD
:1029A000000C0022C2F2000E8CF80010ACF80120DE
:1029B0008CF8271007E000BF00200EF8020001325B
:1029C000042A00F0758293B2002B0846F5D0022B42
:1029D000F2D0012BF0D00846022A98BF1CF8020062
:1029E000EBE740F2E422C2F20002B1F8030040F645
:1029F00022411278C2F2000141F2EA0C40F26B3E31
:102A0000C880A2F11001C2F2000C0022C2F2000E36
:102A10008CF80010ACF801208CF8271007E000BFFC
:102A200000200EF802000132042A00F0418293B225
:102A3000002B0846F5D0022BF2D0012BF0D008462F
:102A4000022A98BF1CF80200EBE7B1F9030040F638
:102A50004051C0F2030191FBF0F142F2934340F682
:102A60002242C9F24923C2F2000253FB0111B2F91A
:102A700010301081881000EBD171002B4FF0000056
:102A8000518100F09081948A091B09B291FBF3F106
:102A90008AE140F2E422C2F20002B1F8030040F6FB
:102AA00022411278C2F2000141F2EA0C40F26B3E80
:102AB0008881A2F11001C2F2000C0022C2F2000EC5
:102AC0008CF80010ACF801208CF8271007E000BF4C
:102AD00000200EF802000132042A00F0E98193B2CE
:102AE000002B0846F5D0022BF2D0012BF0D008467F
:102AF000022A98BF1CF80200EBE7B1F9030040F688
:102B00004051C0F2030191FBF0F142F2934340F6D1
:102B10002242C9F24923C2F2000253FB0111B2F969
:102B200010305082881000EBD171002B4FF0000064
:102B3000918200F065815489611A09B291FBF3F129
:102B40005FE1B1F8032040F62241C2F20001002A01
:102B50004FF000000A8200F07F814B898C8A12B20C
:102B60001B1B1BB293FBF2F277E140F2E422C2F2AC
:102B70000002B1F8030041F2E6011278C2F200014E
:102B800041F2EA0C40F26B3E0880A2F11001C2F261
:102B9000000C0022C2F2000E8CF80010ACF80120EC
:102BA0008CF8271007E000BF00200EF80200013269
:102BB000042A00F07D8193B2002B0846F5D0022B49
:102BC000F2D0012BF0D00846022A98BF1CF8020070
:102BD000EBE740F2E422C2F20002B1F8030040F257
:102BE00024211278C2F2000141F2EA0C40F26B3E5D
:102BF0000880A2F11001C2F2000C0022C2F2000E05
:102C00008CF80010ACF801208CF8271007E000BF0A
:102C100000200EF802000132042A00F0498193B22C
:102C2000002B0846F5D0022BF2D0012BF0D008463D
:102C3000022A98BF1CF80200EBE740F2E422C2F23D
:102C40000002B1F8030040F224211278C2F2000120
:102C500041F2EA0C40F26B3E4880A2F11001C2F250
:102C6000000C0022C2F2000E8CF80010ACF801201B
:102C70008CF8271007E000BF00200EF80200013298
:102C8000042A00F0158193B2002B0846F5D0022BE0
:102C9000F2D0012BF0D00846022A98BF1CF802009F
:102CA000EBE740F2E422C2F20002B1F8030040F286
:102CB00024211278C2F2000141F2EA0C40F26B3E8C
:102CC0000884A2F11001C2F2000C0022C2F2000E30
:102CD0008CF80010ACF801208CF8271007E000BF3A
:102CE00000200EF802000132042A00F0E18093B2C5
:102CF000002B0846F5D0022BF2D0012BF0D008466D
:102D0000022A98BF1CF80200EBE740F2E422C2F26C
:102D10000002B1F8030040F224211278C2F200014F
:102D200041F2EA0C40F26B3E4884A2F11001C2F27B
:102D3000000C0022C2F2000E8CF80010ACF801204A
:102D40008CF8271007E000BF00200EF802000132C7
:102D5000042A00F0AD8093B2002B0846F5D0022B78
:102D6000F2D0012BF0D00846022A98BF1CF80200CE
:102D7000EBE740F23430C2F200000121017002B0F2
:102D800010BD40F2B004C2F2000441F2EA00C2F207
:102D90000000F02100220023A4F802C002B0BDE828
:102DA000104000F065B9002140F2E423C2F20003B4
:102DB0001B7841F2EA0C40F26B3ED181A3F1100284
:102DC000C2F2000CC2F2000E8CF80020ACF8010038
:102DD0008CF8272006E000BF00210EF8001001301B
:102DE000042865D083B2002B1146F6D0022BF3D015
:102DF000012BF1D01146022898BF1CF80010ECE717
:102E0000002140F2E423C2F200031B7841F2EA0CF5
:102E100040F26B3ED181A3F11002C2F2000CC2F26B
:102E2000000E8CF80020ACF801008CF8272005E09B
:102E300000210EF800100130042839D083B2002B95
:102E40001146F6D0022BF3D0012BF1D01146022807
:102E500098BF1CF80010ECE7002240F2E423C2F215
:102E600000031B7841F2EA0C40F26B3ECA81A3F1E9
:102E70001002C2F2000CC2F2000E8CF80020ACF876
:102E800001008CF8272005E000210EF80010013029
:102E900004280DD083B2002B1146F6D0022BF3D0BC
:102EA000012BF1D01146022898BF1CF80010ECE766
:102EB00040F23430C2F200000121017002B010BDB6
:102EC00070470000B0B540F24D30C2F2000000780B
:102ED000012808BF02F0BAF940F23A10C2F200002D
:102EE0000078FDF729FF40F22A34C2F2000460881E
:102EF00049F2300147F25072C3F24151CFF6FC72F1
:102F000000FB021040F2AC7141F21215000CC2F24B
:102F10000001C2F200050880A880B4F9000001F0A9
:102F2000C1FA40F2A871C2F20001096841F6F41238
:102F3000C0F201025143C90B298041F2D401C2F20F
:102F40000001496800EE100A9FED2C1A5143B8EEBB
:102F5000C00AC90B20EE010A6980BDEEC00A40F22A
:102F60005801E88010EE100AC2F200018A8EC8866D
:102F7000498E024441F23A13084441F23C11C2F234
:102F80000003C2F200011A800880208840F61A214E
:102F9000884240F2381140F26830C2F20001C2F2B9
:102FA000000001D2022204E02288B2F5656F05D349
:102FB00001220B8805881A402A430280628840F269
:102FC00053739A4205D80988028801F0040111431D
:102FD0000180008828B140F26A30C2F20000072167
:102FE000017040F226300021C2F20000C4F202015A
:102FF0000222BDE8B04003F01BB800BFC340403E12
:103000004EF68850CEF20000026843F6000142F40A
:103010007002C4F2020102600A6842F001020A6012
:103020000A689207FCD58A6822F003028A6000BF12
:103030008A6812F00C0FFBD14FF080428A600A6858
:103040004FF6FF73CFF6F2631A400A6043F20202B2
:10305000C0F203024A604FF47122C1F8A0204FF47D
:103060001F02CA604FF0006140F8801C70470000EA
:10307000F0B540F2E427C2F200073F78DC0807EB26
:10308000010E8446DD0A01464FEAF3030CF8014FB6
:103090000A2B01F8025F80F800E00FD8DFE803F0A8
:1030A0003D06090E200E0E0E0E0E29001278C2707B
:1030B00033E01378C370527802712EE048F64E0365
:1030C000C21C0026C0F600031F78092F25D002F885
:1030D000017B1C2E06F1010603F10103F4D31CE071
:1030E0001378C3705378037193784371D2788271E7
:1030F00013E013784371537883719378C371D37855
:1031000003721379C3705379037193794372D3793E
:103110008372137AC372527A0273E2B242EA0522D0
:1031200055FA84F353FA8EF352B10025002600BFFE
:103130004719FF780136F5B2AA4217FA83F3F7D898
:1031400003EB1327034640F26B3503F8277F02F1A8
:10315000030E04320024C2F2000504E036782E5536
:103160000134A2420ED0A7B2022F0E46F6D0012F94
:103170006646F3D0002F0646F0D01E46744538BF91
:103180000619EBE740F23430C2F200000121017071
:10319000F0BD000080B50020C4F2010001690906FD
:1031A00044BFC1685FEA016100D480BD802103F0A3
:1031B0002FFF40F23810C2F2000040F26831008860
:1031C000C2F200010A8800F008001043088080BDA8
:1031D00010B50024C4F201042046022103F01CFFB4
:1031E000002808BF10BD2046022103F011FF40F265
:1031F0005800C2F2000040F2203190F83C00C2F2C8
:103200000001097880F0010041F218420843C4F23D
:1032100002024FF4807008BF1032106010BD000031
:10322000B0B50C20C4F201004168C9071CBF00689A
:103230005FEAC07000D1B0BD40F20044C4F20004A7
:1032400004F57C40012103F0E3FE42F20000C4F2E9
:103250000100012100F0A0FC40F23030C2F2000079
:10326000007801287AD140F23330C2F200000078B1
:1032700041F238150128C2F200051ED140F24F304C
:10328000C2F200000078012826D140F23A30C2F2A2
:1032900000000078012827D140F2B000C2F20000FF
:1032A000B0F90010B0F90400411A40F63C40C2F2F7
:1032B000000003F0B3F9288031E040F23C1040F602
:1032C000224140F6A042C2F20000C2F20001C2F266
:1032D000000200F02FFF22E040F63C41C2F2000164
:1032E000B5F900004A8C18E040F2B00040F2AE712F
:1032F000C2F20000C2F20001B0F90200B1F9001000
:10330000411A40F63C40C2F2000003F087F940F257
:103310002421C2F200014A8C28809040486128880C
:1033200040F69C4501B280EAE130A0EBE13080B28A
:1033300042F229314843C00BC2F20005288003F055
:10334000C3F9B5F9001040F25805C2F2000528464D
:1033500001F0B2F8B5F914006968086440F6A045B8
:10336000C2F20005284601F0E7F840F25E30C2F2F2
:103370000000007801280CD028682969814208D90A
:103380002046042103F044FE20460421012203F0DC
:1033900037FF40F22834C2F200042078411C41F289
:1033A0001210C2F20000027C4BB293422170B8BFEF
:1033B000B0BD40F2B001C2F2000109684FEA3141EC
:1033C000C16004F0B9FB00202070B0BD10B544F618
:1033D0000004C4F201042046012103F01DFE002870
:1033E00008BF10BD2046012103F012FE2046002137
:1033F00003F0F4FD41F2E400C2F20000017802297A
:1034000004D0012909D10221017006E041F2C8006F
:10341000C2F2000001880131018040F23330C2F273
:103420000000007858B340F25800C2F200000221B8
:103430004187A4F59040202103F0E6FD40F23C10C6
:1034400040F6A042C2F20000C2F200028178136985
:10345000017003EB5300106048F6080048F60F02B5
:10346000C0F60000C0F60002405C525C40F235310C
:10347000C2F2000148700220CA7001F043F940F224
:103480006630C2F200000021018040F23130C2F209
:1034900000000122027040F23230C2F200000170DE
:1034A00040F25E30C2F20000017010BD10B540F273
:1034B0000044C4F200042046042103F0ADFD0028BE
:1034C00008BF10BD2046042103F0A2FD20460421C0
:1034D000002203F095FE40F23C10C2F2000040F2E0
:1034E0005E3201784378C2F20002012499421470DE
:1034F00018BF417040F23C1040F2580140F6A04223
:10350000C2F20000C2F20001C2F20002BDE81040A7
:1035100000F0AEBEB0B582B044F20045C4F2000582
:103520002846102104F0A6FBE8B346F230042846F2
:103530001021C4F2020404F087FB2046002101F0B0
:1035400063FD204601F066FD41F22C12C2F200023A
:10355000157841F22611C0F10C03C2F20001412D91
:103560000B8009D15278C0F1090083B293424880A0
:1035700004D104F05DFA0EE00B2000E00C208DF881
:10358000070041F2EA00C2F200000DF10702E0215B
:103590000823FFF76DFD20460C2101F03FFD20467A
:1035A000012101F031FD02B0B0BD0000FEE70000D6
:1035B0000A78436802F0010223F4807343EA02228E
:1035C00042604A78836862F3410383608A78836843
:1035D00002F0010223F4006343EAC2228260C97848
:1035E000C26A013901F00F0122F4700242EA01516E
:1035F000C16270474FF0807101607047816841F08F
:1036000008018160704700008068C0F3C000704707
:10361000816841F004018160704700008068C0F358
:103620008000704742F20431C4F2010102780B6855
:1036300062F304030B6042780B6802F00F0223F47C
:10364000702343EA02420A6082780B6802F00402A7
:1036500023F0805343EA82620A6082780B6802F0AA
:10366000030223F4404343EA82320A60C2780B68C3
:1036700002F0010223F4005343EA42320A60027965
:103680000B6802F00F0223F4706343EA02220A601F
:1036900040790A6800F0010022F4000242EAC050BA
:1036A000086070470021818001607047826801F0E6
:1036B000010122F4807242EA01218160704700001A
:1036C000826801F0010122F4007242EA4121816026
:1036D00070470000826861F300028260704700005A
:1036E000C9430160704700000068084018BF01200E
:1036F0007047000032B1012A18BF70474268114379
:1037000041607047426822EA010141607047000051
:1037100080B51A2900F2FF80DFE811F01B002200BB
:103720002C00360040004A0054005E006800720021
:103730007C0083008D00FD009700A100AB00B50068
:10374000FD00BF00C900D000D900E200EB00FD0081
:10375000F400D0F810C063F3020CC0F810C0DAE037
:10376000D0F810C003F0070E2CF0380343EACE0364
:103770000361D0E0D0F810C003F0070E2CF4E07322
:1037800043EA8E130361C6E0D0F810C003F0070EC1
:103790002CF4606343EA4E230361BCE0D0F810C010
:1037A00003F0070E2CF4E04343EA0E330361B2E06A
:1037B000D0F810C003F0070E2CF4603343EACE3388
:1037C0000361A8E0D0F810C003F0070E2CF4E0135A
:1037D00043EA8E4303619EE0D0F810C003F0070E69
:1037E0002CF4600343EA4E53036194E0D0F810C018
:1037F00003F0070E2CF0E06343EA0E6303618AE0F6
:10380000D0F810C003F0070E2CF0605343EACE63EB
:10381000036180E0D0F80CC063F3020CC0F80CC068
:1038200079E0D0F80CC003F0070E2CF0380343EA1F
:10383000CE03C3606FE0D0F80CC003F0070E2CF489
:10384000E07343EA8E13C36065E0D0F80CC003F068
:10385000070E2CF4E04343EA0E33C3605BE0D0F87C
:103860000CC003F0070E2CF4603343EACE33C36080
:1038700051E0D0F80CC003F0070E2CF4E01343EA3B
:103880008E43C36047E0D0F80CC003F0070E2CF461
:10389000600343EA4E53C3603DE0D0F80CC003F030
:1038A000070E2CF0605343EACE63C36033E0D0F8D8
:1038B00050C063F3020CC0F850C02CE0D0F850C0E8
:1038C00003F0070E2CF0380343EACE0322E0D0F8D1
:1038D00050C003F0070E2CF4E07343EA8E1319E096
:1038E000D0F850C003F0070E2CF4606343EA4E2377
:1038F00010E0D0F850C003F0070E2CF4E04343EA88
:103900000E3307E0D0F850C003F0070E2CF4E0139C
:1039100043EA8E430365013A0F2A88BF80BDDFE882
:1039200002F0080D12171C21262B30353A3F44496E
:103930004E53426B61F30402426380BD426B61F3FC
:103940004912426380BD426B61F38E22426380BDA7
:10395000426B61F3D332426380BD426B61F3185214
:10396000426380BD426B61F35D62426380BD026B66
:1039700061F30402026380BD026B61F349120263CA
:1039800080BD026B61F38E22026380BD026B61F326
:10399000D332026380BD026B61F31852026380BDB3
:1039A000026B61F35D62026380BDC26A61F304026F
:1039B000C26280BDC26A61F34912C26280BDC26A3E
:1039C00061F38E22C26280BDC26A61F3D332C262E9
:1039D00080BD00002DE9F0418AB042F20005C4F23A
:1039E000010546F20808002428460021C4F2020816
:1039F000CDE90844FFF76EFE06AE3046FFF752FEF3
:103A00004FF48060ADF8180030468DF81D40FFF788
:103A100009FE0820C0F244000121012700F0FAFF4E
:103A20004FF44010012100F0F5FF0526C0F23006EA
:103A30003046012100F0EEFF3046012100F0EAFFA0
:103A400006F11100012100F0E5FF08AE304601F05B
:103A50003FFE03208DF8260005F560403146ADF8A5
:103A60002470089701F03CFE4FF4007005F5744790
:103A700008903846314601F033FE4FF480500890EC
:103A80003846314601F02CFE404601F025FB6E46DB
:103A9000304601F0C5FA0320C0F20010CDF80A004C
:103AA00040F22A30C2F20000019005F14C00009073
:103AB00040F20110C0F20120CDF80E004046314620
:103AC000ADF8084001F0C0FA05AE3046FFF792FDB0
:103AD0000120C0F20030059028463146FFF768FD0E
:103AE0002846002101220023FFF712FE2846172155
:103AF00002220023FFF70CFE28461A21032200238E
:103B0000FFF706FE28460021002200F02FF8284685
:103B10000121FFF7CBFD28460121FFF7D1FDA86861
:103B2000C00714D128460121FFF7D4FD2846FFF72E
:103B300065FD00BF2846FFF767FD0028FAD128463B
:103B4000FFF766FD2846FFF769FD0028FAD105F565
:103B5000A03008F1FC01052201F06AFA404601217B
:103B600001F052FA0AB0BDE8F081000083680F2925
:103B700023F0004388BF03F100438360836802F0B1
:103B8000030261F31B638360816821F0405141EAC5
:103B90000271816070470000826801F0010122F02B
:103BA000804242EA8171816070470000826B013976
:103BB00001F0030122F4401242EA0151816370478F
:103BC00080B51A2900F2FF80DFE811F01B00220007
:103BD0002C00360040004A0054005E00680072006D
:103BE0007C0083008D00FD009700A100AB00B500B4
:103BF000FD00BF00C900D000D900E200EB00FD00CD
:103C0000F400D0F810C063F3020CC0F810C0DAE082
:103C1000D0F810C003F0070E2CF0380343EACE03AF
:103C20000361D0E0D0F810C003F0070E2CF4E0736D
:103C300043EA8E130361C6E0D0F810C003F0070E0C
:103C40002CF4606343EA4E230361BCE0D0F810C05B
:103C500003F0070E2CF4E04343EA0E330361B2E0B5
:103C6000D0F810C003F0070E2CF4603343EACE33D3
:103C70000361A8E0D0F810C003F0070E2CF4E013A5
:103C800043EA8E4303619EE0D0F810C003F0070EB4
:103C90002CF4600343EA4E53036194E0D0F810C063
:103CA00003F0070E2CF0E06343EA0E6303618AE041
:103CB000D0F810C003F0070E2CF0605343EACE6337
:103CC000036180E0D0F80CC063F3020CC0F80CC0B4
:103CD00079E0D0F80CC003F0070E2CF0380343EA6B
:103CE000CE03C3606FE0D0F80CC003F0070E2CF4D5
:103CF000E07343EA8E13C36065E0D0F80CC003F0B4
:103D0000070E2CF4E04343EA0E33C3605BE0D0F8C7
:103D10000CC003F0070E2CF4603343EACE33C360CB
:103D200051E0D0F80CC003F0070E2CF4E01343EA86
:103D30008E43C36047E0D0F80CC003F0070E2CF4AC
:103D4000600343EA4E53C3603DE0D0F80CC003F07B
:103D5000070E2CF0605343EACE63C36033E0D0F823
:103D600050C063F3020CC0F850C02CE0D0F850C033
:103D700003F0070E2CF0380343EACE0322E0D0F81C
:103D800050C003F0070E2CF4E07343EA8E1319E0E1
:103D9000D0F850C003F0070E2CF4606343EA4E23C2
:103DA00010E0D0F850C003F0070E2CF4E04343EAD3
:103DB0000E3307E0D0F850C003F0070E2CF4E013E8
:103DC00043EA8E430365836BC3F30153D21A033274
:103DD0004FF0FF3313FA82F2032A88BF80BDDFE879
:103DE00002F002070C11826B61F30402826380BD52
:103DF000826B61F34912826380BD826B61F38E2214
:103E0000826380BD826B61F3D332826380BD000028
:103E100070B586B042F20014C4F2010400262046B8
:103E20000021CDE90466FFF755FC01AD2846FFF7F8
:103E300039FC4FF48060019028468DF80960FFF747
:103E4000F1FB0920C0F244000121012600F0E2FD4F
:103E50000125C0F230052846012100F0DBFD4FF4BA
:103E60004010012100F0D6FD4FF44010012100F078
:103E7000D1FD4FF44010012100F0CCFD05F11500FB
:103E8000012100F0C7FD04AD284601F021FC03200C
:103E90008DF816000220049004F563402946ADF821
:103EA000146001F01DFC102004F55F4604903046BC
:103EB000294601F015FC202004903046294601F0E7
:103EC0000FFC402004903046294601F009FC802078
:103ED00004903046294601F003FC03AD2846FFF765
:103EE00089FB4FF04070039020462946FFF760FBA6
:103EF0002046002100F086F820460321FFF756FEF9
:103F00002046092101220023FFF75AFE20460921FD
:103F100002220223FFF754FE204609210322002338
:103F2000FFF74EFE2046002100F054F82046002105
:103F3000012200F039F820464FF4800100F06CF8BF
:103F4000204641F20E01002200F076F8A068C0077A
:103F500013D120460121FFF7BDFB2046FFF74EFBA2
:103F60002046FFF751FB0028FAD12046FFF750FB0F
:103F70002046FFF753FB0028FAD106B070BD0000C1
:103F8000032905D8DFE801F00207090B3C3007E000
:103F9000002080B27047403002E0443000E04830FA
:103FA000006880B27047000083680F2923F4000383
:103FB00088BF03F500038360836802F0030261F3A6
:103FC00013438360816821F4401141EA025181600A
:103FD00070470000426801F0010122F4805242EA79
:103FE0000131416070470000826801F0010122F454
:103FF000800242EA81518160816821F48001816000
:1040000070470000426801F0030122F0407242EA6A
:104010000161416070470000426822F40002426082
:10402000426822F480024260426822F400724260D8
:104030004268114341607047D0F824C04FF6FF73C7
:104040002CEA030319444162816A6FF30F011144A2
:104050008162704780B540F62240C2F2000002F053
:10406000D5F941F2E800C2F20000B0F9001040F2C8
:10407000DB52914202DC0131018080BD0020C4F29C
:10408000010000F0A9FF40F26A30C2F200000321F3
:10409000017080BDF0B581B0044641F2E400C2F287
:1040A00000000121017041F2C800C2F200000025A9
:1040B000058040F22030C2F20000057040F2663008
:1040C000C2F20000058040F6A040C2F200001426B3
:1040D0000660056140F2B00040F2A407C2F20000A1
:1040E000C2F200070580C5803868B7F9062084F859
:1040F0003D10002102F0FEFE40F29802C2F20002E2
:1041000010681179B2F9062002F0F4FE0A21606805
:10411000B4F91C20B980062102F0ECFE208A618AE5
:10412000A5840844A18DA082E182208361836687F3
:1041300001B0F0BD70B540F2B003C2F200030C460E
:104140004988B3F84630594341F23813C2F20003AC
:104150001980B4F90010B4F9043099425BDD0646C9
:1041600092F90800154640F208223178C0EBC000F1
:10417000C2F2000202EB400232F8111040F2902C21
:10418000CAB2B17048F61601C0F6000101EB40005A
:104190001821C4F2010110F812000A6848F68F7362
:1041A000C2F2000C1A403CF830300CEBC00C1A4341
:1041B0000A604A684FF68F7EBCF8043002EA0E02AD
:1041C0001A434A6040F2C8238A68C2F200034FF2E1
:1041D000222C33F8200002EA0C0210438860A1F17F
:1041E0001800202102F010FFB07895F90810307007
:1041F000B4F904000122A2EB4101484342F2283104
:104200004843686140F23130C2F200000270002081
:104210002080286170BD481C208070BD10B5182119
:10422000C4F201010A6840F2902E48F68F73C2F280
:10423000000E1A403EF83030D1F808C01A430A6028
:104240000EEBC00E4A684FF68F74BEF80430224061
:104250001A4340F2C8234A60C2F200034FF22222FE
:1042600033F8200002EA0C021043886010BD000001
:104270002DE9F04140F24C33C2F200031B780C46AA
:1042800040F2323141F2D0081546C2F2000101225B
:10429000C2F200080A70C3B1242140F25822C4F2CD
:1042A0000101C2F20002096813682E69CB1A42F2BA
:1042B000283706FB073341F2CC07C2F2000739600A
:1042C00011600021C8F80030296140F23331C2F298
:1042D00000010978C9B195F9081040F20823027865
:1042E000C1EBC101C2F2000303EB410333F812201A
:1042F00048F61603C0F6000303EB4101D3B211F8F0
:10430000131082700846FFF789FF40F2B470C2F2C2
:1043100000000068D8F8001001F060FE06466861F1
:104320004FF61D3041F2860140F298028642C8BF26
:104330004FF4E161C2F20002A0681181002102F095
:1043400053FEA068C16821F00101C160012170081D
:1043500001EB2641B0FBF1F0A16880B2C862A06811
:1043600031148162A068416941F001014161A06896
:10437000016921F001010161A068C16841F00101FA
:10438000C160A0680121BDE8F04102F027BE000035
:10439000F0B581B005460068012102F039FE686879
:1043A000102102F035FE2868002102F017FE68682F
:1043B000002102F013FE2868002102F015FE686853
:1043C000002102F011FE40F2A400C2F200000068D9
:1043D000002102F009FE40F29800C2F200000068DD
:1043E000002102F001FE42F20014C4F20104204652
:1043F0000021FFF76FF9204604210426FFF770F92A
:104400006868002102F06CFD68684FF48051012259
:1044100002F0ECFD46F20805C4F202052846002130
:1044200000F0F2FD05F13C00002100F0EDFD05F18A
:1044300050073846022100F0F1FD20460321FFF726
:10444000B5FB2046092101220023FFF7B9FB2046D6
:10445000092102220323FFF7B3FB20460021FFF7C7
:10446000B9FD40F29830C2F2000000780322022821
:1044700008BF0926012808BF04262046314601232B
:10448000FFF79EFB2846012100F0BEFD38460121C2
:1044900000F0BAFD2046012101B0BDE8F040FFF771
:1044A00019B9000040F25801C2F20001B1F926101A
:1044B000484340F38F30704780B5B0F9102040F288
:1044C000203CC2F2000C8A42B8BF4A08B0F812E0A1
:1044D0009CF80030724482824BB1B0F92E208A429F
:1044E00011DD818D0022C18290F83D101BE0B0F9F2
:1044F00030208A4211DD90F83D10828D0129C28260
:1045000019D1002213E0028F90F83D30891A012B57
:10451000C18218BF80BD012209E0028F891AC182C1
:1045200090F83D10012201298CF8002003D1806A07
:10453000102102F065FE80BDD0E9032101319142D6
:10454000016198BF7047B1F58E7F0ED842F22830D6
:10455000484341F2D001C2F20001086040F231301C
:10456000C2F2000001210170704740F21D11C0E944
:1045700003110021416040F2A870C2F20000016006
:1045800040F2B470C2F2000040F260220068C2F251
:104590000002C2E9041102F023B9000070B584B032
:1045A00000264FF440100121CDE9006600F032FAF8
:1045B0004FF44010012100F02DFA4FF4401001217A
:1045C00000F028FA4FF44010012100F023FA0020F7
:1045D000C0F20310002401901020C4F202046D46C2
:1045E00000902046294601F07BF8202000902046CC
:1045F000294601F075F8402000902046294601F038
:104600006FF8802000902046294601F069F802AC3E
:10461000204600F031F80420C0F20030CDF8090047
:10462000022021468DF8086000F06CF802201F215E
:104630001F22012300F038F80220012100F020F8A9
:104640000220102100F002F804B070BD43F63002E1
:1046500001F07F01C4F2010201284FEAC14005D1F7
:10466000116821F07E71084310607047116921F0D4
:104670007E7108431061704700210171016070472D
:1046800043F63002C4F20102012801F0010005D115
:10469000116821F00101084410607047116921F090
:1046A000010108441061704780B543F6340C0128BD
:1046B000C4F2010C0DD1DCF80000002B63460CBFE6
:1046C00020F0010040F0010043F8080B0CF1040E4B
:1046D0000DE0DCF81000002B0CF1140E0CF11803A7
:1046E0000CBF20F0010040F00100CCF81000186869
:1046F00062F305001860DEF8000061F30500CEF8F3
:10470000000080BD0B7843F6300203F00303C4F2CF
:10471000010201284FEA032021D1136823F44073DA
:10472000184310604878136860F3061313608878A4
:10473000136860F383031360C878136800F0010006
:1047400023F4004343EAC03010600879116800F098
:10475000030021F4403141EA0040106070471369C2
:1047600023F44073184310614878136960F306130B
:1047700013618878136960F383031361C878136940
:1047800000F0010023F4004343EAC03010610879CF
:10479000116900F0030021F4403141EA004010614A
:1047A0007047000080B5D0E9001CB0F90820A1EBEB
:1047B0000C0393420CDAB0F90AE0CEF10002934206
:1047C00004DAACEB0E028A42C8BF1146416080BDDC
:1047D00062448A42B8BF1146416080BD43F6A401DD
:1047E000C4F202010A6800F00F0042F030020A60D1
:1047F00051F89C2C22F0F00242EA001041F89C0C87
:10480000086820F0300008607047000043F6080197
:10481000C4F202010A6800F0070022F4E05242EA02
:10482000802008607047000043F60801C4F20201CE
:104830000A6800F0070022F4604242EA4030086053
:104840007047000043F6A401C4F202010A6800F0B8
:10485000070022F4E04242EA00300860704700009E
:1048600043F6A401C4F202010A68012822F03002D2
:1048700008BF30320A607047042888BF7047DFE8FD
:1048800000F0030C19262F0043F60000C4F20200CA
:10489000026861F300020260704743F60000C4F250
:1048A0000200026801F0010122F4803242EA014173
:1048B0000160704743F60000C4F20200026801F094
:1048C000010122F0807242EA01610160704743F603
:1048D0000000C4F20200026F61F300020267704739
:1048E00043F60000C4F20200426F61F30002426727
:1048F00070470000B0B543F60405C4F202056968CC
:104900000446C1F3810141F200200229C0F27A007D
:1049100013D001292CD0A9BBD5F89C10490446F628
:104920000041C0F2DC2158BF01462160D5F8A0004B
:10493000C0F3024021FA00F024E029682A68490205
:1049400043F20061D5F800C02B68C0F26E11C2F3CB
:10495000881258BF0146A1FB0201C3F3024217A30C
:104960009A5C0CF00F035A430023FBF743FC09E069
:1049700043F20060C0F26E102060D5F8A010C1F3C1
:10498000C241C840206068680EA1C0F30310085CF3
:10499000216848F6000221FA00F060606968C0F6FC
:1049A0000002C1F38221515C20FA01F1E1606968E3
:1049B000C1F34231515CC840A060B0BD010204089F
:1049C00010200000000000000000000001020304AD
:1049D0000607080943F60002010CC4F202028958D6
:1049E00000F01F0021FA00F000F001007047000005
:1049F00043F600010020C4F2020100BF0A689203DE
:104A000004D4B0F5405F00F10100F7D30868C0F3AB
:104A10004040704743F6000200F01F034FF0010CC6
:104A2000C4F2020201290CFA03F14FEA1040835844
:104A300014BF23EA010119438150704710B543F6B2
:104A4000040CC4F2020CDCF800E000F001042EF4C7
:104A5000800040EA8450CCF80000DCF8000061F3EC
:104A60008E10CCF80000DCF8000003F0070162F3C0
:104A70000300CCF80000DCF8000020F4E02040EA5D
:104A80000140CCF8000010BD43F60000C4F2020063
:104A9000D0F8A41041F03001C0F8A410016841F032
:104AA0000101016001688907FCD5816821F00301DB
:104AB000816000BF816811F00C0FFBD101684FF6D7
:104AC000FF72CFF6F262114001604FF080418160C9
:104AD00043F20201C0F2030141604FF47121C0F8BA
:104AE000A0104FF41F01C160D0F8A41021F03001D4
:104AF000C0F8A4107047000043F6A401C4F20201FC
:104B00000A6842F030020A6051F89C2C60F30102FE
:104B100041F89C2C086820F03000086070470000C5
:104B200043F60800C4F202000068C0F38100704739
:104B30002DE9F0472DED028B0446808B9FED6E1A18
:104B400000EE100AB8EE400A80EE010A10EE100ADC
:104B5000FBF76BFD94ED040B02460B4651EC100B7A
:104B6000FBF752FCFBF774FD0546D4E90001A56193
:104B700091ED000AB0EE081A90ED002A20EE011A1D
:104B800081EE021A9FED5D2AE08B82EE011A02EEA1
:104B9000100AB8EE422AB4EE421AF1EE10FAC2BF81
:104BA000BDEEC11A11EE100AE083E18B208C814228
:104BB00088BFE083E08B01EE100AB8EE411A20EEC8
:104BC000010A10EE100AFBF730FD94ED020B0246CD
:104BD0000B4651EC100BFBF717FC064628460F4618
:104BE000FBF723FD02460B4630463946FBF77EFCB9
:104BF00041EC100B84ED0A0B03F0A6FB03F024FC40
:104C000053EC102B9FED3A0B58EC109B4846414655
:104C1000FBF7F4FBFBF7EAFC0F260F2828BF304612
:104C20004FF0010AA08794ED0A8B0AFA00F0FBF717
:104C3000CCFC02460B4651EC180BFBF7E5FBFBF7EF
:104C4000D5FC2087E08B216800EE100A91ED001A58
:104C5000B8EE400A21EE000A10EE100AFBF7E5FC60
:104C600094ED020B02460B4651EC100BFBF7CCFB0C
:104C70000746A0690D46FBF7D8FC02460B463846AE
:104C80002946FBF733FC0546606A0F46FBF79DFC9F
:104C900002460B4628463946FBF728FC41EC100B30
:104CA00084ED0C0B03F050FB03F0CEFB53EC102B08
:104CB00048464146FBF7A2FBFBF798FC0F2838BF9C
:104CC000064694ED0C8B0AFA06F0E687FBF77DFCAE
:104CD00002460B4651EC180BFBF796FBFBF786FCE4
:104CE0006087BDEC028BBDE8F08700BF00BF00BF4E
:104CF0000000000000002A4000F07F454CBE8C40C0
:104D00002DE9F04381B040F25036C2F2000632780D
:104D10000D46102A044642D840F2543840F2563923
:104D200040F25237C2F20008C2F20009C2F2000794
:104D300003E000BF3078102831D8206B04E000BFBA
:104D40003078411C206B31700421FEF7CDFC002827
:104D5000F0D0206B0421FEF7C3FC30780028EFD0A0
:104D600035B1206B0021FFF70BF9398808443880F2
:104D7000022D08D3206B0121FFF702F9B8F80010CB
:104D80000844A8F80000032DDAD3206B0221FFF7B6
:104D9000F7F8B9F800100844A9F80000D0E7032D8F
:104DA00009D0012D1CD140F25230C2F2000000881F
:104DB0000009A08514E040F25230C2F2000040F237
:104DC00054310088C2F2000109880009E084080912
:104DD00040F25631C2F20001098820850809608539
:104DE000012001B0BDE8F083F0B583B00025C4F226
:104DF000020504460020A5F58036CDE900003046C6
:104E0000002102F0BDFB3046002102F0E7F86E46BB
:104E1000304600F05DFC01208DF806004FF48070F4
:104E200000902846314600F05BFC2846082101220C
:104E300000F090FC4FF4007000902846314600F0DE
:104E40004FFC28460921012200F084FC4FF48060C9
:104E500000902846314600F043FC28460A210122F2
:104E600000F078FC802005F58067009038463146D8
:104E700000F036FC38460721012200F06BFC4FF4AD
:104E8000805000902846314600F02AFC28460C212C
:104E90000A2200F05FFC402000903846314600F0C6
:104EA0001FFC38460621012200F054FC28464FF42E
:104EB0008071002200F006FC28464FF400710022A9
:104EC00000F000FC28464FF48061002200F0FAFB5D
:104ED00038468021012200F0F5FB28464FF480512E
:104EE000012200F0EFFB38464021012200F0EAFBEE
:104EF0002046062140F6CA0201F0FCFF20460121AF
:104F000002F03EFB2046012102F068F803B0F0BD3C
:104F100010B54021C4F20101096804464E2908D3A6
:104F2000206B0021FFF72CF8A18D401AC000E08013
:104F300006E0B4F90600B4F908104843C00BE0805D
:104F4000608FB4F9061094F83E204843C2F10F0177
:104F5000B4F8462008415043208010BD47F2084174
:104F6000C4F200010A6860F305020A60704700009D
:104F700047F200420228C4F2000207D0012818BFFD
:104F80007047106861F3000010607047106801F00E
:104F9000010120F4803040EA0140106070470000B9
:104FA00047F200420228C4F200020BD0012818BFC9
:104FB0007047106801F0010120F0020040EA410052
:104FC00010607047106801F0010120F4003040EAE1
:104FD0004140106070470000B0B500210446002534
:104FE00002F0CEFAA06947F270018843A061E0693F
:104FF000202120F07000E061204602F005F8C4E9AD
:105000000D55E5632564B0BD026861F300020260DE
:1050100070470000406880B27047000041607047F0
:1050200000210182C0E90011C0E9021170470000AF
:10503000D0F8003143F00103C0F80031086862F392
:10504000060008607047000002684BF6EF731A40D4
:1050500002600A8903681A4302604A7C036802F00E
:10506000030223F4405343EA02320260CA7B03681E
:1050700002F0030223F4406343EA822202608A7B47
:10508000036802F0030223F4407343EA0222026041
:105090004A7B036802F0010223F0800343EAC21254
:1050A00002600A7B036862F3861303600A7C03686C
:1050B00062F3451303604A89436842600A6882606C
:1050C0004968C16070470000002A02680CBF22EAEC
:1050D0000101114301607047016800F0FC024CF6C9
:1050E000CD43083ACCF6CC43A2FB032321F00101C7
:1050F0000160002146F20402016041608160C160EC
:105100006FF00300C4F2020200EA93000F2113685B
:1051100001FA00F018431060704700002DE9F043D9
:1051200085B046F21C04C4F202042046FFF7D4FF07
:105130006D462846FFF774FF40F22E20C0F20010A3
:10514000CDF80A001020ADF8080040F2C470C2F299
:10515000000044F204480190C4F200084FF0000936
:1051600020462946CDF80080CDF80E90FFF76CFF61
:10517000A4F11C0604F1EC0130461B22FFF758FF96
:10518000204602210022FFF79FFF04F11407384652
:10519000FFF7A2FF2846FFF743FF0C20C0F20010E4
:1051A000CDF80A0041F22C10C2F20000CDE90080D7
:1051B00038462946ADF80890CDF80E90FFF744FF29
:1051C00004F1F00130461A22FFF732FF384602217F
:1051D0000022FFF779FF05B0BDE8F083D0F8002189
:1051E00061F30002C0F80021704700000A780368EC
:1051F00062F3040303604A78036802F0030223F4B5
:10520000C02343EA42420260D1F804C04FF478025E
:10521000036802EBCC42D20C62F3D7430360097AF5
:10522000026801F0010122F4803242EA014101608A
:10523000704700000021017241600180704700004A
:10524000026861F3060202607047000040F22A30F3
:10525000C2F2000040F24C318088C2F200010978AD
:105260007C38052900B210D0042918BF70477C286B
:1052700021DB40F2B841C0F20401484340F2B001E2
:10528000C00BC2F2000148800EE07C281ADB47F612
:105290005A41C0F201014843642101EBE03041F280
:1052A000D401C2F20001086041F2E500C2F2000040
:1052B00001210170704740F2B000C2F200000021ED
:1052C00041800EE00D2806DB41F2D400C2F200005E
:1052D00064210160704741F2D400C2F20000002155
:1052E000016041F2E500C2F2000001707047000069
:1052F00043F61040C4F20200016841F080010160F1
:105300007047000043F60C41C4F202014A6842F0C3
:1053100002024A608860486840F0400048600868BF
:10532000C0070AD1086840070AD40868C0064FF0D1
:10533000020058BF032008BB04E00020F0B901E0E0
:105340000120D8B94FF080420868C0070AD1086828
:10535000400709D40868C0064FF0020058BF032078
:1053600003E000BF002000E00120A2F1010310B91A
:10537000012A1A46E8D1002B08BF04204A6822F00F
:1053800002024A607047000043F6044040F22311D5
:10539000C4F20200C4F26751016048F6AB11CCF6CA
:1053A000EF5101607047000043F60C42C4F2020264
:1053B000536843F00103536001601068C0070AD1CD
:1053C000106840070AD41068C0064FF0020058BFAA
:1053D000032008BB04E00020F0B901E00120D8B9A7
:1053E0004FF480111068C0070AD11068400709D433
:1053F0001068C0064FF0020058BF032003E000BF52
:10540000002000E00120A1F1010310B90129194693
:10541000E8D1002B08BF0420516821F00101516040
:10542000704700002DE9F04F83B09346884604464C
:10543000FFF7AAFFC4F38707A44604F17840C7F535
:1054400080715C46594538BF0C4640F2FF31830AF3
:10545000884340F29C3600F10065C2F20006200449
:105460000DD000BF002000BF17FA80F156F82110C0
:1054700001311FD1013081B2A2B29142F4D31FFA9F
:1054800084FABAF1000F37D0CDE90183A8F10409FD
:10549000D0466746CDF800C059F8041F3846FFF7DC
:1054A00083FFB8F1010807F10407F5D1DDE900C871
:1054B00021E000BF4FF0006000EB8320E146029343
:1054C000FFF720FF1FFA84FA06EB87000438A8F1E3
:1054D0000401524651F8043F013A40F8043FF9D123
:1054E000002700BFF159E819FFF75EFF0437B7F551
:1054F000806FF7D1CC46029BA0B21FFA8BF181429C
:1055000013D0ABEB040B1FFA8BF4013308EB8A08C2
:105510000CEB8A0CB4F5807F28BF4FF4807405F53E
:105520008065002720049DD1A9E703B0BDE8F04FB6
:10553000FFF7DEBE4FF60040C0F60100007B70476B
:10554000F0B583B0082046F2080442F20005C0F22C
:1055500044000121C4F20204C4F201050127FFF74F
:1055600059FA28460021FEF7B5F820460021FFF73A
:105570004BFD20460321FFF751FD01AE3046FEF7FB
:1055800091F84FF48060ADF8040030468DF8097052
:10559000FEF748F828460221FEF708FB28461121AD
:1055A00001220723FEF70CFB2846112102220723C4
:1055B000FEF706FB284600210022FEF7F5FC2846F0
:1055C0000021FEF707FDA868C0071AD1284601216F
:1055D000FEF780F828464021FEF786F80028F9D02B
:1055E0002846FEF70BF800BF2846FEF70DF8002806
:1055F000FAD12846FEF70CF82846FEF70FF80028E7
:10560000FAD128460421FEF76BF828460121FEF75F
:10561000EBFC00BF28460421FEF766F80028F9D00D
:1056200028460121FEF7ACFC064628460421FEF779
:1056300057F828460121FEF7D7FC00BF2846042171
:10564000FEF752F80028F9D028460121FEF798FC11
:10565000074628460421FEF743F828460021FEF7B6
:1056600039F8A868C0071AD128460121FEF732F898
:1056700028464021FEF738F80028F9D02846FDF7E3
:10568000BDFF00BF2846FDF7BFFF0028FAD128461E
:10569000FDF7BEFF2846FDF7C1FF0028FAD12046DE
:1056A0000121BD19FFF7B0FC44F200016808C0F207
:1056B0007411B1FBF0F040F25801C2F20001C8844D
:1056C00003B0F0BD1823002A08BF2823C15070473B
:1056D0004FF6FF714FF08072C0E900127047000072
:1056E000F0B50A88002A08BFF0BD00234FF0030C74
:1056F0004FF0010E002405E0520804F1010403F10B
:10570000020326D0D507F7D005680CFA03F6B54397
:1057100005608D7907689D403D43056045680EFA38
:1057200004F7BD4345600D794768A5403D4345609A
:105730008568B5438560CD7987689D403D43856028
:10574000C568B543C5604D79C6689D403543C560A1
:10575000D2E7F0BD80B51C2303EA810302FA03FE01
:1057600024224FF00F0C082938BF202281580CFA50
:1057700003F3994341EA0E01815080BDF0B584B036
:105780004AF6AB2C40F29C7000216FF00102CAF681
:10579000AA2CC2F20000EE46ADF80C100291CDE941
:1057A000001100BFA1FB0C3424F00303C3EB9403EE
:1057B00000EB830313445B880EEB020402320C2AD5
:1057C00001F101016380EDD140F208206FF0010189
:1057D000C2F200000EEB01029388D7885288023192
:1057E00000EB4306082920F81370F281F2D1BDF8CE
:1057F0000010BDF8022000EB410320F8112040F218
:105800007410C2F2000090F9030048F63201C0EBB8
:10581000C000C0F6000101EB4001BDF80A20488835
:10582000DA813EF8100040F29022C2F200024FF4FA
:10583000C04402EBC00342F830404FF0500C8C885B
:10584000C3F804C040F2C823C2F200034FF48A65D3
:105850003EF8144043F8205046F2500502EBC400D5
:1058600042F8345000254560C88854263EF81000A0
:1058700043F8246002EBC004602666600C8940F2A5
:1058800004573EF8144042F830C043F8207002EB51
:10589000C400466048894FF4A0473EF8100089894B
:1058A00042F834704FF4A86743F8247002EBC00448
:1058B0003EF8111045F260076560452442F83070EB
:1058C00043F8204002EBC100C0F804C040F205409C
:1058D00042F8316043F8210004B0F0BDF0B581B06A
:1058E00018250024C4F202054FF48066022700BF89
:1058F0004FF4FA70C5F810642F6100F05BF94FF4B3
:10590000FA70C5F800642F6000F054F9022C04F11D
:105910000104EDD301B0F0BDF0B583B00120C0F2B9
:1059200030000121FFF776F84FF440100121FFF716
:1059300071F801AC2046FFF7CBFE00200025C0F235
:105940000110C4F2020502904FF4806605F58060F4
:1059500021460196FFF7C4FE0227284621460197FB
:10596000FFF7BEFEC5F81864AF6103B0F0BD0000DC
:10597000816170478162704742695140416170475F
:105980002DE9F0470446B0F90400FAF71EFE05467B
:1059900020680E46FAF719FE02460B4628463146A5
:1059A000FAF7A4FD9FED140B814653EC102B8A46A9
:1059B000FAF783FC9FED120B0746884656EC105B06
:1059C000284631463A464346FAF790FDFAF70EFE6E
:1059D000E080484651462A463346FAF715FD3A46D6
:1059E0004346FAF783FDFAF701FE20810020A0610B
:1059F000BDE8F08700BF00BF000000000000F03FDE
:105A000000000000C0FFDF40B0B50246B0F906005C
:105A1000D2F810E0C417AEFB003C55690EFB04C47D
:105A2000B2F908C005FB00409569CCFB013059195B
:105A300040EBE570CD0BC31345EA40406FF3DF3117
:105A4000C2E904039161B0BD00F0D6FF00F0C2FED0
:105A500001F08EF800F084FC00F090F8FFF75CFF96
:105A600000F014FE00F000FBFFF764FD40F29831F7
:105A7000C2F20001087000F0AFF840F63841C2F2FF
:105A80000001087000F064FBFEF788FD01F008FFDC
:105A900001F094FDFEF7BCF9FDF79CFF642000F0D7
:105AA00089F840F26830C2F2000000210180FFF75F
:105AB00047FD01F05BFA01F0F5F801F083F80024EE
:105AC000C4F20104204601214FF0010901F086FAD9
:105AD00040F2E820C2F2000001F028FFFFF71EFBB1
