:020000040800F2
:10000000300A0020D10100087D1100088510000889
:1000100079110008FD090008CD1700080000000054
:100020000000000000000000000000008511000832
:10003000010A000800000000811100088911000871
:10004000EB010008EB010008EB010008EB010008E0
:10005000EB010008EB010008EB010008EB010008D0
:10006000EB010008EB010008EB010008EB010008C0
:10007000EB010008EB010008EB010008EB010008B0
:10008000EB010008EB01000831090008EB01000852
:10009000EB010008EB010008EB010008EB01000890
:1000A00035130008C11300083D150008711300083E
:1000B000000000001D16000885160008EB0100086E
:1000C000EB010008EB010008EB010008EB01000860
:1000D000EB010008EB010008EB0100080000000044
:1000E000EB010008EB010008000000000000000028
:1000F0000000000000000000000000000000000000
:1001000000000000000000000000000000000000EF
:100110000000000000000000EB010008EB010008F7
:1001200000000000000000000000000000000000CF
:1001300000000000000000000000000000000000BF
:10014000EB010008000000000000000000000000BB
:10015000000000000000000000000000000000009F
:10016000000000000000000000000000000000008F
:10017000000000000000000000000000000000007F
:1001800000000000EB01000800000000000000007B
:10019000000000000000000000000000000000005F
:1001A000000000000000000000000000000000004F
:1001B0000000000000000000EB010008DFF80CD098
:1001C00000F078FB00480047F93A0008300A0020A8
:1001D0000648804706488047FEE7FEE7FEE7FEE761
:1001E000FEE7FEE7FEE7FEE7FEE7FEE7C5120008D2
:1001F000BD0100082DE9F05F0546002092469B46B0
:1002000088460646814640241BE02846414647462C
:10021000224600F024FA53465A46C01A914110D3A0
:1002200011461846224600F00BFA2D1A67EB01081A
:100230004F4622460120002100F002FA17EB000988
:100240004E41201EA4F10104DFDC484631462A4617
:100250004346BDE8F09F10B54843044605F0D2FF81
:10026000002805D00021002C02D0641E0155FAE7B9
:1002700010BD2DE9FE4F804681EA0300C00F0C46F9
:10028000009021F0004123F00045B8EB0200A941A5
:1002900005D24046214690461C460B46024623F0B6
:1002A0000040104347D0270DC7F30A00C3F30A519B
:1002B0000290401A019040286BDAC3F3130040F417
:1002C000801B0098924620B10023D2EB030A63EB17
:1002D0000B0B01985946C0F14002504600F0B0F9AE
:1002E00006460D4650465946019A00F0C8F910EBF3
:1002F00008006141002487EA115284EAE7731A4337
:1003000040D0009A62B3019A012A4FEA075215DCE5
:10031000001B61EB02014FF0004202EA0752CDE9F7
:100320000042001C41F5801132462B4600F0FFF9D7
:1003300003B0BDE8F08F40462146F9E7001B61EBB2
:100340000201001C41F5801300185B412018A2F542
:10035000001747EB030140EAD570B6196D4111E073
:100360006D084FEA360645EAC0754FEA0752001B92
:1003700061EB0201001C41F5801149084FEA300091
:100380000019514132462B4603B0BDE8F04F00F052
:10039000BFB90098012240000023D0EB020263EBBA
:1003A000E073009821464FEAE074B8EB000061EB7F
:1003B0000401E9E783F000435BE781F0004158E77F
:1003C0002DE9FE4F81EA030404F0004421F00041CE
:1003D00000944FF0000B23F0004350EA01045ED07C
:1003E00052EA03045BD0C3F30A54C1F30A552C4408
:1003F000A4F2F3340194A0FB0254C1F3130141F4BD
:100400008011C3F3130343F4801301FB024400FB88
:10041000034E840A970A44EA815447EA8357A4FBAF
:10042000076802958D0A05FB07854FEA932C04FBAC
:100430000C542705029D4FEA065847EA1637B5EBDC
:1004400008056EEB070C870E920E47EA811742EA09
:100450008312A7FB0201B6EB0B0164EB00042B0D2A
:1004600043EA0C335E1844EB1C50DA465146E7FB76
:100470000201C5F313044FEA0B3343EA14534FEA66
:100480000432019C43EA0603A4F10C040294009C8C
:10049000CDE900B400F04BF903B0BDE8F08F0020C7
:1004A0000146F9E72DE9F04D81EA030404F0004B21
:1004B00021F0004514464FF0000A23F0004150EAB5
:1004C000050220D054EA01021DD0C5F30A570246A6
:1004D000C5F31303C1F31300C1F30A5640F48015AA
:1004E00043F48013A7EB0608101BD64608F2FD382C
:1004F00073EB050002D308F1010801E092185B419B
:10050000B8F1000F03DA00200146BDE8F08D0020AD
:100510004FF48011064684460EE0171B73EB050767
:1005200005D3121B63EB050306434CEA010C490893
:100530004FEA300092185B4150EA0107EDD152EAD0
:10054000030012D082EA040083EA0501084305D0C3
:10055000101BAB4106D20122002306E000224FF01F
:10056000004302E06FF0010253101AEB06004CEB5F
:10057000085110EB0A0041EB0B01BDE8F04D00F013
:10058000C7B80EB5C10F80EAE0700844CA07002161
:1005900040F233438DE80E000A460B4600F0C7F8E0
:1005A00003B000BD70B5C1F30A5201F0004500244C
:1005B000C1F3130140F2FF3341F480119A4201DA92
:1005C000002070BD40F233439A42A2F2334203DC72
:1005D000524200F044F800E090402C43F1D04042F9
:1005E00070BD00F0004230F000400AD0C10D01F5AE
:1005F0006071C0F3160042EA0151C208400711437E
:10060000704700200146704701F0004330B421F0EC
:10061000004150EA010206D00A0DA2F56072C1F352
:100620001301002A02DC30BC00207047440F44EA6A
:10063000C104C100E01830BC00EBC25000F031B87A
:10064000202A04DB203A00FA02F100207047914092
:10065000C2F1200320FA03F3194390407047202A87
:1006600004DB203A21FA02F00021704721FA02F35C
:10067000D040C2F120029140084319467047202A19
:1006800006DBCB17203A41FA02F043EAE07306E0BA
:1006900041FA02F3D040C2F12002914008431946CA
:1006A00070470029A8BF7047401C490008BF20F0D0
:1006B0000100704710B4B0FA80FC00FA0CF050EA68
:1006C000010404BF10BC704749B1CCF1200421FAE9
:1006D00004F411FA0CF118BF012121430843A3EBE4
:1006E0000C01CB1D4FEA00614FEA102042BF0020F1
:1006F00010BC704700EBC35010440029A4BF10BCCD
:100700007047401C490008BF20F0010010BC704732
:1007100010B5141E73F1000408DA401C41F1000109
:1007200092185B411A4301D120F0010010BD2DE960
:10073000F04D92469B4611B1B1FA81F202E0B0FA57
:1007400080F220329046FFF77BFF04460F4640EAD6
:100750000A0041EA0B0153465A46084313D011469A
:1007600053EA010019D0C8F140025046FFF777FF65
:1007700005460E46504659464246FFF761FF08437C
:1007800005D0012004E020463946BDE8F08D002068
:10079000054346EAE0762C4337430A986305E40AAA
:1007A000A0EB08000022FD0A44EA47540A3002D5B3
:1007B00000200146E9E7010510196941DDE9084516
:1007C00000196941BDE8F04DA2E700002DE9F041B4
:1007D000054621F000400C46284309D0C4F30A50D6
:1007E00040F23341884205DD28462146BDE8F081CC
:1007F0002846FBE740F2FE31884210DC0CDB4FEA72
:10080000043040EA155050EA053105D0104804F094
:10081000004101430020E9E700200146E6E7A0F29D
:1008200033404642C6F1400228462146FFF708FF02
:1008300007468846284621463246FFF710FF4346C2
:100840003A46FFF765FF3246BDE8F041FFF7F8BED4
:100850000000F03F30B5041E71F1000404DB4FF0DE
:100860000044404264EB0101141E73F1000405DBF7
:100870001C464FF00043524263EB04038B4208BF17
:10088000824230BD30B5041E71F1000404DB4FF02C
:100890000044404264EB0101141E73F1000405DBC7
:1008A0001C464FF00043524263EB0403994208BFD9
:1008B000904230BD064C074D06E0E06840F0010371
:1008C00094E8070098471034AC42F6D3FFF77AFC5F
:1008D000006300082063000870B58C1810F8015BF5
:1008E00015F0070301D110F8013B2A1106D110F8C9
:1008F000012B03E010F8016B01F8016B5B1EF9D1CD
:100900002B0705D40023521E0DD401F8013BFAE752
:1009100010F8013BCB1A921C03E013F8015B01F8BD
:10092000015B521EF9D5A142D8D3002070BD000052
:10093000B0B540F25804C2F20004E068042100F0AF
:10094000E3FF002859D0E068042100F0D9FF40F20D
:100950002E30C2F20000007801283AD1E068002170
:1009600001F01EFC40F22435E168C2F20005288047
:100970000846012101F014FCE16868800846022164
:1009800001F00EFC2A8840F2BB718A42A88034D85C
:100990006A888A4231D840F2BB71884288BFB0BDB4
:1009A00040F2D830C2F2000040F27711C0E90311E2
:1009B0000021416040F2543040F26022C2F2000057
:1009C000C2F200020068C2E90411BDE8B04003F0C1
:1009D0005BBF40F2AC04C2F20004204602F0A0FB70
:1009E000B4F9001040F21810C2F2000003F064F8ED
:1009F00040F24E31C2F200010880B0BDFEE70000B7
:100A00007047000070B5092888BF70BDDFE810F09E
:100A10000A002600530062008500A400E7000001E0
:100A2000A30023010020C4F2010002F0F5FB40F214
:100A3000F420C2F200000022027040F2F72342F2DA
:100A40000010C2F20003C4F2010000F563404FF44D
:100A500080611A70BDE8704002F0E0BF0020C4F26F
:100A6000010002F0D9FB03F05BFD40F21040C2F23E
:100A700000000022028040F26020C2F20000C0E9C3
:100A8000042240F2F420C2F20000027040F2F7208B
:100A9000C2F20000027040F2FD2040F2F623C2F2E2
:100AA0000000C2F200030270022010211A70BDE89B
:100AB000704001F0E5BE40F21040C2F2000000219B
:100AC000018040F2F720C2F200000170BDE87040E2
:100AD00003F0ACBF40F21040C2F2000000210180E0
:100AE00003F0E8FE03F016FF40F25804C2F20004DF
:100AF000204601F0DFFB204601F064FD40F2F420C7
:100B0000C2F200000121017040F2F720C2F20000A1
:100B10000170BDE8704003F015BF40F2F42040F2D0
:100B20001032C2F200000121C2F2000212780170FC
:100B300040F2F720C2F20000002A18BF0122027022
:100B400040F2FD20C2F200000021017040F210408E
:100B5000C2F20000018070BD0024C4F201042046EE
:100B600002F05AFB02200021002601F089FE42F229
:100B70000015C4F20105284604210122012301F0D9
:100B80002FF9284605210222012301F029F92846E0
:100B900006210322012301F023F9A4F57C40002162
:100BA00004F09AFA46F25800C4F20200002102F062
:100BB0004BFB40F2F420C2F20000067040F2F72036
:100BC000C2F20000067040F2AC00C2F20000066003
:100BD00040F2FC30C2F20000C0E9006670BD0020A7
:100BE000C4F2010002F018FB40F2F420C2F200004F
:100BF0000021017040F2F720C2F20000017040F2C3
:100C00000D40C2F200000170BDE8704003F088BCE6
:100C10000020C4F2010002F0FFFA40F2F420C2F218
:100C200000000021017040F2F720C2F200000170C4
:100C300040F20D40C2F20000017003F071FC42F27C
:100C40000010C4F2010000F563404FF48061BDE87C
:100C5000704002F0E5BE40F2F420C2F20000012133
:100C6000017040F2F720C2F20000017040F2133030
:100C7000C2F20000017040F2FD20C2F2000000222A
:100C8000027040F2F62040F25804C2F20000C2F2B4
:100C900000040170204601F00DFB204601F092FC9B
:100CA00003F088F940F23C10C2F200000421017008
:100CB000042001F0C1FB0024C4F2010420462021DD
:100CC00004F020FA2046002104F00CFA204600210E
:100CD00004F008FA2046012104F0FEF92046012123
:100CE00004F0FAF920460121BDE8704004F0CABCC6
:100CF000B0B540F23A10C2F200000078092800F2C4
:100D0000D780DFE800F0051E32355985D59ED59392
:100D100040F2F230C2F20000B0F90000002800F307
:100D2000988040F27230C2F200000078002800F093
:100D3000908040F21230C2F20000007800286ED19C
:100D400087E040F21030C2F20000007800F0FE01AF
:100D5000022940F0858040F20D40C2F20000007888
:100D6000012840F0778109206FE101F083FABBE0B0
:100D700040F21030C2F200000078002800F09980A4
:100D800040F2F030C2F20000B0F90000072800F392
:100D9000978040F21040C2F20000018801310AB28F
:100DA000B2F57A7F0180C0F29F8040F22E30C2F20D
:100DB00000000121017097E040F21030C2F2000003
:100DC0000078002800F09E80042800F0B0800528FC
:100DD0006ED140F20D40C2F20000007840F2FC34C7
:100DE0000028C2F2000400F0E1802068002848BF1B
:100DF0004042632800F2E08040F2D830C2F20000A6
:100E0000007A002814BF6FF0630064202060D3E0F4
:100E100040F2D830C2F20000406800286BD140F2A6
:100E20002E30C2F2000001210170B0BD40F20D4031
:100E3000C2F20000007801282ED1BDE8B04000F0D9
:100E400043B940F22C30C2F200000088002818BFDD
:100E5000B0BD40F22E30C2F2000000210170B0BDE2
:100E6000002878D0042800F08A80052840F0F2801D
:100E700040F2FC30C2F20000006840F20D41002850
:100E8000C2F2000100F08E800A78012A40F08A80C8
:100E9000012880F28480D5E040F2AC00C2F200006C
:100EA0000021418040F22E30C2F200000521017085
:100EB000B0BD40F22E30C2F200000421017013E0F8
:100EC00040F22E30C2F200000421017040F20C40CA
:100ED000C2F200000321017040F21040C2F2000093
:100EE0000021018003F056FC40F20D40C2F20000E8
:100EF00000780028DCD140F22E30C2F2000005213B
:100F00000170B0BD40F20D40C2F200000078002830
:100F1000F1D040F2F721C2F20001002240F25C3031
:100F2000C2F200000A70BDE8B04003F0C7BA40F258
:100F30000D4140F21330C2F20001C2F20000097804
:100F40000122027040F22E300029C2F20000D6D0F9
:100F500004210170B0BD40F20D40C2F200000078E3
:100F600001285CD140F25C34C2F200046189B4F91A
:100F70000600A18001F0B0FB6080032065E040F234
:100F8000AC00C2F20000B0F9020040F20D41C2F222
:100F9000000138B10A78012A04D101284FDB03F09F
:100FA00009F851E00020087001204EE040F22E3098
:100FB000C2F2000005210170204601F00DFD40F253
:100FC000D831C2F2000160684968451A40F2A43085
:100FD000C2F20000294603F079FB40F2AC01C2F2F4
:100FE0000001488040F22420C2F20000294603F0AC
:100FF0006DFB40F21331C2F200010A7840F2264341
:10100000C2F20003012A18800ED06068002848BF91
:101010004042B0F5487F04D301200870B0BD0120E4
:1010200013E0002A3FF444AF6068002848BF404204
:10103000B0F5167F3FF63CAF00200870B0BDB0F1B0
:10104000FF3F01DC02F056FF022040F22E31C2F2D7
:101050000001087040F21004C2F2000494F840004D
:1010600001287FF425AF204601F06AFE40F274317A
:10107000C2F20001204603F00DFC032084F840007A
:10108000B0BD0000FEE7000010B542F20014C4F24B
:101090000104A4F5045001F0AFFF40F2AC00C2F22D
:1010A0000000012101F034FF40F21231C2F20001D0
:1010B00008702046042100F023FC204680210122F4
:1010C000BDE8104000F026BC40F2E22CC2F2000C59
:1010D000BCF8001040F22032C2F200020131128846
:1010E0008BB2B3FBF2F000FB1230002818BF0846A9
:1010F00040F21C31C2F20001098882B28A42ACF887
:10110000000017D240F21E30C2F20000B0F9001009
:1011100040F2AC00C2F20000012941801BDB01213A
:10112000A0F8461040F27430C2F2000047F6FF719A
:101130000161704740F2AC00C2F200000021418022
:1011400040F27430C2F20000416140F22640C2F227
:10115000000001807047B1F1FF3FC8BF70474FF6F4
:10116000FF71A0F8461040F274300021C2F2000076
:10117000C8F2010101617047FEE7000070470000FE
:101180007047000070470000B0B540F21130C2F265
:1011900000000078012808BF02F062F940F23A101E
:1011A000C2F200000078FFF7A3FD40F2EE24C2F285
:1011B0000004608849F2300147F25072C3F2415195
:1011C000CFF6FC7200FB021040F24C3140F21245A7
:1011D000000CC2F20001C2F200050880A880B4F938
:1011E000000001F079FA40F24831C2F200010968CA
:1011F00041F6F412C0F201025143C90B298040F2BA
:10120000FC31C2F20001496800EE100A9FED2C1A71
:101210005143B8EEC00AC90B20EE010A6980BDEE49
:10122000C00A40F25801E88010EE100AC2F2000134
:101230008A8EC886498E024440F22843084440F210
:101240002A41C2F20003C2F200011A8008802088FD
:1012500040F63421884240F2381140F22C30C2F27C
:101260000001C2F2000001D2022205E0228840F60D
:1012700075639A4205D301220B8805881A402A43D8
:101280000280628840F253739A4205D80988028826
:1012900001F0040111430180008828B140F22E3092
:1012A000C2F200000721017040F2E4200021C2F2E6
:1012B0000000C4F202010222BDE8B04002F00ABF01
:1012C00097543E3E4EF68850CEF20000026843F638
:1012D000000142F47002C4F2020102600A6842F0A6
:1012E00001020A600A689207FCD58A6822F00302AC
:1012F0008A6000BF8A6812F00C0FFBD14FF0804269
:101300008A600A684FF6FF73CFF6F2631A400A60EC
:1013100043F20202C0F203024A604FF47122C1F8A4
:10132000A0204FF41F02CA604FF0006140F8801CFB
:101330007047000080B50020C4F201000169090671
:1013400044BFC1685FEA016100D480BD802103F021
:10135000DDFE40F23810C2F2000040F22C3100886D
:10136000C2F200010A8800F008001043088080BD26
:1013700010B50024C4F201042046022103F0CAFE85
:10138000002808BF10BD2046022103F0BFFE40F236
:101390005800C2F2000040F2E02190F83C00C2F296
:1013A0000001097880F0010041F218420843C4F2BC
:1013B00002024FF4807008BF1032106010BD0000B0
:1013C000B0B50C20C4F201004168C9071CBF006819
:1013D0005FEAC07000D1B0BD40F20044C4F2000426
:1013E00004F57C40012103F091FE42F20000C4F2BA
:1013F0000100012100F0E0FC40F2F420C2F2000004
:10140000007801287AD140F2F720C2F2000000787B
:1014100040F226450128C2F200051ED140F21330E9
:10142000C2F200000078012826D140F2FD20C2F26D
:1014300000000078012827D140F2AC00C2F2000081
:10144000B0F90010B0F90400411A40F27430C2F251
:10145000000003F03BF9288031E040F23C1040F2FC
:101460005C3140F2D832C2F20000C2F20001C2F296
:10147000000200F06DFF22E040F27431C2F2000180
:10148000B5F900004A8C18E040F2AC0040F24E3151
:10149000C2F20000C2F20001B0F90200B1F900107E
:1014A000411A40F27430C2F2000003F00FF940F22A
:1014B0002421C2F200014A8C28809040486128888B
:1014C00040F2D43501B280EAE130A0EBE13080B2E5
:1014D00041F271714843C00BC2F20005288003F04D
:1014E00047F9B5F9001040F25805C2F20005284648
:1014F00001F0FCF8B5F914006968086440F2D835C9
:10150000C2F20005284601F031F940F22230C2F261
:1015100000000078012808BFB0BD28682969814211
:101520007FF659AF2046042103F0F0FD2046042148
:101530000122BDE8B04003F0E5BE000010B544F65E
:101540000004C4F201042046012103F0E3FD002859
:1015500008BF10BD2046012103F0D8FD2046002120
:1015600003F0BAFD40F20C40C2F2000001780229FB
:1015700004D0012909D10221017006E040F2F030C7
:10158000C2F2000001880131018040F2F720C2F26E
:101590000000007858B340F25800C2F20000022167
:1015A0004187A4F59040202103F0ACFD40F23C10AF
:1015B00040F2D832C2F20000C2F200028178136910
:1015C000017003EB5300106046F2B82046F2BF22D0
:1015D000C0F60000C0F60002405C525C40F2F82108
:1015E000C2F2000148700220CA7001F0A5F940F271
:1015F0002A30C2F200000021018040F2F520C2F240
:1016000000000122027040F2F620C2F200000170D8
:1016100040F22230C2F20000017010BD10B540F25D
:101620000044C4F200042046042103F073FD0028A6
:1016300008BF10BD2046042103F068FD20460421A8
:10164000002203F05FFE40F23C10C2F2000040F2C4
:10165000223201784378C2F20002012499421470C8
:1016600018BF417040F23C1040F2580140F2D832AD
:10167000C2F20000C2F20001C2F20002BDE8104056
:1016800000F004BFB0B540F60004C4F200042046E8
:10169000082103F03FFD00286FD02046082103F009
:1016A00035FD2046042103F07BFC054604F5FE30A1
:1016B0004FF4807102F036F840F2EA21C2F20001E4
:1016C0000A88A5EB02020D8070B190B2632854D94C
:1016D00040F2E620C2F200000021018040F2E82042
:1016E000C2F20000017048E040F2E821C2F20001BD
:1016F0000B780F2B41D840F2E62CC2F2000C92B2CC
:10170000BCF800001B2A03F101024FF00005D3B220
:1017100088BF012545EA4000102BACF800000A7094
:101720002BD3002100220346C3F30315C3F30B138D
:101730006A40022901F10101F6D300F00F0102F025
:101740000F029142C4D140F2EC21C2F2000100220A
:101750000A80C0F3462102294FF0000184BF012115
:10176000024690B240F2FC32C2F20002106040F237
:101770000D40C2F200000170AAE72069C0071CBF3B
:10178000E0685FEAC07000D1B0BD2046012103F0DF
:10179000BDFC40F2EC20C2F20000018801318AB2A7
:1017A000018040F2E821C2F2000100200A2A0870FC
:1017B00038BFB0BD40F2FC31C2F20001086040F217
:1017C0000D41C2F200010870B0BD0000FEE700004C
:1017D0000A78436802F0010223F4807343EA02228C
:1017E00042604A78836862F3410383608A78836841
:1017F00002F0010223F4006343EAC2228260C97846
:10180000C26A013901F00F0122F4700242EA01516B
:10181000C16270474FF0807101607047816841F08C
:1018200008018160704700008068C0F3C000704705
:10183000816841F004018160704700008068C0F356
:101840008000704742F20431C4F2010102780B6853
:1018500062F304030B6042780B6802F00F0223F47A
:10186000702343EA02420A6082780B6802F00402A5
:1018700023F0805343EA82620A6082780B6802F0A8
:10188000030223F4404343EA82320A60C2780B68C1
:1018900002F0010223F4005343EA42320A60027963
:1018A0000B6802F00F0223F4706343EA02220A601D
:1018B00040790A6800F0010022F4000242EAC050B8
:1018C000086070470021818001607047826801F0E4
:1018D000010122F4807242EA012181607047000018
:1018E000826801F0010122F4007242EA4121816024
:1018F00070470000826861F3000282607047000058
:10190000C9430160704700000068084018BF01200B
:101910007047000032B1012A18BF70474268114376
:1019200041607047426822EA01014160704700004F
:1019300080B51A2900F2FF80DFE811F01B002200B9
:101940002C00360040004A0054005E00680072001F
:101950007C0083008D00FD009700A100AB00B50066
:10196000FD00BF00C900D000D900E200EB00FD007F
:10197000F400D0F810C063F3020CC0F810C0DAE035
:10198000D0F810C003F0070E2CF0380343EACE0362
:101990000361D0E0D0F810C003F0070E2CF4E07320
:1019A00043EA8E130361C6E0D0F810C003F0070EBF
:1019B0002CF4606343EA4E230361BCE0D0F810C00E
:1019C00003F0070E2CF4E04343EA0E330361B2E068
:1019D000D0F810C003F0070E2CF4603343EACE3386
:1019E0000361A8E0D0F810C003F0070E2CF4E01358
:1019F00043EA8E4303619EE0D0F810C003F0070E67
:101A00002CF4600343EA4E53036194E0D0F810C015
:101A100003F0070E2CF0E06343EA0E6303618AE0F3
:101A2000D0F810C003F0070E2CF0605343EACE63E9
:101A3000036180E0D0F80CC063F3020CC0F80CC066
:101A400079E0D0F80CC003F0070E2CF0380343EA1D
:101A5000CE03C3606FE0D0F80CC003F0070E2CF487
:101A6000E07343EA8E13C36065E0D0F80CC003F066
:101A7000070E2CF4E04343EA0E33C3605BE0D0F87A
:101A80000CC003F0070E2CF4603343EACE33C3607E
:101A900051E0D0F80CC003F0070E2CF4E01343EA39
:101AA0008E43C36047E0D0F80CC003F0070E2CF45F
:101AB000600343EA4E53C3603DE0D0F80CC003F02E
:101AC000070E2CF0605343EACE63C36033E0D0F8D6
:101AD00050C063F3020CC0F850C02CE0D0F850C0E6
:101AE00003F0070E2CF0380343EACE0322E0D0F8CF
:101AF00050C003F0070E2CF4E07343EA8E1319E094
:101B0000D0F850C003F0070E2CF4606343EA4E2374
:101B100010E0D0F850C003F0070E2CF4E04343EA85
:101B20000E3307E0D0F850C003F0070E2CF4E0139A
:101B300043EA8E430365013A0F2A88BF80BDDFE880
:101B400002F0080D12171C21262B30353A3F44496C
:101B50004E53426B61F30402426380BD426B61F3FA
:101B60004912426380BD426B61F38E22426380BDA5
:101B7000426B61F3D332426380BD426B61F3185212
:101B8000426380BD426B61F35D62426380BD026B64
:101B900061F30402026380BD026B61F349120263C8
:101BA00080BD026B61F38E22026380BD026B61F324
:101BB000D332026380BD026B61F31852026380BDB1
:101BC000026B61F35D62026380BDC26A61F304026D
:101BD000C26280BDC26A61F34912C26280BDC26A3C
:101BE00061F38E22C26280BDC26A61F3D332C262E7
:101BF00080BD00002DE9F0418AB042F20005C4F238
:101C0000010546F20808002428460021C4F2020813
:101C1000CDE90844FFF76EFE06AE3046FFF752FEF0
:101C20004FF48060ADF8180030468DF81D40FFF786
:101C300009FE0820C0F244000121012700F0F2FF54
:101C40004FF44010012100F0EDFF0526C0F23006F0
:101C50003046012100F0E6FF3046012100F0E2FFAE
:101C600006F11100012100F0DDFF08AE304601F061
:101C700017FD03208DF8260005F560403146ADF8CC
:101C80002470089701F014FD4FF4007005F57447B7
:101C900008903846314601F00BFD4FF48050089013
:101CA0003846314601F004FD404601F029FB6E46FE
:101CB000304601F0D1FA0320C0F20010CDF80A003E
:101CC00040F2EE20C2F20000019005F14C000090BD
:101CD00040F20110C0F20120CDF80E00404631461E
:101CE000ADF8084001F0CCFA05AE3046FFF792FDA2
:101CF0000120C0F20030059028463146FFF768FD0C
:101D00002846002101220023FFF712FE2846172152
:101D100002220023FFF70CFE28461A21032200238B
:101D2000FFF706FE28460021002200F02FF8284683
:101D30000121FFF7CBFD28460121FFF7D1FDA8685F
:101D4000C00714D128460121FFF7D4FD2846FFF72C
:101D500065FD00BF2846FFF767FD0028FAD1284639
:101D6000FFF766FD2846FFF769FD0028FAD105F563
:101D7000A03008F1FC01052201F076FA404601216D
:101D800001F062FA0AB0BDE8F081000083680F2913
:101D900023F0004388BF03F100438360836802F0AF
:101DA000030261F31B638360816821F0405141EAC3
:101DB0000271816070470000826801F0010122F029
:101DC000804242EA8171816070470000826B013974
:101DD00001F0030122F4401242EA0151816370478D
:101DE00080B51A2900F2FF80DFE811F01B00220005
:101DF0002C00360040004A0054005E00680072006B
:101E00007C0083008D00FD009700A100AB00B500B1
:101E1000FD00BF00C900D000D900E200EB00FD00CA
:101E2000F400D0F810C063F3020CC0F810C0DAE080
:101E3000D0F810C003F0070E2CF0380343EACE03AD
:101E40000361D0E0D0F810C003F0070E2CF4E0736B
:101E500043EA8E130361C6E0D0F810C003F0070E0A
:101E60002CF4606343EA4E230361BCE0D0F810C059
:101E700003F0070E2CF4E04343EA0E330361B2E0B3
:101E8000D0F810C003F0070E2CF4603343EACE33D1
:101E90000361A8E0D0F810C003F0070E2CF4E013A3
:101EA00043EA8E4303619EE0D0F810C003F0070EB2
:101EB0002CF4600343EA4E53036194E0D0F810C061
:101EC00003F0070E2CF0E06343EA0E6303618AE03F
:101ED000D0F810C003F0070E2CF0605343EACE6335
:101EE000036180E0D0F80CC063F3020CC0F80CC0B2
:101EF00079E0D0F80CC003F0070E2CF0380343EA69
:101F0000CE03C3606FE0D0F80CC003F0070E2CF4D2
:101F1000E07343EA8E13C36065E0D0F80CC003F0B1
:101F2000070E2CF4E04343EA0E33C3605BE0D0F8C5
:101F30000CC003F0070E2CF4603343EACE33C360C9
:101F400051E0D0F80CC003F0070E2CF4E01343EA84
:101F50008E43C36047E0D0F80CC003F0070E2CF4AA
:101F6000600343EA4E53C3603DE0D0F80CC003F079
:101F7000070E2CF0605343EACE63C36033E0D0F821
:101F800050C063F3020CC0F850C02CE0D0F850C031
:101F900003F0070E2CF0380343EACE0322E0D0F81A
:101FA00050C003F0070E2CF4E07343EA8E1319E0DF
:101FB000D0F850C003F0070E2CF4606343EA4E23C0
:101FC00010E0D0F850C003F0070E2CF4E04343EAD1
:101FD0000E3307E0D0F850C003F0070E2CF4E013E6
:101FE00043EA8E430365836BC3F30153D21A033272
:101FF0004FF0FF3313FA82F2032A88BF80BDDFE877
:1020000002F002070C11826B61F30402826380BD4F
:10201000826B61F34912826380BD826B61F38E2211
:10202000826380BD826B61F3D332826380BD000026
:1020300070B586B042F20014C4F2010400262046B6
:102040000021CDE90466FFF755FC01AD2846FFF7F6
:1020500039FC4FF48060019028468DF80960FFF745
:10206000F1FB0920C0F244000121012600F0DAFD55
:102070000125C0F230052846012100F0D3FD4FF4C0
:102080004010012100F0CEFD4FF44010012100F07E
:10209000C9FD4FF44010012100F0C4FD05F1150009
:1020A000012100F0BFFD04AD284601F0F9FA03203C
:1020B0008DF816000220049004F563402946ADF81F
:1020C000146001F0F5FA102004F55F4604903046E4
:1020D000294601F0EDFA202004903046294601F00F
:1020E000E7FA402004903046294601F0E1FA8020CA
:1020F00004903046294601F0DBFA03AD2846FFF78D
:1021000089FB4FF04070039020462946FFF760FBA3
:102110002046002100F086F820460321FFF756FEF6
:102120002046092101220023FFF75AFE20460921FB
:1021300002220223FFF754FE204609210322002336
:10214000FFF74EFE2046002100F054F82046002103
:10215000012200F039F820464FF4800100F06CF8BD
:10216000204640F65E51002200F076F8A068C007D5
:1021700013D120460121FFF7BDFB2046FFF74EFBA0
:102180002046FFF751FB0028FAD12046FFF750FB0D
:102190002046FFF753FB0028FAD106B070BD0000BF
:1021A000032905D8DFE801F00207090B3C3007E0FE
:1021B000002080B27047403002E0443000E04830F8
:1021C000006880B27047000083680F2923F4000381
:1021D00088BF03F500038360836802F0030261F3A4
:1021E00013438360816821F4401141EA0251816008
:1021F00070470000426801F0010122F4805242EA77
:102200000131416070470000826801F0010122F451
:10221000800242EA81518160816821F480018160FD
:1022200070470000426801F0030122F0407242EA68
:102230000161416070470000426822F40002426080
:10224000426822F480024260426822F400724260D6
:102250004268114341607047D0F824C04FF6FF73C5
:102260002CEA030319444162816A6FF30F011144A0
:102270008162704780B540F25C30C2F2000002F02B
:102280001DF940F21040C2F20000B0F9001040F217
:10229000DB52914202DC0131018080BD0020C4F29A
:1022A000010000F0B9FF40F22E30C2F2000003211D
:1022B000017080BDF0B581B0044640F20C40C2F21E
:1022C00000000121017040F2F030C2F20000002550
:1022D000058040F2E020C2F20000057040F22A3092
:1022E000C2F20000058040F2D83040F2A407C2F2EA
:1022F00000001E2640F2AC01C2F200070660056134
:10230000C2F200013868B7F906200D80CD800021A7
:1023100002F06EFE40F29802C2F2000210681179DB
:10232000B2F9062002F064FE0A216068B4F91C20AC
:10233000B980062102F05CFE208A618AA5840844E7
:10234000A18DA082E18220836183668701B0F0BD08
:1023500070B540F2AC03C2F200030C464988B3F8F2
:102360004630594340F22643C2F200031980B4F9C3
:102370000010B4F9043099425BDD064692F908007A
:10238000154640F208223178C0EBC000C2F20002CC
:1023900002EB400232F8111040F2842CCAB2B17044
:1023A00046F2C621C0F6000101EB40001821C4F23C
:1023B000010110F812000A6848F68F73C2F2000C8F
:1023C0001A403CF830300CEBC00C1A430A604A68E3
:1023D0004FF68F7EBCF8043002EA0E021A434A60C0
:1023E00040F2BC238A68C2F200034FF2222C33F879
:1023F000200002EA0C0210438860A1F1180020219D
:1024000002F080FEB07895F908103070B4F904003D
:102410000122A2EB4101484341F2707148436861D7
:1024200040F2F520C2F200000270002020802861F6
:1024300070BD481C208070BD10B51821C4F2010188
:102440000A6840F2842E48F68F73C2F2000E1A40DA
:102450003EF83030D1F808C01A430A600EEBC00EC7
:102460004A684FF68F74BEF8043022401A4340F297
:10247000BC234A60C2F200034FF2222233F820004C
:1024800002EA0C021043886010BD00002DE9F04103
:1024900040F21033C2F200031B780C4640F2F621E2
:1024A00040F2F8381546C2F200010122C2F20008DB
:1024B0000A70C3B1242140F25822C4F20101C2F2D1
:1024C0000002096813682E69CB1A41F2707706FB87
:1024D000073340F2F437C2F200073960116000217F
:1024E000C8F80030296140F2F721C2F200010978F2
:1024F000C9B195F9081040F208230278C1EBC10177
:10250000C2F2000303EB410333F8122046F2C62364
:10251000C0F6000303EB4101D3B211F8131082702F
:102520000846FFF789FF40F25430C2F2000000680D
:10253000D8F8001001F0A4FD4DF6B93147F6663227
:10254000884240F298016861C8BF40F6CA02C2F2F0
:102550000001A0680A81002102F0C4FD6869A26838
:10256000A0F6FC20010CB0F5616FD8BF4FF461609C
:10257000D368B8BF002123F00103D3604FF6FE7289
:10258000104040EA014009B240084A1CB0FBF2F09A
:10259000A26880B2D062A0688162A068416941F0FF
:1025A00001014161A068016921F001010161A06898
:1025B000C16841F00101C160A0680121BDE8F0419E
:1025C00002F08ABDF0B581B005460068012102F035
:1025D0009DFD6868102102F099FD2868002102F035
:1025E0007BFD6868002102F077FD2868002102F079
:1025F00079FD6868002102F075FD40F2A400C2F286
:1026000000000068002102F06DFD40F29800C2F267
:1026100000000068002102F065FD42F20014C4F2DF
:10262000010420460021FFF765F920460421042615
:10263000FFF766F96868002102F0A8FC68684FF4AB
:102640008051012202F050FD46F20805C4F2020555
:102650002846002100F0F8FD05F13C00002100F0C3
:10266000F3FD05F150073846022100F0F3FD204646
:102670000321FFF7ABFB2046092101220023FFF7CE
:10268000AFFB2046092102220323FFF7A9FB2046C6
:102690000021FFF7AFFD40F23830C2F200000078B1
:1026A0000322022808BF0926012808BF0426204665
:1026B00031460123FFF794FB2846012100F0C4FDB9
:1026C0003846012100F0C0FD2046012101B0BDE8DF
:1026D000F040FFF70FB9000040F25801C2F20001CC
:1026E000B1F92610484340F38F30704780B5B0F9F8
:1026F000102040F2E02CC2F2000C8A42B8BF4A0817
:10270000B0F812E09CF80030724482824BB1B0F90C
:102710002E208A4211DD818D0022C18290F83D1069
:102720001BE0B0F930208A4211DD90F83D10828D17
:102730000129C28219D1002213E0028F90F83D30A6
:10274000891A012BC18218BF80BD012209E0028FC6
:10275000891AC18290F83D10012201298CF80020CD
:1027600003D1806A102102F0CDFD80BDD0E90321A4
:1027700001319142016198BF7047B1F5BB7F0ED81E
:1027800041F27070484340F2F831C2F20001086033
:1027900040F2F520C2F2000001210170704740F2C2
:1027A0007711C0E903110021416040F24830C2F2C4
:1027B0000000016040F25430C2F2000040F260229A
:1027C0000068C2F20002C2E9041102F05DB8000024
:1027D00070B584B000264FF440100121CDE90066A9
:1027E00000F020FA4FF44010012100F01BFA4FF4E2
:1027F0004010012100F016FA4FF44010012100F0C2
:1028000011FA0020C0F20310002401901020C4F23D
:1028100002046D4600902046294600F049FF202022
:1028200000902046294600F043FF402000902046BB
:10283000294600F03DFF802000902046294600F008
:1028400037FF02AC204600F031F80420C0F200301F
:10285000CDF80900022021468DF8086000F06CF8E0
:1028600002203F213F22012300F038F802200121FD
:1028700000F020F80220102100F002F804B070BD32
:1028800043F6300201F07F01C4F2010201284FEA51
:10289000C14005D1116821F07E7108431060704776
:1028A000116921F07E7108431061704700210171A8
:1028B0000160704743F63002C4F20102012801F0C2
:1028C000010005D1116821F0010108441060704732
:1028D000116921F0010108441061704780B543F689
:1028E000340C0128C4F2010C0DD1DCF80000002BDF
:1028F00063460CBF20F0010040F0010043F8080BD4
:102900000CF1040E0DE0DCF81000002B0CF1140E9D
:102910000CF118030CBF20F0010040F00100CCF8CE
:102920001000186862F305001860DEF8000061F31B
:102930000500CEF8000080BD0B7843F6300203F0AE
:102940000303C4F2010201284FEA032021D11368D6
:1029500023F44073184310604878136860F306133B
:1029600013608878136860F383031360C878136872
:1029700000F0010023F4004343EAC03010600879FE
:10298000116800F0030021F4403141EA004010607A
:102990007047136923F44073184310614878136932
:1029A00060F3061313618878136960F3830313617E
:1029B000C878136900F0010023F4004343EAC030F3
:1029C00010610879116900F0030021F4403141EAF7
:1029D000004010617047000080B5D0E9001CB0F9DC
:1029E0000820A1EB0C0393420CDAB0F90AE0CEF117
:1029F0000002934204DAACEB0E028A42C8BF1146D1
:102A0000416080BD62448A42B8BF1146416080BDCA
:102A100043F6A401C4F202010A6800F00F0042F07C
:102A200030020A6051F89C2C22F0F00242EA0010B9
:102A300041F89C0C086820F03000086070470000E6
:102A400043F60801C4F202010A6800F0070022F40C
:102A5000E05242EA802008607047000043F6080117
:102A6000C4F202010A6800F0070022F4604242EA60
:102A7000403008607047000043F6A401C4F2020130
:102A80000A6800F0070022F4E04242EA00300860E1
:102A90007047000043F6A401C4F202010A6801284D
:102AA00022F0300208BF30320A607047042888BF25
:102AB0007047DFE800F0030C19262F0043F60000F2
:102AC000C4F20200026861F300020260704743F63C
:102AD0000000C4F20200026801F0010122F4803219
:102AE00042EA01410160704743F60000C4F202006F
:102AF000026801F0010122F0807242EA0161016086
:102B0000704743F60000C4F20200026F61F3000256
:102B10000267704743F60000C4F20200426F61F39F
:102B20000002426770470000B0B543F60405C4F2E6
:102B3000020569680446C1F3810141F200200229BF
:102B4000C0F27A0013D001292CD0A9BBD5F89C1073
:102B5000490446F60041C0F2DC2158BF014621601D
:102B6000D5F8A000C0F3024021FA00F024E0296863
:102B70002A68490243F20061D5F800C02B68C0F210
:102B80006E11C2F3881258BF0146A1FB0201C3F3C4
:102B9000024217A39A5C0CF00F035A430023FDF77F
:102BA00029FB09E043F20060C0F26E102060D5F806
:102BB000A010C1F3C241C840206068680EA1C0F3F4
:102BC0000310085C216846F2B02221FA00F0606030
:102BD0006968C0F60002C1F38221515C20FA01F15C
:102BE000E1606968C1F34231515CC840A060B0BD8A
:102BF0000102040810200000000000000000000096
:102C0000010203040607080943F60002010CC4F29E
:102C10000202895800F01F0021FA00F000F00100C4
:102C20007047000043F6000200F01F034FF0010C54
:102C3000C4F2020201290CFA03F14FEA1040835852
:102C400014BF23EA010119438150704710B543F6C0
:102C5000040CC4F2020CDCF800E000F001042EF4D5
:102C6000800040EA8450CCF80000DCF8000061F3FA
:102C70008E10CCF80000DCF8000003F0070162F3CE
:102C80000300CCF80000DCF8000020F4E02040EA6B
:102C90000140CCF8000010BD43F60000C4F2020071
:102CA000D0F8A41041F03001C0F8A410016841F040
:102CB0000101016001688907FCD5816821F00301E9
:102CC000816000BF816811F00C0FFBD101684FF6E5
:102CD000FF72CFF6F262114001604FF080418160D7
:102CE00043F20201C0F2030141604FF47121C0F8C8
:102CF000A0104FF41F01C160D0F8A41021F03001E2
:102D0000C0F8A4107047000043F6A401C4F2020109
:102D10000A6842F030020A6051F89C2C60F301020C
:102D200041F89C2C086820F03000086070470000D3
:102D300043F60800C4F202000068C0F38100704747
:102D40002DE9F0472DED028B0446808B9FED6E1A26
:102D500000EE100AB8EE400A80EE010A10EE100AEA
:102D6000FDF73FFC94ED040B02460B4651EC100BB3
:102D7000FDF726FBFDF748FC0546D4E90001A561F7
:102D800091ED000AB0EE081A90ED002A20EE011A2B
:102D900081EE021A9FED5D2AE08B82EE011A02EEAF
:102DA000100AB8EE422AB4EE421AF1EE10FAC2BF8F
:102DB000BDEEC11A11EE100AE083E18B208C814236
:102DC00088BFE083E08B01EE100AB8EE411A20EED6
:102DD000010A10EE100AFDF704FC94ED020B024606
:102DE0000B4651EC100BFDF7EBFA064628460F4652
:102DF000FDF7F7FB02460B4630463946FDF752FB1E
:102E000041EC100B84ED0A0B02F0F6FF03F074F8AE
:102E100053EC102B9FED3A0B58EC109B4846414663
:102E2000FDF7C8FAFDF7BEFB0F260F2828BF304676
:102E30004FF0010AA08794ED0A8B0AFA00F0FDF723
:102E4000A0FB02460B4651EC180BFDF7B9FAFDF753
:102E5000A9FB2087E08B216800EE100A91ED001A93
:102E6000B8EE400A21EE000A10EE100AFDF7B9FB99
:102E700094ED020B02460B4651EC100BFDF7A0FA45
:102E80000746A0690D46FDF7ACFB02460B463846E7
:102E90002946FDF707FB0546606A0F46FDF771FB03
:102EA00002460B4628463946FDF7FCFA41EC100B6A
:102EB00084ED0C0B02F0A0FF03F01EF853EC102B76
:102EC00048464146FDF776FAFDF76CFB0F2838BF00
:102ED000064694ED0C8B0AFA06F0E687FDF751FBE7
:102EE00002460B4651EC180BFDF76AFAFDF75AFB48
:102EF0006087BDEC028BBDE8F08700BF00BF00BF5C
:102F00000000000000002A4000F07F454CBE8C40CD
:102F10002DE9F04381B040F21436C2F20006327857
:102F20000D46102A044642D840F2183840F21A39A9
:102F300040F21637C2F20008C2F20009C2F20007DE
:102F400003E000BF3078102831D8206B04E000BFC8
:102F50003078411C206B31700421FEF7D5FC00282D
:102F6000F0D0206B0421FEF7CBFC30780028EFD0A6
:102F700035B1206B0021FFF713F9398808443880F8
:102F8000022D08D3206B0121FFF70AF9B8F80010D1
:102F90000844A8F80000032DDAD3206B0221FFF7C4
:102FA000FFF8B9F800100844A9F80000D0E7032D95
:102FB00009D0012D1CD140F21630C2F20000008869
:102FC0000009A08514E040F21630C2F2000040F281
:102FD00018310088C2F2000109880009E08408095C
:102FE00040F21A31C2F20001098820850809608583
:102FF000012001B0BDE8F083F0B583B00025C4F234
:10300000020504460020A5F58036CDE900003046D3
:10301000002102F037FB3046002102F05DF86E46D9
:10302000304600F03DFB01208DF806004FF4807023
:1030300000902846314600F03BFB2846082101223B
:1030400000F0DEFB4FF4007000902846314600F09F
:103050002FFB28460921012200F0D2FB4FF48060AB
:1030600000902846314600F023FB28460A21012221
:1030700000F0C6FB802005F5806700903846314699
:1030800000F016FB38460721012200F0B9FB4FF48F
:10309000805000902846314600F00AFB28460C215B
:1030A0000A2200F0ADFB402000903846314600F087
:1030B000FFFA38460621012200F0A2FB28464FF411
:1030C0008071002200F0E6FA28464FF400710022D9
:1030D00000F0E0FA28464FF48061002200F0DAFAAE
:1030E00038468021012200F0D5FA28464FF480515D
:1030F000012200F0CFFA38464021012200F0CAFA3E
:103100002046062140F2DC5201F072FF20460121E8
:1031100002F0B8FA2046012101F0DEFF03B0F0BD55
:1031200010B54021C4F20101096804464E2908D3B4
:10313000206B0021FFF734F8A18D401AC000E08019
:1031400006E0B4F90600B4F908104843C00BE0806B
:10315000608FB4F9061094F83E204843C2F10F0185
:10316000B4F8462008415043208010BD47F2084182
:10317000C4F200010A6860F305020A6070470000AB
:1031800047F200420228C4F2000207D0012818BF0B
:103190007047106861F3000010607047106801F01C
:1031A000010120F4803040EA0140106070470000C7
:1031B00047F200420228C4F200020BD0012818BFD7
:1031C0007047106801F0010120F0020040EA410060
:1031D00010607047106801F0010120F4003040EAEF
:1031E0004140106070470000002942F20801CEF211
:1031F00004010A680CBF22EA00001043086070470F
:10320000002942F20C01CEF204010A680CBF22EA46
:103210000000104308607047B0B500210446002547
:1032200002F030FAA06947F270018843A061E069BA
:10323000202120F07000E061204601F063FFC4E926
:103240000D55E5632564B0BD026861F300020260BC
:10325000704700004160704700210182C0E9001101
:10326000C0E9021170470000D0F8003143F00103BB
:10327000C0F80031086862F306000860704700007B
:1032800002684BF6EF731A4002600A8903681A431A
:1032900002604A7C036802F0030223F4405343EACD
:1032A00002320260CA7B036802F0030223F4406327
:1032B00043EA822202608A7B036802F0030223F45D
:1032C000407343EA022202604A7B036802F0010273
:1032D00023F0800343EAC21202600A7B036862F3B0
:1032E000861303600A7C036862F3451303604A890E
:1032F000436842600A6882604968C16070470000A4
:10330000016800F0FC024CF6CD43083ACCF6CC4301
:10331000A2FB032321F001010160002146F2040217
:10332000016041608160C1606FF00300C4F202027D
:1033300000EA93000F21136801FA00F018431060AF
:1033400070470000D0F8002161F30002C0F80021AE
:10335000704700000A78036862F3040303604A7848
:10336000036802F0030223F4C02343EA42420260EE
:10337000D1F804C04FF47802036802EBCC42D20CBF
:1033800062F3D7430360097A026801F0010122F475
:10339000803242EA01410160704700000021017261
:1033A0004160018070470000026861F3060202601C
:1033B0007047000070B584B00020CDE90200022003
:1033C000C0F240000121FFF72DFC0120C0F23000C7
:1033D0000121FFF727FC02AD284600F061F940F615
:1033E00000044FF48070C4F2000402904FF081702A
:1033F00004F5FE3603903046294600F059F9304670
:103400000821022200F0FCF920464FF6FF71052248
:1034100001F026FC2046002101F01CFE01AD2846EB
:1034200001F06CFF40F20430C0F201100190204620
:103430002946002201F082FE2046082101F066FEA6
:1034400020460821012201F05DFF204601210122D2
:1034500001F058FF2046012101F03EFE04B070BD8E
:1034600040F2EE20C2F2000040F210318088C2F239
:10347000000109787C38052900B210D0042918BF52
:1034800070477C2821DB40F2B841C0F20401484378
:1034900040F2AC01C00BC2F2000148800EE07C2873
:1034A0001ADB47F65A41C0F201014843642101EB9F
:1034B000E03040F2FC31C2F20001086040F20D4001
:1034C000C2F2000001210170704740F2AC00C2F26C
:1034D0000000002141800EE00D2806DB40F2FC30A8
:1034E000C2F2000064210160704740F2FC30C2F279
:1034F00000000021016040F20D40C2F200000170A6
:10350000704700004FF60040C0F60100007B704796
:10351000F0B583B0082046F2080442F20005C0F27C
:1035200044000121C4F20204C4F201050127FFF79F
:1035300079FB28460021FEF7DDF920460021FFF740
:1035400083FE20460321FFF785FE01AE3046FEF7DD
:10355000B9F94FF48060ADF8040030468DF8097079
:10356000FEF770F928460221FEF730FC28461121AB
:1035700001220723FEF734FC2846112102220723EB
:10358000FEF72EFC284600210022FEF71DFE2846ED
:103590000021FEF72FFEA868C0071AD12846012196
:1035A000FEF7A8F928464021FEF7AEF90028F9D029
:1035B0002846FEF733F900BF2846FEF735F9002804
:1035C000FAD12846FEF734F92846FEF737F90028E5
:1035D000FAD128460421FEF793F928460121FEF787
:1035E00013FE00BF28460421FEF78EF90028F9D00B
:1035F00028460121FEF7D4FD064628460421FEF7A1
:103600007FF928460121FEF7FFFD00BF284604216F
:10361000FEF77AF90028F9D028460121FEF7C0FD0F
:10362000074628460421FEF76BF928460021FEF7DD
:1036300061F9A868C0071AD128460121FEF75AF996
:1036400028464021FEF760F90028F9D02846FEF709
:10365000E5F800BF2846FEF7E7F80028FAD128462B
:10366000FEF7E6F82846FEF7E9F80028FAD12046EA
:103670000121BD19FFF7E8FD44F200016808C0F21E
:103680007411B1FBF0F040F25801C2F20001C8849D
:1036900003B0F0BD1823002A08BF2823C15070478B
:1036A0004FF6FF714FF08072C0E9001270470000C2
:1036B000F0B50A88002A08BFF0BD00234FF0030CC4
:1036C0004FF0010E002405E0520804F1010403F15B
:1036D000020326D0D507F7D005680CFA03F6B543E8
:1036E00005608D7907689D403D43056045680EFA89
:1036F00004F7BD4345600D794768A5403D434560EB
:103700008568B5438560CD7987689D403D43856078
:10371000C568B543C5604D79C6689D403543C560F1
:10372000D2E7F0BD00690840401AB0FA80F04009C5
:10373000704700002DE9F04182B00020CDE9000083
:103740004FF40070ADF804004FF001084FF4401042
:1037500001218DF80780FFF765FA00244FF400601F
:10376000C4F202046D4600900226204629468DF8D8
:103770000660FFF79DFF20460B21012200F040F874
:1037800001200121FFF73CFD02200121FFF72CFD64
:103790004FF440100121FFF745FA2846FFF780FF5C
:1037A0000020C0F2011001904FF400472046294646
:1037B0000097FFF77DFF0120C0F230000121FFF7E5
:1037C00031FA20208DF8066004F5806600903046BE
:1037D0002946FFF76DFF304605210C2200F010F856
:1037E0004FF440100121FFF71DFA204629468DF8BD
:1037F00006800097FFF75CFF02B0BDE8F081000093
:1038000080B51C2303EA810302FA03FE24224FF051
:103810000F0C082938BF202281580CFA03F3994372
:1038200041EA0E01815080BDF0B584B04AF6AB2C60
:1038300040F23A3000216FF00102CAF6AA2CC2F21F
:103840000000EE46ADF80C100291CDE9001100BF6A
:10385000A1FB0C3424F00303C3EB940300EB8303BC
:1038600013445B880EEB020402320C2A01F10101C1
:103870006380EDD140F208206FF00101C2F2000038
:103880000EEB01029388D7885288023100EB430681
:10389000082920F81370F281F2D1BDF80010BDF8AC
:1038A000022000EB410320F8112040F27410C2F214
:1038B000000090F9030046F2E221C0EBC000C0F620
:1038C000000101EB4001BDF80A204888DA813EF88A
:1038D000100040F28422C2F200024FF4C04402EB16
:1038E000C00342F830404FF0500C8C88C3F804C03D
:1038F00040F2BC23C2F200034FF48A653EF8144044
:1039000043F8205046F2500502EBC40042F8345010
:1039100000254560C88854263EF8100043F824600E
:1039200002EBC004602666600C8940F204573EF842
:10393000144042F830C043F8207002EBC4004660E7
:1039400048894FF4A0473EF81000898942F8347046
:103950004FF4A86743F8247002EBC0043EF811103E
:1039600045F260076560452442F8307043F8204016
:1039700002EBC100C0F804C040F2054042F83160DB
:1039800043F8210004B0F0BDF0B581B01825002443
:10399000C4F202054FF48066022700BF4FF4FA70AC
:1039A000C5F810642F6100F057F94FF4FA70C5F8AC
:1039B00000642F6000F050F9022C04F10104EDD3F3
:1039C00001B0F0BDF0B583B00120C0F2300001219C
:1039D000FFF728F94FF440100121FFF723F901AC5C
:1039E0002046FFF75DFE00200025C0F20110C4F262
:1039F000020502904FF4806605F58060214601962D
:103A0000FFF756FE0227284621460197FFF750FE92
:103A1000C5F81864AF6103B0F0BD00008161704764
:103A20008162704742695140416170470000000067
:103A30002DE9F0470446B0F90400FCF7A2FD054665
:103A400020680E46FCF79DFD02460B46284631468F
:103A5000FCF728FD9FED140B814653EC102B8A4692
:103A6000FCF707FC9FED120B0746884656EC105BEF
:103A7000284631463A464346FCF714FDFCF792FDD2
:103A8000E080484651462A463346FCF799FC3A46C0
:103A90004346FCF707FDFCF785FD20810020A0616F
:103AA000BDE8F08700BF00BF000000000000F03F4D
:103AB00000000000C0FFDF40B0B50246B0F90600CC
:103AC000D2F810E0C417AEFB003C55690EFB04C4ED
:103AD000B2F908C005FB00409569CCFB01305919CB
:103AE00040EBE570CD0BC31345EA40406FF3DF3187
:103AF000C2E904039161B0BD00F0D2FF00F0BEFE48
:103B000001F08CF800F084FC00F08AF8FFF75AFF0F
:103B100000F010FE00F0FAFAFFF7F4FC40F2383142
:103B2000C2F20001087000F0A9F840F27231C2F24E
:103B30000001087000F064FBFEF74AFE01F032FF5E
:103B400001F0BEFDFFF736FCFEF772FAFEF752F801
:103B5000642000F081F840F22C30C2F20000002115
:103B60000180FFF7D5FC01F07FFA01F0F1F801F0D8
:103B70007FF80024C4F20104204601214FF001091E
:103B800001F0AAFAFDF780FA01F09AFDFFF7D2FDE5
:103B90002046012101F0A0FA40F20030C2F20000FC
:103BA000FEF7C2FF00F060FDFFF7EEFE40F2F527E2
:103BB00040F2D83543F6402A40F2602B40F24836B6
:103BC00040F22E3440F23A18C2F20007C2F2000569
:103BD000C0F6695AC2F2000BC2F20006C2F200043B
:103BE000C2F20008387801280ED1686995F90810EA
:103BF000BAFBF0F0A9EB4101414358466960FFF779
:103C00005BFF306000203870207898F80010884200
:103C1000E8D0FCF7F7FE207888F80000E2E7000023
:103C200040F28020C2F2000000684DF68361C4F2C9
:103C30001B31A0FB0101880C40F23431C2F20001BB
:103C4000086008684FF47A71484340F23031C2F29C
:103C500000010860704700004EF21001CEF2000132
:103C60008A680B6830B100BF0B68DB03FCD50138F4
:103C70000304F9D188689042FCD87047F0B54FF63C
:103C8000D070CEF20F00017801F00F01092906D1A2
:103C9000017D007E090960F306113B292ED04FF209
:103CA000F370C1F6FF7000780238232800F22081FB
:103CB000DFE810F024001E01240024001E0124006F
:103CC000240024001E011E011E01240024002400E3
:103CD00024001E01240024002400240024002400C9
:103CE0002400240024001E011E01240024002400BE
:103CF0002400240024002400240024004FF6004067
:103D0000C0F6010040F21E3CD0E90423C2F2000CD0
:103D1000ACF8002040F22032C2F200028169138028
:103D200040F21C32B0F93C31C2F20002118000EEC8
:103D3000103A40F21001B8EEC00AC2F20001D0F809
:103D400020E081ED060A40F21031C2F2000181F854
:103D500000E0416A40F21132C2F200021170D0E973
:103D60000BCE40F2A432C2F20002D0E90D31A2F82B
:103D700000C0A2F802E0D0E924EC138451840EFACA
:103D800001F30CFA01F100F14004C2E90231A2F89A
:103D900010E0A2F812C01ECC40F27435C2F2000549
:103DA000298047F6FF716A802B8401FA04F2002310
:103DB00000F5FA766C84C5E90223296174CE40F2DD
:103DC0002427C2F200073A8001FA06F2C7E902236B
:103DD0003961D0F8881040F2FC32C2F20002118141
:103DE00040F25831C2F20001D0F88C30A1F800E066
:103DF00040F25A31C2F200015381A1F800C0D0F85C
:103E0000981040F20842C2F200021180D0F8C811A6
:103E100040F20E42C2F200021180D0F89C1040F233
:103E20000A42C2F200021180D0F8B41140F25C32B2
:103E3000C2F20002D180D0E96E137C80118193819F
:103E4000D0E970313D8411825382D0F8A01040F245
:103E50002E42C2F200021180D0F8A41040F22C428F
:103E6000C2F200021180D0E9561240F25803C2F2A9
:103E70000003598640F25421C2F2000109889A8653
:103E8000323999835984D0F8E81140F27412C2F2A1
:103E90000002D170D0F8CC1140F23A32D0F8D031D3
:103EA0007E84C2F2000200F5EA77118053808ACF47
:103EB000D0F8E0619180D0F8EC0140F2C011C2F27C
:103EC000000181F83D004FF62070C0F6010090ED32
:103ED000000A90ED011A0120D3801781568181EDEF
:103EE000050A81ED061A81ED070A81ED081AF0BD79
:103EF000FEE70000B0B540F27434C2F20004204680
:103F000000F07AFC40F22425C2F20005284600F0B9
:103F100095FC40F2D820C2F20000B0F90000B4F9DC
:103F20000010B4F902204143090B218002FB00F18B
:103F3000090B6180B5F90010B5F902204143090B66
:103F400029805043698C48F20102000BCFF6FF72C2
:103F50006880002002FA01F140F2000C05F108032C
:103F6000C8F2010C83E8031040F2A431C2F2000150
:103F70004D8C48F25633CFF6FF73AB400025C1E9B4
:103F80000203638CC8F256350D6102FA03F104F1A5
:103F9000080282E8031040F2D830C2F2000001218A
:103FA000017240F2AC00C2F200004FF0FF31C0F8E5
:103FB0004610B0BDB0B540F27434C2F200042046E1
:103FC00000F01AFC40F22425C2F20005284600F059
:103FD00035FC40F2D820C2F20000B0F90000B4F97C
:103FE0000010B4F902204143090B218002FB00F1CB
:103FF000090B6180B5F90010B5F902204143504327
:10400000000B090B6880688C298047F6FF7101FA64
:1040100000F00022C5E9020240F2A430C2F2000022
:10402000438C296147F6AA4505FA03F3C0E9023239
:10403000638C056101FA03F0C4E9020240F2D83052
:10404000C2F20000027240F2AC002161C2F2000034
:104050004FF00111C0F84610B0BD0000B0B50446E5
:10406000102002F0CFF8054620460421FCF7F3F8B3
:10407000014600206880A86028462C80E960B0BD19
:1040800080B543880288934224BF4FF48033C0F840
:1040900002308388D0F808C05BB1D0F80CE04388C8
:1040A0005EF82330ACEB03030B4493FBF2FC83601C
:1040B00006E042880CEB0103013293FBF2FC8360C3
:1040C0004388D0F80CE05A1C428060464EF823101A
:1040D00080BD000040F23A13C2F200031B78012BAE
:1040E00003D808461146FFF79BBC03460088B0F58D
:1040F000FA7F3EBF0130188070474FF0000C084631
:104100001146A3F800C0FFF78DBC000080B5032066
:1041100000F066F818200021002200F027F81A208D
:104120000121002200F022F81D200221002200F0CF
:104130001DF819200321002200F018F81220042194
:10414000002200F013F81E200621002200F00EF8D5
:104150004FF0FF300721002200F008F82620082148
:104160000022BDE8804000F001B80000B0B54EF676
:104170000C5ECEF2000EDEF800304FF0FF35C3F3D8
:10418000022383F00704042C28BF0424033B05FA10
:1041900004F438BF0023A143994005FA03F39A437E
:1041A00000F00F03043B4EF2001C7344CEF2000CEF
:1041B00011430C33B0F1FF3F4FEA011100EB0C0249
:1041C000C8BF02F540730028197048BFB0BD00F0A9
:1041D0001F01012202FA01F140094CF82010B0BD84
:1041E0004EF60C51CEF200010A684FF6FF031A405A
:1041F00060F30A2242F0806040F0FD700860704772
:10420000B0B584B00020CDE902000120C0F230003A
:1042100001210125FEF706FD022002900020C0F2D8
:104220000310039040F20040C4F2020002A9FFF71D
:104230003FFA1D20C0F240000121FEF7F3FC3520BB
:10424000FEF794FF01200021FEF7B2FF01200121BB
:10425000FEF796FF0E20C0F244000121FEF7E2FCBB
:104260006C462046FEF722FB40F20320009001201E
:1042700021468DF80450FEF75FFB01200521002246
:104280000123FEF72BFB01200121FEF713FB04B0F5
:10429000B0BD0000026801F0030122F4405242EA7E
:1042A00001310160704700000068C0F38070704702
:1042B000026861F30002026070470000026801F0CA
:1042C000010122F4807242EA01210160704700007E
:1042D00002684FF29F73CFF6F9731A4002600268CA
:1042E000602942EA0102026018BF7047816941F00B
:1042F0000101816170470000026801F0010122F0B4
:10430000800242EAC111016070470000026801F0BA
:10431000030122F0600242EA41110160704700008F
:10432000026801F0030122F00C0242EA81010160FF
:1043300070470000026801F0010122F4006242EAC5
:10434000C121016070470000012906D0032918BF70
:1043500070476FF0F85C182302E06FF4780C1323B9
:10436000016802F01F029A4001EA0C01114301604A
:1043700070470000026801F0010122F0100242EAD9
:10438000011101607047000070B501210446FFF77C
:10439000D1FF20460121FFF7EDFF20460121FFF765
:1043A00079FF20460121FFF783FF0120FFF754FC2E
:1043B000002600BFB5B2204601212A46FFF7C4FF00
:1043C0000120FFF749FC2046FFF76EFF18B11F2DB3
:1043D00006F10106EED320460321FFF75BFF012023
:1043E000FFF73AFC002600BFB5B2204603212A465B
:1043F000FFF7AAFF0120FFF72FFC2046FFF754FF2D
:10440000002808BF70BD1F2D06F10106ECD370BD5A
:10441000B0B582B00E20C0F2440001210125FEF7A4
:1044200001FC0124C0F2300420460121FEF7FAFB12
:1044300020460121FEF7F6FB6C462046FFF730F9D7
:10444000009540F200450320C4F202058DF80600F5
:1044500028462146FFF72CF90420009028462146E3
:10446000FFF726F943F60834C4F201042046002180
:104470000025FFF723FF20460021FFF73DFF2046E0
:10448000FFF782FF20460021FFF754FF204600215E
:10449000FFF71EFF20460021FFF742FF20460021C4
:1044A000FFF734FF20460121FFF702FF40F22C30D6
:1044B000C2F20000058002B0B0BD000080B540F23D
:1044C000D631C2F20001B1F9002049F6991C4CF630
:1044D000CD43C1F6991CCCF6CC4302FB03C2B2F12A
:1044E000333F16D2B0F804C0828AACEB02031BB291
:1044F000012B0CDBB0F90EE07345A8BFACEB0E024C
:10450000B0F80CC04388828003EB0C02428000208C
:10451000088008880130088080BD0000000000008D
:104520002DE9F04F81B040F27430C2F20000002556
:10453000456140F2A430C2F20000456140F22420FF
:10454000C2F20000456140F2FC30C2F20000C0E956
:10455000005540F25430C2F20000006840F2AC0155
:10456000C2F200014D8000F08FF940F26020C2F2EB
:104570000000C0E9045540F22640C2F20000058068
:1045800040F23C10C2F20000457040F20C4040F294
:104590005C3BC2F20000C2F2000B0570BBF90800E0
:1045A000BBF91010BBF91280ABF800500091FBF77B
:1045B000E8FF9FED290B02465AEC107B0B4638466C
:1045C0005146FBF76FFF9FED260B56EC104B224632
:1045D0003346FBF7F5FEFBF7E5FF8146ABF80A0033
:1045E0004046FBF7CEFF02460B4638465146FBF7E6
:1045F00059FF22463346FBF7E3FEFBF7D3FF009952
:10460000ABF8140000291CBFA9EB000090FBF1F5EA
:1046100040F25801C2F20001BBF90600B1F92610C0
:10462000ABF80E50484340F21131C2F20001097854
:10463000800BABF80200ABF8049011B101B0BDE8FB
:10464000F08F40F2F230C2F200000021018001B090
:10465000BDE8F08F00BF00BF00000000804F124196
:10466000000000000000C03F80B540F250304FF61F
:104670000041C2F20000C0F60101016040F23C10AE
:10468000C2F200004FF6FF7141600620FFF7E6FC22
:1046900040F25431C2F20001086040F26020C2F2E0
:1046A0000000FFF7C5F940F21810C2F20000FFF752
:1046B000BFF9FFF7B9F840F21240C2F20000022140
:1046C000017443F69821418280BD000010B5024676
:1046D0004069B2F90230916103FB010390685361B4
:1046E000834201DD506103E0D0688342B8BF50616E
:1046F000D369B2F904C0B2F90000CB1A03FB0CFC79
:104700005369548C00FB01FE108C2341948C4EFAAB
:1047100000FEB2F9100073444CFA04F423448342BF
:10472000D36204DCB2F912008342C8BF184600B25B
:10473000D16110BD70B582B00520C0F230000121FA
:10474000FEF770FA6C462046FEF7AAFF002041F201
:104750000045C0F20110C4F2020501904FF48076CA
:10476000284621460096FEF7A3FFAE6102B070BD59
:1047700040F2D430C2F20000B0F900103422C4F28A
:1047800001021160B0F900105160B0F900009060B2
:104790007047000080B540F2AC0040F2A431C2F294
:1047A0000000C2F200014A8CB0F9003040F25C3CDB
:1047B00003FA02F2C2F2000C40F27433B0F9460080
:1047C0004A61BCF90220C2F20003598C424302FA4A
:1047D00001F140F2242E5961C2F2000EBCF9121010
:1047E000BEF82230484340F2FC319A40C2F2000148
:1047F000CEF81420486080BD4FF60041C0F601019C
:1048000091ED4F0A40F21002B8EEC00AC2F2000267
:1048100001F1400C82ED060A9CE80C10C96C028084
:104820008AB2418447F6FF71438001FA02F2002305
:10483000A0F820C0C0E90223016170474FF6004193
:10484000C0F6010191ED4F0A40F21002B8EEC00A25
:10485000C2F2000282ED060AD1E97D230280D1E98D
:104860007F21438002848AB2418447F6FF7101FAB6
:1048700002F20023C0E90223016170470E20C0F25A
:1048800044000121FEF7CEB90021C0F8021081607A
:1048900070470000826BB1F912300A60828FC08FBE
:1048A0000A84B1F910204884824003FA00F0C1E97B
:1048B0000220704710B540F2D834C2F2000494F9D7
:1048C000080040F23C11C2F2000140F208230A78CD
:1048D000C0EBC000C2F2000303EB400010F812204E
:1048E00046F2BF2330F81200C0F60003C2B20870CF
:1048F00046F2B820C0F60000805C40F2F821C2F217
:1049000000019A5C48700220CA70FEF715F800207A
:10491000206110BD40F25C3040F2AC01C2F20000F8
:10492000C2F200014088B1F84610484340F22641E7
:10493000C2F20001088040F21330C2F200000021F0
:104940000170704770B50024C4F20104002040F2E9
:10495000A40660626062C2F20006316840F2980507
:104960004862C2F20005296846F2C622486240F257
:10497000D830C2F2000090F9080040F23C11C2F2B7
:1049800000010978C0EBC000C0F6000202EB400055
:1049900010F81100A16948F68F72114040F284228C
:1049A000C2F2000232F8303002EBC0021943A161BA
:1049B000E1694FF68F73928819401143E16140F22B
:1049C000BC23216AC2F200034FF2222233F82000F6
:1049D0001140084320622046202100F093FB20462E
:1049E000012100F04FFE3068012100F04BFE2868E5
:1049F000012100F047FE206840F00100206020689F
:104A000040F0010020603068016841F00101016060
:104A10002868016841F00101016040F20040C4F2E1
:104A20000000016841F00101016070BDB0B540F2C5
:104A30003C15C2F200050420287040F2F420002446
:104A4000C2F200000121C4F20104017020460021DD
:104A500000F048FB2046002100F044FB40F2D83033
:104A6000C2F2000090F9080046F2C6222978C0EB95
:104A7000C000C0F6000202EB400010F81100FDF784
:104A8000DBFC2046202100F03DFB2046012100F008
:104A900023FB20460121BDE8B04000F0F3BD00003B
:104AA00080B5FEF7F9F843F60040C4F2020040F288
:104AB000551101601C20C0F240000121FEF7B2F840
:104AC00047F21000C4F20000016841F003010160E8
:104AD00000200121FDF7EAFF0120FEF795F80128EB
:104AE000FAD100205A2101220223FEF7AFF802205A
:104AF0000121FDF7DBFF00BF1920FEF785F8012833
:104B0000FAD10020FDF784FF0520FDF7B5FF002056
:104B1000FDF7A4FF0020FDF793FF0120FDF7BAFF8A
:104B20000220FEF7F1F800BFFEF702F90228FBD1E0
:104B30000020FDF7AFFFBDE8804000F001B80000A5
:104B400070B543F6040541F20024C4F20205C0F238
:104B50007A04FEF7EDF840F280260228C2F2000641
:104B600013D001282CD0B0BBD5F89C00400446F6E9
:104B70000040C0F2DC2058BF20463060D5F8A010BD
:104B8000C1F3024120FA01F425E0286829684002B7
:104B90002A682B6843F20060C0F26E1058BF2046AE
:104BA000C3F3024311A4E35CC1F3881102F00F02C6
:104BB000A0FB01015A430023FBF71CFB04460AE05B
:104BC00043F20060C0F26E103060D5F8A010C1F35F
:104BD000C24120FA01F43460686806A1C0F30310F2
:104BE000085C316821FA00F0306070BD01020408F1
:104BF000102000000000000000000000010203047B
:104C0000060708094EF21001CEF200010A680428D6
:104C100022F0040208BF04320A60704780B5042005
:104C2000FFF7F0FF40F28020C2F20000006844F677
:104C3000D351C1F26201A0FB010188094EF21001BB
:104C4000CEF20001486000208860086840F0030050
:104C500008604EF62350CEF200003021017080BD76
:104C6000C1628262416941F0010141617047000007
:104C700070B588B01020C0F2440001210125FDF775
:104C8000D1FF40F29806C2F20006306841F26F711F
:104C90000022FFF7E5FF3068002100F0DBF906ACE9
:104CA000204600F0E9FC0620C0F20100069040F228
:104CB000011230683179ADF81C2022468DF81E5063
:104CC00000F078FB306831794FF4FA7200F090F917
:104CD00030683179012200F02DFB3068042100F0AA
:104CE00085FE3068022100F099FE46F26C04C4F2A1
:104CF00002042046FEF704FB01AD2846FEF7ACFA9D
:104D00000220C0F20010CDF80E0010203168ADF87E
:104D10000C00B01D029001F13800019040F201102A
:104D2000C0F20120CDF8120020462946FEF7A8FA6D
:104D3000A4F16C000121FEF705FB04F1AC00012198
:104D4000FEF732FB20460121FEF77EFA08B070BD67
:104D5000F0B58BB01120C0F2440001210126FDF70F
:104D600061FF40F2A407C2F20007386841F26F7198
:104D70000022FFF775FF3868002100F06BF909ACDD
:104D8000204600F079FC0720C0F20100099040F2B3
:104D900001113868ADF82810002122468DF82A60EC
:104DA00000F008FB386800210A2200F021F9386879
:104DB0000021002200F0BEFA38684FF40071012291
:104DC00000F092F93868002100F086F946F25804A4
:104DD000C4F202042046FEF793FA04AD2846FEF71B
:104DE0003BFA0220C0F2001057F8041BCDF81A005D
:104DF0001020ADF8180001F13400049040F20110C9
:104E0000C0F20120CDF81E00204629460597FEF786
:104E100037FA01AD2846FEF7C1FA4FF48A70ADF8B3
:104E2000040004F1C800294602968DF80C60FEF7D4
:104E300091FA254655F8BC0F012140F40070286016
:104E4000A4F15800FEF77EFA28465221FEF7ACFA8C
:104E500020460021FEF7F8F90BB0F0BD426C01F0DE
:104E60000F0122F4702242EA0141416470470000C0
:104E70000B784A78022B0AD1022A17D0012A19D0BE
:104E8000002A18BF70478A7850F8643F07E0022A6A
:104E900014D0012A1CD06ABB8A7850F8603F62F3B4
:104EA000000303606FF4007C09231AE08A7850F84D
:104EB000643F06E08A7850F8643F0CE08A7850F846
:104EC000603F62F3820303606FF4006C0B2308E021
:104ED0008A7850F8603F62F3410303606FF4806C9E
:104EE0000A23C978026801F00101994002EA0C0224
:104EF00011430160704700000A78436C23F0FF0300
:104F00001A4442644A79436C02F0010223F480633C
:104F100043EA822242640A79436C02F0010223F4DC
:104F2000006343EAC22242644A78436C02F0010201
:104F300023F4005343EA42324264CA78436C02F0DD
:104F4000010223F4804343EA823242648A79436C4B
:104F500002F0010223F4805343EA0232426489786A
:104F6000426C01F0030122F4407242EA01214164E3
:104F7000704700000021C0F8031001607047000076
:104F8000426861F30002426070470000426801F02D
:104F9000010122F0080242EAC101416070470000AD
:104FA00002460D294FF0000088BF7047DFE801F08E
:104FB000071E091E0B1E0D0F111E1316191C506B18
:104FC0007047906B7047D06B7047106C7047906D56
:104FD0007047D06D7047D2F880007047D2F88400D7
:104FE0007047D2F888007047D2F88C0070470000F4
:104FF0000D2988BF7047DFE801F0072109210B2147
:105000000D0F142116191C1F4263704782637047ED
:10501000C263704702647047816DC2EA0101816515
:105020007047C2657047C0F880207047C0F8842080
:105030007047C0F888207047C0F88C207047000087
:10504000026801F0030122F4407242EA012101608A
:1050500070470000026801F0070122F0700242EA86
:10506000011101607047000010B582B00120C0F24C
:1050700040000121FDF7D6FD40F20044C4F20004D7
:1050800020460121FFF7DCFF20464FF6FF71442246
:10509000FFF7E6FD20460021FFF7DCFF0220C0F607
:1050A0000120019001A92046002200F047F8204687
:1050B0004FF4007100F03EF82046042100F026F87D
:1050C00020460421002200F01DF92046002100F0B6
:1050D00003F802B010BD0000026861F30002026034
:1050E000704700004162704732B1012A18BF704713
:1050F000C2681143C1607047C26822EA0101C16001
:10510000704700004269114341617047C943016122
:10511000704700000069084018BF01207047000078
:10512000426801F0010122F0040242EA810141607B
:1051300070470000826E11438166704780B591F818
:1051400000C0BCF1060F88BF80BDDFE80CF004D6BC
:1051500034D667D69C0091F801C050F8203F02F089
:1051600003026CF34103036091F801C0D0F800E042
:105170004FEA5C0363F3C30EC0F800E091F802C08D
:1051800050F8083C6CF3010340F8083CC97850F82B
:10519000083C01F00F0123F0F00343EA011140F84D
:1051A000081C50F8081C21F00C0141EA820140F86B
:1051B000081C01219EE091F801C050F8203F02F048
:1051C00003026CF34513036091F801C0D0F800E0CE
:1051D0004FEA5C0363F3C71EC0F800E08B7850F819
:1051E00008CC03F0030E2CF4407343EA0E2340F87E
:1051F000083CC97850F8083C01F00F0123F47043D3
:1052000043EA013140F8081C50F8081C21F44061C1
:1052100041EA822140F8081C10216BE091F801C09E
:1052200050F8203F0CF0010C23F4007343EA4C23A8
:10523000036091F801C0D0F800E04FEA5C0363F32B
:10524000CB2EC0F800E091F802C050F8043C02F008
:1052500003026CF3010340F8043CC97850F8043CA5
:1052600001F00F0123F0F00343EA011140F8041CA0
:1052700050F8041C21F00C0141EA820140F8041CA2
:105280004FF4807136E091F801C050F8203F0CF0E7
:10529000010C23F4005343EA4C33036091F801C03E
:1052A000D0F800E04FEA5C0363F3CF3EC0F800E0C3
:1052B0008B7850F804CC03F0030E2CF4407343EACF
:1052C0000E2340F8043CC97850F8043C01F00F016B
:1052D00023F4704343EA013140F8041C50F8041CE5
:1052E00002F0030221F4406141EA822140F8041CEB
:1052F0004FF4805102681143016080BD4FF480314A
:105300000160704732B1012A18BF7047C26811436B
:10531000C1607047C26822EA0101C16070470000A5
:10532000026801F0010122F0080242EAC1010160B5
:1053300070470000082988BF7047DFE801F0053A90
:105340000E3A173A20293200816902F0010221F059
:10535000080141EAC20181617047816902F00102DE
:1053600021F4006141EAC22181617047C16902F004
:10537000010221F0080141EAC201C1617047C1691F
:1053800002F0010221F4006141EAC221C1617047CB
:10539000416D02F0010221F0080141EAC2014165BC
:1053A0007047416D02F0010221F4006141EAC2211F
:1053B0004165704780B5082988BF80BD92F800E03C
:1053C0004FEADE0CDFE811F00900570140005701F9
:1053D0007B005701C20000012C015178436801F0A5
:1053E000010123F4807343EA01214160917843680D
:1053F00001F0010123F4007343EA41214160816916
:105400000EF0070321F0700141EA03118161816907
:105410000CF0010321F4803141EA03418161D1782C
:10542000036A61F3410303621179036A61F3C30301
:1054300003625179036A61F3000303629179026A9E
:1054400061F38202026280BD5178436801F001017C
:1054500023F4806343EA812141609178436801F03D
:10546000010123F4006343EAC121416081690EF028
:10547000070321F4E04141EA0331816181690CF0C5
:10548000010321F0807141EA03618161D178036AEF
:1054900061F3451303621179036A01F0010123F0FE
:1054A000800343EAC11101625179036A61F3041375
:1054B00003629179026A61F38612026280BD5178BB
:1054C000436801F0010123F4805343EA0131416054
:1054D0009178436801F0010123F4005343EA41311C
:1054E0004160C1690EF0070321F0700141EA031128
:1054F000C161C1690CF0010321F4803141EA03412B
:10550000C161D178036A01F0010123F4007343EA19
:10551000412101621179036A01F0010123F4006362
:1055200043EAC12101625179036A01F0010123F4C8
:10553000807343EA012101629179026A01F001015D
:1055400022F4806242EA8121016280BD5178436881
:1055500001F0010123F4804343EA81314160C169D4
:105560000EF0070321F4E04141EA0331C161C16952
:105570000CF0010321F0807141EA0361C161D1782F
:10558000036A01F0010123F4005343EA413101624F
:105590001179036A01F0010123F4004343EAC131A8
:1055A00001625179036A01F0010123F4805343EA57
:1055B000013101629179026A01F0010122F4804215
:1055C00042EA8131016280BD5178436801F00101F6
:1055D00023F4803343EA01414160416D0EF007033B
:1055E00021F0700141EA03114165416D0CF00103A6
:1055F00021F4803141EA03414165D178036A01F029
:10560000010123F4003343EA414101625179026A06
:1056100001F0010122F4803242EA0141016280BDC1
:105620005178436801F0010123F4802343EA81416A
:105630004160416D0EF0070321F4E04141EA03317E
:105640004165416D0CF0010321F0807141EA036175
:105650004165D178036A01F0010123F4001343EAA4
:10566000415101625179026A01F0010122F4801274
:1056700042EA0151016280BD0021C0F803100160BF
:1056800070470000426C01F0010122F4004242EA3E
:10569000C131416470470000026801F0010122F04D
:1056A000800242EAC111016070470000426801F0C7
:1056B000070122F0700242EA0111416070470000C8
:1056C0002DE9F04F89B04FF000084FF48800012118
:1056D000CDE90688CDF80B80CDF808804FF00109A0
:1056E000FDF7A0FA4FF440100121FDF79BFA4FF4AB
:1056F00040100121FDF796FA4FF440100121FDF70B
:1057000091FA0124C0F2300420460121FDF78AFA03
:105710004FF440100121FDF785FA20460121FDF7E5
:1057200081FA06AD2846FDF7BBFF40F200200024B9
:10573000C0F20210C4F2010407904FF4807004F527
:105740008036069030462946FDF7B2FF30460821E4
:105750000122FEF755F84FF40070069030462946B6
:10576000FDF7A6FF304609210122FEF749F84FF464
:105770008060069030462946FDF79AFF30460A21A0
:105780000122FEF73DF8802004F582374FF0020A2F
:105790000690384629468DF81DA0FDF789FF38464A
:1057A000072101224FF0070BFEF72AF84FF4805033
:1057B000069030462946FDF77BFF30460C210A2231
:1057C000FEF71EF84020069038462946FDF770FF88
:1057D000384606210122FEF713F802AD204629467D
:1057E0008DF80E80FFF788FB20468021FFF78EFCA6
:1057F000204680210022FFF785FD20460021FFF78B
:105800006BFC2046002100F0ABF8204641F26F719E
:105810000022FFF725FA20460121FFF73DFF204631
:105820000021FFF717FC04AE3046FFF725FF2046A6
:10583000002132468DF810808DF81590CDF811803A
:10584000FFF7B8FD204600210022FFF7D1FB2046DC
:1058500000210122FFF76EFD204602213246FFF7AC
:10586000A9FD204602210022FFF7C2FB20460221AB
:105870000122FFF75FFD204604213246FFF79AFD23
:10588000204604210022FFF7B3FB20460421012219
:10589000FFF750FD2046062132468DF810B08DF8F6
:1058A0001680FFF787FD204606210022FFF7A0FBA8
:1058B000204606210022FFF73DFD20460221FFF78A
:1058C000BFFB2846FFF756FB40F20110ADF80C0075
:1058D000204629468DF80E808DF80B808DF808A0A3
:1058E000ADF80990FFF708FB20460A21FFF7B6FA4A
:1058F00040F20010C0F20100019001A92046FFF71C
:10590000B7FA20460021FFF70BFC20460121FFF7E4
:1059100037FB20460121FFF7F9FB20468021FFF7E6
:10592000F5FB204680210122FFF7ECFC20460121F7
:105930000122FFF7E7FC20460021FFF7F1FC20469B
:105940000021FFF79FFE20460121C4F8248000F0CB
:105950005BF820460221FFF7A9FE09B0BDE8F08FF1
:1059600044F2FF32C4F20102904207DC0022C4F28A
:10597000010290420FD044F2000207E044F6000218
:10598000C4F20102904206D044F20042C4F2010285
:10599000904218BF7047026B4FF6FF739A43114451
:1059A0000163704710B51220C0F244000121FDF7D9
:1059B00039F944F60004C4F2010420464FF6FF71A1
:1059C0005A22FFF74DF920460021FFF743FB2046FE
:1059D0000121FFF79BFB204601210122FFF792FCEA
:1059E00020460021BDE81040FFF776BB826861F3D6
:1059F000020282608268C1F3C00122F4803242EA6E
:105A00000141816070470000826801F0010122F0CD
:105A1000800242EAC111816070470000826801F093
:105A2000070122F0700242EA011181607047000014
:105A300070B5D94B00242DED020B2DED108BDDE957
:105A40001010984205DA20F000429A4201D809D19C
:105A500041B19DED100BBDEC108B02B0BDE8704064
:105A600000F04EBBB0F5801F26DA11430BD00028A2
:105A700013DA012000F070FBBDEC108B02B0BDE822
:105A8000704000F049BB022000F066FB00F020FBF4
:105A900051EC100B81F000419EE06FF035049FED5A
:105AA000C00B53EC102B9DED100B51EC100BFAF7C3
:105AB00087FCCDE91001084604EB2051C0F3130424
:105AC000B948A1F2FF31204400F4801080F07F62D9
:105AD00082F04052224301EB20559FEDB50B11920D
