:020000040800F2
:10000000F0180020D10100080912000811110008A1
:1000100005120008A90A00082D360008000000009B
:10002000000000000000000000000000252F000874
:10003000AD0A0008000000000D120008292F00087A
:10004000EB010008EB010008EB010008EB010008E0
:10005000EB010008EB010008EB010008EB010008D0
:10006000EB010008EB010008EB010008EB010008C0
:10007000EB010008EB010008EB010008EB010008B0
:10008000EB010008EB010008E5090008EB0100089E
:10009000EB010008EB010008EB010008EB01000890
:1000A000E5310008713200084D34000821320008A3
:1000B000000000002D350008EB010008EB010008EE
:1000C000EB010008EB010008EB010008EB01000860
:1000D000EB01000895350008EB0100080000000066
:1000E000EB010008EB010008000000000000000028
:1000F0000000000000000000000000000000000000
:1001000000000000000000000000000000000000EF
:100110000000000000000000EB010008EB010008F7
:1001200000000000000000000000000000000000CF
:1001300000000000000000000000000000000000BF
:10014000EB010008000000000000000000000000BB
:10015000000000000000000000000000000000009F
:10016000000000000000000000000000000000008F
:10017000000000000000000000000000000000007F
:1001800000000000EB01000800000000000000007B
:10019000000000000000000000000000000000005F
:1001A000000000000000000000000000000000004F
:1001B0000000000000000000EB010008DFF80CD098
:1001C00000F0D2FB00480047D95A0008F018002080
:1001D0000648804706488047FEE7FEE7FEE7FEE761
:1001E000FEE7FEE7FEE7FEE7FEE7FEE75130000828
:1001F000BD0100082DE9F05F0546002092469B46B0
:1002000088460646814640241BE02846414647462C
:10021000224600F07EFA53465A46C01A914110D346
:1002200011461846224600F065FA2D1A67EB0108C0
:100230004F4622460120002100F05CFA17EB00092E
:100240004E41201EA4F10104DFDC484631462A4617
:100250004346BDE8F09F40EA01039B0703D009E055
:1002600008C9121F08C0042AFAD203E011F8013BA2
:1002700000F8013B521EF9D27047D2B201E000F8FB
:10028000012B491EFBD270470022F6E710B513463A
:100290000A4604461946FFF7F0FF204610BD10B588
:1002A0004843044608F046FF002805D00021002CF2
:1002B00002D0641E0155FAE710BD2DE9FE4F8046BD
:1002C00081EA0300C00F0C46009021F0004123F0AA
:1002D0000045B8EB0200A94105D2404621469046B0
:1002E0001C460B46024623F00040104347D0270D22
:1002F000C7F30A00C3F30A510290401A0190402844
:100300006BDAC3F3130040F4801B0098924620B1CF
:100310000023D2EB030A63EB0B0B01985946C0F1A3
:100320004002504600F0E6F906460D465046594652
:10033000019A00F0FEF910EB08006141002487EA01
:10034000115284EAE7731A4340D0009A62B3019ACB
:10035000012A4FEA075215DC001B61EB02014FF046
:10036000004202EA0752CDE90042001C41F580112B
:1003700032462B4600F035FA03B0BDE8F08F404618
:100380002146F9E7001B61EB0201001C41F58013D7
:1003900000185B412018A2F5001747EB030140EA63
:1003A000D570B6196D4111E06D084FEA360645EA81
:1003B000C0754FEA0752001B61EB0201001C41F5BA
:1003C000801149084FEA30000019514132462B464E
:1003D00003B0BDE8F04F00F0F5B9009801224000ED
:1003E0000023D0EB020263EBE073009821464FEA52
:1003F000E074B8EB000061EB0401E9E783F000432F
:100400005BE781F0004158E72DE9FE4F81EA0304E4
:1004100004F0004421F0004100944FF0000B23F061
:10042000004350EA01045ED052EA03045BD0C3F3F8
:100430000A54C1F30A552C44A4F2F3340194A0FBEE
:100440000254C1F3130141F48011C3F3130343F4C5
:10045000801301FB024400FB034E840A970A44EA1E
:10046000815447EA8357A4FB076802958D0A05FB70
:1004700007854FEA932C04FB0C542705029D4FEA95
:10048000065847EA1637B5EB08056EEB070C870EE2
:10049000920E47EA811742EA8312A7FB0201B6EBEC
:1004A0000B0164EB00042B0D43EA0C335E1844EBA4
:1004B0001C50DA465146E7FB0201C5F313044FEA2C
:1004C0000B3343EA14534FEA0432019C43EA060318
:1004D000A4F10C040294009CCDE900B400F081F971
:1004E00003B0BDE8F08F00200146F9E72DE9F04D9B
:1004F00081EA030404F0004B21F0004514464FF05C
:10050000000A23F0004150EA050220D054EA01021B
:100510001DD0C5F30A570246C5F31303C1F31300F8
:10052000C1F30A5640F4801543F48013A7EB060884
:10053000101BD64608F2FD3873EB050002D308F114
:10054000010801E092185B41B8F1000F03DA0020C6
:100550000146BDE8F08D00204FF480110646844628
:100560000EE0171B73EB050705D3121B63EB0503A6
:1005700006434CEA010C49084FEA300092185B41EF
:1005800050EA0107EDD152EA030012D082EA0400DA
:1005900083EA0501084305D0101BAB4106D20122B6
:1005A000002306E000224FF0004302E06FF001025A
:1005B00053101AEB06004CEB085110EB0A0041EB0C
:1005C0000B01BDE8F04D00F0FDB830B5041E71F12F
:1005D000000404DB4FF00044404264EB0101141EB0
:1005E00073F1000405DB1C464FF00043524263EBFD
:1005F0000403101A8B4101D2012030BD002030BD10
:1006000030B5041E71F1000404DB4FF00044404299
:1006100064EB0101141E73F1000405DB1C464FF06E
:100620000043524263EB0403801A994101D2012036
:1006300030BD002030BD0EB5C10F80EAE070084427
:10064000CA07002140F233438DE80E000A460B46EC
:1006500000F0C7F803B000BD70B5C1F30A5201F055
:1006600000450024C1F3130140F2FF3341F480112F
:100670009A4201DA002070BD40F233439A42A2F25E
:10068000334203DC524200F044F800E090402C4337
:10069000F1D0404270BD00F0004230F000400AD07E
:1006A000C10D01F56071C0F3160042EA0151C208A4
:1006B00040071143704700200146704701F0004396
:1006C00030B421F0004150EA010206D00A0DA2F533
:1006D0006072C1F31301002A02DC30BC00207047B5
:1006E000440F44EAC104C100E01830BC00EBC25022
:1006F00000F031B8202A04DB203A00FA02F1002091
:1007000070479140C2F1200320FA03F3194390404F
:100710007047202A04DB203A21FA02F000217047BA
:1007200021FA02F3D040C2F1200291400843194659
:100730007047202A06DBCB17203A41FA02F043EA41
:10074000E07306E041FA02F3D040C2F1200291408A
:100750000843194670470029A8BF7047401C49004C
:1007600008BF20F00100704710B4B0FA80FC00FA16
:100770000CF050EA010404BF10BC704749B1CCF141
:10078000200421FA04F411FA0CF118BF01212143CD
:100790000843A3EB0C01CB1D4FEA00614FEA102088
:1007A00042BF002010BC704700EBC350104400292A
:1007B000A4BF10BC7047401C490008BF20F00100D6
:1007C00010BC704710B5141E73F1000408DA401C09
:1007D00041F1000192185B411A4301D120F0010060
:1007E00010BD2DE9F04D92469B4611B1B1FA81F250
:1007F00002E0B0FA80F220329046FFF77BFF044619
:100800000F4640EA0A0041EA0B0153465A460843A4
:1008100013D0114653EA010019D0C8F140025046E6
:10082000FFF777FF05460E46504659464246FFF70A
:1008300061FF084305D0012004E020463946BDE8A9
:10084000F08D0020054346EAE0762C4337430A98B2
:100850006305E40AA0EB08000022FD0A44EA4754BD
:100860000A3002D500200146E9E701051019694167
:10087000DDE9084500196941BDE8F04DA2E7000037
:100880002DE9F041054621F000400C46284309D0EF
:10089000C4F30A5040F23341884205DD2846214620
:1008A000BDE8F0812846FBE740F2FE31884210DCCB
:1008B0000CDB4FEA043040EA155050EA053105D010
:1008C000104804F0004101430020E9E70020014600
:1008D000E6E7A0F233404642C6F1400228462146F0
:1008E000FFF708FF07468846284621463246FFF7AD
:1008F00010FF43463A46FFF765FF3246BDE8F04138
:10090000FFF7F8BE0000F03F30B5041E71F100049F
:1009100004DB4FF00044404264EB0101141E73F10C
:10092000000405DB1C464FF00043524263EB040316
:100930008B4208BF824230BD30B5041E71F1000405
:1009400004DB4FF00044404264EB0101141E73F1DC
:10095000000405DB1C464FF00043524263EB0403E6
:10096000994208BF904230BD064C074D06E0E06852
:1009700040F0010394E8070098471034AC42F6D3E6
:10098000FFF720FC509200087092000870B58C1898
:1009900010F8015B15F0070301D110F8013B2A1193
:1009A00006D110F8012B03E010F8016B01F8016B80
:1009B0005B1EF9D12B0705D40023521E0DD401F87C
:1009C000013BFAE710F8013BCB1A921C03E013F845
:1009D000015B01F8015B521EF9D5A142D8D300207A
:1009E00070BD0000B0B540F25804C2F20004E068E7
:1009F000042102F0B9FE002855D0E068042102F07D
:100A0000AFFE40F2FA40C2F200000078012836D171
:100A1000E068002103F0F2FA40F2F045E168C2F22A
:100A2000000528800846012103F0E8FAE1686880A3
:100A30000846022103F0E2FA2988A880592932D811
:100A4000698859292FD8592888BFB0BD40F64C6015
:100A5000C2F2000040F21D11C0E903110021416003
:100A600040F6441040F2F032C2F20000C2F200023E
:100A70000068C2E90411BDE8B04006F041BB40F295
:100A8000B004C2F20004204604F094FAB4F9001055
:100A900040F21810C2F2000004F0FEFF40F63E11D2
:100AA000C2F200010880B0BDFEE700007047000000
:100AB00070B50B2888BF70BDDFE810F00C00270070
:100AC000540063008600A500E800010179012301BC
:100AD000790170010020C4F2010004F0CFFA40F265
:100AE000C040C2F200000022027040F2C34342F252
:100AF0000010C2F20003C4F2010000F55F400821BB
:100B00001A70BDE8704004F07BBF0020C4F2010001
:100B100004F0B4FA05F02CFE41F29420C2F2000079
:100B20000022028040F2F030C2F20000C0E904224C
:100B300040F2C040C2F20000027040F2C340C2F274
:100B40000000027040F2CA4040F2C243C2F200000C
:100B5000C2F200030270022010211A70BDE870403A
:100B600003F0C2BD41F29420C2F2000000210180D6
:100B700040F2C340C2F200000170BDE8704006F0D0
:100B800091BB41F29420C2F200000021018006F0E6
:100B9000CDFA06F0FBFA40F25804C2F200042046F7
:100BA00003F0B6FA204603F041FC40F2C040C2F226
:100BB00000000121017040F2C340C2F20000017048
:100BC000BDE8704006F0FABA40F2C04040F2DC42A4
:100BD000C2F200000121C2F200021278017040F25C
:100BE000C340C2F20000002A18BF0122027040F286
:100BF000CA40C2F200000021017041F29420C2F20A
:100C00000000018070BD0024C4F20104204604F0FD
:100C100035FA02200021002603F066FD42F200159D
:100C2000C4F20105284604210122012303F006F83D
:100C3000284605210222012303F000F82846062158
:100C40000322012302F0FAFFA4F57C40002106F004
:100C5000B5FE46F25800C4F20200002104F026FA64
:100C600040F2C040C2F20000067040F2C340C2F23F
:100C70000000067040F2B000C2F20000066041F2CF
:100C80008020C2F20000C0E9006670BD0020C4F2FE
:100C9000010004F0F3F940F2C040C2F2000000216C
:100CA000017040F2C340C2F20000017041F2912095
:100CB000C2F200000170BDE8704005F059BD00208F
:100CC000C4F2010004F0DAF940F2C040C2F20000C0
:100CD0000021017040F2C340C2F20000017041F2F5
:100CE0009120C2F20000017005F042FD42F20010B6
:100CF000C4F2010000F55F400821BDE8704004F037
:100D000081BE40F2C040C2F200000121017040F2F9
:100D1000C340C2F20000017040F2DF40C2F20000A6
:100D2000017040F2CA40C2F200000022027040F29C
:100D3000C24040F25804C2F20000C2F20004017046
:100D4000204603F0E5F9204603F070FB05F028F992
:100D500040F23C10C2F2000004210170042003F0B4
:100D60009BFA0024C4F201042046202106F03CFE38
:100D70002046002106F028FE2046002106F024FE31
:100D80002046012106F01AFE2046012106F016FE3B
:100D900020460121BDE8704007F0E2B805F054F9A3
:100DA00040F2C010C2F200000021A0F8421070BD55
:100DB00010B540F23A10C2F2000000780B2822D899
:100DC000DFE800F0062236395D89219721A621B19E
:100DD00041F27620C2F20000B0F9000000280CDCDD
:100DE00040F6E650C2F20000007830B140F2DE403A
:100DF000C2F200000078002874D140F2FA40C2F23A
:100E000000000021017010BD40F2DC40C2F2000081
:100E1000007800F0FE01022940F0898041F2912023
:100E2000C2F200000078012840F05B81092053E104
:100E300003F04EF9B8E040F2DC40C2F20000007866
:100E4000002800F0968041F27420C2F20000B0F950
:100E50000000072800F3948041F29420C2F20000C1
:100E6000018801310AB2B2F57A7F0180C0F29C801C
:100E700040F2FA40C2F200000121017094E040F219
:100E8000DC40C2F200000078002800F09C800428BA
:100E900000F0AE800528B6D141F29120C2F20000E8
:100EA000007841F280240028C2F2000400F0DF80C4
:100EB0002068002848BF4042632800F2DE8040F6E8
:100EC0004C60C2F20000007A002814BF6FF063008B
:100ED00064202060D1E040F64C60C2F2000040681F
:100EE000002869D140F2FA40C2F2000001210170ED
:100EF00010BD40F2F840C2F200000088002818BF80
:100F000010BD40F2FA40C2F200000021017010BD95
:100F100041F29120C2F200000078012822D1BDE800
:100F2000104000F017B9BDE8104005F043B90028A3
:100F300072D0042800F08480052840F0D28041F26D
:100F40008020C2F20000006841F291210028C2F224
:100F5000000100F088800A78012A40F0848001288E
:100F60007EDAB6E040F2B000C2F20000002141801B
:100F700022E040F2FA40C2F200000421017013E0C6
:100F800040F2FA40C2F200000421017041F29020C8
:100F9000C2F200000321017041F29420C2F200006D
:100FA0000021018006F032F841F29120C2F20000E7
:100FB000007800287FF427AF40F2FA40C2F2000028
:100FC0000521017010BD41F29120C2F200000078AD
:100FD0000028F1D040F2C341C2F20001002240F6E5
:100FE000B250C2F200000A70BDE8104005F090BB9C
:100FF00041F2912140F2DF40C2F20001C2F2000052
:1010000009780122027040F2FA400029C2F2000081
:10101000D6D00421017010BD41F29120C2F200002F
:101020000078012850D140F6B254C2F20004618920
:10103000B4F90600A18003F083FA608003204BE03E
:1010400040F2B000C2F20000B0F9020041F291217A
:10105000C2F2000138B10A78012A04D1012835DB37
:1010600004F09EFF37E000200870012034E040F2D9
:10107000FA40C2F2000005210170204603F0E0FBB7
:1010800040F64C61C2F2000160684968441A40F6BB
:101090001860C2F20000214605F050FF40F2B00196
:1010A000C2F20001488040F2B430C2F20000214692
:1010B00005F044FF41F2E421C2F20001088040F251
:1010C000DF40C2F2000020E7012005E0B0F1FF3F61
:1010D00001DC04F005FF022040F2FA41C2F20001F7
:1010E000087040F21004C2F2000494F84000012895
:1010F0007FF489AE204603F06BFD40F6E851C2F262
:101100000001204606F002F8032084F8400010BDDC
:10111000FEE7000010B542F20014C4F20104A4F589
:10112000045003F0B1FE40F2B000C2F20000012111
:1011300003F036FE40F2DE41C2F2000108702046A4
:10114000042102F00DFB204680210122BDE8104061
:1011500002F010BB40F2B24CC2F2000CBCF800101E
:1011600040F2EC42C2F20002013112888BB2B3FBB2
:10117000F2F000FB1230002818BF084640F2E841A8
:10118000C2F20001098882B28A42ACF8000017D28C
:1011900040F2EA40C2F20000B0F9001040F2B000A4
:1011A000C2F20000012941801BDB0121A0F846109A
:1011B00040F6E850C2F2000047F6FF710161704747
:1011C00040F2B000C2F200000021418040F6E85039
:1011D000C2F20000416141F2E420C2F2000001804D
:1011E0007047B1F1FF3FC8BF70474FF6FF71A0F8DD
:1011F000461040F6E8500021C2F20000C8F201019A
:1012000001617047FEE70000704700007047000072
:1012100010B5013807286CD8DFE810F008003B0053
:101220006B00A200D100660101013A0140F2744254
:10123000C2F2000241F291201278C2F200000121B4
:1012400041F2962C40F2FB4E0170A2F11001C2F265
:10125000000C0022C2F2000E8CF80010ACF8012045
:101260008CF8271007E000BF00200EF802000132C2
:10127000042A00F0758193B2002B0846F5D0022BAA
:10128000F2D0012BF0D00846022A98BF1CF80200C9
:10129000EBE740F27442C2F20002127841F291216F
:1012A00041F2962C40F2FB4EC2F200010020103AAF
:1012B000C2F2000CC2F2000E08708CF80020ACF8EC
:1012C00001008CF8272006E000210EF80010013004
:1012D000042800F0458183B2002B1146F5D0022B83
:1012E000F2D0012BF0D01146022898BF1CF8001054
:1012F000EBE740F27440C2F20000007841F2962C15
:10130000A0F12002C2F2000C0120ACF8010006207E
:101310008CF80300072050FA82F040F2FB4100EB0A
:10132000102E0023C2F200018CF800208CF827E078
:101330000AE000BF7046032B98BF1CF80300C85496
:101340000133052B00F00C819CB2002C1046F6D026
:10135000022C03D0012CEDD10120F0E70020EEE7B4
:1013600007F0F8F940F27440C2F20000007841F250
:10137000962C40F2FB4EA0F11001C2F2000C0022AC
:10138000C2F2000E8CF80010ACF801208CF8271087
:1013900007E000BF00200EF802000132042A00F02E
:1013A000DF8093B2002B0846F5D0022BF2D0012B40
:1013B000F0D00846022A98BF1CF80200EBE740F282
:1013C0007442C2F20002127840F2F84141F2962CC7
:1013D00040F2FB4EC2F200010020103AC2F2000CB3
:1013E000C2F2000E08808CF80020ACF801008CF8E6
:1013F000272006E000210EF800100130042800F03C
:10140000AF8083B2002B1146F5D0022BF2D0012B16
:10141000F0D01146022898BF1CF80010EBE740F20C
:10142000FA40C2F200000078012806D140F2100014
:10143000C2F20000012180F8401040F27440C2F274
:101440000000007841F2962C40F2FB4EA0F1100112
:10145000C2F2000C0022C2F2000E8CF80010ACF8B0
:1014600001208CF8271005E000200EF80200013260
:10147000042A75D093B2002B0846F6D0022BF3D085
:10148000012BF1D00846022A98BF1CF80200ECE7B5
:1014900040F27440C2F20000007841F2962C40F213
:1014A000FB4EA0F11001C2F2000C0022C2F2000EAD
:1014B0008CF80010ACF801208CF8271006E000BF73
:1014C00000200EF802000132042A49D093B2002B0A
:1014D0000846F6D0022BF3D0012BF1D00846022AA1
:1014E00098BF1CF80200ECE740F2FA40C2F200009C
:1014F0000178012908D140F2C011C2F20001012295
:1015000081F83D200B21017040F27440C2F20000CE
:10151000007841F2962C40F2FB4EA0F11001C2F28D
:10152000000C0022C2F2000E8CF80010ACF8012072
:101530008CF8271006E000BF00200EF802000132F0
:10154000042A0DD093B2002B0846F6D0022BF3D01C
:10155000012BF1D00846022A98BF1CF80200ECE7E4
:1015600040F2C440C2F200000121017010BD000031
:101570000138C82800F25D81DFE810F0C900CE0014
:10158000D500DC00E500EE00F700000109011201C2
:101590001B0124012A01310138013E0147014D019F
:1015A00054015B015B015B015B015B016C0172013A
:1015B0005B015B0177017D015B0186018D01940177
:1015C0009B01A201AB01B401BD01C601CF015B01CA
:1015D0005B015B015B015B015B015B015B015B012B
:1015E0005B015B015B015B015B01D8015B015B019E
:1015F0005B015B015B015B015B015B015B015B010B
:101600005B015B015B015B015B015B015B015B01FA
:101610005B015B015B015B015B015B015B015B01EA
:101620005B015B015B01E101E8015B015B015B01C7
:101630005B015B015B015B015B015B015B015B01CA
:101640005B015B015B015B015B015B015B015B01BA
:101650005B015B01EF01F501FC01030208020F02CF
:101660001802210227022D0233023A0241024A02E5
:1016700050025B015702600266026D025B015B0172
:1016800074025B015B0182025B015B015B015B0138
:101690005B015B015B015B015B015B015B015B016A
:1016A0005B015B015B015B015B015B015B015B015A
:1016B0005B015B015B015B015B015B015B015B014A
:1016C0005B015B015B015B015B015B015B015B013A
:1016D0005B015B015B015B015B015B015B015B012A
:1016E0005B015B015B015B015B015B015B015B011A
:1016F0005B015B015B015B015B015B015B015B010A
:101700005B015B015B015B015B018F0296024FF69F
:101710000040C0F601005CE14FF60040C0F6010059
:1017200000F10802A4E14FF60040C0F6010000F10C
:101730000C02AAE141F2962040F2EA42C2F2000015
:10174000C2F2000298E141F2962040F2EC42C2F26D
:101750000000C2F200028FE141F2962040F2E8421E
:10176000C2F20000C2F2000286E141F2962040F28D
:10177000FA42C2F20000C2F200028AE141F296206F
:1017800040F2DC42C2F20000C2F2000281E141F20A
:10179000962040F2DD42C2F20000C2F2000278E17F
:1017A00041F2962041F28022C2F20000C2F2000211
:1017B00084E141F2962040F61862C2F20000C2F2C3
:1017C000000259E140F61860C2F20000821C4FE1AD
:1017D00040F61860C2F2000000F1200248E140F635
:1017E0001860C2F2000000F1220241E140F2B000B4
:1017F000C2F20000821C3BE141F2962040F6E85222
:10180000C2F20000C2F2000236E140F6E850C2F235
:101810000000821C2CE140F6E850C2F2000000F10A
:10182000200225E140F6E850C2F2000000F1220259
:101830001EE180B582B003208DF8070041F29620AA
:10184000C2F200000DF10702E021082301F038FC8C
:1018500002B080BD41F2BE20C2F20000821D07E14D
:1018600041F2BE20C2F20000B3E040F64C60C2F28A
:101870000000021D1EE141F2962040F2B002C2F2C9
:101880000000C2F20002F7E04FF60040C0F601008F
:1018900000F180020EE14FF60040C0F6010000F1B9
:1018A000840207E141F28020C2F2000000F1080248
:1018B000DEE041F28020C2F2000000F10A02D7E02F
:1018C00041F2962040F64812C2F20000C2F2000235
:1018D000D2E041F2962040F64A12C2F20000C2F273
:1018E0000002C9E041F2962041F28C22C2F20000CF
:1018F000C2F20002C0E041F2962041F28E22C2F212
:101900000000C2F20002B7E041F2962041F2EC2260
:10191000C2F20000C2F20002AEE041F2962041F2B3
:10192000EA22C2F20000C2F20002A5E041F29620D3
:1019300040F2F842C2F20000C2F200029CE040F223
:101940005800C2F2000000F1320291E040F258006B
:10195000C2F2000000F134028AE040F6B250C2F256
:101960000000821D84E040F6B250C2F2000000F197
:1019700008027DE040F6B250C2F2000000F10C0215
:1019800076E040F6B250C2F200006FE040F6B2508E
:10199000C2F2000000F110026AE041F2962041F22A
:1019A0009222C2F20000C2F2000265E041F29620EB
:1019B00040F62C12C2F20000C2F200025CE040F6D7
:1019C0002C10C2F20000821C52E040F62C10C2F231
:1019D0000000021D4CE040F62C10C2F20000821DF7
:1019E00046E040F62C10C2F2000000F108023FE091
:1019F00040F62C10C2F2000000F10A0238E041F279
:101A0000962040F27412C2F20000C2F2000240E0DE
:101A100040F27410C2F20000C21C36E040F2C01066
:101A2000C2F2000000F13D022FE041F2962040F2A8
:101A3000B432C2F20000C2F200021DE040F2B43043
:101A4000C2F20000821C13E040F2B430C2F2000087
:101A500000F120020CE040F2B430C2F2000000F1CC
:101A6000220205E041F2BE20C2F2000000F11202A3
:101A700041F29620C2F20000F021102301F020BBB9
:101A800040F2B430C2F20000821C41F29620C2F251
:101A90000000F021082301F013BB40F2C010C2F295
:101AA000000000F1140205E040F2C010C2F2000094
:101AB00000F1180241F29620C2F20000F02120232A
:101AC00001F0FEBA70B5014600780138052854D8F7
:101AD000DFE800F003868B900F9541F29620C2F26A
:101AE0000000F02100224FF48073BDE8704001F047
:101AF000E7BA8878C97840F2B54440F2B442C2F2FD
:101B00000004C2F20002217000211070002500F0D4
:101B1000EDF82178044608460121012600F0E6F898
:101B200000EA040140F27440C2F20000007801298A
:101B300040F0A88041F2962140F2FB421038C2F2F8
:101B40000001C2F200020870A1F8015081F82700DC
:101B500006E000BF002353550135042D00F0BF807F
:101B6000AEB2002E0346F6D0022EF3D0012EF1D0F5
:101B70000346022D98BF4B5DEDE740F27440C2F280
:101B80000000007841F29621A0F12004C2F2000189
:101B90000120A1F80100C870022050FA84F040F240
:101BA000FB4500EB10220023C2F200050C7081F807
:101BB000272008E01046032B98BFC85CE854013387
:101BC000052B00F08C809EB2002E2046F6D0022E0F
:101BD00004D0012EEED10120F0E700BF0020EDE798
:101BE0008878BDE87040FFF713BB8878BDE8704087
:101BF000FFF7BEBC8878BDE8704000F05BB940F2EA
:101C0000744240F2B541C2F2000240F2B440C2F266
:101C100000011278C2F200000E7841F2962100789D
:101C2000A2F11004C2F2000102228B1C52FA84F5C8
:101C30000C70A1F80120C8700E7100BF13F8010FDD
:101C4000013A10FA85F5F9D105EB152240F2FB4572
:101C50000023C2F2000581F8272007E01046042B7C
:101C600098BFC85CE8540133062B38D09EB2002ED2
:101C70002046F7D0022E03D0012EEFD10220F1E74B
:101C80000020EFE741F29621A0F12004C2F200010A
:101C90000320C870042050FA84F040F2FB4500EBAA
:101CA00010220023C2F200050C70A1F8016081F837
:101CB000272004E00020E8540133052B0FD09EB20A
:101CC000002E2046F7D0022EF4D0012E02D10120A2
:101CD000F1E700BF1046032B98BFC85CEBE740F26A
:101CE000C440C2F200000121017070BD10B50F3870
:101CF0004D2800F25980DFE810F04E0057005700E1
:101D000057005700570057005700570057008D00E5
:101D10009700570057005700A10057005700570081
:101D200057005700570057005700570057005700FB
:101D300057005700570057005700570057005700EB
:101D400057005700570057005700570057005700DB
:101D500057005700570057005700570057005700CB
:101D600057005700570057005700570057005700BB
:101D700057005700570057005700570057005700AB
:101D80005700570057005700570057005700AA0048
:101D9000B400BD00C70040F64C1040F2B002C2F2E1
:101DA0000000C2F200025AE040F27440C2F20000A9
:101DB000007841F2962CA0F12002C2F2000C012022
:101DC000ACF8010003208CF80300042050FA82F0E4
:101DD00040F2FB4100EB102E0023C2F200018CF810
:101DE00000208CF827E008E07046032B98BF1CF811
:101DF0000300C8540133052B53D09CB2002C10466D
:101E0000F7D0022C04D0012CEED10120F1E700BF65
:101E10000020EEE741F2BE2240F64C10C2F2000272
:101E2000C2F20000063238E041F2BE2240F64C1009
:101E3000C2F20002C2F2000004322EE040F64C1062
:101E400040F2B002C2F20000C2F2000225E040F609
:101E50004C1041F2BE22C2F20000C2F20002023275
:101E60001BE040F64C1041F2BE22C2F20000C2F26A
:101E7000000212E041F2BE2240F64C10C2F2000213
:101E8000C2F200000C3208E041F2BE2240F64C10D3
:101E9000C2F20002C2F200000E3240F821200120FE
:101EA00010BD40F2C440C2F20000012101700020C8
:101EB00010BD000010B582B004387C2800F21B81F0
:101EC000DFE810F07D00B100E50019015201850145
:101ED000B701EB011F0253028702C302DD021103A7
:101EE0004503790319011901190119011901190192
:101EF000190119018F071901190119011901190196
:101F0000B503E9031D0453048904BD04F104250548
:101F100019011901190119011901190119011901F1
:101F200019011901190119011901190119011901E1
:101F300019011901190119011901190119011901D1
:101F400019011901190119011901190119011901C1
:101F500019011901190119011901190119011901B1
:101F6000190119011901190159058D0519011901E5
:101F70001901190119011901190119011901190191
:101F80001901190119011901190119011901190181
:101F9000190119011901C105F50519064D0671064A
:101FA00085061901190119011901190119011901F0
:101FB000190119011901B906ED062107550740F26B
:101FC0007442C2F20002B1F8030040F2EA41127812
:101FD000C2F2000141F2962C40F2FB4E0880A2F1C1
:101FE0001001C2F2000C0022C2F2000E8CF80010A8
:101FF000ACF801208CF8271007E000BF00200EF895
:1020000002000132042A00F0858793B2002B0846B3
:10201000F5D0022BF2D0012BF0D00846022A98BF4F
:102020001CF80200EBE740F27442C2F20002B1F881
:10203000030040F2EC411278C2F2000141F2962C0A
:1020400040F2FB4E0880A2F11001C2F2000C002207
:10205000C2F2000E8CF80010ACF801208CF82710AA
:1020600007E000BF00200EF802000132042A00F051
:10207000518793B2002B0846F5D0022BF2D0012BEA
:10208000F0D00846022A98BF1CF80200EBE740F2A5
:102090007442C2F20002B1F8030040F2E841127843
:1020A000C2F2000141F2962C40F2FB4E0880A2F1F0
:1020B0001001C2F2000C0022C2F2000E8CF80010D7
:1020C000ACF801208CF8271007E000BF00200EF8C4
:1020D00002000132042A00F01D8793B2002B08464B
:1020E000F5D0022BF2D0012BF0D00846022A98BF7F
:1020F0001CF80200EBE740F27441C2F200010978DB
:1021000041F2962C0320C2F2000C8DF80700A1F1D9
:10211000200201218CF803000420ACF8011050FAD1
:1021200082F040F2FB4100EB102E0023C2F20001CE
:102130008CF800208CF827E00AE000BF7046032BE3
:1021400098BF1CF80300C8540133052B00F04386E8
:102150009CB2002C1046F6D0022C03D0012CEDD1FD
:102160000120F0E70020EEE740F27442C2F20002E4
:10217000C87840F2DC411278C2F2000141F2962C9C
:1021800040F2FB4E0870A2F11001C2F2000C0022D6
:10219000C2F2000E8CF80010ACF801208CF8271069
:1021A00007E000BF00200EF802000132042A00F010
:1021B000B18693B2002B0846F5D0022BF2D0012B4A
:1021C000F0D00846022A98BF1CF80200EBE740F264
:1021D0007442C2F20002C87840F2DD411278C2F2C5
:1021E000000141F2962C40F2FB4E0870A2F1100162
:1021F000C2F2000C0022C2F2000E8CF80010ACF803
:1022000001208CF8271006E000200EF802000132B1
:10221000042A00F07F8693B2002B0846F5D0022BEB
:10222000F2D0012BF0D00846022A98BF1CF8020019
:10223000EBE740F27442C2F20002D1F8030041F22F
:1022400080211278C2F2000141F2962C40F2FB4E3E
:102250000860A2F11001C2F2000C0022C2F2000ECE
:102260008CF80010ACF801208CF8271007E000BFB4
:1022700000200EF802000132042A00F04B8693B2CF
:10228000002B0846F5D0022BF2D0012BF0D00846E7
:10229000022A98BF1CF80200EBE740F27442C2F237
:1022A0000002B1F8030040F618611278C2F2000192
:1022B00041F2962C40F2FB4E0880A2F11001C2F2CE
:1022C000000C0022C2F2000E8CF80010ACF80120C5
:1022D0008CF8271007E000BF00200EF80200013242
:1022E000042A00F0178693B2002B0846F5D0022B83
:1022F000F2D0012BF0D00846022A98BF1CF8020049
:10230000EBE740F27442C2F20002B1F8030040F67B
:1023100018611278C2F2000141F2962C40F2FB4E95
:102320004880A2F11001C2F2000C0022C2F2000E9D
:102330008CF80010ACF801208CF8271007E000BFE3
:1023400000200EF802000132042A00F0E38593B267
:10235000002B0846F5D0022BF2D0012BF0D0084616
:10236000022A98BF1CF80200EBE740F27442C2F266
:102370000002B1F8030040F618611278C2F20001C1
:1023800041F2962C40F2FB4E0884A2F11001C2F2F9
:10239000000C0022C2F2000E8CF80010ACF80120F4
:1023A0008CF8271007E000BF00200EF80200013271
:1023B000042A00F0AF8593B2002B0846F5D0022B1B
:1023C000F2D0012BF0D00846022A98BF1CF8020078
:1023D000EBE7B1F8030040F61861C2F20001B1F971
:1023E0001020B1F9123082408A6040F27442C2F289
:1023F00000021278488403FA00F041F2962C40F271
:10240000FB4EC860A2F11001C2F2000C0022C2F221
:10241000000E8CF80010ACF801208CF8271006E0B4
:1024200000200EF802000132042A00F0738593B2F6
:10243000002B0846F5D0022BF2D0012BF0D0084635
:10244000022A98BF1CF80200EBE7B1F803C042F67D
:102450004660ACEB00004AF27431884200F2C3845B
:1024600005208DF8070041F29620C2F200000DF120
:102470000702E021082300F023FE02B010BDB1F9ED
:10248000031040F6E850C2F2000004F08DFD40F267
:102490007440C2F20000007841F2962C40F2FB4EEC
:1024A000A0F11001C2F2000C0022C2F2000E8CF862
:1024B0000010ACF801208CF8271006E000200EF880
:1024C00002000132042A00F0258593B2002B084651
:1024D000F5D0022BF2D0012BF0D00846022A98BF8B
:1024E0001CF80200EBE7B1F9031040F6E850C2F225
:1024F000000004F057FD40F27440C2F20000007882
:1025000041F2962C40F2FB4EA0F11001C2F2000CF9
:102510000022C2F2000E8CF80010ACF801208CF8FA
:10252000271006E000200EF802000132042A00F015
:10253000F18493B2002B0846F5D0022BF2D0012B88
:10254000F0D00846022A98BF1CF80200EBE740F2E0
:102550007442C2F20002B1F8030040F6E85112786A
:10256000C2F2000141F2962C40F2FB4E0884A2F127
:102570001001C2F2000C0022C2F2000E8CF8001012
:10258000ACF801208CF8271007E000BF00200EF8FF
:1025900002000132042A00F0BD8493B2002B0846E9
:1025A000F5D0022BF2D0012BF0D00846022A98BFBA
:1025B0001CF80200EBE7B1F8030040F6E851C2F264
:1025C0000001B1F91020B1F9123082408A6040F266
:1025D0007442C2F200021278488403FA00F041F219
:1025E000962C40F2FB4EC860A2F11001C2F2000C22
:1025F0000022C2F2000E8CF80010ACF801208CF81A
:10260000271006E000200EF802000132042A00F034
:10261000818493B2002B0846F5D0022BF2D0012B17
:10262000F0D00846022A98BF1CF80200EBE740F2FF
:102630007442C2F20002B1F8030041F28021127824
:10264000C2F2000141F2962C40F2FB4E0881A2F149
:102650001001C2F2000C0022C2F2000E8CF8001031
:10266000ACF801208CF8271007E000BF00200EF81E
:1026700002000132042A00F04D8493B2002B084678
:10268000F5D0022BF2D0012BF0D00846022A98BFD9
:102690001CF80200EBE740F27442C2F20002B1F80B
:1026A000030041F280211278C2F2000141F2962C1F
:1026B00040F2FB4E4881A2F11001C2F2000C002250
:1026C000C2F2000E8CF80010ACF801208CF8271034
:1026D00007E000BF00200EF802000132042A00F0DB
:1026E000198493B2002B0846F5D0022BF2D0012BAF
:1026F000F0D00846022A98BF1CF80200EBE7B1F8B8
:10270000030040F61861C2F200014A8C0882904032
:1027100040F27442C2F20002127841F2962C40F26A
:10272000FB4E8860A2F11001C2F2000C0022C2F23E
:10273000000E8CF80010ACF801208CF8271006E091
:1027400000200EF802000132042A00F0E38393B265
:10275000002B0846F5D0022BF2D0012BF0D0084612
:10276000022A98BF1CF80200EBE740F61860C2F29C
:102770000000B1F90310428C4182914040F2744252
:10278000C2F20002127841F2962C40F2FB4EC16078
:10279000A2F11001C2F2000C0022C2F2000E8CF86D
:1027A0000010ACF801208CF8271006E000200EF88D
:1027B00002000132042A00F0AD8393B2002B0846D8
:1027C000F5D0022BF2D0012BF0D00846022A98BF98
:1027D0001CF80200EBE740F27442C2F20002B1F8CA
:1027E000030041F28C211278C2F2000141F2962CD2
:1027F00040F2FB4E0880A2F11001C2F2000C002250
:10280000C2F2000E8CF80010ACF801208CF82710F2
:1028100007E000BF00200EF802000132042A00F099
:10282000798393B2002B0846F5D0022BF2D0012B0E
:10283000F0D00846022A98BF1CF80200EBE740F2ED
:102840007442C2F20002B1F8030041F28E21127804
:10285000C2F2000141F2962C40F2FB4E0880A2F138
:102860001001C2F2000C0022C2F2000E8CF800101F
:10287000ACF801208CF8271007E000BF00200EF80C
:1028800002000132042A00F0458393B2002B08466F
:10289000F5D0022BF2D0012BF0D00846022A98BFC7
:1028A0001CF80200EBE740F27442C2F20002B1F8F9
:1028B000030041F2EC211278C2F2000141F2962CA1
:1028C00040F2FB4E0880A2F11001C2F2000C00227F
:1028D000C2F2000E8CF80010ACF801208CF8271022
:1028E00007E000BF00200EF802000132042A00F0C9
:1028F000118393B2002B0846F5D0022BF2D0012BA6
:10290000F0D00846022A98BF1CF80200EBE740F21C
:102910007442C2F20002B1F8030041F2EA211278D7
:10292000C2F2000141F2962C40F2FB4E0880A2F167
:102930001001C2F2000C0022C2F2000E8CF800104E
:10294000ACF801208CF8271007E000BF00200EF83B
:1029500002000132042A00F0DD8293B2002B084607
:10296000F5D0022BF2D0012BF0D00846022A98BFF6
:102970001CF80200EBE740F27442C2F20002B1F828
:10298000030040F258011278C2F2000141F2962C85
:1029900040F2FB4E4886A2F11001C2F2000C002268
:1029A000C2F2000E8CF80010ACF801208CF8271051
:1029B00007E000BF00200EF802000132042A00F0F8
:1029C000A98293B2002B0846F5D0022BF2D0012B3E
:1029D000F0D00846022A98BF1CF80200EBE740F24C
:1029E0007442C2F20002B1F8030040F258011278BA
:1029F000C2F2000141F2962C40F2FB4E8886A2F111
:102A00001001C2F2000C0022C2F2000E8CF800107D
:102A1000ACF801208CF8271007E000BF00200EF86A
:102A200002000132042A00F0758293B2002B08469E
:102A3000F5D0022BF2D0012BF0D00846022A98BF25
:102A40001CF80200EBE740F27442C2F20002B1F857
:102A5000030040F6B2511278C2F2000141F2962C06
:102A600040F2FB4EC880A2F11001C2F2000C00221D
:102A7000C2F2000E8CF80010ACF801208CF8271080
:102A800007E000BF00200EF802000132042A00F027
:102A9000418293B2002B0846F5D0022BF2D0012BD5
:102AA000F0D00846022A98BF1CF80200EBE7B1F903
:102AB000030040F64051C0F2030191FBF0F142F2F5
:102AC000934340F6B252C9F24923C2F2000253FBCB
:102AD0000111B2F910301081881000EBD171002B78
:102AE0004FF00000518100F09081948A091B09B2D7
:102AF00091FBF3F18AE140F27442C2F20002B1F8B4
:102B0000030040F6B2511278C2F2000141F2962C55
:102B100040F2FB4E8881A2F11001C2F2000C0022AB
:102B2000C2F2000E8CF80010ACF801208CF82710CF
:102B300007E000BF00200EF802000132042A00F076
:102B4000E98193B2002B0846F5D0022BF2D0012B7D
:102B5000F0D00846022A98BF1CF80200EBE7B1F952
:102B6000030040F64051C0F2030191FBF0F142F244
:102B7000934340F6B252C9F24923C2F2000253FB1A
:102B80000111B2F910305082881000EBD171002B86
:102B90004FF00000918200F065815489611A09B2FA
:102BA00091FBF3F15FE1B1F8032040F6B251C2F2BC
:102BB0000001002A4FF000000A8200F07F814B895B
:102BC0008C8A12B21B1B1BB293FBF2F277E140F22C
:102BD0007442C2F20002B1F8030041F2922112786D
:102BE000C2F2000141F2962C40F2FB4E0880A2F1A5
:102BF0001001C2F2000C0022C2F2000E8CF800108C
:102C0000ACF801208CF8271007E000BF00200EF878
:102C100002000132042A00F07D8193B2002B0846A5
:102C2000F5D0022BF2D0012BF0D00846022A98BF33
:102C30001CF80200EBE740F27442C2F20002B1F865
:102C4000030040F2B4311278C2F2000141F2962C36
:102C500040F2FB4E0880A2F11001C2F2000C0022EB
:102C6000C2F2000E8CF80010ACF801208CF827108E
:102C700007E000BF00200EF802000132042A00F035
:102C8000498193B2002B0846F5D0022BF2D0012BDC
:102C9000F0D00846022A98BF1CF80200EBE740F289
:102CA0007442C2F20002B1F8030040F2B43112786B
:102CB000C2F2000141F2962C40F2FB4E4880A2F194
:102CC0001001C2F2000C0022C2F2000E8CF80010BB
:102CD000ACF801208CF8271007E000BF00200EF8A8
:102CE00002000132042A00F0158193B2002B08463D
:102CF000F5D0022BF2D0012BF0D00846022A98BF63
:102D00001CF80200EBE740F27442C2F20002B1F894
:102D1000030040F2B4311278C2F2000141F2962C65
:102D200040F2FB4E0884A2F11001C2F2000C002216
:102D3000C2F2000E8CF80010ACF801208CF82710BD
:102D400007E000BF00200EF802000132042A00F064
:102D5000E18093B2002B0846F5D0022BF2D0012B74
:102D6000F0D00846022A98BF1CF80200EBE740F2B8
:102D70007442C2F20002B1F8030040F2B43112789A
:102D8000C2F2000141F2962C40F2FB4E4884A2F1BF
:102D90001001C2F2000C0022C2F2000E8CF80010EA
:102DA000ACF801208CF8271007E000BF00200EF8D7
:102DB00002000132042A00F0AD8093B2002B0846D5
:102DC000F5D0022BF2D0012BF0D00846022A98BF92
:102DD0001CF80200EBE740F2C440C2F200000121FF
:102DE000017002B010BD40F2B004C2F2000441F222
:102DF0009620C2F20000F02100220023A4F802C0B5
:102E000002B0BDE8104000F05BB9002140F274430D
:102E1000C2F200031B7841F2962C40F2FB4ED181A6
:102E2000A3F11002C2F2000CC2F2000E8CF80020D6
:102E3000ACF801008CF8272006E000BF00210EF856
:102E400000100130042865D083B2002B1146F6D063
:102E5000022BF3D0012BF1D01146022898BF1CF8A9
:102E60000010ECE7002140F27443C2F200031B782B
:102E700041F2962C40F2FB4ED181A3F11002C2F236
:102E8000000CC2F2000E8CF80020ACF801008CF8A7
:102E9000272005E000210EF800100130042839D069
:102EA00083B2002B1146F6D0022BF3D0012BF1D0C8
:102EB0001146022898BF1CF80010ECE7002240F2EF
:102EC0007443C2F200031B7841F2962C40F2FB4E91
:102ED000CA81A3F11002C2F2000CC2F2000E8CF8FB
:102EE0000020ACF801008CF8272005E000210EF846
:102EF0000010013004280DD083B2002B1146F6D00B
:102F0000022BF3D0012BF1D01146022898BF1CF8F8
:102F10000010ECE740F2C440C2F200000121017051
:102F200002B010BD70470000B0B540F2DD40C2F203
:102F300000000078012808BF02F0DAF940F23A10E8
:102F4000C2F200000078FDF733FF40F2BA44C2F24B
:102F50000004608844F2F4214BF24042C2F67351FF
:102F6000CFF6FC7200FB021040F63C1141F2BE2588
:102F7000000CC2F20001C2F200050880A880B4F97A
:102F8000000001F0DDFA40F63811C2F200010968D4
:102F90004DF20222C0F201025143C90B298041F2D5
:102FA0008021C2F20001496800EE100A9FED271A45
:102FB0005143B8EEC00AC90B20EE010A6980BDEE8C
:102FC000C00A40F25801E88010EE100AC2F2000177
:102FD0008A8EC886498E024441F2E623084441F2B3
:102FE000E821C2F20003C2F200011A8008802088A2
:102FF00040F64B21884240F2F840C2F2000001D274
:10300000022105E0218840F69662914209D3012110
:1030100040F23812C2F200021288038811401943AC
:103020000180008828B140F2FA40C2F20000072176
:10303000017040F2B6400021C2F20000C4F2020169
:103040000422BDE8B04003F075B900BF68A83C3E5B
:103050004EF68850CEF20000026843F6000142F4BA
:103060007002C4F2020102600A6842F001020A60C2
:103070000A689207FCD58A6822F003028A6000BFC2
:103080008A6812F00C0FFBD14FF080428A600A6808
:103090004FF6FF73CFF6F2631A400A6043F2020262
:1030A000C0F203024A604FF47122C1F8A0204FF42D
:1030B0001F02CA604FF0006140F8801C704700009A
:1030C000F0B540F27447C2F200073F78DC0807EB26
:1030D000010E8446DD0A01464FEAF3030CF8014F66
:1030E0000A2B01F8025F80F800E00FD8DFE803F058
:1030F0003D06090E200E0E0E0E0E29001278C2702B
:1031000033E01378C370527802712EE049F22E2317
:10311000C21C0026C0F600031F78092F25D002F834
:10312000017B1C2E06F1010603F10103F4D31CE020
:103130001378C3705378037193784371D278827196
:1031400013E013784371537883719378C371D37804
:1031500003721379C3705379037193794372D379EE
:103160008372137AC372527A0273E2B242EA052280
:1031700055FA84F353FA8EF352B10025002600BFAE
:103180004719FF780136F5B2AA4217FA83F3F7D848
:1031900003EB1327034640F2FB4503F8277F02F1B8
:1031A000030E04320024C2F2000504E036782E55E6
:1031B0000134A2420ED0A7B2022F0E46F6D0012F44
:1031C0006646F3D0002F0646F0D01E46744538BF41
:1031D0000619EBE740F2C440C2F200000121017081
:1031E000F0BD000080B50020C4F2010001690906AD
:1031F00044BFC1685FEA016100D480BD802104F052
:10320000F7FB40F23810C2F2000040F2F8410088AB
:10321000C2F200010A8800F008001043088080BD57
:1032200010B50024C4F201042046022104F0E4FB9E
:10323000002808BF10BD2046022104F0D9FB40F24F
:103240005800C2F2000040F2B04190F83C00C2F2D7
:103250000001097880F0010041F218420843C4F2ED
:1032600002024FF4807008BF1032106010BD0000E1
:1032700070B50C20C4F201004168C9071CBF00688A
:103280005FEAC07000D170BD40F20044C4F2000497
:1032900004F57C452846012104F0AAFB42F2000017
:1032A000C4F20100012100F0B5FC40F2C016C2F2E8
:1032B000000696F83D0001280ED196F83C00012842
:1032C00005D140F2C010C2F2000003F0ADFDB28E95
:1032D0002846062104F0FEFA40F2C040C2F2000087
:1032E000007801287AD140F2C340C2F20000007891
:1032F00041F2E4250128C2F200051ED140F2DF4070
:10330000C2F200000078012826D140F2CA40C2F281
:1033100000000078012827D140F2B000C2F200007E
:10332000B0F90010B0F90400411A40F6E850C2F2BA
:10333000000003F003FE288031E040F23C1040F62C
:10334000B25140F64C62C2F20000C2F20001C2F279
:10335000000200F02DFF22E040F6E851C2F2000129
:10336000B5F900004A8C18E040F2B00040F63E117A
:10337000C2F20000C2F20001B0F90200B1F900107F
:10338000411A40F6E850C2F2000003F0D7FD40F2C7
:10339000B431C2F200014A8C2880904048612888EC
:1033A00040F6486501B280EAE130A0EBE13080B23E
:1033B00042F229314843C00BC2F20005288003F0D5
:1033C00013FEB5F9001040F25805C2F20005284678
:1033D00001F0C0F8B5F914006968086440F64C655E
:1033E000C2F20005284601F0F5F840F2EE40C2F2C4
:1033F0000000007801280CD028682969814208D98A
:103400002046042104F0F4FA20460421012204F0AD
:10341000E7FB40F2B844C2F200042078411C41F2BC
:10342000BE20C2F20000027C4BB293422170B8BFB2
:1034300070BD40F2B001C2F2000109684FEA3141AB
:10344000C16005F067F80020207070BD10B544F62B
:103450000004C4F201042046012104F0CDFA002842
:1034600008BF10BD2046012104F0C2FA2046002109
:1034700004F0A4FA41F29020C2F20000017802297F
:1034800004D0012909D10221017006E041F2742023
:10349000C2F2000001880131018040F2C340C2F253
:1034A0000000007858B340F25800C2F20000022138
:1034B0004187A4F59040202104F096FA40F23C1098
:1034C00040F64C62C2F20000C2F200028178136939
:1034D000017003EB5300106049F2E81049F2EF125B
:1034E000C0F60000C0F60002405C525C40F2C541EC
:1034F000C2F2000148700220CA7001F051F940F296
:10350000F640C2F200000021018040F2C140C2F248
:1035100000000122027040F2C240C2F200000170BD
:1035200040F2EE40C2F20000017010BD10B540F252
:103530000044C4F200042046042104F05DFA00288F
:1035400008BF10BD2046042104F052FA2046042191
:10355000002204F045FB40F23C10C2F2000040F2B1
:10356000EE4201784378C2F20002012499421470BD
:1035700018BF417040F23C1040F2580140F64C62D6
:10358000C2F20000C2F20001C2F20002BDE8104027
:1035900000F0ACBEB0B582B041F20005C4F2010546
:1035A0002846102105F054F8E8B346F230042846C6
:1035B0001021C4F2020405F035F82046002101F084
:1035C00075FD204601F078FD41F2D822C2F20002DA
:1035D000157841F2D221C0F10C03C2F20001412D55
:1035E0000B8009D15278C0F1090083B29342488020
:1035F00004D104F00BFF0EE00B2000E00C208DF84E
:10360000070041F29620C2F200000DF10702E0210E
:103610000823FFF755FD20460C2101F051FD2046FF
:10362000012101F043FD02B0B0BD0000FEE7000043
:103630000A78436802F0010223F4807343EA02220D
:1036400042604A78836862F3410383608A788368C2
:1036500002F0010223F4006343EAC2228260C978C7
:10366000C26A013901F00F0122F4700242EA0151ED
:10367000C16270474FF0807101607047816841F00E
:1036800008018160704700008068C0F3C000704787
:10369000816841F004018160704700008068C0F3D8
:1036A0008000704742F20431C4F2010102780B68D5
:1036B00062F304030B6042780B6802F00F0223F4FC
:1036C000702343EA02420A6082780B6802F0040227
:1036D00023F0805343EA82620A6082780B6802F02A
:1036E000030223F4404343EA82320A60C2780B6843
:1036F00002F0010223F4005343EA42320A600279E5
:103700000B6802F00F0223F4706343EA02220A609E
:1037100040790A6800F0010022F4000242EAC05039
:10372000086070470021818001607047826801F065
:10373000010122F4807242EA012181607047000099
:10374000826801F0010122F4007242EA41218160A5
:1037500070470000826861F30002826070470000D9
:10376000C9430160704700000068084018BF01208D
:103770007047000032B1012A18BF704742681143F8
:1037800041607047426822EA0101416070470000D1
:1037900080B51A2900F2FF80DFE811F01B0022003B
:1037A0002C00360040004A0054005E0068007200A1
:1037B0007C0083008D00FD009700A100AB00B500E8
:1037C000FD00BF00C900D000D900E200EB00FD0001
:1037D000F400D0F810C063F3020CC0F810C0DAE0B7
:1037E000D0F810C003F0070E2CF0380343EACE03E4
:1037F0000361D0E0D0F810C003F0070E2CF4E073A2
:1038000043EA8E130361C6E0D0F810C003F0070E40
:103810002CF4606343EA4E230361BCE0D0F810C08F
:1038200003F0070E2CF4E04343EA0E330361B2E0E9
:10383000D0F810C003F0070E2CF4603343EACE3307
:103840000361A8E0D0F810C003F0070E2CF4E013D9
:1038500043EA8E4303619EE0D0F810C003F0070EE8
:103860002CF4600343EA4E53036194E0D0F810C097
:1038700003F0070E2CF0E06343EA0E6303618AE075
:10388000D0F810C003F0070E2CF0605343EACE636B
:10389000036180E0D0F80CC063F3020CC0F80CC0E8
:1038A00079E0D0F80CC003F0070E2CF0380343EA9F
:1038B000CE03C3606FE0D0F80CC003F0070E2CF409
:1038C000E07343EA8E13C36065E0D0F80CC003F0E8
:1038D000070E2CF4E04343EA0E33C3605BE0D0F8FC
:1038E0000CC003F0070E2CF4603343EACE33C36000
:1038F00051E0D0F80CC003F0070E2CF4E01343EABB
:103900008E43C36047E0D0F80CC003F0070E2CF4E0
:10391000600343EA4E53C3603DE0D0F80CC003F0AF
:10392000070E2CF0605343EACE63C36033E0D0F857
:1039300050C063F3020CC0F850C02CE0D0F850C067
:1039400003F0070E2CF0380343EACE0322E0D0F850
:1039500050C003F0070E2CF4E07343EA8E1319E015
:10396000D0F850C003F0070E2CF4606343EA4E23F6
:1039700010E0D0F850C003F0070E2CF4E04343EA07
:103980000E3307E0D0F850C003F0070E2CF4E0131C
:1039900043EA8E430365013A0F2A88BF80BDDFE802
:1039A00002F0080D12171C21262B30353A3F4449EE
:1039B0004E53426B61F30402426380BD426B61F37C
:1039C0004912426380BD426B61F38E22426380BD27
:1039D000426B61F3D332426380BD426B61F3185294
:1039E000426380BD426B61F35D62426380BD026BE6
:1039F00061F30402026380BD026B61F3491202634A
:103A000080BD026B61F38E22026380BD026B61F3A5
:103A1000D332026380BD026B61F31852026380BD32
:103A2000026B61F35D62026380BDC26A61F30402EE
:103A3000C26280BDC26A61F34912C26280BDC26ABD
:103A400061F38E22C26280BDC26A61F3D332C26268
:103A500080BD00002DE9F0438BB042F20005C4F2B6
:103A6000010546F20808002428460021C4F2020895
:103A7000CDE90844FFF76EFE06AE3046FFF752FE72
:103A80004FF480693046ADF818908DF81D40FFF76F
:103A900009FE0820C0F244000121012701F008F8C6
:103AA0004FF44010012101F003F80526C0F2300662
:103AB0003046012100F0FCFF3046012100F0F8FF04
:103AC00006F11100012100F0F3FF08AE304601F0CD
:103AD0004FFE03208DF8260005F560403146ADF815
:103AE0002470089701F04CFE05F5744738463146BE
:103AF000CDF8209001F044FE4FF4805008903846F5
:103B0000314601F03DFE404601F038FB6E4630463E
:103B100001F0D8FA0320C0F20010CDF80A0040F2FC
:103B2000BA40C2F20000019005F14C00009040F252
:103B30000110C0F20120CDF80E0040463146ADF82C
:103B4000084001F0D3FA05AE3046FFF793FD01209F
:103B5000C0F20030059028463146FFF769FD28463F
:103B6000002101220023FFF713FE2846182102221C
:103B70000023FFF70DFE28461A2103220023FFF73A
:103B800007FE28460021002200F02EF828460121D9
:103B9000FFF7CCFD28460121FFF7D2FDA868C0073A
:103BA00013D128460121FFF7D5FD2846FFF766FD12
:103BB0002846FFF769FD0028FAD12846FFF768FD7F
:103BC0002846FFF76BFD0028FAD105F5A03008F173
:103BD000FC01052201F07EFA4046012101F066FA5F
:103BE0000BB0BDE8F083000083680F2923F0004389
:103BF00088BF03F100438360836802F0030261F32E
:103C00001B638360816821F0405141EA0271816049
:103C100070470000826801F0010122F0804242EA10
:103C20008171816070470000826B013901F00301EE
:103C300022F4401242EA01518163704780B51A298B
:103C400000F2FF80DFE811F01B0022002C0036009C
:103C500040004A0054005E00680072007C0083004F
:103C60008D00FD009700A100AB00B500FD00BF0076
:103C7000C900D000D900E200EB00FD00F400D0F84C
:103C800010C063F3020CC0F810C0DAE0D0F810C026
:103C900003F0070E2CF0380343EACE030361D0E0B3
:103CA000D0F810C003F0070E2CF4E07343EA8E1333
:103CB0000361C6E0D0F810C003F0070E2CF4606377
:103CC00043EA4E230361BCE0D0F810C003F0070EB6
:103CD0002CF4E04343EA0E330361B2E0D0F810C0A5
:103CE00003F0070E2CF4603343EACE330361A8E0FF
:103CF000D0F810C003F0070E2CF4E01343EA8E4313
:103D000003619EE0D0F810C003F0070E2CF46003AE
:103D100043EA4E53036194E0D0F810C003F0070E5D
:103D20002CF0E06343EA0E6303618AE0D0F810C030
:103D300003F0070E2CF0605343EACE63036180E08A
:103D4000D0F80CC063F3020CC0F80CC079E0D0F8D6
:103D50000CC003F0070E2CF0380343EACE03C36017
:103D60006FE0D0F80CC003F0070E2CF4E07343EAC8
:103D70008E13C36065E0D0F80CC003F0070E2CF47E
:103D8000E04343EA0E33C3605BE0D0F80CC003F0BD
:103D9000070E2CF4603343EACE33C36051E0D0F811
:103DA0000CC003F0070E2CF4E01343EA8E43C3600B
:103DB00047E0D0F80CC003F0070E2CF4600343EA90
:103DC0004E53C3603DE0D0F80CC003F0070E2CF05A
:103DD000605343EACE63C36033E0D0F850C063F36E
:103DE000020CC0F850C02CE0D0F850C003F0070E11
:103DF0002CF0380343EACE0322E0D0F850C003F0A1
:103E0000070E2CF4E07343EA8E1319E0D0F850C08B
:103E100003F0070E2CF4606343EA4E2310E0D0F861
:103E200050C003F0070E2CF4E04343EA0E3307E0E2
:103E3000D0F850C003F0070E2CF4E01343EA8E4391
:103E40000365836BC3F30153D21A03324FF0FF3380
:103E500013FA82F2032A88BF80BDDFE802F002076E
:103E60000C11826B61F30402826380BD826B61F38B
:103E70004912826380BD826B61F38E22826380BDB2
:103E8000826B61F3D332826380BD000070B586B06F
:103E900042F20014C4F20104002620460021CDE9BC
:103EA0000466FFF757FC01AD2846FFF73BFC4FF4D3
:103EB0008060019028468DF80960FFF7F3FB092028
:103EC000C0F244000121012600F0F2FD0125C0F2FC
:103ED00030052846012100F0EBFD4FF44010012190
:103EE00000F0E6FD4FF44010012100F0E1FD4FF439
:103EF0004010012100F0DCFD05F11500012100F06A
:103F0000D7FD04AD284601F033FC03208DF81600E0
:103F10000220049004F563402946ADF8146001F0D6
:103F20002FFC102004F55F4604903046294601F02E
:103F300027FC202004903046294601F021FC402037
:103F400004903046294601F01BFC80200490304646
:103F5000294601F015FC03AD2846FFF78BFB4FF017
:103F60004070039020462946FFF762FB204600215F
:103F700000F086F820460321FFF756FE204609216F
:103F800001220023FFF75AFE2046092102220223C4
:103F9000FFF754FE2046092103220023FFF74EFEBF
:103FA0002046002100F054F820460021012200F0B4
:103FB00039F820464FF4800100F06CF8204640F6B6
:103FC0007B21002200F076F8A068C00713D12046BC
:103FD0000121FFF7BFFB2046FFF750FB2046FFF70C
:103FE00053FB0028FAD12046FFF752FB2046FFF78B
:103FF00055FB0028FAD106B070BD0000032905D892
:10400000DFE801F00207090B3C3007E0002080B236
:104010007047403002E0443000E04830006880B231
:104020007047000083680F2923F4000388BF03F55D
:1040300000038360836802F0030261F3134383602B
:10404000816821F4401141EA02518160704700000B
:10405000426801F0010122F4805242EA01314160DC
:1040600070470000826801F0010122F4800242EAF8
:1040700081518160816821F4800181607047000076
:10408000426801F0030122F0407242EA016141609E
:1040900070470000426822F400024260426822F445
:1040A00080024260426822F400724260426811431A
:1040B00041607047D0F824C04FF6FF732CEA030329
:1040C00019444162816A6FF30F01114481627047A4
:1040D00080B540F6B250C2F2000002F019FB41F286
:1040E0009420C2F20000B0F9001040F2DB5291427D
:1040F00002DC0131018080BD0020C4F2010000F02B
:10410000BDFF40F2FA40C2F200000321017080BD01
:10411000F0B581B0044641F29020C2F200000121C6
:10412000017041F27420C2F200000025058040F2C7
:10413000B040C2F20000057040F2F640C2F200004A
:10414000058040F64C60C2F200001426066005614E
:1041500040F2B00040F2A407C2F20000C2F2000731
:104160000580C5803868B7F9062084F83D10002125
:1041700003F0B0FB40F29802C2F20002106811791D
:10418000B2F9062003F0A6FB0A216068B4F91C20EE
:10419000B980062103F09EFB208A618AA584084429
:1041A000A18DA082E18220836183668701B0F0BD8A
:1041B00070B540F2B003C2F200030C464988B3F870
:1041C0004630594341F2E423C2F200031980B4F9A6
:1041D0000010B4F9043099425BDD064692F90800FC
:1041E000154640F298323178C0EBC000C2F20002AE
:1041F00002EB400232F8111040F2204CCAB2B1700A
:1042000049F2F611C0F6000101EB40001821C4F29A
:10421000010110F812000A6848F68F73C2F2000C10
:104220001A403CF830300CEBC00C1A430A604A6864
:104230004FF68F7EBCF8043002EA0E021A434A6041
:1042400040F258438A68C2F200034FF2222C33F83E
:10425000200002EA0C0210438860A1F1180020211E
:1042600003F0C2FBB07895F908103070B4F904007F
:104270000122A2EB4101484342F2283148436861E0
:1042800040F2C140C2F2000002700020208028618C
:1042900070BD481C208070BD10B51821C4F201010A
:1042A0000A6840F2204E48F68F73C2F2000E1A40A0
:1042B0003EF83030D1F808C01A430A600EEBC00E49
:1042C0004A684FF68F74BEF8043022401A4340F219
:1042D00058434A60C2F200034FF2222233F8200012
:1042E00002EA0C021043886010BD00002DE9F04185
:1042F00040F2DC43C2F200031B780C4640F2C2419C
:1043000041F27C281546C2F200010122C2F20008E7
:104310000A70C3B1242140F2E832C4F20101C2F2B2
:104320000002096813682E69CB1A42F2283706FB8F
:10433000073341F27827C2F200073960116000218B
:10434000C8F80030296140F2C341C2F20001097887
:10435000C9B195F9081040F298330278C1EBC10158
:10436000C2F2000303EB410333F8122049F2F613C3
:10437000C0F6000303EB4101D3B211F813108270B1
:104380000846FFF789FF40F64410C2F200000068BB
:10439000D8F8001001F0A4FF4EF67641C0F20301F8
:1043A00042F2F852884240F298016861C8BF41F277
:1043B0008602C2F20001A0680A81002103F004FB1A
:1043C000686942F27B11A268401A010CB0F5616F76
:1043D000D8BF4FF46160D368B8BF002123F0010358
:1043E000D3604FF6FE72104040EA014009B2400827
:1043F0004A1CB0FBF2F0A26880B2D062A068816271
:10440000A068416941F001014161A068016921F0A2
:1044100001010161A068C16841F00101C160A068AB
:104420000121BDE8F04103F0C9BA0000F0B581B048
:1044300005460068012103F0DBFA6868102103F0EB
:10444000D7FA2868002103F0B9FA6868002103F060
:10445000B5FA2868002103F0B7FA6868002103F074
:10446000B3FA40F2A400C2F200000068002103F099
:10447000ABFA40F29800C2F200000068002103F09D
:10448000A3FA42F20014C4F2010420460021FFF70F
:1044900061F9204604210426FFF762F968680021CB
:1044A00003F0AEF968684FF48051012203F08EFAF0
:1044B00046F20805C4F202052846002100F0F6FD88
:1044C00005F13C00002100F0F1FD05F150073846F0
:1044D000022100F0F5FD20460321FFF7A5FB204651
:1044E000092101220023FFF7A9FB2046092102220E
:1044F0000323FFF7A3FB20460021FFF7A9FD40F2AD
:104500002850C2F2000000780322022808BF0926C2
:10451000012808BF0426204631460123FFF78EFB01
:104520002846012100F0C2FD3846012100F0BEFD01
:104530002046012101B0BDE8F040FFF70BB90000B3
:1045400040F25801C2F20001B1F92610484340F38D
:104550008F30704780B5B0F9102040F2B04CC2F2F5
:10456000000C8A42B8BF4A08B0F812E09CF800304C
:10457000724482824BB1B0F92E208A4211DD818DC6
:104580000022C18290F83D101BE0B0F930208A4231
:1045900011DD90F83D10828D0129C28219D10022CF
:1045A00013E0028F90F83D30891A012BC18218BFA9
:1045B00080BD012209E0028F891AC18290F83D1066
:1045C000012201298CF8002003D1806A102103F018
:1045D00007FB80BDD0E9032101319142016198BF01
:1045E0007047B1F58E7F0ED842F22830484341F231
:1045F0007C21C2F20001086040F2C140C2F200001A
:1046000001210170704740F21D11C0E90311002122
:10461000416040F63810C2F20000016040F64410DC
:10462000C2F2000040F2F0320068C2F20002C2E9B9
:10463000041102F065BD000070B584B000264FF48F
:1046400040100121CDE9006600F032FA4FF440102D
:10465000012100F02DFA4FF44010012100F028FA5A
:104660004FF44010012100F023FA0020C0F20310A3
:10467000002401901020C4F202046D4600902046F0
:10468000294601F07DF8202000902046294601F0BF
:1046900077F8402000902046294601F071F88020EC
:1046A00000902046294601F06BF802AC204600F04D
:1046B00031F80420C0F20030CDF809000220214674
:1046C0008DF8086000F06CF802203F213F220123A2
:1046D00000F038F80220012100F020F8022010211B
:1046E00000F002F804B070BD43F6300201F07F0123
:1046F000C4F2010201284FEAC14005D1116821F03E
:104700007E71084310607047116921F07E71084383
:1047100010617047002101710160704743F630025B
:10472000C4F20102012801F0010005D1116821F055
:104730000101084410607047116921F0010108442B
:104740001061704780B543F6340C0128C4F2010CA7
:104750000DD1DCF80000002B63460CBF20F00100F7
:1047600040F0010043F8080B0CF1040E0DE0DCF8FA
:104770001000002B0CF1140E0CF118030CBF20F0EC
:10478000010040F00100CCF81000186862F3050049
:104790001860DEF8000061F30500CEF8000080BD6F
:1047A0000B7843F6300203F00303C4F20102012840
:1047B0004FEA032021D1136823F44073184310609B
:1047C0004878136860F3061313608878136860F301
:1047D00083031360C878136800F0010023F40043DA
:1047E00043EAC03010600879116800F0030021F43A
:1047F000403141EA004010607047136923F4407370
:10480000184310614878136960F3061313618878C0
:10481000136960F383031361C878136900F0010022
:1048200023F4004343EAC03010610879116900F0B5
:10483000030021F4403141EA00401061704700005C
:1048400080B5D0E9001CB0F90820A1EB0C0393421D
:104850000CDAB0F90AE0CEF10002934204DAACEBD4
:104860000E028A42C8BF1146416080BD62448A423E
:10487000B8BF1146416080BD43F6A401C4F20201F5
:104880000A6800F00F0042F030020A6051F89C2CD8
:1048900022F0F00242EA001041F89C0C086820F077
:1048A000300008607047000043F60801C4F20201BE
:1048B0000A6800F0070022F4E05242EA8020086013
:1048C0007047000043F60801C4F202010A6800F0D4
:1048D000070022F4604242EA40300860704700005E
:1048E00043F6A401C4F202010A6800F0070022F4B2
:1048F000E04242EA003008607047000043F6A4013D
:10490000C4F202010A68012822F0300208BF3032E6
:104910000A607047042888BF7047DFE800F0030C86
:1049200019262F0043F60000C4F20200026861F36A
:1049300000020260704743F60000C4F20200026801
:1049400001F0010122F4803242EA01410160704726
:1049500043F60000C4F20200026801F0010122F0F7
:10496000807242EA01610160704743F60000C4F2C0
:104970000200026F61F300020267704743F6000015
:10498000C4F20200426F61F3000242677047000008
:10499000B0B543F60405C4F2020569680446C1F3E4
:1049A000810141F200200229C0F27A0013D00129CE
:1049B0002CD0A9BBD5F89C10490446F60041C0F2A2
:1049C000DC2158BF01462160D5F8A000C0F30240A9
:1049D00021FA00F024E029682A68490243F20061C4
:1049E000D5F800C02B68C0F26E11C2F3881258BF10
:1049F0000146A1FB0201C3F3024217A39A5C0CF02B
:104A00000F035A430023FBF7F5FB09E043F2006074
:104A1000C0F26E102060D5F8A010C1F3C241C840AA
:104A2000206068680EA1C0F30310085C216849F299
:104A3000E01221FA00F060606968C0F60002C1F37C
:104A40008221515C20FA01F1E1606968C1F34231D1
:104A5000515CC840A060B0BD0102040810200000F5
:104A6000000000000000000001020304060708091E
:104A700043F60002010CC4F20202895800F01F0044
:104A800021FA00F000F001007047000043F6000139
:104A90000020C4F2020100BF0A68920304D4B0F5FA
:104AA000405F00F10100F7D30868C0F34040704751
:104AB00043F6000200F01F034FF0010CC4F20202A3
:104AC00001290CFA03F14FEA1040835814BF23EA7E
:104AD000010119438150704710B543F6040CC4F22C
:104AE000020CDCF800E000F001042EF4800040EA43
:104AF0008450CCF80000DCF8000061F38E10CCF894
:104B00000000DCF8000003F0070162F30300CCF8BA
:104B10000000DCF8000020F4E02040EA0140CCF87E
:104B2000000010BD43F60000C4F20200D0F8A4104B
:104B300041F03001C0F8A410016841F001010160AA
:104B400001688907FCD5816821F00301816000BFFD
:104B5000816811F00C0FFBD101684FF6FF72CFF6A0
:104B6000F262114001604FF08041816043F2020126
:104B7000C0F2030141604FF47121C0F8A0104FF45E
:104B80001F01C160D0F8A41021F03001C0F8A410BA
:104B90007047000043F6A401C4F202010A6842F023
:104BA00030020A6051F89C2C60F3010241F89C2C01
:104BB000086820F0300008607047000043F60800E5
:104BC000C4F202000068C0F38100704700000000DA
:104BD0002DE9F0472DED028B0446808B9FED6E1A78
:104BE00000EE100AB8EE400A80EE010A10EE100A3C
:104BF000FBF751FD94ED040B02460B4651EC100BF4
:104C0000FBF702FCFBF75AFD0546D4E90001A5615C
:104C100091ED000AB0EE081A90ED002A20EE011A7C
:104C200081EE021A9FED5D2AE08B82EE011A02EE00
:104C3000100AB8EE422AB4EE421AF1EE10FAC2BFE0
:104C4000BDEEC11A11EE100AE083E18B208C814287
:104C500088BFE083E08B01EE100AB8EE411A20EE27
:104C6000010A10EE100AFBF716FD94ED020B024646
:104C70000B4651EC100BFBF7C7FB064628460F46C8
:104C8000FBF709FD02460B4630463946FBF72EFC82
:104C900041EC100B84ED0A0B04F046F804F0C4F864
:104CA00053EC102B9FED3A0B58EC109B48464146B5
:104CB000FBF7A4FBFBF7D0FC0F260F2828BF3046DC
:104CC0004FF0010AA08794ED0A8B0AFA00F0FBF777
:104CD000B2FC02460B4651EC180BFBF795FBFBF7B9
:104CE000BBFC2087E08B216800EE100A91ED001AD2
:104CF000B8EE400A21EE000A10EE100AFBF7CBFCDA
:104D000094ED020B02460B4651EC100BFBF77CFBBB
:104D10000746A0690D46FBF7BEFC02460B46384627
:104D20002946FBF7E3FB0546606A0F46FBF783FC69
:104D300002460B4628463946FBF7D8FB41EC100BE0
:104D400084ED0C0B03F0F0FF04F06EF853EC102B25
:104D500048464146FBF752FBFBF77EFC0F2838BF65
:104D6000064694ED0C8B0AFA06F0E687FBF763FC27
:104D700002460B4651EC180BFBF746FBFBF76CFCAD
:104D80006087BDEC028BBDE8F08700BF00BF00BFAD
:104D90000000000000002A4000F07F454CBE8C401F
:104DA0002DE9F04381B040F2E046C2F200063278CD
:104DB0000D46102A044642D840F2E44840F2E64943
:104DC00040F2E247C2F20008C2F20009C2F2000754
:104DD00003E000BF3078102831D8206B04E000BF1A
:104DE0003078411C206B31700421FEF7BDFC002897
:104DF000F0D0206B0421FEF7B3FC30780028EFD010
:104E000035B1206B0021FFF7F9F839880844388064
:104E1000022D08D3206B0121FFF7F0F8B8F800103D
:104E20000844A8F80000032DDAD3206B0221FFF715
:104E3000E5F8B9F800100844A9F80000D0E7032D00
:104E400009D0012D1CD140F2E240C2F200000088DE
:104E50000009A08514E040F2E240C2F2000040F2F6
:104E6000E4410088C2F2000109880009E0840809D1
:104E700040F2E641C2F200010988208508096085F8
:104E8000012001B0BDE8F083F0B583B00025C4F285
:104E9000020504460020A5F58036CDE90000304625
:104EA000002103F05DF83046002102F087FD6E46D8
:104EB000304600F05DFC01208DF806004FF4807054
:104EC00000902846314600F05BFC2846082101226C
:104ED00000F090FC4FF4007000902846314600F03E
:104EE0004FFC28460921012200F084FC4FF4806029
:104EF00000902846314600F043FC28460A21012252
:104F000000F078FC4FF4006000902846314600F035
:104F100037FC28460B210A2200F06CFC4FF480502D
:104F200000902846314600F02BFC28460C210A222E
:104F300000F060FC402005F580670090384631465F
:104F400000F01EFC38460621012200F053FC2846E2
:104F50004FF48071002200F005FC28464FF40071E8
:104F6000002200F0FFFB28464FF48061002200F091
:104F7000F9FB28464FF40061012200F0F3FB2846BC
:104F80004FF48051012200F0EDFB38464021012210
:104F900000F0E8FB2046062140F6CA0202F09AFC27
:104FA0002046012102F0DCFF2046012102F006FD2F
:104FB00003B0F0BD10B54021C4F2010109680446F8
:104FC000D52908D3206B0021FFF718F8A18D401ACE
:104FD000C000E08006E0B4F90600B4F908104843C8
:104FE000C00BE080608FB4F9061094F83E2048436F
:104FF000C2F10F01B4F8462008415043208010BD93
:1050000047F20841C4F200010A6860F305020A6031
:105010007047000047F200420228C4F2000207D0A5
:10502000012818BF7047106861F3000010607047D6
:10503000106801F0010120F4803040EA0140106066
:105040007047000047F200420228C4F200020BD071
:10505000012818BF7047106801F0010120F002001C
:1050600040EA410010607047106801F0010120F42F
:10507000003040EA4140106070470000B0B50021A8
:105080000446002502F06CFFA06947F270018843D6
:10509000A061E069202120F07000E061204602F06C
:1050A000A3FCC4E90D55E5632564B0BD026861F356
:1050B0000002026070470000406880B27047000044
:1050C0004160704700210182C0E90011C0E902116E
:1050D00070470000D0F8003143F00103C0F8003100
:1050E000086862F3060008607047000002684BF62B
:1050F000EF731A4002600A8903681A4302604A7C0F
:10510000036802F0030223F4405343EA02320260D0
:10511000CA7B036802F0030223F4406343EA82225D
:1051200002608A7B036802F0030223F4407343EABF
:10513000022202604A7B036802F0010223F080032E
:1051400043EAC21202600A7B036862F386130360BB
:105150000A7C036862F3451303604A89436842602E
:105160000A6882604968C16070470000002A0268CE
:105170000CBF22EA0101114301607047016800F091
:10518000FC024CF6CD43083ACCF6CC43A2FB0323F9
:1051900021F001010160002146F20402016041603A
:1051A0008160C1606FF00300C4F2020200EA930064
:1051B0000F21136801FA00F01843106070470000D7
:1051C0002DE9F04385B046F21C04C4F202042046E7
:1051D000FFF7D4FF6D462846FFF774FF40F22E20FC
:1051E000C0F20010CDF80A001020ADF8080040F61B
:1051F0005410C2F2000041F204080190C4F2010808
:105200004FF0000920462946CDF80080CDF80E90D9
:10521000FFF76CFFA4F11C0604F1EC0130461922E3
:10522000FFF758FF204602210022FFF79FFF04F1FD
:1052300014073846FFF7A2FF2846FFF743FF0C206C
:10524000C0F20010CDF80A0041F2D820C2F20000EE
:10525000CDE9008038462946ADF80890CDF80E908B
:10526000FFF744FF04F1F00130461822FFF732FF48
:10527000384602210022FFF779FF05B0BDE8F08330
:10528000D0F8002161F30002C0F80021704700004F
:105290000A78036862F3040303604A78036802F043
:1052A000030223F4C02343EA42420260D1F804C05F
:1052B0004FF47802036802EBCC42D20C62F3D7437E
:1052C0000360097A026801F0010122F4803242EAA7
:1052D00001410160704700000021017241600180BE
:1052E00070470000026861F3060202607047000028
:1052F00040F2BA40C2F2000040F2DC418088C2F2C3
:10530000000109787C38052900B210D0042918BFA3
:1053100070477C281FDB47F6D151C0F2010148439A
:1053200040F2B001C00BC2F2000148800CE07C28C2
:1053300018DB4EF2DA414843642101EBE03041F2E0
:105340008021C2F20001086041F29120C2F2000007
:1053500001210170704740F2B000C2F2000000214C
:1053600041800EE00D2806DB41F28020C2F20000F1
:1053700064210160704741F28020C2F200000021E8
:10538000016041F29120C2F20000017070470000FC
:1053900043F61040C4F20200016841F08001016050
:1053A0007047000043F60C41C4F202014A6842F023
:1053B00002024A608860486840F04000486008681F
:1053C000C0070AD1086840070AD40868C0064FF031
:1053D000020058BF032008BB04E00020F0B901E040
:1053E0000120D8B94FF080420868C0070AD1086888
:1053F000400709D40868C0064FF0020058BF0320D8
:1054000003E000BF002000E00120A2F1010310B979
:10541000012A1A46E8D1002B08BF04204A6822F06E
:1054200002024A607047000043F6044040F2231134
:10543000C4F20200C4F26751016048F6AB11CCF629
:10544000EF5101607047000043F60C42C4F20202C3
:10545000536843F00103536001601068C0070AD12C
:10546000106840070AD41068C0064FF0020058BF09
:10547000032008BB04E00020F0B901E00120D8B906
:105480004FF480111068C0070AD11068400709D492
:105490001068C0064FF0020058BF032003E000BFB1
:1054A000002000E00120A1F1010310B901291946F3
:1054B000E8D1002B08BF0420516821F001015160A0
:1054C000704700002DE9F04F83B0934688460446AC
:1054D000FFF7AAFFC4F38707A44604F17840C7F595
:1054E00080715C46594538BF0C4640F2FF31830A53
:1054F000884340F22C5600F10065C2F200062004F9
:105500000DD000BF002000BF17FA80F156F821101F
:1055100001311FD1013081B2A2B29142F4D31FFAFE
:1055200084FABAF1000F37D0CDE90183A8F104095C
:10553000D0466746CDF800C059F8041F3846FFF73B
:1055400083FFB8F1010807F10407F5D1DDE900C8D0
:1055500021E000BF4FF0006000EB8320E1460293A2
:10556000FFF720FF1FFA84FA06EB87000438A8F142
:105570000401524651F8043F013A40F8043FF9D182
:10558000002700BFF159E819FFF75EFF0437B7F5B0
:10559000806FF7D1CC46029BA0B21FFA8BF18142FB
:1055A00013D0ABEB040B1FFA8BF4013308EB8A0822
:1055B0000CEB8A0CB4F5807F28BF4FF4807405F59E
:1055C0008065002720049DD1A9E703B0BDE8F04F16
:1055D000FFF7DEBE4FF60040C0F60100007B7047CB
:1055E000F0B583B0082046F2080442F20005C0F28C
:1055F00044000121C4F20204C4F201050127FFF7AF
:1056000057FA28460021FEF7A5F820460021FFF7AB
:105610004DFD20460321FFF753FD01AE3046FEF756
:1056200081F84FF48060ADF8040030468DF80970C1
:10563000FEF738F828460221FEF7F6FA284611212F
:1056400001220723FEF7FAFA284611210222072336
:10565000FEF7F4FA284600210022FEF7E3FC284674
:105660000021FEF7F5FCA868C0071AD128460121E1
:10567000FEF770F828464021FEF776F80028F9D0AA
:105680002846FDF7FBFF00BF2846FDF7FDFF002879
:10569000FAD12846FDF7FCFF2846FDF7FFFF00285A
:1056A000FAD128460421FEF75BF828460121FEF7CF
:1056B000D9FC00BF28460421FEF756F80028F9D08F
:1056C00028460121FEF79AFC064628460421FEF7EB
:1056D00047F828460121FEF7C5FC00BF28460421F3
:1056E000FEF742F80028F9D028460121FEF786FC93
:1056F000074628460421FEF733F828460021FEF726
:1057000029F8A868C0071AD128460121FEF722F817
:1057100028464021FEF728F80028F9D02846FDF752
:10572000ADFF00BF2846FDF7AFFF0028FAD128469D
:10573000FDF7AEFF2846FDF7B1FF0028FAD120465D
:105740000121BD19FFF7B2FC48F200016808C0F260
:105750007711B1FBF0F040F25801C2F20001C884A9
:1057600003B0F0BD1823002A08BF2823C15070479A
:105770004FF6FF714FF08072C0E9001270470000D1
:10578000F0B50A88002A08BFF0BD00234FF0030CD3
:105790004FF0010E002405E0520804F1010403F16A
:1057A000020326D0D507F7D005680CFA03F6B543F7
:1057B00005608D7907689D403D43056045680EFA98
:1057C00004F7BD4345600D794768A5403D434560FA
:1057D0008568B5438560CD7987689D403D43856088
:1057E000C568B543C5604D79C6689D403543C56001
:1057F000D2E7F0BD80B51C2303EA810302FA03FE61
:1058000024224FF00F0C082938BF202281580CFAAF
:1058100003F3994341EA0E01815080BDF0B584B095
:105820004AF6AB2C40F62C1000216FF00102CAF6AC
:10583000AA2CC2F20000EE46ADF80C100291CDE9A0
:10584000001100BFA1FB0C3424F00303C3EB94034D
:1058500000EB830313445B880EEB020402320C2A34
:1058600001F101016380EDD140F298306FF0010148
:10587000C2F200000EEB01029388D78852880231F1
:1058800000EB4306082920F81370F281F2D1BDF82D
:105890000010BDF8022000EB410320F8112040F277
:1058A0007410C2F2000090F9030049F21221C0EB1B
:1058B000C000C0F6000101EB4001BDF80A20488895
:1058C000DA813EF8100040F22042C2F200024FF4AA
:1058D000C04402EBC00342F830404FF0500C8C88BB
:1058E000C3F804C040F25843C2F200034FF48A6583
:1058F0003EF8144043F8205046F2500502EBC40035
:1059000042F8345000254560C88854263EF81000FF
:1059100043F8246002EBC004602666600C8940F204
:1059200004573EF8144042F830C043F8207002EBB0
:10593000C400466048894FF4A0473EF810008989AA
:1059400042F834704FF4A86743F8247002EBC004A7
:105950003EF8111045F260076560452442F830704A
:1059600043F8204002EBC100C0F804C040F20540FB
:1059700042F8316043F8210004B0F0BDF0B581B0C9
:1059800018250024C4F20205082604274FF4FA70F3
:105990002E612F6100F056F94FF4FA702E602F60DF
:1059A00000F050F9022C04F10104EFD301B0F0BD76
:1059B000F0B583B04FF440100121FFF779F84FF4B0
:1059C00040100121FFF774F801AC2046FFF7D0FE2C
:1059D00000200025C0F20110C4F202050290082642
:1059E000284621460196FFF7CBFE0427284621468C
:1059F0000197FFF7C5FEAE61AF6103B0F0BD0000D7
:105A000081617047816270474269514041617047CE
:105A10002DE9F0470446B0F90400FAF70CFE0546FC
:105A200020680E46FAF707FE02460B462846314626
:105A3000FAF75CFD9FED140B814653EC102B8A4660
:105A4000FAF73BFC9FED120B0746884656EC105BBD
:105A5000284631463A464346FAF748FDFAF7FCFD38
:105A6000E080484651462A463346FAF7CDFC3A468E
:105A70004346FAF73BFDFAF7EFFD20810020A061D5
:105A8000BDE8F08700BF00BF000000000000F03F4D
:105A900000000000C0FFDF40B0B50246B0F90600CC
:105AA000D2F810E0C417AEFB003C55690EFB04C4ED
:105AB000B2F908C005FB00409569CCFB01305919CB
:105AC00040EBE570CD0BC31345EA40406FF3DF3187
:105AD000C2E904039161B0BD01F01EFC01F00AFBB4
