:020000040800F2
:1000000048170020D1010008C9110008D1100008CC
:10001000C5110008650A0008453600080000000008
:10002000000000000000000000000000252F000874
:10003000690A000800000000CD110008292F0008FF
:10004000EB010008EB010008EB010008EB010008E0
:10005000EB010008EB010008EB010008EB010008D0
:10006000EB010008EB010008EB010008EB010008C0
:10007000EB010008EB010008EB010008EB010008B0
:10008000EB010008EB0100089D090008EB010008E6
:10009000EB010008EB010008EB010008EB01000890
:1000A00035320008C53200086D340008753200088A
:1000B000000000004D350008EB010008EB010008CE
:1000C000EB010008EB010008EB010008EB01000860
:1000D000EB010008EB010008AD350008000000004E
:1000E000EB010008EB010008000000000000000028
:1000F0000000000000000000000000000000000000
:1001000000000000000000000000000000000000EF
:100110000000000000000000EB010008EB010008F7
:1001200000000000000000000000000000000000CF
:1001300000000000000000000000000000000000BF
:10014000EB010008000000000000000000000000BB
:10015000000000000000000000000000000000009F
:10016000000000000000000000000000000000008F
:10017000000000000000000000000000000000007F
:1001800000000000EB01000800000000000000007B
:10019000000000000000000000000000000000005F
:1001A000000000000000000000000000000000004F
:1001B0000000000000000000EB010008DFF80CD098
:1001C00000F0A8FB00480047115B0008481700201A
:1001D0000648804706488047FEE7FEE7FEE7FEE761
:1001E000FEE7FEE7FEE7FEE7FEE7FEE76530000814
:1001F000BD0100082DE9F05F0546002092469B46B0
:1002000088460646814640241BE02846414647462C
:10021000224600F055FA53465A46C01A914110D36F
:1002200011461846224600F03CFA2D1A67EB0108E9
:100230004F4622460120002100F033FA17EB000957
:100240004E41201EA4F10104DFDC484631462A4617
:100250004346BDE8F09F40EA01039B0703D009E055
:1002600008C9121F08C0042AFAD203E011F8013BA2
:1002700000F8013B521EF9D27047D2B201E000F8FB
:10028000012B491EFBD270470022F6E710B513463A
:100290000A4604461946FFF7F0FF204610BD10B588
:1002A0004843044608F0D2FA002805D00021002C6B
:1002B00002D0641E0155FAE710BD2DE9FE4F8046BD
:1002C00081EA0300C00F0C46009021F0004123F0AA
:1002D0000045B8EB0200A94105D2404621469046B0
:1002E0001C460B46024623F00040104347D0270D22
:1002F000C7F30A00C3F30A510290401A0190402844
:100300006BDAC3F3130040F4801B0098924620B1CF
:100310000023D2EB030A63EB0B0B01985946C0F1A3
:100320004002504600F0BDF906460D46504659467B
:10033000019A00F0D5F910EB08006141002487EA2A
:10034000115284EAE7731A4340D0009A62B3019ACB
:10035000012A4FEA075215DC001B61EB02014FF046
:10036000004202EA0752CDE90042001C41F580112B
:1003700032462B4600F00CFA03B0BDE8F08F404641
:100380002146F9E7001B61EB0201001C41F58013D7
:1003900000185B412018A2F5001747EB030140EA63
:1003A000D570B6196D4111E06D084FEA360645EA81
:1003B000C0754FEA0752001B61EB0201001C41F5BA
:1003C000801149084FEA30000019514132462B464E
:1003D00003B0BDE8F04F00F0CCB900980122400016
:1003E0000023D0EB020263EBE073009821464FEA52
:1003F000E074B8EB000061EB0401E9E783F000432F
:100400005BE781F0004158E72DE9FE4F81EA0304E4
:1004100004F0004421F0004100944FF0000B23F061
:10042000004350EA01045ED052EA03045BD0C3F3F8
:100430000A54C1F30A552C44A4F2F3340194A0FBEE
:100440000254C1F3130141F48011C3F3130343F4C5
:10045000801301FB024400FB034E840A970A44EA1E
:10046000815447EA8357A4FB076802958D0A05FB70
:1004700007854FEA932C04FB0C542705029D4FEA95
:10048000065847EA1637B5EB08056EEB070C870EE2
:10049000920E47EA811742EA8312A7FB0201B6EBEC
:1004A0000B0164EB00042B0D43EA0C335E1844EBA4
:1004B0001C50DA465146E7FB0201C5F313044FEA2C
:1004C0000B3343EA14534FEA0432019C43EA060318
:1004D000A4F10C040294009CCDE900B400F058F99A
:1004E00003B0BDE8F08F00200146F9E72DE9F04D9B
:1004F00081EA030404F0004B21F0004514464FF05C
:10050000000A23F0004150EA050220D054EA01021B
:100510001DD0C5F30A570246C5F31303C1F31300F8
:10052000C1F30A5640F4801543F48013A7EB060884
:10053000101BD64608F2FD3873EB050002D308F114
:10054000010801E092185B41B8F1000F03DA0020C6
:100550000146BDE8F08D00204FF480110646844628
:100560000EE0171B73EB050705D3121B63EB0503A6
:1005700006434CEA010C49084FEA300092185B41EF
:1005800050EA0107EDD152EA030012D082EA0400DA
:1005900083EA0501084305D0101BAB4106D20122B6
:1005A000002306E000224FF0004302E06FF001025A
:1005B00053101AEB06004CEB085110EB0A0041EB0C
:1005C0000B01BDE8F04D00F0D4B80EB5C10F80EAC4
:1005D000E0700844CA07002140F233438DE80E0062
:1005E0000A460B4600F0D4F803B000BD0EB540F249
:1005F000334102910021CDE900110A460B4600F07B
:10060000C7F803B000BD70B5C1F30A5201F0004550
:100610000024C1F3130140F2FF3341F480119A42E8
:1006200001DA002070BD40F233439A42A2F2334215
:1006300003DC524200F044F800E090402C43F1D03B
:10064000404270BD00F0004230F000400AD0C10DC1
:1006500001F56071C0F3160042EA0151C20840077B
:100660001143704700200146704701F0004330B449
:1006700021F0004150EA010206D00A0DA2F5607295
:10068000C1F31301002A02DC30BC00207047440F84
:1006900044EAC104C100E01830BC00EBC25000F0D5
:1006A00031B8202A04DB203A00FA02F1002070471A
:1006B0009140C2F1200320FA03F3194390407047A0
:1006C000202A04DB203A21FA02F00021704721FAA7
:1006D00002F3D040C2F1200291400843194670470E
:1006E000202A06DBCB17203A41FA02F043EAE073F6
:1006F00006E041FA02F3D040C2F1200291400843E3
:10070000194670470029A8BF7047401C490008BF20
:1007100020F00100704710B4B0FA80FC00FA0CF031
:1007200050EA010404BF10BC704749B1CCF1200469
:1007300021FA04F411FA0CF118BF012121430843F6
:10074000A3EB0C01CB1D4FEA00614FEA102042BF22
:10075000002010BC704700EBC35010440029A4BF18
:1007600010BC7047401C490008BF20F0010010BCBD
:10077000704710B5141E73F1000408DA401C41F1F3
:10078000000192185B411A4301D120F0010010BD15
:100790002DE9F04D92469B4611B1B1FA81F202E08B
:1007A000B0FA80F220329046FFF77BFF04460F46F6
:1007B00040EA0A0041EA0B0153465A46084313D067
:1007C000114653EA010019D0C8F140025046FFF724
:1007D00077FF05460E46504659464246FFF761FFF1
:1007E000084305D0012004E020463946BDE8F08DDD
:1007F0000020054346EAE0762C4337430A98630518
:10080000E40AA0EB08000022FD0A44EA47540A303B
:1008100002D500200146E9E7010510196941DDE92B
:10082000084500196941BDE8F04DA2E72DE9F04106
:10083000054621F000400C46284309D0C4F30A5075
:1008400040F23341884205DD28462146BDE8F0816B
:100850002846FBE740F2FE31884210DC0CDB4FEA11
:10086000043040EA155050EA053105D0104804F034
:10087000004101430020E9E700200146E6E7A0F23D
:1008800033404642C6F1400228462146FFF709FFA1
:1008900007468846284621463246FFF711FF434661
:1008A0003A46FFF766FF3246BDE8F041FFF7F9BE72
:1008B0000000F03F30B5041E71F1000404DB4FF07E
:1008C0000044404264EB0101141E73F1000405DB97
:1008D0001C464FF00043524263EB04038B4208BFB7
:1008E000824230BD30B5041E71F1000404DB4FF0CC
:1008F0000044404264EB0101141E73F1000405DB67
:100900001C464FF00043524263EB0403994208BF78
:10091000904230BD1CB50948009009480190054639
:10092000009C06E0E06840F0010394E80700984767
:100930001034AC42F6D3FFF745FC0000688900088C
:100940008889000870B58C1810F8015B15F0070352
:1009500001D110F8013B2A1106D110F8012B03E058
:1009600010F8016B01F8016B5B1EF9D12B0705D460
:100970000023521E0DD401F8013BFAE710F8013BA9
:10098000CB1A921C03E013F8015B01F8015B521EC5
:10099000F9D5A142D8D3002070BD0000B0B540F217
:1009A0005804C2F20004E068042102F0E9FE0028C5
:1009B00057D0E068042102F0DFFE40F26A30C2F254
:1009C00000000078012838D1E068002103F02CFBFA
:1009D00040F26035E168C2F2000528800846012136
:1009E00003F022FBE16868800846022103F01CFB4B
:1009F0002A8840F2BB718A42A88032D86A888A422B
:100A00002FD8884288BFB0BD40F6A040C2F2000097
:100A100040F23B21C0E903110021416040F2B47073
:100A200040F26022C2F20000C2F200020068C2E995
:100A30000411BDE8B04005F051BF40F2B004C2F26D
:100A40000004204604F0C4FAB4F9001040F2181073
:100A5000C2F2000005F03CF840F2AE71C2F20001B3
:100A60000880B0BDFEE700007047000070B509289F
:100A700088BF70BDDFE810F00A009B0069007800B5
:100A800004012600C800E100220123010020C4F275
:100A9000010004F001FB40F23030C2F200000022FD
:100AA000027040F2333342F20010C2F20003C4F28B
:100AB000010000F563404FF480611A70BDE870409A
:100AC00004F0BABF0024C4F20104204604F0E4FAA2
:100AD00002200021002603F023FE42F20015C4F29A
:100AE0000105284604210122012303F0BDF8284610
:100AF00005210222012303F0B7F82846062103222C
:100B0000012303F0B1F8A4F57C40002106F0E8FAD7
:100B100046F25800C4F20200002104F0D5FA40F277
:100B20003030C2F20000067040F23330C2F20000F2
:100B3000067040F2B000C2F20000066041F2D4003C
:100B4000C2F20000C0E9006670BD41F2E800C2F2E6
:100B500000000021018040F23330C2F20000017039
:100B6000BDE8704005F08CBF41F2E800C2F2000021
:100B70000021018005F0C8FE05F0F6FE40F25804A1
:100B8000C2F20004204603F0D5FA204603F06EFCC2
:100B900040F23030C2F200000121017040F23330E7
:100BA000C2F200000170BDE8704005F0F5BE002003
:100BB000C4F2010004F070FA05F0D6FC41F2E8003E
:100BC000C2F200000022028040F26020C2F2000067
:100BD000C0E9042240F23030C2F20000027040F25C
:100BE0003330C2F20000027040F23A3040F2323349
:100BF000C2F20000C2F200030270022010211A703B
:100C0000BDE8704003F08CBD0020C4F2010004F088
:100C100043FA40F23030C2F200000021017040F28D
:100C20003330C2F20000017041F2E500C2F2000070
:100C30000170BDE8704005F097BC0020C4F20100CF
:100C400004F02AFA40F23030C2F2000000210170B4
:100C500040F23330C2F20000017041F2E500C2F20E
:100C60000000017005F080FC42F20010C4F20100A7
:100C700000F563404FF48061BDE8704004F0DEBED3
:100C800040F2303040F24C32C2F200000121C2F298
:100C900000021278017040F23330C2F20000002AE4
:100CA00018BF0122027040F23A30C2F20000002167
:100CB000017041F2E800C2F20000018070BD40F214
:100CC0003030C2F200000121017040F23330C2F234
:100CD0000000017040F24F30C2F20000017040F29B
:100CE0003A30C2F200000022027040F2323040F28C
:100CF0005804C2F20000C2F200040170204603F062
:100D000019FA204603F0B2FB05F07CF940F23C10E2
:100D1000C2F2000004210170042003F0D9FA00247B
:100D2000C4F201042046202106F0F0F920460021FB
:100D300006F0DCF92046002106F0D8F92046012112
:100D400006F0CEF92046012106F0CAF9204601211D
:100D5000BDE8704006F094BCB0B540F23A10C2F263
:100D600000000078092800F2B281DFE810F00A00E4
:100D70002E005B005E007F001F00B0014100B0014B
:100D8000500041F2CA00C2F20000B0F90000002891
:100D900036DC40F63840C2F20000007880B340F202
:100DA0004E30C2F20000007840B929E040F6A04081
:100DB000C2F200004068002840F0C78040F26A306C
:100DC000C2F2000001210170B0BD40F24C30C2F20D
:100DD0000000007800F0FE01022973D141F2E50025
:100DE000C2F200000078012840F05B81092053E145
:100DF00040F26830C2F200000088002818BFB0BD81
:100E000040F26A30C2F2000000210170B0BD41F230
:100E1000E500C2F20000007801286CD1BDE8B040C6
:100E200000F078B903F066F987E040F24C30C2F286
:100E300000000078002865D041F2C800C2F200002E
:100E4000B0F90000072864DC41F2E800C2F20000BB
:100E5000018801310AB2B2F57A7F01806DDB40F280
:100E60006A30C2F200000121017066E040F24C30AD
:100E7000C2F200000078002800F0828004286BD0C5
:100E8000052840F0248141F2E500C2F2000000781C
:100E900041F2D4040028C2F2000400F0B1802068BE
:100EA000002848BF4042632800F2B08040F6A040CE
:100EB000C2F20000007A002814BF6FF063006420C3
:100EC0002060A3E0002800F0878004286DD005286A
:100ED00040F0E78041F2D400C2F20000006841F225
:100EE000E5010028C2F2000172D00A78012A6FD110
:100EF00001286ADACDE040F2B000C2F20000002121
:100F0000418022E040F26A30C2F200000421017008
:100F100013E040F26A30C2F200000421017041F295
:100F2000E400C2F200000321017041F2E800C2F2C5
:100F300000000021018005F057FC41F2E500C2F2FB
:100F400000000078002840F0C28040F26A30C2F20F
:100F5000000005210170B0BD41F2E501C2F20001BF
:100F6000097840F24F30C2F20000012200290270DD
:100F7000EBD040F26A30C2F2000004210170B0BD33
:100F800041F2E500C2F2000000780028DDD040F216
:100F90003331C2F20001002240F62240C2F20000CA
:100FA0000A70BDE8B04005F0ABBA40F2B000C2F242
:100FB0000000B0F9020041F2E501C2F2000138B1CF
:100FC0000A78012A04D1012860DB05F01BF862E0F1
:100FD0000020087001205FE041F2E500C2F200004D
:100FE0000078012845D140F62244C2F2000461890C
:100FF000B4F90600A18003F0BFFA608003204BE043
:1010000040F26A30C2F2000005210170204603F070
:1010100033FC40F6A041C2F2000160684968451AFD
:1010200040F66C40C2F20000294605F073FB40F226
:10103000B001C2F20001488040F22420C2F2000058
:10104000294605F067FB40F24F31C2F200010A78F1
:1010500041F23813C2F20003012A18800CD06068F4
:10106000002848BF4042B0F5487F04D301200870F3
:10107000B0BD012010E052B36068002848BF404274
:10108000B0F5167F23D800200870B0BDB0F1FF3F47
:1010900001DC04F057FF022040F26A31C2F2000185
:1010A000087040F21004C2F2000494F840000128D5
:1010B0000DD1204603F0ACFD40F63C41C2F20001E8
:1010C000204605F011FC032084F84000B0BDB0BDFF
:1010D000FEE7000010B542F20014C4F20104A4F5CA
:1010E000045003F0E1FE40F2B000C2F20000012122
:1010F00003F06AFE40F24E31C2F200010870204651
:10110000042102F039FB204680210122BDE8104075
:1011100002F03CBB40F2223CC2F2000CBCF80010D2
:1011200040F25C32C2F20002013112888BB2B3FB92
:10113000F2F000FB1230002818BF084640F2583188
:10114000C2F20001098882B28A42ACF8000017D2CC
:1011500040F25A30C2F20000B0F9001040F2B00084
:10116000C2F20000012941801BDB0121A0F84610DA
:1011700040F63C40C2F2000047F6FF710161704743
:1011800040F2B000C2F200000021418040F63C4035
:10119000C2F20000416141F23810C2F20000018049
:1011A0007047B1F1FF3FC8BF70474FF6FF71A0F81D
:1011B000461040F63C400021C2F20000C8F2010196
:1011C00001617047FEE700007047000070470000B3
:1011D00010B5013807283CD8DFE810F00800AD0052
:1011E0003B000901360166017200DD0040F2E42295
:1011F000C2F2000241F2E5001278C2F200000121C1
:1012000041F2EA0C40F26B3E0170A2F11001C2F211
:10121000000C0022C2F2000E8CF80010ACF8012085
:101220008CF8271007E000BF00200EF80200013202
:10123000042A00F0658193B2002B0846F5D0022BFA
:10124000F2D0012BF0D00846022A98BF1CF8020009
:10125000EBE740F2E420C2F20000007841F2EA0C31
:10126000A0F12002C2F2000C0120ACF8010006201F
:101270008CF80300072050FA82F040F26B3100EB4B
:10128000102E0023C2F200018CF800208CF827E019
:1012900006E000BF0020C8540133052B00F0308168
:1012A0009CB2002C1046F6D0022CF3D0012C01D1B8
:1012B0000120F0E77046032B98BF1CF80300EAE713
:1012C00040F26A30C2F200000078012806D140F2F4
:1012D0001000C2F20000012180F8401040F2E4202A
:1012E000C2F20000007841F2EA0C40F26B3EA0F13D
:1012F0001001C2F2000C0022C2F2000E8CF80010A5
:10130000ACF801208CF8271007E000BF00200EF891
:1013100002000132042A00F0F38093B2002B084649
:10132000F5D0022BF2D0012BF0D00846022A98BF4C
:101330001CF80200EBE740F2E422C2F2000212784D
:1013400041F2E50141F2EA0C40F26B3EC2F20001CB
:101350000020103AC2F2000CC2F2000E08708CF8A5
:101360000020ACF801008CF8272006E000210EF8E0
:1013700000100130042800F0C38083B2002B114616
:10138000F5D0022BF2D0012BF0D01146022898BFE5
:101390001CF80010EBE740F2E420C2F200000078F5
:1013A00041F2EA0C40F26B3EA0F11001C2F2000CD7
:1013B0000022C2F2000E8CF80010ACF801208CF86C
:1013C000271006E000200EF802000132042A00F087
:1013D000978093B2002B0846F5D0022BF2D0012B58
:1013E000F0D00846022A98BF1CF80200EBE706F08E
:1013F0003DFD40F2E420C2F20000007841F2EA0C28
:1014000040F26B3EA0F11001C2F2000C0022C2F2C9
:10141000000E8CF80010ACF801208CF8271005E0C5
:1014200000200EF802000132042A69D093B2002B8A
:101430000846F6D0022BF3D0012BF1D00846022A41
:1014400098BF1CF80200ECE740F2E422C2F200026E
:10145000127840F2683141F2EA0C40F26B3EC2F27F
:1014600000010020103AC2F2000CC2F2000E088007
:101470008CF80020ACF801008CF8272006E000BFB3
:1014800000210EF800100130042839D083B2002B5F
:101490001146F6D0022BF3D0012BF1D011460228D1
:1014A00098BF1CF80010ECE740F2E420C2F2000004
:1014B000007841F2EA0C40F26B3EA0F11001C2F25A
:1014C000000C0022C2F2000E8CF80010ACF80120D3
:1014D0008CF8271006E000BF00200EF80200013251
:1014E000042A0DD093B2002B0846F6D0022BF3D07D
:1014F000012BF1D00846022A98BF1CF80200ECE745
:1015000040F23430C2F200000121017010BD000031
:101510000138C82800F21282DFE810F0C900A001EB
:101520006101E001F0018101A701B0012102000287
:1015300029018A0154011401BF01C50138022A02A0
:101540000701100210021002100210025B014E028D
:10155000100210020E014B011002220190011B012A
:10156000720269023B016F01D70178018402100207
:1015700010021002100210021002100210021002DB
:1015800010021002100210021002320110021002AA
:1015900010021002100210021002100210021002BB
:1015A00010021002100210021002100210021002AB
:1015B000100210021002100210021002100210029B
:1015C00010021002100231027D02100210021002FD
:1015D000100210021002100210021002100210027B
:1015E000100210021002100210021002100210026B
:1015F00010021002FC00F901F500EE004401970111
:101600004502CE000201B901E9018D02CE01E800D8
:10161000D40010029B027702E100090210021002BE
:101620003E0210021002DB00100210021002100233
:10163000100210021002100210021002100210021A
:10164000100210021002100210021002100210020A
:1016500010021002100210021002100210021002FA
:1016600010021002100210021002100210021002EA
:1016700010021002100210021002100210021002DA
:1016800010021002100210021002100210021002CA
:1016900010021002100210021002100210021002BA
:1016A000100210021002100210025B0254024FF6E8
:1016B0000040C0F6010083E140F29C70C2F20000DD
:1016C000821CBEE140F2C010C2F2000000F13D02F7
:1016D0008BE040F22420C2F20000821C85E040F240
:1016E0002420C2F2000000F12002AAE140F27410AE
:1016F000C2F20000C21C78E040F62240C2F20000B4
:1017000000F112029DE140F62240C2F2000000F119
:101710000C0296E140F62240C2F20000821D90E1E8
:1017200040F29C70C2F200004AE140F63C40C2F236
:10173000000000F1220284E140F6A040C2F2000065
:10174000021D4CE140F66C40C2F2000000F12202A2
:1017500077E141F2D400C2F2000000F1080270E12A
:101760004FF60040C0F6010000F1800237E141F27F
:10177000EA0040F66C42C2F20000C2F2000264E1EC
:1017800041F2EA0040F26832C2F20000C2F2000206
:101790005BE141F2EA0040F2BA72C2F20000C2F22A
:1017A000000252E140F62240C2F2000000F11002B5
:1017B00047E141F2EA0040F2B002C2F20000C2F298
:1017C000000242E140F66C40C2F2000000F120024B
:1017D00037E141F21210C2F20000821D31E14FF6F2
:1017E0000040C0F6010000F10C0241F2EA00C2F232
:1017F0000000F021082301F06DBC41F2EA0041F243
:10180000E002C2F20000C2F200021EE141F2EA0070
:1018100041F24012C2F20000C2F2000215E141F2B0
:10182000EA0040F25832C2F20000C2F200020CE1BB
:1018300040F66C40C2F20000821C02E14FF600400C
:10184000C0F6010000F18402C9E041F2EA0041F271
:10185000E602C2F20000C2F20002F6E04FF60040DB
:10186000C0F6010000F10802EBE041F2EA0040F2AC
:101870006A32C2F20000C2F20002BAE741F2EA00A4
:1018800040F24C32C2F20000C2F20002B1E740F274
:101890009C70C2F20000821DD3E040F2B000C2F2A0
:1018A0000000821CCDE041F2EA0040F63C42C2F268
:1018B0000000C2F20002C8E041F2EA0040F27412F5
:1018C000C2F20000C2F2000293E741F2EA0041F2E4
:1018D000E202C2F20000C2F20002B6E041F2EA0007
:1018E00040F25A32C2F20000C2F20002ADE040F211
:1018F0009C70C2F2000000F10802A2E041F2EA008E
:1019000040F25C32C2F20000C2F200029DE040F6FA
:101910002240C2F2000000F1080292E041F2EA0027
:1019200041F2D402C2F20000C2F200025BE040F2D7
:101930002420C2F2000000F1220282E080B582B0D1
:1019400003208DF8070041F2EA00C2F200000DF119
:101950000702E021082301F0BDFB02B080BD41F287
:10196000EA0040F24D32C2F20000C2F2000240E74B
:1019700040F63C40C2F2000000F1200261E040F27B
:101980005800C2F2000000F132025AE040F63C403A
:10199000C2F20000821C54E041F21210C2F20000B8
:1019A00000F112024DE041F2EA0040F29C72C2F2F4
:1019B0000000C2F2000248E041F21210C2F2000040
:1019C000021D3EE040F2C010C2F2000000F1180219
:1019D00005E040F2C010C2F2000000F1140241F232
:1019E000EA00C2F20000F021202301F073BB41F2B3
:1019F000EA0040F2B872C2F20000C2F2000224E033
:101A000041F2D400C2F2000019E040F22420C2F2F8
:101A10000000821C15E040F25800C2F2000000F104
:101A200034020EE041F2EA0041F23E12C2F200003E
:101A3000C2F2000209E040F29C70C2F2000000F124
:101A40000A0241F2EA00C2F20000F021102301F084
:101A500041BB41F2EA0040F22422C2F20000C2F28D
:101A60000002F2E770B5014600780138052800F25F
:101A7000E080DFE800F003968C914A9B40F2E4207E
:101A8000C2F20000007841F2EA0148F64613A0F1E4
:101A90001004C2F2000120200022C0F600030C70E6
:101AA000A1F80100985C092804D08E1801321D2A83
:101AB000F070F7D1202050FA84F24FF0FF3300BFCE
:101AC000C818007901331F2B0244F9D140F26B355D
:101AD00002EB12220023C2F2000581F8272005E064
:101AE0000020E8540133242B00F003819EB2002E25
:101AF0002046F6D0022EF3D0012E01D12020F0E7AF
:101B00001046222B98BFC85CEBE78878C97840F272
:101B1000253440F22432C2F20004C2F200022170E5
:101B200000211070002500F0EBF8217804460846EB
:101B30000121012600F0E4F840F2E421C2F20001A4
:101B40000978204200F0A780A1F1100041F2EA01DB
:101B500040F26B32C2F20001C2F200020870A1F83A
:101B6000015081F8270005E0002353550135042D6D
:101B700000F0BF80AEB2002E0346F6D0022EF3D0A6
:101B8000012EF1D00346022D98BF4B5DEDE788781A
:101B9000BDE87040FFF7BCBC8878BDE8704000F03D
:101BA00093B98878BDE87040FFF712BB40F2E42299
:101BB00040F22531C2F2000240F22430C2F20001AC
:101BC0001278C2F200000E7841F2EA010078A2F128
:101BD0001004C2F2000102228B1C52FA84F50C7030
:101BE000A1F80120C8700E7113F8010F013A0544E5
:101BF000FAD105EB152240F26B350023C2F2000545
:101C000081F8272005E000BF0020E8540133062BAF
:101C10006FD09EB2002E2046F7D0022EF4D0012EB7
:101C200002D10220F1E700BF1046042B98BFC85C28
:101C3000EBE740F2E420C2F20000007841F2EA0152
:101C4000A0F12004C2F200010120A1F80100C87037
:101C5000022050FA84F040F26B3500EB1022002392
:101C6000C2F200050C7081F8272004E00020E8543F
:101C70000133052B3DD09EB2002E2046F7D0022E18
:101C8000F4D0012E02D10120F1E700BF1046032B52
:101C900098BFC85CEBE7A1F1200441F2EA01C2F26F
:101CA00000010320C870042050FA84F040F26B3524
:101CB00000EB10220023C2F200050C70A1F80160B5
:101CC00081F8272005E000BF0020E8540133052BF0
:101CD0000FD09EB2002E2046F7D0022EF4D0012E57
:101CE00002D10120F1E700BF1046032B98BFC85C6A
:101CF000EBE740F23430C2F200000121017070BD08
:101D00000F384D2800F25980DFE810F04E005700E0
:101D1000570057005700570057005700570057000B
:101D20009F00BD00570057005700C70057005700DD
:101D300057005700570057005700570057005700EB
:101D400057005700570057005700570057005700DB
:101D500057005700570057005700570057005700CB
:101D600057005700570057005700570057005700BB
:101D700057005700570057005700570057005700AB
:101D8000570057005700570057005700570057009B
:101D9000570057005700570057005700570057008B
:101DA000D0009600A900B30040F2BC7040F2B0022F
:101DB000C2F20000C2F2000280E010B540F2E4205E
:101DC000C2F20000007841F2EA0CA0F12002C2F257
:101DD000000C0120ACF8010003208CF80300042063
:101DE00050FA82F040F26B3100EB102E0023C2F269
:101DF00000018CF800208CF827E004E00020C85493
:101E00000133052B10D09CB2002C1046F7D0022CC9
:101E1000F4D0012C02D10120F1E700BF7046032B62
:101E200098BF1CF80300EAE740F23430C2F2000029
:101E300001210170002010BD40F2BC7041F212126D
:101E4000C2F20000C2F2000239E041F2121240F286
:101E5000BC70C2F20002C2F2000006322FE041F272
:101E6000121240F2BC70C2F20002C2F200000C3248
:101E700025E041F2121240F2BC70C2F20002C2F23E
:101E800000000E321BE041F2121240F2BC70C2F2AE
:101E90000002C2F20000043211E040F2BC7040F2D5
:101EA000B002C2F20000C2F2000208E040F2BC70D0
:101EB00041F21212C2F20000C2F20002023240F8F5
:101EC000212001207047000010B582B004387C2822
:101ED00000F25187DFE810F07D00F902F1044F07AE
:101EE00025058503050439048B055705B701B7039C
:101EF0008F021B016D04A1044F074F074F074F07C7
:101F00004F074F074F074F0724084F074F074F074B
:101F10004F074F072706BF05B100C3025B06E70066
:101F20005B0283014F074F074F074F074F074F07CC
:101F30004F074F074F074F074F074F074F074F07F1
:101F40004F074F074F074F074F074F074F074F07E1
:101F50004F074F074F074F074F074F074F074F07D1
:101F60004F074F074F074F074F074F074F074F07C1
:101F70004F074F074F074F074F074F07D1034F0139
:101F80004F074F074F074F074F074F074F074F07A1
:101F90004F074F074F074F074F074F074F074F0791
:101FA0004F074F074F074F074F07B3068F0627020C
:101FB0002D03DD0452034F074F074F074F074F070D
:101FC0004F074F074F074F074F071B07F301F30555
:101FD000E70640F2E422C2F20002B1F8030040F248
:101FE0005A311278C2F2000141F2EA0C40F26B3E23
:101FF0000880A2F11001C2F2000C0022C2F2000E11
:102000008CF80010ACF801208CF8271007E000BF16
:1020100000200EF802000132042A00F07B8793B200
:10202000002B0846F5D0022BF2D0012BF0D0084649
:10203000022A98BF1CF80200EBE7B1F8030040F653
:102040006C41C2F200014A8C0882904040F2E422C6
:10205000C2F20002127841F2EA0C40F26B3E886054
:10206000A2F11001C2F2000C0022C2F2000E8CF8A4
:102070000010ACF801208CF8271006E000200EF8C4
:1020800002000132042A00F0458793B2002B084673
:10209000F5D0022BF2D0012BF0D00846022A98BFCF
:1020A0001CF80200EBE740F2E422C2F20002B1F8B1
:1020B000030041F2E2011278C2F2000141F2EA0C9F
:1020C00040F26B3E0880A2F11001C2F2000C002227
:1020D000C2F2000E8CF80010ACF801208CF827102A
:1020E00007E000BF00200EF802000132042A00F0D1
:1020F000118793B2002B0846F5D0022BF2D0012BAA
:10210000F0D00846022A98BF1CF80200EBE7B1F9AC
:10211000031040F63C40C2F2000004F031FB40F2F4
:10212000E420C2F20000007841F2EA0C40F26B3E7B
:10213000A0F11001C2F2000C0022C2F2000E8CF8D5
:102140000010ACF801208CF8271006E000200EF8F3
:1021500002000132042A00F0DD8693B2002B08460B
:10216000F5D0022BF2D0012BF0D00846022A98BFFE
:102170001CF80200EBE740F2E422C2F20002B1F8E0
:10218000030040F258011278C2F2000141F2EA0C59
:1021900040F26B3E8886A2F11001C2F2000C0022D0
:1021A000C2F2000E8CF80010ACF801208CF8271059
:1021B00007E000BF00200EF802000132042A00F000
:1021C000A98693B2002B0846F5D0022BF2D0012B42
:1021D000F0D00846022A98BF1CF80200EBE740F254
:1021E000E422C2F20002B1F8030041F23E1112787B
:1021F000C2F2000141F2EA0C40F26B3E0880A2F10B
:102200001001C2F2000C0022C2F2000E8CF8001085
:10221000ACF801208CF8271007E000BF00200EF872
:1022200002000132042A00F0758693B2002B0846A2
:10223000F5D0022BF2D0012BF0D00846022A98BF2D
:102240001CF80200EBE7B1F8030040F66C41C2F263
:102250000001B1F91020B1F912304884824003FA2C
:1022600000F040F2E423C2F200031B7841F2EA0CD2
:1022700040F26B3EC1E90220A3F11001C2F2000C52
:102280000022C2F2000E8CF80010ACF801208CF88D
:10229000271006E000200EF802000132042A00F0A8
:1022A000398693B2002B0846F5D0022BF2D0012BD1
:1022B000F0D00846022A98BF1CF80200EBE740F273
:1022C000E422C2F20002B1F8030040F224211278A5
:1022D000C2F2000141F2EA0C40F26B3E4880A2F1EA
:1022E0001001C2F2000C0022C2F2000E8CF80010A5
:1022F000ACF801208CF8271007E000BF00200EF892
:1023000002000132042A00F0058693B2002B084631
:10231000F5D0022BF2D0012BF0D00846022A98BF4C
:102320001CF80200EBE740F2E422C2F20002B1F82E
:10233000030040F622411278C2F2000141F2EA0C99
:1023400040F26B3E8881A2F11001C2F2000C002223
:10235000C2F2000E8CF80010ACF801208CF82710A7
:1023600007E000BF00200EF802000132042A00F04E
:10237000D18593B2002B0846F5D0022BF2D0012B69
:10238000F0D00846022A98BF1CF80200EBE740F2A2
:10239000E422C2F20002B1F8030041F240111278C7
:1023A000C2F2000141F2EA0C40F26B3E0880A2F159
:1023B0001001C2F2000C0022C2F2000E8CF80010D4
:1023C000ACF801208CF8271007E000BF00200EF8C1
:1023D00002000132042A00F09D8593B2002B0846CA
:1023E000F5D0022BF2D0012BF0D00846022A98BF7C
:1023F0001CF80200EBE7B1F9031040F63C40C2F2D2
:10240000000004F0BFF940F2E420C2F200000078BE
:1024100041F2EA0C40F26B3EA0F11001C2F2000C56
:102420000022C2F2000E8CF80010ACF801208CF8EB
:10243000271006E000200EF802000132042A00F006
:10244000698593B2002B0846F5D0022BF2D0012B00
:10245000F0D00846022A98BF1CF80200EBE740F6CD
:102460006C40C2F20000B1F90310428C41829140ED
:1024700040F2E422C2F20002127841F2EA0C40F289
:102480006B3EC160A2F11001C2F2000C0022C2F248
:10249000000E8CF80010ACF801208CF8271006E034
:1024A00000200EF802000132042A00F0338593B2B6
:1024B000002B0846F5D0022BF2D0012BF0D00846B5
:1024C000022A98BF1CF80200EBE740F2E422C2F2B5
:1024D0000002B1F8030040F25C311278C2F2000150
:1024E00041F2EA0C40F26B3E0880A2F11001C2F208
:1024F000000C0022C2F2000E8CF80010ACF8012093
:102500008CF8271007E000BF00200EF8020001320F
:10251000042A00F0FF8493B2002B0846F5D0022B6A
:10252000F2D0012BF0D00846022A98BF1CF8020016
:10253000EBE7B1F9030041F68021C0F2060191FBFF
:10254000F0F142F2934340F62242C9F24923C2F22B
:10255000000253FB0111B2F910305082881000EBD9
:10256000D171002B4FF00000918200F04F8454890C
:10257000611A09B291FBF3F100F049BC40F2E42288
:10258000C2F20002B1F8030041F2E6011278C2F291
:10259000000141F2EA0C40F26B3E0880A2F110010A
:1025A000C2F2000C0022C2F2000E8CF80010ACF84F
:1025B00001208CF8271006E000200EF802000132FE
:1025C000042A00F0A78493B2002B0846F5D0022B12
:1025D000F2D0012BF0D00846022A98BF1CF8020066
:1025E000EBE740F2E422C2F20002C87840F24D313B
:1025F0001278C2F2000141F2EA0C40F26B3E087020
:10260000A2F11001C2F2000C0022C2F2000E8CF8FE
:102610000010ACF801208CF8271006E000200EF81E
:1026200002000132042A00F0758493B2002B0846A0
:10263000F5D0022BF2D0012BF0D00846022A98BF29
:102640001CF80200EBE7B1F803C047F6AB40ACEB77
:10265000000040F2AA61884200F2C68305208DF88E
:10266000070041F2EA00C2F200000DF10702E0218A
:10267000082300F02FFD02B010BD40F2E422C2F2A8
:102680000002B1F8030040F258011278C2F20001D2
:1026900041F2EA0C40F26B3E4886A2F11001C2F210
:1026A000000C0022C2F2000E8CF80010ACF80120E1
:1026B0008CF8271007E000BF00200EF8020001325E
:1026C000042A00F0278493B2002B0846F5D0022B91
:1026D000F2D0012BF0D00846022A98BF1CF8020065
:1026E000EBE740F2E422C2F20002D1F8030041F22B
:1026F000D4011278C2F2000141F2EA0C40F26B3EC2
:102700000860A2F11001C2F2000C0022C2F2000E19
:102710008CF80010ACF801208CF8271007E000BFFF
:1027200000200EF802000132042A00F0F38393B275
:10273000002B0846F5D0022BF2D0012BF0D0084632
:10274000022A98BF1CF80200EBE740F2E422C2F232
:102750000002B1F8030040F66C411278C2F20001A9
:1027600041F2EA0C40F26B3E0880A2F11001C2F285
:10277000000C0022C2F2000E8CF80010ACF8012010
:102780008CF8271007E000BF00200EF8020001328D
:10279000042A00F0BF8393B2002B0846F5D0022B29
:1027A000F2D0012BF0D00846022A98BF1CF8020094
:1027B000EBE740F2E422C2F20002B1F8030040F677
:1027C0003C411278C2F2000141F2EA0C40F26B3E49
:1027D0000884A2F11001C2F2000C0022C2F2000E25
:1027E0008CF80010ACF801208CF8271007E000BF2F
:1027F00000200EF802000132042A00F08B8393B20D
:10280000002B0846F5D0022BF2D0012BF0D0084661
:10281000022A98BF1CF80200EBE7B1F8030040F66B
:102820003C41C2F20001B1F91020B1F912304884E4
:10283000824003FA00F040F2E423C2F200031B7866
:1028400041F2EA0C40F26B3EC1E90220A3F1100113
:10285000C2F2000C0022C2F2000E8CF80010ACF89C
:1028600001208CF8271006E000200EF8020001324B
:10287000042A00F04F8393B2002B0846F5D0022BB8
:10288000F2D0012BF0D00846022A98BF1CF80200B3
:10289000EBE7B1F8032040F62241C2F20001002A22
:1028A0004FF000000A8200F0DD824B898C8A12B260
:1028B0001B1B1BB293FBF2F2D5E240F2E422C2F200
:1028C0000002B1F8030040F258311278C2F2000160
:1028D00041F2EA0C40F26B3E0880A2F11001C2F214
:1028E000000C0022C2F2000E8CF80010ACF801209F
:1028F0008CF8271007E000BF00200EF8020001321C
:10290000042A00F0078393B2002B0846F5D0022B6F
:10291000F2D0012BF0D00846022A98BF1CF8020022
:10292000EBE740F2E422C2F20002C87840F24C31F8
:102930001278C2F2000141F2EA0C40F26B3E0870DC
:10294000A2F11001C2F2000C0022C2F2000E8CF8BB
:102950000010ACF801208CF8271006E000200EF8DB
:1029600002000132042A00F0D58293B2002B0846FF
:10297000F5D0022BF2D0012BF0D00846022A98BFE6
:102980001CF80200EBE740F2E422C2F20002B1F8C8
:10299000030040F66C411278C2F2000141F2EA0CE9
:1029A00040F26B3E0884A2F11001C2F2000C00223A
:1029B000C2F2000E8CF80010ACF801208CF8271041
:1029C00007E000BF00200EF802000132042A00F0E8
:1029D000A18293B2002B0846F5D0022BF2D0012B36
:1029E000F0D00846022A98BF1CF80200EBE740F23C
:1029F000E422C2F20002B1F8030040F66C41127802
:102A0000C2F2000141F2EA0C40F26B3E4880A2F1B2
:102A10001001C2F2000C0022C2F2000E8CF800106D
:102A2000ACF801208CF8271007E000BF00200EF85A
:102A300002000132042A00F06D8293B2002B084696
:102A4000F5D0022BF2D0012BF0D00846022A98BF15
:102A50001CF80200EBE740F2E422C2F20002B1F8F7
:102A6000030041F2D4011278C2F2000141F2EA0CF3
:102A700040F26B3E4881A2F11001C2F2000C00222C
:102A8000C2F2000E8CF80010ACF801208CF8271070
:102A900007E000BF00200EF802000132042A00F017
:102AA000398293B2002B0846F5D0022BF2D0012BCD
:102AB000F0D00846022A98BF1CF80200EBE740F26B
:102AC000E422C2F20002B1F8030040F2242112789D
:102AD000C2F2000141F2EA0C40F26B3E0884A2F11E
:102AE0001001C2F2000C0022C2F2000E8CF800109D
:102AF000ACF801208CF8271007E000BF00200EF88A
:102B000002000132042A00F0058293B2002B08462D
:102B1000F5D0022BF2D0012BF0D00846022A98BF44
:102B20001CF80200EBE740F2E422C2F20002B1F826
:102B3000030041F2D4011278C2F2000141F2EA0C22
:102B400040F26B3E0881A2F11001C2F2000C00229B
:102B5000C2F2000E8CF80010ACF801208CF827109F
:102B600007E000BF00200EF802000132042A00F046
:102B7000D18193B2002B0846F5D0022BF2D0012B65
:102B8000F0D00846022A98BF1CF80200EBE740F29A
:102B9000E422C2F20002B1F8030041F2E00112782F
:102BA000C2F2000141F2EA0C40F26B3E0880A2F151
:102BB0001001C2F2000C0022C2F2000E8CF80010CC
:102BC000ACF801208CF8271007E000BF00200EF8B9
:102BD00002000132042A00F09D8193B2002B0846C6
:102BE000F5D0022BF2D0012BF0D00846022A98BF74
:102BF0001CF80200EBE7B1F9030041F68021C0F2B6
:102C0000060191FBF0F142F2934340F62242C9F2F1
:102C10004923C2F2000253FB0111B2F910301081B6
:102C2000881000EBD171002B4FF00000518100F0B3
:102C30004581948A091B09B291FBF3F13FE140F20F
:102C4000E422C2F20002B1F8030040F622411278F9
:102C5000C2F2000141F2EA0C40F26B3EC880A2F1E0
:102C60001001C2F2000C0022C2F2000E8CF800101B
:102C7000ACF801208CF8271007E000BF00200EF808
:102C800002000132042A00F0458193B2002B08466D
:102C9000F5D0022BF2D0012BF0D00846022A98BFC3
:102CA0001CF80200EBE740F2E422C2F20002B1F8A5
:102CB000030040F224211278C2F2000141F2EA0C32
:102CC00040F26B3E4884A2F11001C2F2000C0022D7
:102CD000C2F2000E8CF80010ACF801208CF827101E
:102CE00007E000BF00200EF802000132042A00F0C5
:102CF000118193B2002B0846F5D0022BF2D0012BA4
:102D0000F0D00846022A98BF1CF80200EBE740F218
:102D1000E422C2F20002B1F8030040F2242112784A
:102D2000C2F2000141F2EA0C40F26B3E0880A2F1CF
:102D30001001C2F2000C0022C2F2000E8CF800104A
:102D4000ACF801208CF8271007E000BF00200EF837
:102D500002000132042A00F0DD8093B2002B084605
:102D6000F5D0022BF2D0012BF0D00846022A98BFF2
:102D70001CF80200EBE740F2E421C2F200010978FE
:102D800041F2EA0C0320C2F2000C8DF80700A1F119
:102D9000200201218CF803000420ACF8011050FA45
:102DA00082F040F26B3100EB102E0023C2F20001E2
:102DB0008CF800208CF827E006E000BF0020C85403
:102DC0000133052B00F0A6809CB2002C1046F6D0F3
:102DD000022CF3D0012C01D10120F0E77046032B27
:102DE00098BF1CF80300EAE740F2B004C2F2000406
:102DF00041F2EA00C2F20000F02100220023A4F810
:102E000002C002B0BDE8104000F064B9002140F2F9
:102E1000E423C2F200031B7841F2EA0C40F26B3E5D
:102E2000D181A3F11002C2F2000CC2F2000E8CF8A4
:102E30000020ACF801008CF8272005E000210EF8F6
:102E400000100130042865D083B2002B1146F6D063
:102E5000022BF3D0012BF1D01146022898BF1CF8A9
:102E60000010ECE7002240F2E423C2F200031B78DA
:102E700041F2EA0C40F26B3ECA81A3F11002C2F2A9
:102E8000000CC2F2000E8CF80020ACF801008CF8A7
:102E9000272005E000210EF800100130042839D069
:102EA00083B2002B1146F6D0022BF3D0012BF1D0C8
:102EB0001146022898BF1CF80010ECE7002140F2F0
:102EC000E423C2F200031B7841F2EA0C40F26B3EAD
:102ED000D181A3F11002C2F2000CC2F2000E8CF8F4
:102EE0000020ACF801008CF8272005E000210EF846
:102EF0000010013004280DD083B2002B1146F6D00B
:102F0000022BF3D0012BF1D01146022898BF1CF8F8
:102F10000010ECE740F23430C2F2000001210170F1
:102F200002B010BD70470000B0B540F24D30C2F2A3
:102F300000000078012808BF02F0E8F940F23A10DA
:102F4000C2F200000078FDF707FF40F22A34C2F217
:102F50000004608849F2300147F25072C3F24151D7
:102F6000CFF6FC7200FB021040F2AC7141F2121578
:102F7000000CC2F20001C2F200050880A880B4F97A
:102F8000000001F0F9FA40F2A871C2F200010968EC
:102F900041F6F412C0F201025143C90B298041F2FB
:102FA000D401C2F20001496800EE100A9FED2C1A0C
:102FB0005143B8EEC00AC90B20EE010A6980BDEE8C
:102FC000C00A40F25801E88010EE100AC2F2000177
:102FD0008A8EC886498E024441F23A13084441F26F
:102FE0003C11C2F20003C2F200011A80088020885E
:102FF00040F61A21884240F2381140F26830C2F29D
:103000000001C2F2000001D2022204E02288B2F5DF
:10301000656F05D301220B8805881A402A43028078
:10302000628840F253739A4205D80988028801F0F9
:10303000040111430180008828B140F26A30C2F2D5
:1030400000000721017040F226300021C2F200008A
:10305000C4F202010222BDE8B04003F05FB800BF35
:10306000C340403E4EF68850CEF20000026843F660
:10307000000142F47002C4F2020102600A6842F0E8
:1030800001020A600A689207FCD58A6822F00302EE
:103090008A6000BF8A6812F00C0FFBD14FF08042AB
:1030A0008A600A684FF6FF73CFF6F2631A400A602F
:1030B00043F20202C0F203024A604FF47122C1F8E7
:1030C000A0204FF41F02CA604FF0006140F8801C3E
:1030D000704700002DE9F04F83B0844640F2E420B1
:1030E000C2F2000000784FEAD30E00EB010BE2467B
:1030F000DD0A60464FEAF3070AF801EF0A2F00F8ED
:10310000025F8CF800B000F2858006210291052153
:103110000191022100914FF0040801260323144677
:103120009146DFE807F037342E7722777777777785
:1031300006001178941D8CF8051051780A278CF838
:103140000610917807268CF80710D17809238CF89F
:10315000081011798CF8031051798CF804100C21A7
:1031600002910B2101910821009121780CF80310A4
:10317000915D1E460CF807100099DDE9013802EB5D
:10318000010999F8001032440CF8031043461178F5
:103190000CF803105FFA8EF151EA052255FA8EF110
:1031A00051FA8BF30AD00CF103070026002500BF6B
:1031B000B95D0135EEB2B2420B44F9D803EB1321ED
:1031C000634640F26B3503F8271FD71C04320026F4
:1031D000C2F2000505E000BF0978A9550136B242E8
:1031E0000FD0B4B2022C0146F6D0012C5146F3D0D8
:1031F000002C6146F0D01946BE4238BF0CEB0601E8
:10320000EAE740F23430C2F200000121017003B05D
:10321000BDE8F08F48F646140CF103020023C0F617
:10322000000400BFE15C0929B4D0D15401331D2B47
:10323000F8D1AFE70020C4F201000169090644BFDC
:10324000C1685FEA016100D4704780B5802103F056
:1032500061FF40F23810C2F2000040F2683100888D
:10326000C2F200010A8800F0080010430880BDE89F
:103270008040704710B50024C4F2010420460221AA
:1032800003F04CFF002808BF10BD2046022103F0C8
:1032900041FF40F2580040F22031C2F20000C2F279
:1032A000000190F83C00097880F00100C9B20843A1
:1032B00041F21840C4F202004FF4807108BF103090
:1032C000016010BDB0B50C20C4F201004168C9070F
:1032D0001CBF00685FEAC07000D1B0BD40F200447E
:1032E000C4F2000404F57C40012103F013FF42F214
:1032F0000000C4F20100012100F0A2FC40F23030D5
:10330000C2F200000078012878D140F23330C2F2D6
:103310000000007841F238150128C2F200051ED1E4
:1033200040F24F30C2F200000078012826D140F26E
:103330003A30C2F200000078012827D140F2B000F4
:10334000C2F20000B0F90010B0F90400411A40F6D2
:103350003C40C2F2000003F0DDF9288031E040F289
:103360003C1040F6224140F6A042C2F20000C2F2F8
:103370000001C2F2000200F02DFF22E040F63C41C5
:10338000C2F20001B5F900004A8C18E040F2B0002A
:1033900040F2AE71C2F20000C2F20001B0F90200C8
:1033A000B1F90010411A40F63C40C2F2000003F0AF
:1033B000B1F940F22421C2F200014A8C28809040E9
:1033C0004861B5F9000041F29511002848BF40421C
:1033D000484340F69C45C00BC2F20005288003F02C
:1033E000F1F9B5F9001040F25805C2F2000528467F
:1033F00001F0CCF8B5F914006968086440F6A045FE
:10340000C2F20005284601F001F940F25E30C2F236
:103410000000007801280CD028682969814208D969
:103420002046042103F076FE20460421012203F009
:1034300069FF40F22834C2F200042078411C41F2B6
:103440001210C2F20000027C4BB293422170B8BF4E
:10345000B0BD40F2B001C2F2000109684FEA31414B
:10346000C16004F0EBFB00202070B0BD10B544F645
:103470000004C4F201042046012103F04FFE00289D
:1034800008BF10BD2046012103F044FE2046002164
:1034900003F026FE41F2E400C2F2000001780229A6
:1034A00004D0012909D10221017006E041F2C800CF
:1034B000C2F2000001880131018040F23330C2F2D3
:1034C0000000007858B340F25800C2F20000022118
:1034D0004187A4F59040202103F018FE40F23C10F3
:1034E00040F6A042C2F20000C2F2000281781369E5
:1034F000017003EB5300106048F6001048F6071205
:10350000C0F60000C0F60002405C525C40F235316B
:10351000C2F2000148700220CA7001F05DF940F269
:103520006630C2F200000021018040F23130C2F268
:1035300000000122027040F23230C2F2000001703D
:1035400040F25E30C2F20000017010BD10B540F2D2
:103550000044C4F200042046042103F0DFFD0028EB
:1035600008BF10BD2046042103F0D4FD20460421ED
:10357000002203F0C7FE40F23C10C2F2000040F20D
:103580005E3201784378C2F200020124994214703D
:1035900018BF417040F2580140F6A042C2F200014B
:1035A000C2F20002BDE8104000F0BCBEB0B582B06F
:1035B00044F20045C4F200052846102104F0DCFB6B
:1035C000E8B346F2300428461021C4F2020404F0A5
:1035D000BDFB2046002101F077FD204601F07AFD79
:1035E00041F22C12C2F20002157841F22611C0F10C
:1035F0000C03C2F20001412D0B8009D15278C0F1B9
:10360000090083B29342488004D104F093FA0EE09B
:103610000B2000E00C208DF8070041F2EA00C2F216
:1036200000000DF10702E0210823FFF753FD2046BB
:103630000C2101F053FD2046012101F045FD02B0AF
:10364000B0BD0000FEE700000A78436802F0010206
:1036500023F4807343EA022242604A78836862F36B
:10366000410383608A78836802F0010223F40063D7
:1036700043EAC2228260C978C26A013901F00F01AF
:1036800022F4700242EA0151C16270474FF080712A
:1036900001607047816841F0080181607047000057
:1036A0008068C0F3C0007047816841F00401816008
:1036B000704700008068C0F38000704742F2043118
:1036C000C4F2010102780B6862F304030B604278D4
:1036D0000B6802F00F0223F4702343EA02420A60EF
:1036E00082780B6802F0040223F0805343EA82627E
:1036F0000A6082780B6802F0030223F4404343EA35
:1037000082320A60C2780B6802F0010223F400538F
:1037100043EA42320A6002790B6802F00F0223F496
:10372000706343EA02220A6040790A6800F00100EF
:1037300022F4000242EAC0500860704700218180F4
:1037400001607047826801F0010122F4807242EA50
:103750000121816070470000826801F0010122F4BC
:10376000007242EA4121816070470000826861F383
:103770000002826070470000C9430160704700008A
:103780000068084018BF01207047000032B1012ACC
:1037900018BF70474268114341607047426822EA8F
:1037A000010141607047000080B51A2900F2FF80D6
:1037B000DFE811F01B0086006800B800C20072004C
:1037C00090009A00D600CC0045007C005500FD001A
:1037D0003200A400AE00EA00FD00E00022005F001D
:1037E000F40029004C00FD003C00D0F810C063F349
:1037F000020CC0F810C0DAE0D0F850C063F3020C3D
:10380000C0F850C0D3E0D0F850C003F0070E2CF43D
:10381000606343EA4E23C9E0D0F80CC003F0070E02
:103820002CF4E04343EA0E33C360C0E0D0F850C04C
:1038300003F0070E2CF4E01343EA8E43B6E0D0F811
:103840000CC063F3020CC0F80CC0B0E0D0F850C05C
:1038500003F0070E2CF4E04343EA0E33A6E0D0F861
:103860000CC003F0070E2CF4E07343EA8E13C36020
:103870009DE0D0F850C003F0070E2CF0380343EA67
:10388000CE0393E0D0F810C003F0070E2CF4E073E1
:1038900043EA8E1303618AE0D0F810C003F0070EEC
:1038A0002CF4603343EACE33036180E0D0F80CC0DF
:1038B00003F0070E2CF0380343EACE03C36076E032
:1038C000D0F810C003F0070E2CF0380343EACE0303
:1038D00003616CE0D0F810C003F0070E2CF4E01385
:1038E00043EA8E43036162E0D0F810C003F0070E94
:1038F0002CF4600343EA4E53036158E0D0F80CC047
:1039000003F0070E2CF4603343EACE33C3604EE07D
:10391000D0F80CC003F0070E2CF4E01343EA8E43FA
:10392000C36044E0D0F810C003F0070E2CF46063CD
:1039300043EA4E2303613AE0D0F810C003F0070ECB
:103940002CF4E04343EA0E33036130E0D0F810C0BA
:1039500003F0070E2CF0605343EACE63036126E0C8
:10396000D0F810C003F0070E2CF0E06343EA0E63BA
:1039700003611CE0D0F80CC003F0070E2CF060537C
:1039800043EACE63C36012E0D0F80CC003F0070E28
:103990002CF4600343EA4E53C36008E0D0F850C0F3
:1039A00003F0070E2CF4E07343EA8E130365013A2B
:1039B0000F2A88BF80BDDFE802F0083A2630173FA3
:1039C000493553214E121C440D2B426B61F3040206
:1039D000426380BDC26A61F38E22C26280BD026B07
:1039E00061F35D62026380BD426B61F31852426312
:1039F00080BDC26A61F30402C26280BD026B61F3E2
:103A0000D332026380BD426B61F38E22426380BD7C
:103A1000C26A61F3D332C26280BD426B61F3D332BA
:103A2000426380BD026B61F34912026380BD426B49
:103A300061F34912426380BD426B61F35D62426390
:103A400080BDC26A61F34912C26280BD026B61F33C
:103A50000402026380BD026B61F31852026380BDF1
:103A6000026B61F38E22026380BD00002DE9F041FC
:103A70008AB042F20005C4F2010546F208080024AB
:103A800028460021C4F20208CDE90844FFF76EFE83
:103A90000DF11A063046FFF751FE4FF48060ADF885
:103AA0001A0030468DF81F40FFF708FE0820C0F2CC
:103AB00044000121012701F01BF84FF440100121BF
:103AC00001F016F80526C0F230063046012101F05B
:103AD0000FF83046012101F00BF806F11100012129
:103AE00001F006F808AE304601F052FE03208DF8D2
:103AF000260005F560403146ADF82470089701F0C6
:103B00004FFE4FF4007005F5744708903846314673
:103B100001F046FE4FF4805008903846314601F0DF
:103B20003FFE404601F038FB6E46304601F0D8FAC1
:103B30000320C0F20010CDF80A0040F22A30C2F291
:103B40000000019005F14C00009040F20110C0F21D
:103B50000120CDF80E0040463146ADF8084001F096
:103B6000D3FA0DF116063046FFF790FD0120C0F2A2
:103B70000030CDF8160028463146FFF765FD28468F
:103B8000002101220023FFF70FFE28461721022201
:103B90000023FFF709FE28461A2103220023FFF71E
:103BA00003FE28460021002200F02EF828460121BD
:103BB000FFF7C8FD28460121FFF7CEFDA868C00722
:103BC00013D128460121FFF7D1FD2846FFF762FDFA
:103BD0002846FFF765FD0028FAD12846FFF764FD67
:103BE0002846FFF767FD0028FAD105F5A03008F157
:103BF000FC01052201F07CFA4046012101F064FA43
:103C00000AB0BDE8F0810000836810294FEA016125
:103C100005D343F00043836001F0706102E023F0BC
:103C200000438360836802F0030223F0706319434A
:103C30008160816821F0405141EA027181607047E2
:103C4000826801F0010122F0804242EA81718160C4
:103C500070470000826B013901F0030122F4401229
:103C600042EA01518163704780B51A2900F2FF8052
:103C7000DFE811F01B0086006800B800C200720087
:103C800090009A00D600CC0045007C005500FD0055
:103C90003200A400AE00EA00FD00E00022005F0058
:103CA000F40029004C00FD003C00D0F810C063F384
:103CB000020CC0F810C0DAE0D0F850C063F3020C78
:103CC000C0F850C0D3E0D0F850C003F0070E2CF479
:103CD000606343EA4E23C9E0D0F80CC003F0070E3E
:103CE0002CF4E04343EA0E33C360C0E0D0F850C088
:103CF00003F0070E2CF4E01343EA8E43B6E0D0F84D
:103D00000CC063F3020CC0F80CC0B0E0D0F850C097
:103D100003F0070E2CF4E04343EA0E33A6E0D0F89C
:103D20000CC003F0070E2CF4E07343EA8E13C3605B
:103D30009DE0D0F850C003F0070E2CF0380343EAA2
:103D4000CE0393E0D0F810C003F0070E2CF4E0731C
:103D500043EA8E1303618AE0D0F810C003F0070E27
:103D60002CF4603343EACE33036180E0D0F80CC01A
:103D700003F0070E2CF0380343EACE03C36076E06D
:103D8000D0F810C003F0070E2CF0380343EACE033E
:103D900003616CE0D0F810C003F0070E2CF4E013C0
:103DA00043EA8E43036162E0D0F810C003F0070ECF
:103DB0002CF4600343EA4E53036158E0D0F80CC082
:103DC00003F0070E2CF4603343EACE33C3604EE0B9
:103DD000D0F80CC003F0070E2CF4E01343EA8E4336
:103DE000C36044E0D0F810C003F0070E2CF4606309
:103DF00043EA4E2303613AE0D0F810C003F0070E07
:103E00002CF4E04343EA0E33036130E0D0F810C0F5
:103E100003F0070E2CF0605343EACE63036126E003
:103E2000D0F810C003F0070E2CF0E06343EA0E63F5
:103E300003611CE0D0F80CC003F0070E2CF06053B7
:103E400043EACE63C36012E0D0F80CC003F0070E63
:103E50002CF4600343EA4E53C36008E0D0F850C02E
:103E600003F0070E2CF4E07343EA8E130365D0F8D9
:103E700038C06FF0030363EA1C531A440332032A69
:103E800088BF80BDDFE802F00211070C826B61F38E
:103E90000402826380BD826B61F38E22826380BDE7
:103EA000826B61F3D332826380BD826B61F349120E
:103EB000826380BD70B586B042F20014C4F2010482
:103EC000002620460021CDE90466FFF74FFC0DF1E6
:103ED00006052846FFF732FC4FF48060CDF8060057
:103EE00028468DF80B60FFF7E9FB0920C0F244007B
:103EF0000121012600F0FCFD0125C0F23005284615
:103F0000012100F0F5FD4FF44010012100F0F0FD1B
:103F10004FF44010012100F0EBFD4FF4401001215F
:103F200000F0E6FD05F11500012100F0E1FD04AD12
:103F3000284601F02DFC03208DF816000220049085
:103F400004F563402946ADF8146001F029FC102007
:103F500004F55F4604903046294601F021FC2020FC
:103F600004903046294601F01BFC40200490304666
:103F7000294601F015FC802004903046294601F0C6
:103F80000FFC03AD2846FFF781FB4FF04070039014
:103F900020462946FFF758FB2046002100F082F812
:103FA00020460321FFF756FE204609210122002367
:103FB000FFF75AFE2046092102220223FFF754FE92
:103FC0002046092103220023FFF74EFE2046002150
:103FD00000F050F820460021012200F02FF8204682
:103FE0004FF4800100F068F8204641F20E010022F3
:103FF00000F072F8A068C00713D120460121FFF736
:10400000B5FB2046FFF746FB2046FFF749FB00289B
:10401000FAD12046FFF748FB2046FFF74BFB00286C
:10402000FAD106B070BD000003298FBF002001F057
:104030003F0100EB8100C06B80B27047836810299C
:104040004FEA014105D343F40003836001F470217A
:1040500002E023F400038360836802F0030223F488
:10406000702319438160816821F4401141EA0251B3
:1040700081607047426801F0010122F4805242EAF7
:104080000131416070470000826801F0010122F4B3
:10409000800242EA81518160816821F4800181605F
:1040A00070470000426801F0030122F0407242EACA
:1040B0000161416070470000426822F400024260E2
:1040C000426822F480024260426822F40072426038
:1040D0004268114341607047D0F824C04FF6FF7327
:1040E0002CEA030319444162816A6FF30F01114402
:1040F0008162704780B540F62240C2F2000002F0B3
:10410000FFF941F2E800C2F20000B0F9001040F2FD
:10411000DB52914202DC0131018080BD0020C4F2FB
:10412000010000F0B9FF40F26A30C2F20000032142
:10413000017080BDF0B581B0044641F2E400C2F2E6
:1041400000000121017041F2C800C2F20000002508
:10415000058040F22030C2F20000057040F2663067
:10416000C2F20000058040F6A040C2F200002826FE
:104170000660056140F2B00040F2A407C2F2000000
:10418000C2F200070580C5803868B7F9062084F8B8
:104190003D10002102F030FF40F29802C2F200020E
:1041A00010681179B2F9062002F026FF0A21606832
:1041B000B4F91C20B980062102F01EFF208A618A12
:1041C000A5840844A18DA082E18220836183668753
:1041D00001B0F0BD70B540F2B003C2F200030C466E
:1041E0004988B3F84630594341F23813C2F200030C
:1041F0001980B4F90010B4F90430994264DD92F9E1
:10420000081040F2082390F800C0C1EBC101C2F2CF
:10421000000303EB410333F81C3040F2180E5FFA41
:1042200083FC837048F60E13C0F6000303EB4101D4
:10423000C4F2010E11F81C10DEF800C048F68F73AE
:1042400003EA0C0340F2902CC2F2000C3CF831500F
:104250000CEBC10C2B43CEF80030DEF804304FF6E7
:104260008F76BCF8045033402B43CEF8043040F234
:10427000C825DEF80830C2F200054FF2222635F8D4
:10428000211033401943CEF80810AEF1180105464D
:1042900008462021164602F039FFA87896F9081042
:1042A0002870B4F904000122A2EB4101484341F215
:1042B00094114843706140F23130C2F20000027044
:1042C00000202080306170BD481C208070BD00003F
:1042D00010B51821C4F201010A6840F2902E48F688
:1042E0008F73C2F2000E1A403EF83030D1F808C089
:1042F0001A430A600EEBC00E4A684FF68F74BEF880
:10430000043022401A4340F2C8234A60C2F200033C
:104310004FF2222233F8200002EA0C021043886098
:1043200010BD00002DE9F041154640F23232C2F2D4
:104330000002012313701422C4F2020213680C4617
:1043400083F40041116040F24C31C2F2000109785F
:1043500041F2D008C2F20008C1B12421C4F2010127
:1043600009682B6940F25826C2F2000641F2941700
:1043700041F2CC0203FB07133768C2F2000211605E
:10438000DA1B31600021C8F80020296140F2333186
:10439000C2F200010978C9B195F9081040F208236A
:1043A0000278C1EBC101C2F2000303EB410333F811
:1043B000122048F60E13C0F6000303EB4101D3B2FE
:1043C00011F8131082700846FFF782FF40F2B470B4
:1043D000C2F200000068D8F8001001F079FE4FF634
:1043E0001D314FF48772884240F298016861C8BF5E
:1043F0004FF4E162C2F20001A0680A81002102F0DC
:1044000075FE6869A268A0F60B20010CB0F5616F1B
:10441000D8BF4FF46160D368B8BF002123F0010317
:10442000D3604FF6FE72104040EA014009B24008E6
:104430004A1CB0FBF2F0A26880B2D062A068816230
:10444000A068416941F001014161A068016921F062
:1044500001010161A068C16841F00101C160A0686B
:104460000121BDE8F04102F03BBE0000F0B581B093
:1044700005460068012102F04DFE6868102102F037
:1044800049FE2868002102F02BFE6868002102F036
:1044900027FE2868002102F029FE6868002102F04A
:1044A00025FE40F2A400C2F200000068002102F0E4
:1044B0001DFE40F29800C2F200000068002102F0E8
:1044C00015FE42F20014C4F2010420460021FFF759
:1044D0004DF9204604210426FFF74EF968680021B3
:1044E00002F080FD68684FF48051012202F000FE66
:1044F00046F20805C4F202052846002100F0E4FD5A
:1045000005F13C00002100F0DFFD05F150073846C1
:10451000022100F0E3FD20460321FFF79BFB20462C
:10452000092101220023FFF79FFB204609210222D7
:104530000323FFF799FB20460021FFF79BFD40F284
:104540009830C2F2000000780322022808BF092632
:10455000204631460123FFF787FB2846012100F062
:10456000B3FD3846012100F0AFFD2046012101B026
:10457000BDE8F040FFF7FAB840F25801C2F200017E
:10458000B1F92610484340F38F30704780B5B0F939
:10459000102040F2203CC2F2000C8A42B8BF4A0808
:1045A000B0F812E09CF80030724482824BB1B0F94E
:1045B0002E208A4211DD818D0022C18290F83D10AB
:1045C0001BE0B0F930208A4211DD90F83D10828D59
:1045D0000129C28219D1002213E0028F90F83D30E8
:1045E000891A012BC18218BF80BD012209E0028F08
:1045F000891AC18290F83D10012201298CF800200F
:1046000003D1806A102102F07DFE80BDD0E9032134
:1046100001319142016198BF704740F23A229142C4
:104620000ED841F29410484341F2D001C2F2000189
:10463000086040F23130C2F2000001210170704781
:1046400040F23B21C0E903110021416040F2A87013
:10465000C2F20000016040F2B470C2F2000040F209
:1046600060220068C2F20002C2E9041102F036B909
:1046700070B584B000264FF440100121CDE90066EA
:1046800000F036FA4FF44010012100F031FA4FF4F7
:104690004010012100F02CFA4FF44010012100F0ED
:1046A00027FA0020C0F20310002401901020C4F269
:1046B00002046D4600902046294601F071F8202042
:1046C00000902046294601F06BF8402000902046DB
:1046D000294601F065F8802000902046294601F027
:1046E0005FF80DF10B04204600F030F80420C0F212
:1046F00000300390022021468DF80B6000F06CF82A
:1047000002203F213F22012300F038F8022001213E
:1047100000F020F80220102100F002F804B070BD73
:1047200043F6300201F07F01C4F2010201284FEA92
:10473000C14005D1116821F07E71084310607047B7
:10474000116921F07E7108431061704700210171E9
:104750000160704743F63002C4F20102012801F003
:10476000010005D1116821F0010108441060704773
:10477000116921F0010108441061704780B543F6CA
:10478000340C0128C4F2010C0DD1DCF80000002B20
:10479000634614BF40F0010020F0010043F8080B0D
:1047A0000CF1040E0DE0DCF81000002B0CF1140EDF
:1047B0000CF118030CBF20F0010040F00100CCF810
:1047C0001000186862F305001860DEF8000061F35D
:1047D0000500CEF8000080BD0B7843F6300203F0F0
:1047E0000303C4F2010201284FEA032021D1136818
:1047F00023F44073184310604878136860F306137D
:1048000013608878136860F383031360C8781368B3
:1048100000F0010023F4004343EAC030106008793F
:10482000116800F0030021F4403141EA00401060BB
:104830007047136923F44073184310614878136973
:1048400060F3061313618878136960F383031361BF
:10485000C878136900F0010023F4004343EAC03034
:1048600010610879116900F0030021F4403141EA38
:104870000040106170470000D0E9001CB0F908202A
:10488000A1EB0C0393420FDA80B5B0F90AE0CEF148
:104890000002934204DAACEB0E028A42C8BF114612
:1048A000BDE880404160704762448A42B8BF11460B
:1048B0004160704743F6A401C4F202010A6800F0A7
:1048C0000F0042F030020A6051F89C2C22F0F002F6
:1048D00042EA001041F89C0C086820F030000860A3
:1048E0007047000043F60801C4F202010A6800F0B4
:1048F000070022F4E05242EA80200860704700007E
:1049000043F60801C4F202010A6800F0070022F42D
:10491000604242EA403008607047000043F6A4015C
:10492000C4F202010A6800F0070022F4E04242EA01
:10493000003008607047000043F6A401C4F2020191
:104940000A68012822F0300208BF30320A6070473E
:10495000042888BF7047DFE800F0032B15220C0005
:1049600043F60000C4F20200026861F30002026034
:10497000704743F60000C4F20200426F61F3000288
:104980004267704743F60000C4F20200026801F07B
:10499000010122F0807242EA01610160704743F632
:1049A0000000C4F20200026F61F300020267704768
:1049B00043F60000C4F20200026801F0010122F493
:1049C000803242EA0141016070470000B0B543F611
:1049D0000404C4F202046268C2F3810241F20021BD
:1049E000C0F27A01DFE802F002131E3CD4F89C20EA
:1049F000520446F60042C0F2DC2258BF0A4602606A
:104A0000D4F8A010C1F3024122FA01F128E043F2E8
:104A10000061C0F26E110160D4F8A020C2F3C2425E
:104A2000D1401DE022682368520243F20062D4F8AC
:104A300000C02568C0F26E12C3F3881358BF0A463F
:104A4000A2FB0331C5F3024213A5AA5C0CF00F05CB
:104A50006A43054618460023FBF7CCFB014628466F
:104A6000016061680EA2C1F30311515C026848F64F
:104A7000F80322FA01F141606268C0F60003C2F354
:104A800082229A5C21FA02F2C2606268C2F3423268
:104A90009A5CD1408160B0BD010204081020000082
:104AA00000000000000000000102030406070809DE
:104AB00043F60002010CC4F20202895800F01F0004
:104AC00021FA00F000F001007047000043F60000FA
:104AD0000021C4F2020000BF0268920304D4B1F5C1
:104AE000405F01F10101F7D30068C0F34040704717
:104AF00043F6000200F01F034FF0010CC4F2020263
:104B000001290CFA03F14FEA1040835814BF23EA3D
:104B1000010119438150704710B543F6040CC4F2EB
:104B2000020CDCF800E000F001042EF4800040EA02
:104B30008450CCF80000DCF8000061F38E10CCF853
:104B40000000DCF8000003F0070162F30300CCF87A
:104B50000000DCF8000020F4E02040EA0140CCF83E
:104B6000000010BD43F60000C4F20200D0F8A4100B
:104B700041F03001C0F8A410016841F0010101606A
:104B800001688907FCD5816821F00301816000BFBD
:104B9000816811F00C0FFBD101684FF6FF72CFF660
:104BA000F262114001604FF08041816043F20201E6
:104BB000C0F2030141604FF47121C0F8A0104FF41E
:104BC0001F01C160D0F8A41021F03001C0F8A4107A
:104BD0007047000043F6A401C4F202010A6842F0E3
:104BE00030020A6051F89C2C60F3010241F89C2CC1
:104BF000086820F0300008607047000043F60800A5
:104C0000C4F202000068C0F3810070470000000099
:104C10002DE9F04F81B02DED048B82B00446808BDE
:104C20009FED671A00EE100AB8EE400A80EE010A06
:104C300010EE100AFBF706FD94ED040B02460B463E
:104C400051EC100BFBF7E0FBFBF70FFD0646D4E938
:104C50000001A66191ED000AB0EE081A90ED008AFD
:104C600020EE011A81EE081A9FED562AE08B82EEA3
:104C7000011A02EE100AB8EE422AB4EE421AF1EE20
:104C800010FAC2BFBDEEC11A11EE100AE083E18B2B
:104C9000208C814288BFE083E08B01EE100AB8EEE1
:104CA000419A20EE090A10EE100AFBF7CBFC94EDB6
:104CB000020B02465AEC10BB0B4658465146FBF716
:104CC000A3FB054630460F46FBF7BCFC064689466B
:104CD0002846394632464B46FBF708FC41EC100BA0
:104CE0000546884684ED0A0B03F0AAFB03F028FC76
:104CF00053EC102B9FED300B51EC100BCDE9000164
:104D0000FBF77CFBFBF77FFC0F270F2828BF3846FB
:104D10000121A08701FA00F0FBF768FC02460B4670
:104D200028464146FBF770FBFBF76DFC28EE090AAD
:104D3000208710EE100AFBF785FC02460B4658460A
:104D40005146FBF761FB32464B46FBF7CFFB05466E
:104D5000606A0E46FBF739FC02460B462846314690
:104D6000FBF7C4FB41EC100B05460E4684ED0C0B23
:104D700003F066FB03F0E4FBDDE9000153EC102BCC
:104D8000FBF73CFBFBF73FFC0F2838BF0746012031
:104D9000B840E787FBF72AFC02460B462846314617
:104DA000FBF732FBFBF72FFC608702B0BDEC048BF6
:104DB00001B0BDE8F08F00BF0000000000002A40F5
:104DC00000F07F454CBE8C402DE9F04381B040F2AD
:104DD0005036C2F2000632780D46102A044642D8F8
:104DE00040F2543840F2563940F25237C2F20008CD
:104DF000C2F20009C2F2000703E000BF30781028B9
:104E000031D8206B04E000BF3078411C206B31703A
:104E10000421FEF7B5FC0028F0D0206B0421FEF73A
:104E2000ABFC30780028EFD035B1206B0021FFF7C4
:104E3000FBF8398808443880022D08D3206B012103
:104E4000FFF7F2F8B8F800100844A8F80000032DA6
:104E5000DAD3206B0221FFF7E7F8B9F80010084415
:104E6000A9F80000D0E740F25230012DC2F2000054
:104E700011D0032D13D140F254310088C2F2000149
:104E800009880009E0840809208540F256302A216B
:104E9000C2F2000000E02C210088000960520120CD
:104EA00001B0BDE8F0830000F0B583B00025C4F286
:104EB000020504460020A5F58036CDE90000304605
:104EC000002102F0DDFB3046002102F009F96E46B8
:104ED000304600F05DFC01208DF806004FF4807034
:104EE00000902846314600F05BFC2846082101224C
:104EF00000F094FC4FF4007000902846314600F01A
:104F00004FFC28460921012200F088FC4FF4806004
:104F100000902846314600F043FC28460A21012231
:104F200000F07CFC802005F5806700903846314613
:104F300000F036FC38460721012200F06FFC4FF4E8
:104F4000805000902846314600F02AFC28460C216B
:104F50000A2200F063FC402000903846314600F001
:104F60001FFC38460621012200F058FC28464FF469
:104F70008071002200F006FC28464FF400710022E8
:104F800000F000FC28464FF48061002200F0FAFB9C
:104F900038468021012200F0F5FB28464FF480516D
:104FA000012200F0EFFB38464021012200F0EAFB2D
:104FB0002046062140F2654202F01EF820460121FB
:104FC00002F05EFB2046012102F08AF803B0F0BD3A
:104FD00010B54021C4F20101096804464E2907D3E7
:104FE000206B0021FFF720F8A18D401AC00005E0DA
:104FF000B4F90600B4F908104843C00BE080608F94
:10500000B4F9061094F83E204843C2F10F01B4F8F9
:10501000462008415043208010BD000047F208415F
:10502000C4F200010A6860F305020A6070470000DC
:1050300047F200420228C4F2000207D0012818BF3C
:105040007047106861F3000010607047106801F04D
:10505000010120F4803040EA0140106070470000F8
:1050600047F200420228C4F200020BD0012818BF08
:105070007047106801F0010120F0020040EA410091
:1050800010607047106801F0010120F4003040EA20
:105090004140106070470000B0B500210446002573
:1050A00002F0EEFAA06947F270018843A061E0695E
:1050B000202120F07000E061204602F027F8C4E9CA
:1050C0000D55E5632564B0BD026861F3000202601E
:1050D00070470000406880B2704700004160704730
:1050E00000210182C0E90011C0E9021170470000EF
:1050F000D0F8003143F00103C0F80031086862F3D2
:10510000060008607047000002684BF6EF731A4013
:1051100002600A8903681A4302604A7C036802F04D
:10512000030223F4405343EA02320260CA7B03685D
:1051300002F0030223F4406343EA822202608A7B86
:10514000036802F0030223F4407343EA0222026080
:105150004A7B036802F0010223F0800343EAC21293
:1051600002600A7B036862F3861303600A7C0368AB
:1051700062F3451303604A89436842600A688260AB
:105180004968C16070470000002A02680CBF22EA2B
:105190000101114301607047016800F0FC024CF608
:1051A000CD43083ACCF6CC43A2FB032321F0010106
:1051B0000160002146F20402016041608160C1602B
:1051C0006FF00300C4F2020200EA93000F2113689B
:1051D00001FA00F018431060704700002DE9F04319
:1051E00085B046F21C04C4F202042046FFF7D4FF47
:1051F0006D462846FFF774FF40F22E20C0F20010E3
:10520000CDF80A001020ADF8080040F2C470C2F2D8
:10521000000044F204480190C4F200084FF0000975
:1052200020462946CDF80080CDF80E90FFF76CFFA0
:10523000A4F11C0604F1EC0130461B22FFF758FFD5
:10524000204602210022FFF79FFF04F11407384691
:10525000FFF7A2FF2846FFF743FF0C20C0F2001023
:10526000CDF80A0041F22C10C2F20000CDE9008016
:1052700038462946ADF80890CDF80E90FFF744FF68
:1052800004F1F00130461A22FFF732FF38460221BE
:105290000022FFF779FF05B0BDE8F083D0F80021C8
:1052A00061F30002C0F80021704700000A7803682B
:1052B00062F3040303604A78036802F0030223F4F4
:1052C000C02343EA42420260D1F804C04FF478029E
:1052D000036802EBCC42D20C62F3D7430360097A35
:1052E000026801F0010122F4803242EA01410160CA
:1052F000704700000021017241600180704700008A
:10530000026861F3060202607047000040F22A3032
:10531000C2F2000040F24C318088C2F200010978EC
:105320007C38052900B210D0042918BF70477C28AA
:1053300021DB40F2B841C0F20401484340F2B00121
:10534000C00BC2F2000148800EE07C281FDB400049
:1053500080B24BF62D614843642101EBD03041F21D
:10536000D401C2F20001086041F2E500C2F200007F
:1053700001210170704740F2B000C2F2000000212C
:10538000418041F2E500C2F20000017070470D2833
:1053900006DB41F2D400C2F20000642101607047D4
:1053A00041F2D400C2F2000000210160E9E70000F0
:1053B00043F61040C4F20200016841F08001016030
:1053C0007047000043F60C41C4F202014A6842F003
:1053D00002024A608860486840F0400048600868FF
:1053E000C0070AD1086840070AD40868C0064FF011
:1053F000020058BF032008BB04E00020F0B901E020
:105400000120D8B94FF080420868C0070AD1086867
:10541000400709D40868C0064FF0020058BF0320B7
:1054200003E000BF002000E00120A2F1010310B959
:10543000012A1A46E8D1002B08BF04204A6822F04E
:1054400002024A607047000043F6044040F2231114
:10545000C4F20200C4F26751016048F6AB11CCF609
:10546000EF5101607047000043F60C42C4F20202A3
:10547000536843F00103536001601068C0070AD10C
:10548000106840070AD41068C0064FF0020058BFE9
:10549000032008BB04E00020F0B901E00120D8B9E6
:1054A0004FF480111068C0070AD11068400709D472
:1054B0001068C0064FF0020058BF032003E000BF91
:1054C000002000E00120A1F1010310B901291946D3
:1054D000E8D1002B08BF0420516821F00101516080
:1054E000704700002DE9F04F83B09346884604468C
:1054F000FFF7AAFF04F1784040F2FF31A446830A87
:10550000C4F38707884340F29C34C7F5807600F1E6
:105510000065C2F20004B34538BF5E4630040CD0CB
:10552000002000BF17FA80F154F8211001311FD17B
:10553000013081B2B2B29142F4D31FFA86FABAF1C5
:10554000000F37D0CDE90183A8F10409D0466746A2
:10555000CDF800C059F8041F3846FFF785FFB8F1B1
:10556000010807F10407F5D1DDE900C821E000BF1B
:105570004FF0006000EB8320E1460293FFF722FF2B
:105580001FFA86FA04EB87000438A8F1040152469A
:1055900051F8043F013A40F8043FF9D1002700BF19
:1055A000E159E819FFF760FF0437B7F5806FF7D1CD
:1055B000CC46029BB0B21FFA8BF1814213D0ABEB09
:1055C000060B1FFA8BF6013308EB8A080CEB8A0CEA
:1055D000B6F5807F28BF4FF4807605F580650027FB
:1055E00030049DD1A9E703B0BDE8F04FFFF7E0BE5E
:1055F0004FF60040C0F60100007B7047F0B583B065
:10560000082046F2080442F20005C0F244000121DD
:10561000C4F20204C4F201050127FFF769FA284623
:105620000021FEF7A3F820460021FFF74DFD20469C
:105630000321FFF753FD0DF106063046FEF77EF815
:105640004FF48060ADF8060030468DF80B70FEF721
:1056500035F828460221FEF7FDFA284611210122DD
:105660000723FEF701FB2846112102220723FEF73C
:10567000FBFA284600210022FEF7E0FC2846002124
:10568000FEF7F8FCA868C0071BD128460121FEF7E9
:105690006DF800BF28464021FEF772F80028F9D0C7
:1056A0002846FDF7F7FF00BF2846FDF7F9FF002861
:1056B000FAD12846FDF7F8FF2846FDF7FBFF002842
:1056C000FAD128460421FEF757F828460121FEF7B3
:1056D000DBFC00BF28460421FEF752F80028F9D071
:1056E00028460121FEF7A0FC064628460421FEF7C5
:1056F00043F828460121FEF7C7FC00BF28460421D5
:10570000FEF73EF80028F9D028460121FEF78CFC70
:10571000074628460421FEF72FF828460021FEF709
:1057200025F8A868C0071AD128460121FEF71EF8FF
:1057300028464021FEF724F80028F9D02846FDF736
:10574000A9FF00BF2846FDF7ABFF0028FAD1284685
:10575000FDF7AAFF2846FDF7ADFF0028FAD1204645
:105760000121FFF7B1FCB81944F200014008C0F272
:105770007411B1FBF0F040F25801C2F20001C8848C
:1057800003B0F0BD1823002A08BF2823C15070477A
:105790004FF6FF714FF08072C0E9001270470000B1
:1057A0000A88002A08BF7047F0B500234FF0030CA9
:1057B0004FF0010E002405E0520804F1010403F14A
:1057C000020327D0D507F7D006680CFA03F5AE43DD
:1057D00006608E7907689E403E43066046680EFA72
:1057E00004F7BE4346600E794768A6403E434660D4
:1057F0008668AE438660CE7987689E403E43866069
:10580000C66826EA0505C5604D79C6689D403543E2
:10581000C560D1E7BDE8F0407047000080B51C23AB
:1058200003EA810302FA03FE24224FF00F0C082939
:1058300038BF202281580CFA03F3994341EA0E0144
:10584000815080BDF0B584B040F29C724AF6AB2422
:105850000021C2F200026FF00103CAF6AA246E46CC
:10586000ADF80C100291CDE9001100BFA1FB0405B9
:1058700025F00300C0EB950032F82000F518023344
:1058800001310C2B02F102026880EFD140F20821B5
:105890006FF00102C2F20001B0188388C788408807
:1058A000023201EB4305082A21F81370E881F3D195
:1058B000BDF80000BDF8022001EB400321F81020E4
:1058C00040F27410C2F2000090F9030048F62A1268
:1058D000C0EBC000C0F6000202EB4002BDF80A10A7
:1058E0005088D98136F8100040F29021C2F20001B0
:1058F0004FF4C04541F83050958801EBC0034FF09C
:10590000500CC3F804C040F2C82336F81550C2F258
:1059100000034FF48A6443F8204001EBC5004FF0C8
:10592000000EC0F804E0D08846F2500436F81000AB
:1059300041F83540542443F8254001EBC00560246C
:105940006C60158940F2045736F8155041F830C0A4
:1059500043F8207001EBC500446050894FF4A04724
:10596000928941F835704FF4A86736F8100043F873
:10597000257045F2600736F8122041F8307045274F
:1059800001EBC00543F8207001EBC200C5F804E04C
:10599000C0F804C040F2054041F8324043F822000C
:1059A00004B0F0BDF0B581B018250024C4F20205A2
:1059B0004FF48066022700BF4FF4FA70C5F81064F8
:1059C0002F6100F071F94FF4FA70C5F800642F6090
:1059D00000F06AF9022C04F10104EDD301B0F0BD2E
:1059E000F0B583B00120C0F230000121FFF780F84C
:1059F0004FF440100121FFF77BF801AC2046FFF780
:105A0000C7FE00200025C0F20110C4F2020502907A
:105A10004FF4806605F5806021460196FFF7C0FED1
:105A20000227284621460197FFF7BAFEC5F81864F9
:105A3000AF6103B0F0BD00008161704781627047C3
:105A400042695140416170472DE9F0470446B0F981
:105A50000400FAF7BAFD054620680E46FAF7B5FDD0
:105A600002460B4628463146FAF740FD9FED140BDF
:105A7000814653EC102B8A46FAF71FFC9FED120B60
:105A80000746884656EC105B284631463A46434660
:105A9000FAF72CFDFAF7B7FDE080484651462A4652
:105AA0003346FAF7B1FC3A464346FAF71FFDFAF7D8
:105AB000AAFD20810020A061BDE8F08700BF00BFE3
:105AC000000000000000F03F00000000C0FFDF40C9
:105AD000B0B50246B0F90600D2F810E0C417AEFB2C
